:020000040800F2
:1000000090E701203103000839030008A5340008F7
:100010003D0300083F030008410300080000000002
:100020000000000000000000000000004303000882
:100030004503000800000000731B0008217C000835
:100040004B0300084B0300084B0300084B03000858
:100050004B0300084B0300084B0300084B03000848
:100060004B0300084B0300084B0300084B03000838
:100070004B0300084B0300084B0300084B03000828
:100080004B0300084B0300084B0300084B03000818
:100090004B0300084B0300084B0300084B03000808
:1000A0004B0300089D7C00084B0300084B0300082D
:1000B0004B030008C97C00084B0300084B030008F1
:1000C0004B0300084B0300084B0300084B030008D8
:1000D0004B030008557E0008597E00084B030008BA
:1000E0004B0300084B0300084B0300084B030008B8
:1000F0004B0300084B0300084B0300084B030008A8
:100100004B0300084B0300084B0300084B03000897
:100110004B0300084B0300084B030008F57C000864
:100120004B0300084B0300084B0300084B03000877
:100130004B0300089D2D00084B0300084B030008EB
:100140004B0300084B0300084B0300084B03000857
:100150004B0300084B0300084B0300084B03000847
:100160004B0300084B0300084B0300084B03000837
:100170004B0300084B0300084B0300084B03000827
:100180004B0300084B03000800F002F800F0B2F83F
:100190000AA090E8000C82448344AAF10107DA45E2
:1001A00001D100F0A7F8AFF2090EBAE80F0013F082
:1001B000010F18BFFB1A43F0010318476009010043
:1001C000800901000A444FF0000C10F8013B13F0C5
:1001D000070408BF10F8014B1D1108BF10F8015BA0
:1001E000641E05D010F8016B641E01F8016BF9D193
:1001F00013F0080F1EBF10F8014BAD1C0C1B09D1EA
:100200006D1E58BF01F801CBFAD505E014F8016B5B
:1002100001F8016B6D1EF9D59142D6D370470000ED
:100220000023002400250026103A28BF78C1FBD8FF
:10023000520728BF30C148BF0B6070476E2900F0DD
:100240002E84702900F09D81662910F0EE816529C9
:1002500010F0EB81672910F0E8816129AFF300808D
:1002600003681B0A28BF41F08001692900F0108152
:10027000642900F00D81752900F00A816F2900F0D2
:100280002585782900F06981E92900F0C184E429F5
:1002900000F0BE84F52900F0BB84EF2900F0228530
:1002A000F82900F068810368DB0928BF41F080016C
:1002B000632900F03084732900F03584E32900F0CD
:1002C0007987F32900F07E87002070471FB510F072
:1002D000A7F900F075FB04000020002110F074F96C
:1002E000401C60600020002110F084F9E0601FBD18
:1002F00010B510BD00F08EFF1146FFF7E7FF0BF0C1
:10030000D5F901F059F803B4FFF7F2FF03BC07F089
:10031000E4FF0000EFF3108072B6704780F310889E
:100320007047EFF3108072B6704780F31088704703
:100330000948804709480047FEE7FEE7FEE7FEE779
:10034000FEE7FEE7FEE7FEE7FEE7FEE704480549B5
:10035000034A054B70470000417C000889010008F2
:1003600090E3012090E7012090E3012072B67047EE
:1003700062B67047EFF3108072B6704780F3108852
:10038000704730BF704720BF7047B0FA80F07047A9
:1003900090FAA0F0B0FA80F0704790FAA0F07047A1
:1003A0007047000010B500F00BFB001D10BD00BF32
:1003B000190201001CB50C46064B7B4469460090AF
:1003C000204600F086FB04460020694600F094FBBE
:1003D00020461CBD3B0700000FB4044910B503AA1A
:1003E000029800F0A5FB10BC5DF814FB280000206B
:1003F00070B5044685690068C10601D5302600E065
:100400002026C00707D070BDD4E9012130469047AF
:10041000206A401C20626D1EF6D570BD70B5044682
:1004200085690078C00707D170BDD4E9012120207B
:100430009047206A401C20626D1EF6D570BD70B5D5
:100440000C460546012A05D02878800600D5EA69C1
:10045000002302E0012305E05B1C934202D2E05C32
:100460000028F9D1A869E618C01AA861286A1844BA
:1004700028622846FFF7BCFF04E0D5E9012114F803
:10048000010B9047B442F8D32846FFF7C7FF70BD71
:100490002DE9F0410646002410687529314615A55E
:1004A00010D000F091FA002802DA404212A507E0CD
:1004B00031688A0701D511A502E0490704D510A5C6
:1004C000012401E000F089FA00210A2306F1240743
:1004D00007E0B0FBF3F203FB120030307854104613
:1004E000491C0028F5D123462A463046BDE8F04194
:1004F00000F07CBA000000002D0000002B0000007E
:1005000020000000F0B40D460188090502D5214CF9
:100510007C4402E01F4C7C440E34002100F1240690
:1005200008E002F00F071209E75D42EA03721B09B7
:100530007754491C52EA0307F3D1027800231207CB
:1005400004D5702D06D009B1022311342246F0BC27
:1005500000F04CBA01231034F8E770B504460D469C
:100560002146106800F039FA024629462046BDE8C7
:1005700070400023C6E7D21D22F00703D3E9002311
:10058000C0E70368126843F0200303600823C361D7
:100590000023B7E7B80401002DE9F05F894604465F
:1005A0004FF0000ADFF874B1FB44C0F820A02046E9
:1005B000E1688847002874D0252806D0D4E90121B5
:1005C0009047206A401C2062F1E700265F462046E3
:1005D000E16888472028054607DB312D05D27819C8
:1005E00010F8200C08B10643F1E7B00701D526F05A
:1005F0000406C4F81CA00027C4F818A02A2D09D0AE
:10060000284607F063FE38B304EB8708303DC8F88E
:10061000185019E059F8041B204604EB8702916139
:10062000E1688847012F054618D1E069002820DAE3
:1006300026F020061DE0D8F8180000EB800005EB3E
:1006400040003038C8F818002046E1688847054661
:1006500007F03CFE0028EED1012F0AD02E2D08D144
:100660002046E16888477F1C0546022F46F0200699
:10067000C4DBA069002803DA404246F00106A0610D
:10068000F00701D026F010066C2D0BD0682D09D094
:100690004C2D39D06A2D35D0742D35D07A2D33D0EC
:1006A00016E038E0E1682F4620468847B842054604
:1006B00009D16C2F26D04FF48060E16806432046B4
:1006C0008847054604E06C2F1AD04FF4807006432B
:1006D0000DB3A5F14100192802D8203546F4006673
:1006E0004A462946204626604E46FFF7A7FD80B1C0
:1006F00001280BD0F61D26F0070000F1080956E787
:100700004020E4E78020D8E70020D6E706F104097E
:100710004DE7284652E7206ABDE8F09F48040100F3
:1007200040EA010310B59B070FD1042A0DD310C86E
:1007300008C9121F9C42F8D020BA19BA884201D9C0
:10074000012010BD4FF0FF3010BD1AB1D30703D008
:10075000521C07E0002010BD10F8013B11F8014BBE
:100760001B1B07D110F8013B11F8014B1B1B01D1DA
:10077000921EF1D1184610BD10B5431C02E010F8CE
:10078000011B71B18107FAD14FF0013202C88C1AF6
:100790008C4314EAC211F9D0C01A0A0603D0C01E55
:1007A00010BDC01A10BD0A0401D0801E10BD090280
:1007B000FCD0401E10BD032A40F2308010F0030C24
:1007C00000F0158011F8013BBCF1020F624498BFA4
:1007D00011F801CB00F8013B38BF11F8013BA2F141
:1007E000040298BF00F801CB38BF00F8013B11F0BC
:1007F000030300F02580083AC0F0088051F8043B5C
:10080000083A51F804CBA0E80810F5E7121D5CBFC8
:1008100051F8043B40F8043BAFF30080D20724BFFB
:1008200011F8013B11F801CB48BF11F8012B24BF8F
:1008300000F8013B00F801CB48BF00F8012B7047DE
:1008400010B5203AC0F00B80B1E81850203AA0E86B
:100850001850B1E81850A0E81850BFF4F5AF5FEA9F
:10086000027C24BFB1E81850A0E8185044BF18C952
:1008700018C0BDE810405FEA827C24BF51F8043BF9
:1008800040F8043B08BF7047D20728BF31F8023B4D
:1008900048BF11F8012B28BF20F8023B48BF00F8E1
:1008A000012B70474FF000020429C0F0128010F0B5
:1008B000030C00F01B80CCF1040CBCF1020F18BF3C
:1008C00000F8012BA8BF20F8022BA1EB0C0100F0CF
:1008D0000DB85FEAC17C24BF00F8012B00F8012BA2
:1008E00048BF00F8012B70474FF0000200B51346D7
:1008F00094469646203922BFA0E80C50A0E80C5040
:10090000B1F12001BFF4F7AF090728BFA0E80C50F0
:1009100048BF0CC05DF804EB890028BF40F8042BE9
:1009200008BF704748BF20F8022B11F0804F18BF56
:1009300000F8012B704700004FF0013C50F8042BE9
:1009400051F8043B9A4221D1A2EB0C03934313EAE2
:10095000CC1317D150F8042B51F8043B9A4215D10F
:10096000A2EB0C03934313EACC130BD150F8042BE6
:1009700051F8043B9A4209D1A2EB0C03934313EACA
:10098000CC13DBD04FF00000704700BFD01A01BA83
:10099000B1FA81F101F0180122FA01F0CB40C1F166
:1009A0002001DBB2C0B2C01A2CFA01F3D11A914374
:1009B00011EAC311E6D1704770477047704770471E
:1009C0000048704750E3012009684A0501D540B24C
:1009D0007047C905FCD500B2704709684A0501D5C2
:1009E000C0B27047C905FCD580B270472DE9F04709
:1009F0000D4699469246044600F12408016888068F
:100A000004D5E06921F01001216000E00120A84236
:100A100001DD471B00E00027A1697A1902EB0900FC
:100A2000081AA0612078C00602D42046FFF7E0FC37
:100A3000002608E0D4E901211AF806009047206A50
:100A4000401C761C20624E45F4DB2078C0060AD597
:100A50002046FFF7CDFC06E0D4E901213020904785
:100A6000206A401C2062381EA7F10107F4DC07E071
:100A7000D4E9012118F805009047206A401C206243
:100A8000281EA5F10105F3DC2046FFF7C7FC2078FE
:100A9000000602D50220BDE8F0870120FBE71168BF
:100AA0000268006A530501D508700AE0D30501D534
:100AB000088006E0130603D5C217C1E9000200E072
:100AC000086001207047000001694A1C0261087833
:100AD000704700B58FB0CDE901310021059105497E
:100AE0007944CDE9031011466846FFF755FD0FB074
:100AF00000BD0000E5FFFFFF0A6802F8010B0A6075
:100B0000704710B5436913B1AFF3008001E0FFF700
:100B100096FC012010BD127800F124010A70002219
:100B20004A700122EDE711684FF0FF32E9E700005B
:100B3000074B70B50D467B44FFF7CBFF04462846B4
:100B400000F044FB10B14FF0FF3070BD204670BD87
:100B5000DB9700002DE9FF5F15468A460446DFF863
:100B6000AC80F8440027D8E900103E46CDE90010DB
:100B700010E03AF816106A4602A800F02BFB411C60
:100B800007D02178890603D5E269391891420DD83A
:100B90000744761C2078800602D5E069B84205DD5E
:100BA000AE42E6DB3AF816000028E2D1A069C01B8D
:100BB000A0612046FFF71CFCD8E90010CDE9001029
:100BC000002017E03AF818106A4602A800F002FB6D
:100BD000B0F1FF3F81460BD000250DF1080B05E079
:100BE000D4E901211BF8050090476D1C4D45F7D352
:100BF00008F10100B0428046E4DB206A38442062FC
:100C00002046FFF70BFCBDE8FF9F0000A2FE00009E
:100C10002DE9F0418046D21D22F007020025D2E9DD
:100C20000002F52914A612D0002A06DA0023D0EB20
:100C3000030063EB020211A608E0D8F800108B074E
:100C400001D50FA602E0490701D50EA601251146E0
:100C5000002408F1240704E000F052F830323A553D
:100C6000641C50EA0102F7D12B4632462146404629
:100C7000BDE8F041FFF7BABE000000002D00000003
:100C80002B0000002000000030B4002100F12404FB
:100C900008E002F00705D208303542EA4372DB086B
:100CA0006554491C52EA0305F3D10468002310A2DD
:100CB000250708D504F020040C4304D0C46901239F
:100CC0000CA2641EC46130BCFFF790BE10B5044690
:100CD00021461068FFF781FE02462046BDE810401D
:100CE0000023D1E7D21D22F00701D1E90023CBE791
:100CF00000000000300000000048704730E3012091
:100D000030B5B0F10A024FEA900E71F100034EEADD
:100D1000817EB0EB0E0061EB91014FEA101E4EEAAE
:100D2000017E10EB0E0041EB11114FEA102E4EEA3E
:100D3000016E10EB0E0041EB11214FEA104E4EEA0E
:100D4000014E10EB0E0041EB1141401841F1000142
:100D50004FEAD00040EA41704FEAD10110EB800524
:100D60004FEA810444EA907444EB01046D1944EBAA
:100D70000404521BA3414FF0000348BF0A3200D5C0
:100D800030BD401C41F1000130BD70472DE9FF4FDF
:100D90000C461E464FF0FF378BB0D2E90001DDF85C
:100DA00060800A908A46C1F30A5505B93D46002184
:100DB00008464FF00000BAF1000F00F4400005DAD9
:100DC00000EB80004FF4400101EA50004FEA9059D7
:100DD000B9F1010F00DDB9460A9850EA4A000ED079
:100DE00044F61050A5F2FF3545432F14B8F1000F1B
:100DF0001ED07542291E1EDDC9F100021CE0B8F1AB
:100E0000010F4FF0000001D0302103E0F24305E074
:100E10002154401CB042FBDB30460022002121540B
:100E20000B99C1F80880C1E900200FB0BDE8F08F30
:100E3000BD1B6D1CDEE74A4600DA694206A800F0D9
:100E40004FFA06AB93E8070003AB83E80700504670
:100E50000A9900F0B7FA8DE80700A0F500501F3896
:100E600000900398002D09DD42F21F014A46084414
:100E700003A90390684600F016FD08E0A0F50050B5
:100E80004A461F3803A90390684600F020FD8DE80C
:100E900007000004000C03D04FF0FF30410800E0D1
:100EA0001046B8F1000F03D00022009215461EE054
:100EB000751E05D4FFF724FF303262556D1EF9D53B
:100EC000B3460122084302D000227F1C04E02078B0
:100ED000302801D100227F1E002A099786D01DE00C
:100EE000112D07DAFFF70CFF303262556D1C50EA06
:100EF0000102F5D1084302D00098C8B10EE00021EC
:100F0000681E05E0235C625C63542254401E491C49
:100F10008142F7DBAB46A81B401E0990002004F875
:100F20000B000B98099AC0F80880C0E9002B7CE7F9
:100F300011264FF0000859E72DE9F04F8846044686
:100F4000D21D22F0070191B0D1E90001CDE90A01DB
:100F500007F0A4F902460B98C00F01D02D2007E03E
:100F60002068810701D52B2002E0202101EAC00082
:100F7000032A099001D0072A05DB03464146204693
:100F800000F06EF909E12078800601D5E06900E003
:100F90000620B8F1650F814606D0B8F1660F18D06B
:100FA000B8F1670F70D131E00020B9F1110F009056
:100FB00001DB112301E009F101030AAA01A90CA830
:100FC000FFF7E4FEDDE90C70002609F10105834618
:100FD00047E001204B4600904FF000470AAA01A9C4
:100FE0000CA8FFF7D3FEDDE90DB00C995D46002695
:100FF00010B909F101000D18B9EB050003D4C0F1D7
:10100000FF3609F10105A5EB09002BE0B9F1010F4D
:1010100001DA4FF001090020B9F1110F00904846A4
:1010200001DD112300E003460AAA01A90CA8FFF77D
:10103000ADFEDDE90C704D460026834620780007A2
:101040000AD4AB4500DA5D4601A8012D04DD411943
:1010500011F8011C302907D04F4502DA17F1040FAF
:1010600004DA012082460FE06D1EEEE7002F02DC5D
:10107000ED1B3E4403E0781CA84200DD7D1CB81B3C
:1010800000F1010A4FF000472078000703D4AA4579
:1010900001DB4FF0FF3A0021B7F1004F0DF143089B
:1010A0008DF8431022D002202B23002F01DA7F423B
:1010B0002D234FF00A0C011EA0F1010000DC47B106
:1010C00097FBFCF10CFB11720F46303208F8012D32
:1010D000F1E7A8F1010003702188090501D5452138
:1010E00000E06521A0F1010800F8011C09980FA992
:1010F000A1EB0807FF1D00B10120411901EBEA70C7
:10110000A1693844081A401EA0612078C00602D4A4
:101110002046FFF76DF9099828B1D4E901219047DD
:10112000206A401C20622078C00622D52046FFF7A6
:101130005FF91EE0002E04DBB34502DD01A8805DEF
:1011400000E03020D4E901219047206A401C206251
:10115000761CAAF101005FEA000A0AD1FFF730FC11
:10116000C0680168405CD4E901219047206A401CB6
:101170002062281EA5F10105DCDC07E0D4E901218D
:1011800018F8010B9047206A401C2062381EA7F116
:101190000107F3DC2046FFF741F9022011B045E6D4
:1011A00010B5436913B1AFF3008001E0FFF7D2FC43
:1011B000012010BD128800F1240182840022C28423
:1011C0000122EDE711684FF0FF32E9E7007B00F004
:1011D0008000704770B516460C460546FFF7E2F8EA
:1011E000036893F80101012806D0FF2C0FD8185D81
:1011F00068B101202C7070BDD3F80701324621463A
:1012000003442846BDE8704003F2071318474FF027
:10121000FF3070BD7546FFF76FFDAE4605006946AD
:10122000534620F00700854618B020B5FFF78EF82A
:10123000BDE820404FF000064FF000074FF00008D7
:101240004FF0000B21F00701AC46ACE8C009ACE858
:10125000C009ACE8C009ACE8C0098D467047000081
:101260002DE9F0411F46044603260168072A01F4D0
:10127000006004DB08B116A505E016A503E008B17F
:1012800015A500E015A521F010002060A069C01E82
:10129000A0610FB1401EA0612046FFF7A9F84FB131
:1012A000D4E9012138469047206A401C2062C01CC6
:1012B000206206E0206AFAE7D4E9012115F8010B63
:1012C0009047761EF8D22046FFF7A8F8BDE8F081D7
:1012D0004E414E006E616E00494E4600696E6600DA
:1012E0002DE9F047814616468AB0324878440DC849
:1012F0008DE80D002F487844801C03AC0DC884E8AD
:101300000D0041F69B303722014491FBF2F0A0F131
:10131000800502FB10141B3C02D56442012000E052
:101320000020DFF890A080460027FA44AAF1BA0A0C
:101330000DE0E00709D03246684607EB47010AEBAB
:10134000810100F0C4FA8DE8070064107F1C002CB6
:10135000EFD1184F7F44A83F18E0E80714D007EBFF
:1013600004100DF1180A90E80E008AE80E00C0681B
:10137000F04201D198190890324606A903A800F05E
:10138000A6FA03AB83E807006D10641C002DE4D1BE
:1013900032466946B8F1000F03A802D000F083FA84
:1013A00001E000F094FAC9E90001C9F808200AB088
:1013B000BDE8F0879CF700000446AFF300802046AC
:1013C000FEF7A1FF5FEA400C08BF91F0000F4FEA63
:1013D0008C234FEAC12243EA51514FEA1C5018BFF7
:1013E00000F5F0404FEA300018BF41F000415FEADD
:1013F0006C5C00F02980BCF1FF3F08BF40F08040EA
:101400007047130C06BF12044FF0100C4FF0000C85
:10141000130E04BF12020CF1080C130F04BF1201CB
:101420000CF1040C930F04BF92000CF1020CD30FCB
:1014300004BF52000CF1010C11464FF00002A0F164
:101440001F00A0EB0C00704711F0004F08BF704761
:1014500031F000413FF4D5AF0B0C06BF09044FF04B
:10146000100C4FF0000C0B0E04BF09020CF1080C1D
:101470000B0F04BF09010CF1040C8B0F04BF890092
:101480000CF1020CCB0F04BF49000CF1010CCCF1A4
:101490002003A0EB0C0022FA03F302FA0CF241EA5B
:1014A000030100F10100704720F07F4C80EA030047
:1014B00023F07F47ACEB070303F57C5300F00040BB
:1014C00003F1FF032DE980494FEA154B09B44FEAB8
:1014D000144325EA0B4E24EA03480FF2042606EBD8
:1014E000132749083E785FEA320203FB0667C7F517
:1014F000000707FB06F64FEA54374FEAD64606F1D7
:10150000020607FB066CCCF1005C4FEA1C472CEA94
:10151000074C07FB06F40CFB06F504EB15464FEAF7
:10152000961634BF00204FF000404FEAD13706FB3B
:1015300007FC4FEA1C4C0CFB0BF7D21B03FB0CF710
:1015400061EB07010CFB0EF7B0EB074072EB1742A3
:101550000CFB08F734BFA2EB0742B2EB074261EB8A
:1015600017414FEA0C444FEA910706FB07FC4FEA8C
:101570001C4C0CFB0BF7B0EBC74072EB573203FB74
:101580000CF734BFA2EBC742B2EBC74261EB573155
:101590000CFB0EF7B0EBC70072EB57720CFB08F7B1
:1015A00034BFA2EBC702B2EBC70261EB5771039FD6
:1015B0004FEA816141EA921104EBCC044FEAD13742
:1015C0004FEA826206FB07FC42EA90124FEA806013
:1015D0004FEA1C4C0CFB0BF7D21B03FB0CF761EB27
:1015E00007010CFB0EF7B0EB074072EB17420CFB48
:1015F00008F734BFA2EB0742B2EB074261EB174199
:101600004FEA8C554FEA910704EB9C2406FB07FC3C
:101610004FEA1C4C0CFB0BF7B0EBC74072EB573298
:1016200003FB0CF734BFA2EBC742B2EBC74261EB3E
:1016300057310CFB0EF7B0EBC70072EB57720CFB87
:1016400008F734BFA2EBC702B2EBC70261EB5771D8
:1016500015EB4C254FEA816141EA92114FEA826213
:101660004FEAD13742EA901206FB07FC44F100042E
:101670004FEA80604FEA1C4C0CFB0BF7D21B03FBBC
:101680000CF761EB07010CFB0EF7B0EB074072EBB8
:1016900017420CFB08F734BFA2EB0742B2EB07423C
:1016A00061EB174115EB1C154FEA813141EA92417C
:1016B0004FEA823242EA90424FEA80304FEA0C769B
:1016C00044F1000448EA03434EEA0B484FF0000E91
:1016D000B2EB080C71EB030724BF624639464EEBB0
:1016E0000E0E4FF0000B0018524149414BEB0B0B13
:1016F000B2EB080C71EB03077BF1000B24BF6246D1
:1017000039464EEB0E0E4FF0000B00185241494186
:101710004BEB0B0BB2EB080C71EB03077BF1000BEF
:1017200024BF624639464EEB0E0E51EA020718BF3F
:1017300046F0010616EB0E7655F1000254F1000159
:1017400003D5BDE88901BDE80088BDE88901B61967
:10175000BDE80048524141EB0101A3F1010370478C
:1017600080807F7E7D7C7B7A7978777676757473DE
:10177000727171706F6E6E6D6C6C6B6A6A6968689D
:10178000676666656464636362616160605F5F5E33
:101790005E5D5D5C5C5B5B5A5A59595858575756A9
:1017A000565555555454535352525251515050500E
:1017B0004F4F4F4E4E4D4D4D4C4C4C4B4B4B4A4A60
:1017C0004A494949484848474747474646464545A4
:1017D00045444444444343434342424242414141DD
:1017E000002B26D4770021D01CB54FEA370703B46D
:1017F0004FF010004FF010014FF000000FBC0BF144
:10180000010BBDE81040BBF1010F08BF5FEA1707ED
:1018100022BF12F1010211F101014FF0004143F129
:10182000000300F0004043EA00007047F9D3570876
:10183000DAE746EA064613F1400F4FEA16461FDD87
:1018400013F1200FDFBF16430A46002120335B420D
:10185000C8D0C3F1200746EA064602FA07F74FEA66
:10186000164646EA0706C3F1200722FA03F201FAF8
:1018700007F721FA03F14FF0000342EA0702B1E74C
:1018800046EA020646EA06464FEA164646EA0106D8
:10189000BCBF46EA0646360C4FF000034FF000028C
:1018A0004FF000019EE72DE9C048934630B491E81F
:1018B000380007C831EA400C48BF34EA430C03D56E
:1018C000FFF7F2FDFFF78CFFF0BCBDE800882DE9C3
:1018D000C048934630B491E8380007C810F0804FF4
:1018E00008BF13F0804F03D100F005F8FFF778FF31
:1018F000F0BCBDE8008820F07F4780EA030023F0B9
:101900007F4C07EB0C03A3F57C5300F00040A3F1E0
:10191000FE0392F0000F00F0B38095F0000F00F08E
:1019200077802DE901494FEA11404FEA144621EA38
:10193000004800FB06FC24EA064708FB06F607FB06
:1019400008F800FB07F718EB06484CEB164C4FEA7B
:10195000124B18EB07484FEA15464CEB174022EAAA
:101960000B4E0BFB06FC25EA06470EFB06F607FBB3
:101970000EFE0BFB07F71EEB064E4CEB164C4FF022
:1019800000061EEB074E4CEB174B18EB0B0840F113
:10199000000018EB0E0B58EB000840F100008F1A06
:1019A0004FF000013CBFC943661B14BFB5EB040CEC
:1019B00000213CBFC943F61B4FEA17444EEA8E0E86
:1019C00027EA04454FEA1C4704FB07622CEA074C50
:1019D00005FB07F70CFB05F604FB0CFC16EB0746B2
:1019E00042EB174216EB0C4642EB1C421BEB060681
:1019F00058EB0202414146EA9E0601D5BDE8018945
:101A0000B619524141EB0101A3F10103BDE801897F
:101A10004FEA14454FEA114724EA054621EA074CEC
:101A200005FB07F406FB07F70CFB06F105FB0CFCB6
:101A300011EB074144EB17444FEA124711EB0C41FD
:101A400044EB1C4422EA074C05FB07F206FB07F7B0
:101A50000CFB06F605FB0CFC16EB074642EB1742A7
:101A600016EB0C4642EB1C456A1854F1000148BFC6
:101A70007047B619524141EB0101A3F101037047D0
:101A800095F0000F37D04FEA11424FEA144721EA90
:101A9000024624EA074C02FB07F106FB07F70CFBA2
:101AA00006F402FB0CFC14EB074441EB17414FEA30
:101AB000154714EB0C4441EB1C4125EA074C02FB93
:101AC00007F506FB07F70CFB06F602FB0CFC16EB12
:101AD000074645EB174516EB0C4645EB1C42121921
:101AE00051F1000148BF7047B619524141EB010165
:101AF000A3F1010370474FEA14454FEA114724EA66
:101B0000054621EA074C05FB07F106FB07F70CFB2E
:101B100006F24FF0000605FB0CFC12EB074241EB0E
:101B2000174112EB0C4251EB1C4148BF7047921811
:101B300041EB0101A3F101037047000022484FF679
:101B4000FF710170002080F309882048016881F34B
:101B500008881F484FF08051016062B6FEE71C48BC
:101B60004FF080510160704719484FF0805101607B
:101B7000704772B6EFF3098050B11EF0100F08BF26
:101B800020ED108A203880E8F00F124909680860BB
:101B900000B5114880475DF804EB104810490A78F9
:101BA00002700C480F490A680260106890E8F00F54
:101BB00020301EF0100F08BFB0EC108A80F30988A7
:101BC0004EF0040E62B6704722ED00E028010020BE
:101BD00004ED00E0F0010020614A000882010020CD
:101BE00083010020F40100201CB50121084604F007
:101BF00069FF2020009001208DF8040003218DF85A
:101C0000051000218DF80610054C8DF80700694677
:101C1000204601F0C1FB2021204601F009FC1CBD3B
:101C2000000002401FB5684604F094FF019804B01C
:101C300010BD0000044910B50020086000F01CF839
:101C4000BDE8104000F002B82401002010B5FEF7F6
:101C500091FB04461021044801F093FD2046BDE8A5
:101C60001040FEF78BBB0000B0C70120014908609F
:101C7000704700002401002010B5FFF7D3FF08498A
:101C80000A6842F080720A60064900224A600A68C7
:101C900042F001020A60BDE81040FFF7E7BF000014
:101CA000FCED00E0001000E00148406870470000D3
:101CB000001000E010B50346084A002052F820400A
:101CC00024689C4204D1141894F850408C4204D0EB
:101CD000401CC0B21428F1D3152010BDF80100201B
:101CE0002DE9F04F0746817E2E4C406889B00129CE
:101CF0000DD00521FFF7DEFF01460320621882F8B0
:101D0000500009B028A0BDE8F04FFEF765BB0321E5
:101D1000FFF7D0FF0646A1194FF0050981F8509052
:101D2000314625A0FEF758FB142E37D2002631E0AD
:101D30000024C6EBC601A3464FF0010A00EBC10820
:101D40008DF80BB00C208DF80A008DF814908DF8EA
:101D500015A00420ADF816001E2208EBC400ADF853
:101D60000420C16E90F87000CDF800B060F31F45FC
:101D70006AF30F25CDE90615012301A978680AF059
:101D800063FBC82006F030FB641CE4B2022CD7D3FE
:101D9000761CF6B20B48017AB142C9D809B0BDE849
:101DA000F08F0000F80100204E4F414154542E2E78
:101DB0002025640A0D000000414154542E2E202598
:101DC000640A0D002817002038B5054600F10A0402
:101DD00006A0FEF701FB0120E07100200090012326
:101DE0001822214668680AF02FFB38BD72656376B9
:101DF00020626561745F706B740A0D002DE9F84F05
:101E000006461A21002009F05DFEB07EDFF8189426
:101E100006F10A054FF008084FF0030B4FF0010AD6
:101E200010B1012839D056E23821002009F04AFECD
:101E30000446FEA0FEF7D0FA99F80800402208EB0D
:101E40008000608199F8080060841620E0844020BA
:101E5000E08185F807A085F811800220A87158203C
:101E60002880214605F11800FEF7A5FC002000900F
:101E700001235822294670680AF0E6FA02217068A8
:101E8000FFF718FF142803D2ED4A104480F850B031
:101E90002146002009F0E4FD1DE2687C052802D0FF
:101EA000012878D017E240F2273B5946002009F07C
:101EB00009FE04460027B846E2A0FEF78DFA4B461D
:101EC000C7EBC70003EBC001486D80B1C8EBC80C7D
:101ED0000CEB88102044CA6D82610A6E42631A6856
:101EE0000263896D816308F1010000F0FF087F1C27
:101EF000FFB20B2FE4D30520607484F807A04FF0E5
:101F0000020984F80690A4F800B0A4F812A0197A87
:101F1000A182A988A180D8465A4684F810A04FF023
:101F2000000B1F46CDF800B00123214670680AF06F
:101F30008BFA00230B20C0EBC00107EBC102516DEF
:101F4000A1B1C3EBC30101EB83112144D2F85CC002
:101F5000C1F818C0D2F860C0C1F834C0D7F800C0CA
:101F6000C1F830C0926D5B1C8A63DBB2401CC0B20A
:101F70001628E0D30520607484F807A084F8069042
:101F8000A4F80080A4F81290387A514642460B28F3
:101F900002D90B3801E00CE00020A082A888A080C4
:101FA0002174CDF800B00123214670680AF04CFA84
:101FB0006EE79E21002009F085FD044600200146C1
:101FC0004F4601EB410207EBC00302EBC102224482
:101FD000D3F80CC0C2F818C01B7CA2F81D30137FC8
:101FE000491C23F007039B1C401CC0B21377C9B2E5
:101FF0000428E6D3042001EB410207EBC00302EB07
:10200000C1022244D3F80CC0C2F818C01B7CA2F84D
:102010001D30137F491C23F007031B1D401CC0B259
:102020001377C9B20828E6D3C646B84657460023F8
:1020300040F22A294FF0020AC3EBC30008EBC000AC
:10204000426DE2B301EB410202EBC1022244D0F83F
:102050006CC0C2F818C090F870C0A2F81DC0B0F8EB
:102060005CC0A2F81FC082F8217092F81CC0491C05
:102070002CF0070C0CF1030C82F81CC0CAB202EB66
:10208000420101EBC2012144D0F874C0C1F818C06C
:1020900090F878C0A1F81DC0B0F85CC0A1F81FC0CE
:1020A00081F821A091F81CC0521C2CF0070C0CF1F7
:1020B000030C81F81CC0D2B202EB420100E035E013
:1020C00001EBC2012144D0F87CC0C1F818C090F8DF
:1020D00080C0A1F81DC0B0F85CC0A1F81FC081F895
:1020E00021B091F81CC0521C2CF0070C0CF1030C11
:1020F00081F81CC0D2B202EB420101EBC2012144C3
:10210000D0F884C0C1F818C090F888C0A1F81DC0EC
:10211000B0F85C00A1F81F00042081F82100087FBE
:1021200020F00700C01C0877521CD1B26774E77119
:1021300084F806A0A4F8009098F808205B1C0EEB29
:102140008200A0822774DBB267820A2BFFF474AF8F
:102150000020009022880123214670680AF074F95B
:1021600000230A22C2EBC20008EBC000416DE1B3BC
:1021700003EB430101EBC3012144D0F86CC0C1F86B
:1021800018C090F870C0A1F81DC0B0F85CC0A1F8EC
:102190001FC081F8217091F81CC05B1C2CF0070C4B
:1021A0000CF1030C81F81CC0DBB203EB430101EB23
:1021B000C3012144D0F874C0C1F818C090F878C0A9
:1021C000A1F81DC0B0F85CC0A1F81FC081F821A023
:1021D00091F81CC05B1C2CF0070C0CF1030C81F86F
:1021E0001CC0DBB203EB430100E04EE001EBC30196
:1021F0002144D0F87CC0C1F818C090F880C0A1F884
:102200001DC0B0F85CC0A1F81FC081F821B091F8E2
:102210001CC05B1C2CF0070C0CF1030C81F81CC0DB
:10222000DBB203EB430117E02817002042554C4B6B
:102230005F4F5045524154452E312E0A0D0000008B
:10224000F801002042554C4B5F4F504552415445D8
:102250002E322E0A0D00000001EBC3012144D0F8FC
:1022600084C0C1F818C090F888C0A1F81DC0B0F8AB
:102270005C00A1F81F00042081F82100087F20F0F5
:102280000700C01C5B1C0877DBB26774E77184F839
:1022900006A0A4F8009098F8081050460A2902D920
:1022A0008900283900E00021A182521C2774D2B293
:1022B0006082162AFFF456AF002000902288012386
:1022C000214670680AF0C0F82146002009F0C8FBDA
:1022D00004A0FEF781F82946BDE8F84F002009F078
:1022E000BFBB000042554C4B5F4F504552415445D7
:1022F0002E332E0A0D00000010B5044614210020D4
:1023000009F0E0FB0949608B40F22452C8804FF489
:10231000001106480A3404F030FF2146002009F07D
:102320009FFBBDE8104004F0C1BD0000281700204D
:102330002DE9F04106464021002009F0C3FB044688
:102340001021002009F0BEFB05460C21002009F0F9
:10235000B9FB1C21002009F0B5FB287806F1220802
:1023600020F07F00401C20F0800028700020687062
:1023700001276F800A224146281D0A3601F0EFF935
:1023800000F0F6FF174920600E220868401C086024
:10239000A080E771A77120890C2120F0030061F370
:1023A0008F002081294604F10A0001F0D8F90EA01F
:1023B000FEF712F840222146706905F045FA2146E1
:1023C000002009F04DFB2946002009F049FB414659
:1023D000002009F045FB3146BDE8F041002009F03E
:1023E0003FBB00005C000020574E65745F434F4EBA
:1023F0004649475F504B542E2E6F6B2E2E00000027
:102400002DE9F84F07464021002009F05BFB054607
:102410000A21002009F056FB04460421002009F09F
:1024200051FB06462021002009F04CFBB87EDFF866
:1024300030A30A374FF0040B4FF001084FF00009AA
:10244000012806D004284CD002287DD003287CD057
:1024500074E187F8078087F81190C2A0FDF7BCFFF0
:10246000307820F00700401C20F0F8003070032086
:102470007070207820F07F00113020F080002070F4
:1024800084F80190A4F8028084F8049084F8058010
:10249000A4F806B03068A06000F06AFF2860DAF89F
:1024A00000000C21401CCAF80000A88085F80780B5
:1024B00085F80680288920F0030061F38F002881C9
:1024C0002068C5F80A006068C5F80E00A068C5F865
:1024D000120078690028BBD04022294605F0B4F9E3
:1024E0002CE101F08BFAA3A0FDF776FF01F096FA3C
:1024F0003078042220F00700401C20F0F8003070F3
:10250000032070702078314620F07F00153020F0D5
:102510008000207084F80190A4F8028084F8049070
:1025200084F80580A4F806B004F1080001F017F95A
:1025300000F01EFF2860DAF80000401CCAF8000016
:10254000A88085F8078001E011E086E085F8068024
:1025500028890C2120F0030061F38F0028810A46AE
:10256000214605F10A0001F0FAF87869B4E707F1AD
:102570001C00009087F8078087F811903178484652
:1025800021F00701891C21F0F801317086F801B0B3
:10259000032171802178042221F07F01113121F083
:1025A0008001217084F80190A4F80280207184F8E1
:1025B0000580A4F806B0314604F1080001F0CFF818
:1025C00000F0D6FE2860DAF800000C21401CCAF8A2
:1025D0000000A88085F8078085F8068028890A46CB
:1025E00020F0030061F38F0061F38F002881214602
:1025F00005F10A0001F0B3F840222946786905F098
:1026000023F95F490020C0EBC00201EBC202526D0A
:1026100022B1401CC0B21628F5D38FE0C0EBC00336
:1026200001EBC3017A698A65009A00EB8000D269E8
:102630000A66544A0244CA65534A0244CA66524A68
:10264000521C02444A67504A921C0244CA674E4ACE
:10265000D21C1044C1F8840064E04CA0FDF7BCFE1D
:10266000307820F00700801C20F0F800307086F8E9
:1026700001B003207080207820F07F00133020F01C
:102680008000207084F80190A4F8028084F80490FF
:1026900084F80580A4F806B0A66000F069FE286002
:1026A000DAF800000C21401CCAF80000A88085F868
:1026B000078085F806802889402220F0030061F316
:1026C0008F0061F38F0028812068C5F80A006068D8
:1026D000C5F80E00A068C5F812002946786905F013
:1026E000B3F8274A79690020C0EBC00302EBC303AB
:1026F0009B6D8B421ED1C0EBC00002EBC000C0F846
:102700005890C0F86090C0F85C90C0F85490C0F841
:102710006C90C0F87490C0F87C90C0F88490107AE7
:10272000401E107240F224524FF40011144804F07D
:1027300024FD03E0401CC0B21628D5D32946002052
:1027400009F08EF92146002009F08AF9314600206F
:1027500009F086F93946BDE8F84F002009F080B944
:102760005C00002066696E645F6465762E2E2E0A1A
:102770000D000000746573742E2E2E2E0A0D0000BD
:1027800028170020007204000172120044454C45D5
:1027900054452E2E2E0A0D0070B5044600891228CD
:1027A00044D91421002009F08DF9207C04F10A0598
:1027B000801E102834D2DFE800F0183333142033A1
:1027C000080C2824331C10332C30204600F0BEF8AF
:1027D00026E0204600F036F922E02046FFF7F4FA22
:1027E0001EE02046FFF70CFE1AE02046FFF706FB2E
:1027F00016E02046FFF79CFD12E0204600F018F896
:102800000EE0204600F058F90AE02046FFF774FD7C
:1028100006E02046FFF764FA02E0204600F0F0F8F8
:102820002946BDE87040002009F01AB970BD0000CB
:102830002DE9F043054691B01821002009F042F936
:102840000C21002009F03EF905F10A0915F81E0FC8
:10285000012864D10A21002009F034F9044604213A
:10286000002009F02FF906460D207070287A70803C
:1028700001203070074660710420E080207820F04D
:102880007F00143020F0800020700020607067808E
:102890003068A06000F06CFD264900900868401C7C
:1028A0000860ADF80400BDF808000C2120F003001A
:1028B00061F38F008DF807708DF80670ADF8080091
:1028C0002068CDF80A006068CDF80E00A068CDF849
:1028D000120019496A680020C0EBC00301EBC30372
:1028E000DB6D934206D1C0EBC00001EBC000D0F815
:1028F000588003E0401CC0B21628EDD34022694640
:10290000404604F0A1FF297A0CA0FDF765FD2146A1
:10291000002009F0A5F83146002009F0A1F8494649
:10292000002009F09DF811B02946BDE8F0430020D1
:1029300009F096B85C000020281700204B45595F2D
:102940004354524C2E2E2025640A0D00F8B505463E
:10295000008967283FD96821002009F0B3F805F104
:102960000A04002660690127401C29D000F000FD00
:10297000616988421ED101216868FFF79BF9014611
:10298000142817D2144A02200A4482F8500013A0D7
:10299000FDF722FDE7716069A06000F04DFDA083A6
:1029A0004FF49C706082009601236822214668687B
:1029B00009F04AFD2146BDE8F840002009F050B872
:1029C0000BA0FDF709FD00F0D3FC60614FF08830EB
:1029D000A061E771E7E7F8BDF80100207265637652
:1029E000206C6F67696E5F706B7425640A0D000060
:1029F000726563762066696E645F706B740A0D00A1
:102A000038B505461421002009F05CF8688B05F103
:102A10000A04A0F57F41FF390CD109480123214662
:102A2000C08820820120E071002000902288686820
:102A300009F00AFD2146BDE83840002009F010B831
:102A400028170020F8B504461821002009F03AF8AC
:102A500004F10A0513A0FDF7BFFC0120E871002076
:102A60000090012318222946606809F0EDFC287CBB
:102A7000104E012860680ED00421FFF71BF91428BE
:102A800003D20321304480F850102946BDE8F840B5
:102A9000002008F0E5BF0321FFF70CF91428F4D259
:102AA0000421EFE772656376207374617475730AAD
:102AB0000D000000F80100202DE9F047044690B019
:102AC0001821002008F0FEFF1021002008F0FAFF76
:102AD0004FF0000ACDF800A004F10A0804F11E0628
:102AE000414662890123606809F0AEFC307B00F04A
:102AF0000F00042878D10C21002008F0E3FF0546E0
:102B00000421002008F0DEFF3D4FB3680446002199
:102B1000C1EBC102002007EBC20202EBC00CDCF8E3
:102B20006CC09C4502D1D2F8589003E0401CC0B262
:102B30000428F2D3491CC9B21629E9D3314805212A
:102B40001844B0FBF1F201FB12016078012761F338
:102B500087006070F1896180217820F0030021F006
:102B60000301491C217060702878042120F07F0047
:102B7000E98041306F7120F08000287085F801A055
:102B80006F802068A86000F0F3FB1F49009040228E
:102B90000868401C0860ADF80400BDF808000C216E
:102BA00020F0030061F38F008DF807708DF8067038
:102BB000ADF808002868CDF80A006868CDF80E0066
:102BC000A868CDF812006946484604F03DFEB6F903
:102BD0000E100EA0FDF700FC2946002008F040FF73
:102BE0002146002008F03CFF4146002008F038FF55
:102BF00010B03146BDE8F047002008F031BF0000BA
:102C000028170020008EEDFF5C0000205641525F27
:102C10004354524C2E2E2025640A0D000149486170
:102C20007047000000900240044A0029D16901D099
:102C3000014300E08143D1617047000000900240F1
:102C400005490028886902D040F0020001E020F028
:102C5000020088617047000000900240F0B5124FFA
:102C600000234FF0004C44F2F45E561E786013E0EF
:102C700000EB4314C4F800C0C3EBC31505EB4505D6
:102C800001EB8505C4E901E5B34203D204F1200557
:102C9000E56000E0E0605B1C9342E9D30349C86053
:102CA0000348B860F0BD000008000020009002401A
:102CB0004013002005490028886902D040F40050E4
:102CC00001E020F40050886170470000009002404D
:102CD000F0B50F4C00234FF48017561E206011E012
:102CE00000EB43142760C3EBC31505EB450501EB6F
:102CF0008505A560B34203D204F12005E56000E03C
:102D0000E0605B1C9342EBD302490861F0BD000018
:102D1000080000200090024002680A4302607047E9
:102D200010B501214C06204603F0D8FE2046BDE830
:102D30001040002103F0D2BE01B581B0019800908F
:102D4000002801D0401EFAE70CBD0000024881694E
:102D500041F4801181617047009002400148006891
:102D6000806870470800002002680021002A08DB04
:102D70000268120405D40268D20502D50068C0F3C7
:102D80000D41084670470000034900200968C90743
:102D900000D00120704700000090024010B500F004
:102DA0002DFE0A4C01E008F04FFC2068FFF7DCFF25
:102DB0000028F8D14020FFF731FF4FF48030FFF7B3
:102DC0002DFFBDE8104000F029BE00000C000020DF
:102DD0002DE9F04186B000277F4E04460097019709
:102DE0003069884620F01C0502A803F0B3FE7B4939
:102DF00003987B4A0144914202D245F0080516E04F
:102E00007849794A0144914202D245F00C050EE01E
:102E10007649774A0144914209D376490844764974
:102E2000884202D245F0040501E045F01005356105
:102E30004FF400420021404600F070FA00282DD0E7
:102E40006E48FFF779FF2068B0B36D4D01980121FE
:102E5000401C0190404600F089F9400702D40198D7
:102E6000A842F3D30198A84217D04FF48052002112
:102E70004046019700F052FA00280FD00198012136
:102E8000401C0190404600F071F9800602D4019880
:102E9000A842F3D30198A84203D1002006B0BDE8B0
:102EA000F0811F214046019700F060F9C10604D56A
:102EB0004FF40061216201E008E02762400701D57C
:102EC000676113E04FF4804060610FE0206A616940
:102ED000C00840EA510082B20021404600F01EFACC
:102EE0000028DBD06FF07F40FFF726FF31684548B0
:102EF0000140D4E901021043E26854F8103F1A433C
:102F0000104362681043A2681043E26810432269CC
:102F1000104362691043A2691043E2691043226AB8
:102F20001043626A104308433060F4E90A01084321
:102F3000D4E9021211430843216908436169084337
:102F4000A1690843E16908437060206AB060606A63
:102F5000F060B1694FF641700140D4E90B021043B3
:102F6000238D626B42EA03421043A26B1043E26B73
:102F700010430843B061D4E910010843F0612248CE
:102F8000826922490A40D4E912131943D4E914355D
:102F90002B431943A36D1943E36D1943236E194362
:102FA000636E1943A36E194311438161D4E91B1267
:102FB0001143626F54F8783F1A431143626841EA43
:102FC0008201A268114341F400010160016841F0EF
:102FD00080010160012061E70080024000D3CEFE45
:102FE000C0E1E40040F1E9FD40787D0100796CFC2E
:102FF000005A6202001F0AFA80F0FA02FFFF0F0077
:10300000FFFF04000F8120FF00900240233FDEF805
:10301000054B8A88184402640A78D1F8011042EA04
:1030200001214164704700000080024010B5B0B03B
:1030300001214FF0606003F045FDFFF771FE00F0E5
:10304000EDF8FFF7A1FE0128FBD0684600F0FFF87D
:103050000120009000204FF40071CDE90A100E907D
:10306000139049000991C90307901190CDE92001FF
:10307000149015900A112590269023920420CDE9F2
:10308000280180032A9080012B9040122C90400050
:103090002E90A8202F9000216846FFF799FEC4B219
:1030A000012C03D101210348FFF7BEFD30B02046BB
:1030B00010BD00004000010005490028086802D04A
:1030C00040F0040001E020F00400086070470000B8
:1030D0000080024005490028086802D040F008003E
:1030E00001E020F008000860704700000080024006
:1030F00010B5094C0020216808F0B2FC002061687E
:1031000008F0AEFC0020A16808F0AAFCE168BDE868
:103110001040002008F0A4BC3000002070B5A021B1
:10312000002008F0CFFC104CA0212060002008F007
:10313000C9FC41F6C45560602946002008F0C2FC75
:10314000A0602946002008F0BDFCE060216831B194
:10315000616821B1A16811B108B1002070BDFFF70D
:10316000C7FF012070BD00003000002018B500220C
:103170000092124A13694FF6FF7403F01C0304EA2D
:10318000C02018434FF4F86303EA8111014321F092
:10319000020040F00100106109490098401C0090B5
:1031A0001069C00702D000988842F6D30098884280
:1031B00001D1002018BD506980B218BD00800240C6
:1031C000FFFF040070B5134C00231A4621680D68F8
:1031D000002D0BDA104916464B691B0602D58023D9
:1031E0004B618E6002604260826070BD0D682D048C
:1031F0000AD40D68ED0507D50D68AD0504D50A683C
:10320000C2F30D438A681B1FCD6825600360C0E9C7
:10321000012170BD0C0000200090024002480168AE
:1032200041F00101016070470090024000B50120AB
:10323000FFF750FFFFF78AFD0120FFF73DFF012058
:10324000FFF738FD01205DF804EBFFF7F9BC012121
:1032500001600021416081604FF48042C160C0E99B
:103260000412D2108161C0E9071241628162C16219
:103270000163416340228163C0E90F122022C0E94B
:103280001121C1640165416581658022C165C0E984
:1032900018128166C16601674167D2048167C0E97F
:1032A0001F125210C0E921211311C0E92331C0F8C7
:1032B0009410C0F89810C0F89C10C0E9281252125F
:1032C000C0F8A8209201C0F8AC205212C0E92C210D
:1032D000C0F8B810704700000E4A11680B68002B48
:1032E00001DA00207047C0F30C004860086840F025
:1032F00040500860086840F0004008600648436994
:103300005B0703D50423436100234360C868106052
:1033100001207047080000200090024038B50023CB
:103320000093114B1C694FF6FF7504F01C0405EA6D
:10333000C02020434FF4F86404EA8111014341F0B6
:1033400003005A61186109490098401C00901869EF
:10335000C00702D000988842F6D30098884201D175
:10336000002038BD012038BD00800240FFFF04006E
:1033700010B5074C2068002808D1064820600020BE
:1033800000F06AF8216880B20843206010BD000098
:103390005800002000000110F0B5002201274FF076
:1033A000030C0B6807FA02F52B40AB422CD10668E0
:1033B00053000CFA03F4A64306600E79D0F800E03F
:1033C0009E4046EA0E0606600E79012E01D0022EBE
:1033D00012D18668A64386604E79D0F808E09E40F8
:1033E00046EA0E0686604668AE43466045688E79BA
:1033F0009640B6B235434560C568A543C560CC79F3
:103400009C40C3681C43C460521C102AC9D3F0BD41
:103410004B07DB0E9A40C90810B500EB8100016A2A
:103420000F249C40A1430162016A1143016210BD57
:10343000418370470183704700B5002000F00CF80D
:10344000044A00F00F0152F82110401A00FB01104D
:1034500000BD00003008010830B50F4A0F4D0400D0
:1034600010D00C21104600F068F928600C480021AB
:103470000A1892F8102A6254491CC9B20C29F7D3D1
:10348000286830BD28680028FAD10C21104600F0C9
:1034900054F92860F4E70000107AFF1F00000020B4
:1034A0000070FF1F10B51A480024016819A0FCF72E
:1034B00093FF1748001D016819A0FCF78DFF144801
:1034C0000830016819A0FCF787FF11481430016823
:1034D00019A0FCF781FF1B49D1F8900298B1002098
:1034E000C1F89002184A1949641CD2F89402E4B257
:1034F00058B10020C2F894020020401C8842FCD33E
:10350000052CF1D310BD0120EAE70120F2E700000D
:1035100028ED00E0434653523A2538580D0A000082
:10352000484653523A2538580D0A00004446535233
:103530003A2538580D0A0000414653523A2538586A
:103540000D0A00000080414200004042FFFF1F00C2
:1035500010B545F2555000F02BF8042000F01CF88F
:103560004FF4FA6000F01EF800F00EF8BDE81040CD
:10357000AFF3008002494CF6CC4008607047000071
:1035800000300040AFF3008002494AF6AA200860EC
:10359000704700000030004001494860704700005B
:1035A0000030004001498860704700000030004052
:1035B000014908607047000000300040FEB501215D
:1035C000452003F07FFA0121880303F0ABFA0120C4
:1035D00003F036FF8620032500908DF80550022069
:1035E0008DF804000024384E8DF806408DF8074011
:1035F00069463046FFF7D0FE0B2201213046FFF727
:1036000007FF0B2202213046FFF702FF0B220721A2
:103610003046FFF7FDFE32202C4F009069463846B9
:10362000FFF7BAFE0B2201213846FFF7F1FE0B220D
:1036300004213846FFF7ECFE0B2205213846FFF740
:10364000E7FE4FF46050224F009069463846FFF77E
:10365000A3FE0B2211463846FFF7DAFE0B220C219F
:103660003846FFF7D5FE0B220D213846FFF7D0FE76
:103670008DF80550012508208DF8045000908DF834
:1036800006408DF8074069463046FFF785FE114E2B
:10369000C6F88C42322006F5237604F0A5FE35608C
:1036A0003D208DF808008DF809408DF80A408DF80E
:1036B0000B5002A800F088F8FFF7B8FC08B1002012
:1036C000FEBD0120FEBD00000000024000080240D7
:1036D00000040240000040421CB50121082003F014
:1036E000F1F91820009001208DF8040000208DF8D9
:1036F00006008DF807000320054C8DF8050069468B
:103700002046FFF749FE18212046FFF793FE1CBD17
:10371000000C024010B509F0A0FF08F001F808F015
:1037200027F908F04BFF07F095FF0CF085FD0AF034
:10373000C3FCBDE810400AF0D5B810B503004FF047
:10374000FF304FF0000209D0002907D004E09C5C54
:10375000521C204400EB40108A42F8D310BD0028D0
:103760000ED000290CD088420AD0002A08D0521E60
:103770001204120C02D08B5C8354F8E709780170B4
:1037800070470A460021AFF3008010B500231C46A5
:10379000641C41EA0323042CFAD310F0030404D17F
:1037A00009E0521E00F8011B641C22B1042CF8D35E
:1037B00001E008C0121F042AFBD202E000F8011B3E
:1037C000521E002AFAD110BD30B50F23C2780178FD
:1037D0000125FAB1144A126801F1E02102F4E06215
:1037E000C2F5E062C2F30722C2F10404D34042787A
:1037F000A24084781C401443220181F80024007800
:1038000000F01F018D404009800000F1E020C0F869
:10381000005130BD01F01F0085404809800000F1D3
:10382000E020C0F8805130BD0CED00E002490843B3
:1038300002490860704700000000FA050CED00E046
:103840007047000002480068002800D00047704719
:103850004001002010B5044600F0BEF846480022A2
:103860000A210270454802704548027045480260CE
:10387000454802604548027045480270454802705C
:10388000454802604548026045480260454802706C
:1038900045480068B0FBF1F04449086044490868B5
:1038A00030B14448006818B1096804C0491EFCD111
:1038B000414802604148026041480260414802605C
:1038C000414802604148026041480260414802703C
:1038D00001F058FF02F032F8204601F01DFA20886E
:1038E000002847D1204601F0D5FC2088002841D18E
:1038F000204601F0F3FC208800283BD1204601F04F
:10390000A1FD2088002835D1204601F0A5FF2088A0
:1039100000282FD1204602F06BF92088002829D1F9
:10392000204602F079FB2088002823D1204601F0B0
:1039300025FC208800281DD1204601F0C7FA2088E8
:10394000002817D1204602F00BFF2088002811D153
:10395000204602F0BFFA208800280BD1204602F052
:1039600053FF2088002805D101F0D4F9BDE81040AC
:10397000FFF766BF10BD0000540100205501002074
:103980009C010020F0010020F401002082010020B1
:103990008301002084010020900100209401002078
:1039A00098010020A401002098090108A00100202E
:1039B000700901086C090108340100203801002059
:1039C0003C0100204001002044010020480100206B
:1039D0004C010020D2010020054806490068096812
:1039E00000EB8100044920F00700086070470000E8
:1039F0006C090108700901082801002005480078B9
:103A0000012805D104490878FA2801D2401C087021
:103A1000704700005501002054010020184810B5DF
:103A2000007801282BD1FCF7A5FC1649044608783C
:103A300000B3401E10F0FF0008701BD11248007840
:103A4000C0B901F08DFE11490870114900EB40002A
:103A500051F820000F4908600F490968884209D0D1
:103A600050F8901F491C01600C480168491C016016
:103A7000FEF77AF82046BDE81040FCF77FBC10BD89
:103A800055010020540100209C01002083010020EA
:103A9000E4DD0120F4010020F0010020C801002035
:103AA0002DE9F04104461C481746884600781D461B
:103AB00010B142F6E1602CE034B347B3FCF75AFC96
:103AC000164E3178491C3170FCF758FC1448C4E993
:103AD0000008394604F1200001F06AFC04F10800F6
:103AE00001F02EFD204601F091FE0E490888401C91
:103AF0000880FCF73FFC3178491E3170FCF73EFC32
:103B000000202880BDE8F08145F6C35001E046F270
:103B100094501880F6E70000540100209C0100201A
:103B2000515545558C0100202DE9F05F07463E4870
:103B300014468946007810B143F2C9200BE047B122
:103B4000080045F6256B0AD0012908D0A2F800B07C
:103B500002E045F6C35010800020BDE8F09F3349D5
:103B60003868884202D045F6C450F4E7FCF702FCFE
:103B700082463D8A5FEA0900DFF8B49007F1080643
:103B8000A84608D001281FD05046FCF7F7FBA4F840
:103B900000B04046E1E75FEA080006D05046FCF777
:103BA000EDFB47F25F102080F3E7384601F040FE5E
:103BB000B9F800103846491EA9F8001001F00EFEB1
:103BC0005046FCF7DBFB2DE0DFF868B050469BF871
:103BD0000010491C8BF80010FCF7D0FBFEF764F8CE
:103BE000824607E0306852468168384601F008FD99
:103BF0006D1EADB2002DF5D1384601F019FEB9F8B1
:103C000000103846491EA9F8001001F0E7FDFCF746
:103C1000B1FB9BF80020521E8BF80020FCF7AEFB96
:103C200000F04EF90020BEE75401002051554555E3
:103C30008C0100209C01002070B505461B480C46F5
:103C4000007810B14FF46C500BE045B1184928686A
:103C5000884208D045F6C4502080002070BD45F64B
:103C6000C3500880F9E7FCF785FB124E3178491CF8
:103C70003170FCF783FB05F1200001F053FB054692
:103C8000FCF778FB3178491E11F0FF01317007D144
:103C90000949098821B1FCF771FB01F0F3FE01E04D
:103CA000FCF76CFB00202080284670BD54010020EA
:103CB000515545559C010020600100202DE9F04F31
:103CC000074689B05348DDE9125400781E469146F4
:103CD0008B4610B146F2AE1040E047B156B110002D
:103CE0000BD0B2F5004F08D045F6256036E045F61A
:103CF000C35033E046F2D52030E047493868884267
:103D000002D045F6C45029E04FF000080DB1C5F8C7
:103D10000080FCF72FFB009023462A46314607F12E
:103D2000200001F019FB8246208840B15FEA09407B
:103D30000CD50098FCF722FB46F2B0100EE000987C
:103D4000FCF71CFB504609B0BDE8F08F3348017802
:103D500039B10098FCF712FB46F663502080002032
:103D6000F1E78146012089F800000098FCF706FB86
:103D70005B460522394601A801F070FBFCF7FAFA10
:103D800099F80010491E89F80010FCF7F7FA00F0C6
:103D900097F8FCF7EFFA224A0346116891F83500CC
:103DA00060B1012815D002282AD003284FF000075F
:103DB00019D0A6F8008046F62E601BE0B1F860002E
:103DC000CF6D308015B11068006C2860A4F80080B9
:103DD00011E00027A6F8008015B11068006C28607B
:103DE00046F2A91006E04046A6F8008005B128601A
:103DF00047F2D92020801846FCF7C0FA3846A2E7DF
:103E00000027A6F8008015B11068006C286045F600
:103E1000C250EFE754010020515545559C01002048
:103E2000F00100202DE9FF471E460C9C9046894674
:103E300005000ED04FF40070B3F5004F18D00BDC26
:103E4000B3B1102B14D0834212D0B6F5047F0CD13D
:103E50000EE045F6C35011E0A6F50043103B07D035
:103E6000B3F5F87F04D0834202D045F6256005E023
:103E7000114F2868B84204D045F6C4502080BDE8F0
:103E8000FF87FDF711FF0D49097859B10021CDE9F0
:103E90000016CDE9020443464A462946384601F059
:103EA00049F8ECE7CDE90004334642464946284646
:103EB00001F0DEFCE3E700005155455554010020B8
:103EC000154810B50078002824D11448007800283F
:103ED00020D1FCF74FFA044601F042FC104908706B
:103EE000104900EB400051F820000F4908600F49CD
:103EF0000968884209D050F8901F491C01600C489D
:103F00000168491C0160FDF72AFE2046BDE810400B
:103F1000FCF734BA10BD0000540100209C010020C1
:103F200083010020E4DD0120F4010020F0010020E5
:103F3000C801002070B504461048007810B146F65C
:103F4000625019E00E480078012802D045F68960D9
:103F500012E00C4D2878FA2802D345F209200BE034
:103F6000FCF708FA06462878401C287001F0ACFDE2
:103F70003046FCF703FA0020208070BD5401002079
:103F8000550100209C01002070B5044615480078BA
:103F900010B146F6655023E013480078012802D09E
:103FA00045F689601CE0114E307870B1FCF7E2F9FB
:103FB00005463078401E10F0FF00307008D02846CB
:103FC000FCF7DCF946F663500AE046F6645007E079
:103FD00001F088FD2846FCF7D1F9FFF771FF0020BA
:103FE000208070BD54010020550100209C0100205C
:103FF0002DE9F041044618481746884600781D46CA
:1040000010B142F6E16025E014B3FCF7B3F9134EAA
:104010003178491C3170FCF7B1F92762002710484C
:104020006762C4E9000804F1080001F089FA20463B
:1040300001F0B8FD0B490888401C0880FCF79AF98C
:104040003178491E3170FCF799F92F80BDE8F08175
:1040500045F6C3501880F9E7540100209C01002068
:1040600053454D41AC0100202DE9F05F07463E4825
:1040700014468946007810B143F2C9200BE047B1DD
:10408000080045F6256B0AD0012908D0A2F800B037
:1040900002E045F6C35010800020BDE8F09F334990
:1040A0003868884202D045F6C450F4E7FCF762F95C
:1040B00082463D8A5FEA0900DFF8B49007F10806FE
:1040C000A84608D001281FD05046FCF757F9A4F89D
:1040D00000B04046E1E75FEA080006D05046FCF732
:1040E0004DF947F25F102080F3E7384601F06CFD90
:1040F000B9F800103846491EA9F8001001F040FD3B
:104100005046FCF73BF92DE0DFF868B050469BF8CD
:104110000010491C8BF80010FCF730F9FDF7C4FDC6
:10412000824607E0306852468168384601F068FAF6
:104130006D1EADB2002DF5D1384601F045FDB9F840
:1041400000103846491EA9F8001001F019FDFCF7CF
:1041500011F99BF80020521E8BF80020FCF70EF995
:10416000FFF7AEFE0020BEE75401002053454D414D
:10417000AC0100209C0100202DE9F047064649488B
:1041800088B01C460078109D91468A4610B146F2D0
:10419000AE100AE03EB1100009D0B2F5004F06D0D3
:1041A00045F6256001E045F6C35028805BE03E48B7
:1041B0003168814202D045F6C450F6E7002704B1C9
:1041C0002760FCF7D7F8D6F82080B8F1000F0BD0A5
:1041D000A8F10108C6F820800CB1716A2160346A28
:1041E000FCF7CCF82F8054E05FEA094108D5FCF7D2
:1041F000C5F846F2B0102880404608B0BDE8F08708
:104200002A490A7822B1FCF7B9F846F66350CCE7A0
:104210008846012188F80010FCF7B0F853460622C2
:104220003146684601F01AF9FCF7A4F898F8001036
:10423000491E88F80010FCF7A1F8FFF741FEFCF7D3
:1042400099F802461A48016891F8350068B10128CA
:1042500010D002281FD0032812D046F62E602880E6
:104260001046FCF78BF80020C7E70CB1086C206003
:104270002F800AE00CB1086C206046F2A91003E020
:1042800004B1276047F2D92028801046346AFCF731
:1042900075F82046B1E70CB1086C206045F6C250B5
:1042A000F2E700005401002053454D419C010020DD
:1042B000F00100202DE9FF410C46060015460DD007
:1042C0007CB1B4F5007F0CD0B4F5004F09D0B4F543
:1042D000024F06D045F6256010801AE045F6C3501F
:1042E000FAE7124F3068B84202D045F6C450F3E7FF
:1042F000FDF7DAFC02460E48007870B10020039505
:104300000090CDE90142034602463146384600F0AE
:1043100011FE04B00020BDE8F08104B02B46214618
:104320003046BDE8F04101F06FBC000053454D41FF
:104330005401002070B50F4D0446287818B145F699
:104340008A60208070BD01F00BFA0B4908700B49A0
:1043500008700B4900EB400051F820000949086043
:104360000949086001202870FDF7E8FB43F6992011
:10437000E7E70000550100208301002082010020B2
:10438000E4DD0120F4010020F00100202DE9F041DE
:104390000746FBF7EFFF234900250D6022490D80FA
:1043A00022490D8022490D6022490D6022490D608D
:1043B00022490D6022490D81FBF7E0FFFBF7DAFF90
:1043C00020490C6815E0FBF7D5FFC4F8B45044F859
:1043D000785F06462563A561A582E5826562A562D0
:1043E000FDF762FC44F8200FA4F134008581646A73
:1043F0003046FBF7C3FF002CE5D1FBF7BBFF1249AA
:104400000C6803E0FBF7B6FFA585A469FBF7B6FFD0
:10441000002CF7D102F0D8F802F0C4FA3D80BDE8D4
:10442000F08100006801002062010020B20100203C
:10443000C4010020D8010020E001002094010020E8
:10444000D8DD0120CC01002088010020024800684E
:10445000002800D000477047440100202DE9FF4F9D
:1044600083B004466148DDE91785DDE910970078DF
:10447000DDF854A0139E10B147F24A102AE04CB167
:10448000059850B167B15A48006886420BD246F68B
:1044900030601FE047F2AD101CE047F24F1019E00A
:1044A00046F62F6016E01298B04202D346F631600D
:1044B00010E046F27320B9F1400F0BD25FEA090118
:1044C00003D0B9F13F0F02D008E04A4900E04A4961
:1044D0008C4203D0288007B0BDE8F08F204601F061
:1044E000ABFD4FF0000BA5F800B05FEAC8700AD032
:1044F0005FEA887007D5384600215A4601E004C0BB
:10450000491CB142FBD31298CDE9006807EB800546
:10451000DDE905012B463A4600F004FA0599A1624F
:104520000699E1620499216284F83790C4F854A096
:10453000A56020605FEA0A003AD0A065169867621D
:10454000A6636060A4F83C800020594604EB80021A
:10455000401CD16710F0FF00F8D004F164001499FA
:1045600000F026FF204600F053F8FBF703FF234D31
:104570002978491C2970FBF701FF94F8370001F0F6
:104580000DF9204601F020FA204601F017FD1C49E4
:104590000888401C08801B48007801281AD0FBF7C7
:1045A000E9FE2978491E11F0FF01297003D00CE0C3
:1045B00015480068C1E71549098831B1FBF7DEFEEF
:1045C00007B0BDE8F04F01F05DBA07B0BDE8F04FAD
:1045D000FBF7D4BEFBF7CEFE2978491E2970FBF706
:1045E000CDFE07B0BDE8F04FFFF76ABC54010020D4
:1045F0009409010814DD012050DC01209C010020F9
:10460000D001002055010020A00100206001002001
:1046100002490968002900D008477047340100208A
:1046200070B504463D480D46007810B147F24E1073
:104630000AE03B48844202D147F24C1004E039487A
:10464000844203D147F24D10088070BD2CB9FBF7AE
:1046500091FE35490C68FBF791FEFBF78BFE334E5C
:104660003178491C3170FBF789FE94F83600082830
:104670003ED2DFE800F004080C0C1C080C0C2046AD
:1046800001F0D6F913E0204601F082FF0FE020464A
:1046900001F07EFF94F83400072808D2DFE800F02C
:1046A0000704070404040400204600F07BFF04F123
:1046B000640000F037FE204600F03EF8204601F08E
:1046C0008FFC1B490888401E0880204601F0B4FC7E
:1046D000FF2084F83600FBF74DFE3178491E31701B
:1046E000FBF74CFE00202880BDE87040FFF7E8BBD8
:1046F000FBF740FE3178491E11F0FF01317007D100
:104700000C49098821B1FBF739FE01F0BBF901E042
:10471000FBF734FE46F62D60288070BD5401002062
:1047200050DC012014DD0120F00100209C0100205C
:10473000D00100206001002002490968002900D052
:10474000084770473801002002490968002900D055
:10475000084770473C0100202DE9F0478246494850
:1047600014460F4600781D4610B146F2AE1005E023
:1047700037B1B7F5004F03D045F62560188037E014
:10478000002604B12660FBF7F5FDDFF8FC808146CA
:10479000D8F80000416CD1B1491E474688464164B3
:1047A0000CB1006C2060FDF77FFA39680A6C801A42
:1047B000C1F8A400D1F8A820824201D2C1F8A80013
:1047C0004846FBF7DBFD2E804046BDE8F087380405
:1047D00005D54846FBF7D2FD46F2B01007E02B4F57
:1047E000387838B14846FBF7C9FD46F66350288053
:1047F0000020EAE7012038704846FBF7BFFD0021A2
:1048000053460722084600F029FEFBF7B3FD39782E
:10481000491E3970FBF7B2FDFFF752FBFBF7AAFD0B
:10482000D8F800108146474691F8350030B101288C
:1048300016D003281AD046F62E601BE074B1086C1F
:104840002060FDF731FA39680A6C801AC1F8A400BB
:10485000D1F8A820824201D2C1F8A8002E800AE037
:104860000CB1086C206046F2A91003E004B1266088
:1048700047F2D92028803868446C4846FBF77EFD13
:104880002046A2E754010020F00100209C010020F6
:104890002DE9F0410546214816460F4600781C4692
:1048A00010B147F2591007E046F2D52027B11EB1EA
:1048B000FBF760FD1DB104E01880BDE8F0811849E8
:1048C0000D684FF00008296841B195F83C10C90700
:1048D0000DD0FBF753FD0020696A14E0FBF74EFD95
:1048E000C7F8008047F25210C6F8008007E0FBF7D7
:1048F00045FDC7F8008047F25410C6F800802080BC
:10490000DBE7401C091D0A68002AFAD03860A96B51
:10491000081A3060A4F80080CFE70000540100209E
:10492000F001002030B5044603984FF4805502EBA7
:10493000800020F00700002240E90252152540F8CF
:104940000C5C142540F8105C132540F8145C12250B
:1049500040F8185C112540F81C5C102540F8205CDC
:10496000092540F8245C082540F8285C072540F814
:104970002C5C062540F8305C052540F8345C0425A5
:1049800040F8385C032540F83C5C022540F8405C68
:10499000012540E912252A0640E914422F4A40F831
:1049A000542C4FF0123240F8582C4FF0033240F89C
:1049B0005C2C4FF0023240F8602C40E91A13312190
:1049C00040F86C1C302140F8701C292140F8741C00
:1049D000282140F8781C272140F87C1C262140F82B
:1049E000801C252140F8841C242140F8881C2321A8
:1049F00040F88C1C222140F8901C212140F8941C86
:104A0000202140F8981C192140F89C1C182140F8DE
:104A1000A01C172140F8A41C162140F8A81C4FF038
:104A2000113140F8AC1CD10040F8B01C4FF00931F6
:104A300040F8B41C910040F8B81C4FF0073140F822
:104A4000BC1C4FF0063140F8C01C4FF0053140F857
:104A5000C41D510040F8041D30BD0000BD620008B7
:104A6000114810B5006800B18047FDF71DF90F49E6
:104A70000F4A09681368994209D0D1F89820821A20
:104A8000C1F89420D1F89C402244C1F89C20094AE6
:104A9000C3F89800D1F8B4301068834201D2C1F84D
:104AA000B4000020106010BD48010020F00100207B
:104AB000F4010020980100202DE9F0410646264827
:104AC0000D461446007810B147F2752030E0234FB0
:104AD000387810B146F663502AE045B1022D06D071
:104AE000042D05D0082D02D045F6256020E0EEB15A
:104AF000FBF740FC3978491C3970FBF73FFCDFF8C5
:104B0000608001212346D8F800002A4680F836103C
:104B1000314601F0D1FC208868B1FBF72BFC3978D5
:104B2000491E3970BDE8F041FBF728BC47F27E20F2
:104B30001080BDE8F081D8F8000000F079FFFBF7A5
:104B400019FC3978491E3970FBF718FCFFF7B8F9E2
:104B500000202080EDE70000540100209C0100208F
:104B6000F00100202DE9F0474B4D1646DDE9082401
:104B70002D7815B147F2752088E0DFF820A19AF86A
:104B8000005015B146F6635080E012F00E0547F272
:104B90007E2945F6256C05D0022D03D0042D05D0C5
:104BA000082D2AD113B90EB901B9E0B332F01E07AE
:104BB00000D001270FBBC2F3001247F2792847F259
:104BC000782C4FF47A773AB142F20F72914212D9AF
:104BD000A4F80080BDE8F087BB4202D347F27B20F7
:104BE00054E03B2E02D947F27A204FE03B29EFD820
:104BF000632802D804E0B84202D3A4F800C0E9E771
:104C0000274A4FF4FA7CC1EB01111268BCFBF2FC9D
:104C100063445343B3FBF7F34FF46167784300EB0E
:104C20008100304400E033E000FB023686B3FBF73E
:104C3000A1FB9AF800105746491C8AF80010FBF7B0
:104C40009DFBDFF8608001212346D8F800002A464A
:104C500080F83610314601F02FFC208840B1FBF778
:104C600089FB3978491E3970BDE8F047FBF786BBF0
:104C7000D8F8000000F0DCFEFBF77CFB3978491E19
:104C80003970FBF77BFBFFF71BF900202080A1E7C1
:104C9000FFE7A4F800909DE7540100209C0100204C
:104CA00098090108F001002070B50546FBF762FB8A
:104CB00003490C68FBF762FB00202880204670BD8A
:104CC000D401002000B585B000F01CF8FCF7ECFF23
:104CD00004AA002103920091CDE90110064807497A
:104CE000002300781A4600EB400001EB80010448E5
:104CF00000F020F905B000BD82010020E4DD0120B4
:104D00005449434B02480068002800D000477047D0
:104D10004C01002070470000034A00211160034A43
:104D200011800180704700006C010020700100209C
:104D30002DE9F0479A4690460D460446089EFBF73B
:104D400019FB01465FEA080022D0012807D0B0F520
:104D5000004F1DD06FF4004218EB020F12D1206AF1
:104D6000A843C4E9080A208A04F108054FF00009A5
:104D700088B1394F3878401C38700846FBF7FEFA86
:104D80002D6841E00846FBF7F9FA45F625605FE03B
:104D9000206A2843E5E70846FBF7F0FAA6F80090FA
:104DA000206ABDE8F08790F888106D6801F00F0167
:104DB000012918D002291ED004290AD008290DD0B3
:104DC000FBF7D8FA3978491E11F0FF01397033D05A
:104DD0003AE0216AD0F88020114009E0216AD0F839
:104DE000802011400BE0D0F88010236A0A469943D6
:104DF0008A4205D007E0D0F88010226A914311B1B1
:104E0000524600F02DF815B1A8680028CBD1FBF769
:104E1000B1FA3978491E3970FBF7B0FA5FEA0840F9
:104E200001D4FFF74DF8FBF7A5FA246AFBF7A6FAC1
:104E3000A6F800902046B4E70849098821B1FBF79D
:104E40009DFA00F01FFE01E0FBF798FA43F6FF2001
:104E500030800020A5E700009C01002060010020B8
:104E600070B50025C0F8841080F8355080F83450B3
:104E70000446026490F8360008280ED2DFE800F0FD
:104E80000D0D04040D0D0A0A204601F0ABF984F85B
:104E9000365002E0042084F836002046BDE8704019
:104EA00000F080BB074C084DFBF764FA2168491CF1
:104EB00021602968491C2960FBF760FAFEF7C2FCF3
:104EC000F2E7000050010020B401002000B50E4AB6
:104ED00089B0002111600B2205910691CDE90720D0
:104EE0000A480B4A0B4B006812681B680292CDE916
:104EF00003013F20CDE900030023074A07A10C4826
:104F0000FFF7ACFA09B000BD500100204C090108C0
:104F10004809010844090108A54E000875432F4FB0
:104F2000532D4949492049646C65205461736B00D5
:104F300050DC01202DE9F05F1E46DDE90AAB90460A
:104F40000F4681460D9CFBF715FA1D491D4A054683
:104F50000888128890422BD2401C80B208801A49DF
:104F60000A88824200D20880184A1068C0F800906F
:104F7000C0E902780682C0F814A0A0F818B00C9915
:104F8000C16140681060124801210181114901602E
:104F90004160002000F002FC0F48007808B10F4982
:104FA0000870002020802846BDE8F05FFBF7E6B9D6
:104FB0000B480188491C018044F25360F2E700006D
:104FC000600100203C090108620100205801002016
:104FD000E4DD012014DD0120820100208401002095
:104FE000640100203EB5374C374A02AB20680168A7
:104FF0008D1A914245D015DC344A89182DD0344A97
:10500000891822D0334A891832D0334AD14208D184
:10501000C169CDE90013038B028AC168806801F081
:105020006BF83EBD2D4969181DD02D4A891823D033
:105030002C4AD142F5D1C169CDE90013038B028A14
:10504000C168806800F014FC3EBD0093028BC36908
:1050500041698068FFF76CFE3EBD018BC2698068C4
:1050600000F0D2FD3EBD8068194601F0C9F83EBD92
:10507000018BC269806822E08068194601F0B2F9AC
:105080003EBD19481949007800EB400001EB800053
:1050900000F046FD206802AB0021C269144801F00F
:1050A00019F914490868401E0860E9D112480068DF
:1050B0000860FCF7F9FD024602AB00210F4801F041
:1050C00009F93EBD5C0100205449434BADBAB2BE64
:1050D0000DF90BFAF2F8F7FF0006F6FF00F7FDF7FF
:1050E00000FFEFFF03FE0FFE84010020E4DD01203E
:1050F000A8E10120EC010020E80100206CE2012081
:105100001A4F1B4C0025DFF86C80FBF733F906467D
:105110002088E8B13046FBF731F9FCF7C5FD0646BB
:10512000FFF760FFFCF7C0FD3968801B814200D2A9
:105130003860FBF71FF9D8F800205268C8F8002043
:105140002188491E2180FBF719F9002DDDD0D9E710
:105150000949002008810860486000F02FFB3046B4
:10516000FBF70CF9FEF7ACFECCE70000680100206D
:10517000600100205C010020E4DD0120F0B52F4932
:105180002F4D89B000240C80296831B12D4E318813
:10519000022905D244F2546135E044F2526132E012
:1051A00029490023294F0C60296801F1200210E0F1
:1051B00041F8087B5B1C41F8084B9BB241F8044C5A
:1051C00021F8104B41F80C4C21F8084C41F81C2CEC
:1051D0002032B6F800C06345EAD32A6841F81C2C97
:1051E0001B490A601B490A601B491D4A0C801B4968
:1051F0000C80116851B11B491B4D0B682D68AB42E7
:1052000007D244F25661018009B0F0BD44F2556105
:10521000F9E7032305940694CDE90730086813499C
:10522000126800230968CDE903040094CDE9012147
:105230000F4A10A11648FFF711F9E5E764010020B5
:10524000540901083C090108680100204E4F4E45F1
:10525000580100205C010020600100206201002054
:105260005C09010864090108940901086009010842
:105270000151000875432F4F532D49494920495387
:1052800052205175657565205461736B00000000F4
:1052900014DD0120034A00211160034A11800180BE
:1052A00070470000740100207801002010B5491EED
:1052B0008CB2002100F110020B4608E0E0E8022366
:1052C000491C20F8083B89B240F8043C1032A14246
:1052D000F4D3036043600381C36010BD70B50E4D0D
:1052E0000446286880B10D4E308880B181B22868AC
:1052F000FFF7DCFF0A4829680160318881800021BE
:10530000C1800181218070BD45F21E7001E045F22F
:105310001D70208070BD00007C0901083E09010855
:10532000D8DD012010B5428992B10A4903680C68A2
:105330001C6043680B60CB8844891B1BCB808B8827
:10534000448923448B800021418181810160416037
:10535000104610BDD8DD0120F0B544890025CCB140
:105360004468278966680F800AB1E1681160216886
:105370004160B9B14189491E41810C4801682160F1
:1053800004608188491C8180C188491EC1801D80BC
:105390003046F0BD0D8002B1156046F29250188083
:1053A0000020F0BD05604581E7E70000D8DD012061
:1053B00001810021418181810160416070470000CD
:1053C000F0B54489DDE905E60589AC4202D346F231
:1053D00093501EE01A4DAF88CFB12C687F1ED4F8D1
:1053E00000C0C5F800C0AF80EF887F1CBFB2EF805F
:1053F000B5F808C0BC4500D22F814789002557B1B8
:10540000DB060CD403681C60256004600AE045F2EA
:105410001D703080F0BD04600123446004E04368E7
:105420002360446043895B1C438187899BB29F4210
:1054300000D2838161602281C4F80CE03580F0BD28
:10544000D8DD0120034A00211160034A1180018048
:10545000704700007C010020800100202DE9F04110
:10546000114D07460C4628680026194680F834205E
:1054700080F8356000F08CFD64B1FC6004F1080632
:1054800001223946286800F011F83946304600F00C
:105490005CF802E02868C687066320462968BDE8F4
:1054A000F04100F01BB80000F001002010B5C287E9
:1054B0000024234601630EE04B6041F8103B641C5E
:1054C00041F8103BA4B241F80C3C21F8083C41F8EB
:1054D000043C41F8180C9442EED310BD38B1426838
:1054E000C1F8C02081688968096AC161704791F874
:1054F0003400022803D0072803D004A002E004A04F
:1055000000E005A0C1F8C0007047000020000000C6
:105510005461736B205100005461736B2053656DAF
:105520000000000005A2C1F8C020816811B189689F
:10553000096A00E001A1C16170470000200000007D
:105540000021016041600181704730B58A68002503
:1055500092F8374002891AB1521C028102680BE0AE
:10556000012202814D600D60016014E0936893F8A0
:105570003730A34203D85268002AF7D107E032B18E
:10558000136853B1C1E900325960116030BD4D60FC
:1055900042680A605160416030BD1160C1E900524B
:1055A000016030BD70B50646C58F046B07E0E0684A
:1055B0002146083000F009F86D1EADB22034002DF0
:1055C000F5D10020F087306370BD10B5028900244A
:1055D000012A0BD00A6862B14B6873B153601A603C
:1055E0000289521E02814C600C6010BD0460446050
:1055F000F6E74A6814600260F2E754604260EFE741
:105600002DE9F0410C4691F8361000250227164688
:10561000082933D2DFE801F032320404323219199A
:1056200094F83410032903D13246214600F028F8BB
:10563000E565A4F8605020462664FFF7B3FF2046D6
:1056400000F0D0FD84F8365014E094F834100329AB
:1056500003D13246214600F013F8E565A4F8605006
:105660002046266400F094FF2046FFF79BFF0420AD
:1056700084F8360084F8357084F83450BDE8F08141
:1056800010B50B6BC98F08E0DC68844202D1DA6187
:10569000186110BD491E89B220330029F4D110BD14
:1056A000F8B50C46054691F83610002606980829EC
:1056B0003BD2DFE801F03A3A04043A3A202094F869
:1056C0003410032911D0E265A4F86030206435B1AC
:1056D0002046FFF767FF21462846FFF723FF2046B5
:1056E00000F080FD84F836601BE0009021462846DB
:1056F00000F022F8EBE794F83410032916D0E265A5
:10570000A4F860302064204600F042FF35B1204606
:10571000FFF748FF21462846FFF704FF042084F8DE
:10572000360084F8356084F83460F8BD0090214676
:10573000284600F001F8E6E770B50C6B049DC98FB0
:105740000AE0E668864204D1C4E904022383E561E5
:1057500070BD491E89B220340029F2D170BD00000D
:1057600010B50024064802E02034E4B2001D0168B0
:105770000029F9D00846FAF708FE2044C0B210BD4F
:105780002C0100200020044A014642F82010401C51
:105790000228FAD3704700002C01002000F01F02FD
:1057A00041090120C2F11F029040034A52F8213002
:1057B000034342F8213070472C01002000F01F0203
:1057C00041090120C2F11F029040034A52F82130E2
:1057D000834342F8213070472C01002070B5044605
:1057E00020300546FFF79EFD0648206006A0606059
:1057F00000212846FFF7DCFD04F10800BDE87040F9
:10580000FFF79EBE4E4F4E453F5100000023074A12
:1058100005A14361C161116819B1816148611060DE
:1058200070478361FBE70000200000008801002032
:10583000D0E9052100232AB151B191614A61836108
:1058400043617047034A116001B14B618361704746
:105850009361F5E788010020034A00211160034AA3
:105860001180018070470000880100208C01002019
:105870002DE9FF4F83B01E46DDE9107A934681463D
:10588000FAF778FDDFF8AC8098F80020521C88F811
:105890000020FAF773FDB9F8104009F1080024B1AF
:1058A000B10500D4012405682FE0F00601D40023DF
:1058B00000E01023CDE9007A5A4609F1200004994E
:1058C000FFF77EFDFAF756FD98F80010491E11F01B
:1058D000FF0188F8001009D11749098831B1FAF79A
:1058E0004DFD07B0BDE8F04F00F0CCB807B0BDE803
:1058F000F04FFAF743BDA9686D685B4600974846CC
:10590000049AFFF7CDFE641EA4B2002CF3D1FAF77F
:1059100031FD98F80020521E88F80020FAF72EFD7D
:10592000300401D4FEF7CCFA0021AAF8001007B029
:10593000BDE8F08F9C010020600100200020074B93
:10594000024600EB400103EB8101401C0A810A6022
:10595000C0B24A604028F4D370470000E4DD012063
:1059600010B5044690F83700FFF718FF074994F880
:10597000370009788842204603D1BDE8104000F086
:1059800023B8BDE8104000F003B8000082010020F9
:1059900090F837100B4A01EB410102EB8101002323
:1059A0000A8942B1521C0A810A68C0E903230A68C5
:1059B00010610860704701220A81C36003610860BA
:1059C00048607047E4DD012090F837100A4A01EB87
:1059D000410102EB810100230A893AB1521C0A817C
:1059E000C3604A680261D0604860704701220A8142
:1059F000C36003610860F7E7E4DD012010B50189A9
:105A0000002914D0012912D00024022907D0D0E99E
:105A10000013CA681461C1E90343D96005E0D0E905
:105A20000012C1E90342C2E90314C0E9002110BD1C
:105A300070B5044690F83700114900EB400001EBC7
:105A40008001D4E90320002540B10B895B1E0B8146
:105A5000C26092B110612561E56070BD2AB108890C
:105A6000401E088115610A60F5E70D810D604D60EB
:105A700094F83700FFF7A2FEEDE74860EBE700007F
:105A8000E4DD012010B5FAF775FC0B49044600204F
:105A900008700B480949016051F8900F401C0860DC
:105AA00008490868401C0860FCF759F82046BDE822
:105AB0001040FAF763BC00008301002014DD0120D0
:105AC000F4010020C8010020044810B50078012826
:105AD00003D1FCF7E9F80249086010BD9C010020E1
:105AE000900100200A4810B5007800280ED1FCF77C
:105AF000DBF808490968401A07490A68824200D25F
:105B0000086006490A68824200D2086010BD0000A1
:105B10009C010020900100209401002098010020A9
:105B200070B5054612480078012820D1FAF722FC0A
:105B300004462868B0B10F49884213D0816D11B175
:105B4000491E81650ED1288902280BD30A480078A6
:105B500040B92846FFF752FF2868416D09B9074947
:105B6000096881652046BDE87040FAF707BC70BD42
:105B7000A401002050DC01209C010020A001002095
:105B8000054940F8201B002102C040F8201903A15C
:105B900002C0FFF7D5BC00004E4F4E453F53454D68
:105BA000000000000023074A05A14361C16111689C
:105BB00019B181614861106070478361FBE70000A3
:105BC00020000000A8010020D0E9052100232AB10F
:105BD00051B191614A61836143617047034A116029
:105BE00001B14B61836170479361F5E7A801002023
:105BF000034A00211160034A1180018070470000B0
:105C0000A8010020AC0100202DE9F84F1F46904666
:105C100089460646FAF7AEFB318A06F108054FF0D1
:105C2000000B69B1DFF880A09AF80020521C8AF8B6
:105C30000020FAF7A3FB5FEA895012D52C8911E006
:105C4000346A611C05D0641CC6E90848FAF796FB63
:105C500026E0FAF793FB46F6C55038800020BDE8F1
:105C6000F88F01242D680AE0A9686D6800231A46A0
:105C70003046CDF80080FFF713FD641EA4B2002C5F
:105C8000F2D1346AFAF776FB9AF80020521E8AF8AD
:105C90000020FAF773FB5FEA094001D4FEF710F920
:105CA000A7F800B02046DAE79C0100201CB5784E2A
:105CB000784D3068440004E020466A460021FEF733
:105CC000FBFE28780128F7D16846FEF75FFB724893
:105CD00032680168914204D9B1FBF2F15FEA010B2D
:105CE00003D100680A21B0FBF1FB4FF47A79DFF8A9
:105CF000ACA142F210764FF00008FBF7D5FF0190FF
:105D0000FAF738FB6649674C0A682260C1F80080E0
:105D1000FAF734FB6448236802689A4228D963483A
:105D2000824202D23046012113E06148824202D20F
:105D300048460A210DE05F48824202D264200146B3
:105D400007E05D48824202D20A20494601E0012074
:105D50003146B2FBF1F15843B0FBF1F05749301A2C
:105D600080B2088056490A88824203D2088001E046
:105D700052480680FEF76AFB0025FAF7FBFADAF8CC
:105D8000004023E0FAF7F6FA4E4F3978491C397093
:105D9000FAF7F4FAD4F89C00C4E92780FAF7EAFA93
:105DA0003978491E11F0FF01397007D14649098839
:105DB00021B1FAF7E3FAFFF765FE01E0FAF7DEFA40
:105DC00054F8A00F0544FAF7D5FAE469FAF7D6FAC1
:105DD000002CD7D1E5B13548854202D237460120A3
:105DE00013E03348854202D24F460A200DE0314885
:105DF000854202D26427384607E02F48854202D206
:105E00000A27484601E001273046B5FBF0F501E0DE
:105E100000270125FAF7AEFADAF800401BE0D4F8C3
:105E2000A0007843B0FBF5F080B2B04200D9304614
:105E3000A4F88C00B4F88E10814201D2A4F88E0030
:105E400004F1AC026B46111D2046FEF721FDFAF766
:105E500091FAD4F8BC40FAF791FA002CDFD11B4834
:105E60000178012904D180F800806846FEF78EFA97
:105E7000FBF71AFF0199401A15490A68824200D2BD
:105E800008606A4600215846FEF716FE35E7000016
:105E900080090108C001002098090108CC010020F8
:105EA000B4010020BC010020B8010020801A0600C7
:105EB00000093D00005A62020084D717B00100209B
:105EC000B20100209C01002060010020AE010020F2
:105ED000C401002030B51D4A89B0002111601C4A60
:105EE0001F4C11601B4A11601B4A11701B4A117034
:105EF000226842B11B4A1C4D13682D68AB4205D283
:105F000046F62C6108E046F62B6105E0174B1D783C
:105F10003F2D04D346F62A61018009B030BD032528
:105F200005910691CDE90750114812682468006870
:105F3000CDE90202049101941878009000230D4AE3
:105F40000DA11248FEF78AFAE7E70000B40100202D
:105F5000BC010020B8010020C0010020AE010020DB
:105F6000840901088C09010894090108380901080D
:105F700088090108AD5C000875432F4F532D49492E
:105F8000492053746174205461736B00E4E0012074
:105F900038B50446022531B16B46022200F08CFA76
:105FA000BDF8000028B184F836502046FFF740FDC8
:105FB00038BD032084F83600F7E70000074B0022C5
:105FC000C0F8B820196829B1C0F8BC10C1F8B800F1
:105FD00018607047C0F8BC20FAE70000CC01002030
:105FE000D0E92E2100234AB181B1C2F8BC10C1F81A
:105FF000B820C0F8BC30C0F8B8307047054A11600E
:1060000009B1C1F8B830C0F8BC307047C2F8BC3034
:10601000F1E70000CC010020044A00211160044A8D
:106020001180044A1160018070470000CC010020FB
:10603000D0010020C801002070B5002505608560F2
:106040004560C560056145610446856127A0C4E9D6
:1060500007506562A562E5622564E565A4F86050B5
:10606000294604F16400FFF7A3F96567A567C4F842
:106070008050A4F888500020C4F8845004EB8001BC
:10608000401CCD6710F0FF00F8D06564C4F8A45040
:10609000C4F8A850A56384F88A50C4F8B050C4F876
:1060A000AC50A5874FF00040C4E912052565656531
:1060B000A565A4F88C50A4F88E50C4F89050C4F88C
:1060C00094503434FBF7F0FDC4E91905C4F880504E
:1060D00004F8015B402004F8015B04F8015B04F85C
:1060E000810B04A020C4C4E9005070BD3F5461730B
:1060F0006B000000200000002DE9FC5F9946DDE9FF
:106100000C7592468B460446FAF734F9324E3178D4
:10611000491C3170FAF732F90CB930480468002094
:10612000288094F83600DFF8B88008283CD2DFE8F1
:1061300000F004041E1E04041E1ECDE900754B462B
:106140005246594604F16400FFF73AF9FAF712F99A
:106150003178491E11F0FF01317021D1B8F80010DB
:10616000F1B1FAF70BF9BDE8FC5FFFF78BBC94F8CF
:1061700034000228E1D153465A46214600200097B8
:10618000FFF78EFAFAF7F6F83178491E3170FAF710
:10619000F5F85FEA09401CD4BDE8FC5FFDF790BE4E
:1061A000BDE8FC5FFAF7EAB8FAF7E4F83178491E7F
:1061B00011F0FF01317007D1B8F8001021B1FAF7E2
:1061C000DDF8FFF75FFC01E0FAF7D8F846F62D603E
:1061D0002880BDE8FC9F00009C010020F001002009
:1061E0006001002010B5044600F0D2F994F8361092
:1061F000490704D42046BDE81040FFF7B1BB10BDED
:1062000070B50D460446FAF7B5F800262E8094F8CE
:10621000361008294AD2DFE801F0040404040A23F6
:10622000333DFAF7ABF847F25310288024E0224DB3
:106230002978491C2970FAF7A1F894F88A00401EC1
:1062400010F0FF0084F88A0004D184F836602046FC
:10625000FFF7C8FFFAF78EF82978491E297009E080
:1062600094F88A10491E11F0FF0184F88A1001D1B8
:10627000012118E0FAF782F8BDE87040FDF720BE72
:1062800094F88A10491E11F0FF0184F88A10F1D1A8
:10629000022108E094F88A10491E11F0FF0184F8E9
:1062A0008A10E7D1032184F83610E3E7FAF766F89D
:1062B00046F62D60288070BD9C010020044808B57A
:1062C0000068FEF741FA69460020FEF7A9F908BD0B
:1062D000F00100202DE9F84F984616468A460446FC
:1062E000FAF748F83C4D2978491C2970FAF746F826
:1062F0000CB93A4804680020394F2664A8F8000019
:1063000094F8360046F6C55908284DD2DFE800F06B
:106310002525212125252121FAF730F8FFF7B2FBA9
:1063200001E0FAF72BF8A8F800900020BDE8F88FFC
:10633000761C6664FAF71EF82978491E11F0FF01F1
:1063400029702ED1398861B3FAF718F8FFF79AFB54
:1063500040E094F8340007280ED0666C701CE7D13A
:10636000FAF708F82978491E11F0FF012970D8D1F1
:1063700039880029D5D0CFE700231A462146184690
:106380000096FFF78DF9666CF9F7F4FF2978491E3E
:106390002970F9F7F3FF5FEA0A401BD4FDF790FD7F
:1063A00018E0F9F7EBFF15E0F9F7E4FF2978491E4B
:1063B00011F0FF01297006D1398821B1F9F7DEFF0C
:1063C000FFF760FB01E0F9F7D9FF46F62D60A8F86A
:1063D000000000263046A9E79C010020F0010020C3
:1063E000600100202DE9F0410D460446F9F7C2FF97
:1063F000244904B90C680968234E8C4206D13178CF
:1064000021B1F9F7BBFF46F6635038E0002129803F
:1064100094F83610012708292DD2DFE801F004177F
:106420001F21272727273178491C3170F9F7A6FF4C
:10643000042084F8360084F88A702046FFF7F8FAC2
:10644000F9F798FF3178491E317001E0052108E025
:10645000F9F794FFBDE8F041FDF732BD062100E0F9
:10646000072184F8361084F88A70F1E714F88A1F3F
:10647000491C2170ECE7F9F781FF46F62D60288072
:10648000BDE8F081F00100209C01002010B5002043
:106490000246074B074C06E003EBC001401C0A60B4
:1064A0008A80CA8080B221888842F5D310BD00005E
:1064B00040D9012040090108F0B5324C002647F2CE
:1064C0007E252468042A08D0B1B32E4D082A2D68F1
:1064D0000D440BD0C0E9135115E00A1B521E12F5F2
:1064E000803F2AD8521CC0E913120CE0826C0A4487
:1064F000171B7F1E8F4201D2C26400E0C564C16CCD
:106500000A1B02658164204AC16C1288B1FBF2F556
:1065100002FB15111D4A89B202EBC102918889B1B3
:106520001168F1B1CD6C2D1B0D65076DAF4212D90D
:106530004D6965B12946F5E7FFE7C6640665C661A2
:106540001D80F0BD46618661012110600BE0C0E94D
:106550000561486105E08C6974B1C0E905146061AA
:1065600088619188491C9180D48889B28C4200D27C
:10657000D180C2611E80F0BDC0E90516886110603F
:10658000EFE70000D40100204009010840D90120B4
:1065900010B5C169002915D0002404650A6882423B
:1065A00004D142690A6032B1946104E0D0E9052364
:1065B0005A6102B1936144618461C461C464888892
:1065C000401E888010BD000010B500200246064B1A
:1065D000064C04E003EBC001401CCA8080B2218855
:1065E0008842F7D310BD000040D9012040090108BE
:1065F0002DE9F05FF9F7BEFE494A1178491C117088
:10660000F9F7BCFEFBF750FB464E8346464930681F
:106610004FF00309401C306009880025B0FBF1F2FF
:1066200001FB1200414980B22F4651F830404FF033
:10663000040AC4B394F83600D4F8148008284DD264
:10664000DFE800F04C044C104C254C32E06C316813
:10665000421A2265884240D184F836702046FFF7FE
:10666000C1FD3BE0E06C3168421A2265884234D1BA
:10667000E765A4F86070FBF717FB20642046FEF77F
:1066800091FF2046FFF7AEFD84F8367020E0E06C05
:106690003168421A226588421FD184F836A020460C
:1066A000FFF776FF1AE01CE0E06C3168421A2265C1
:1066B000884212D1E765A4F86070FBF7F5FA206410
:1066C0002046FEF76FFF2046FFF762FF84F836A0F2
:1066D00084F8359084F8347000E001254446002D9C
:1066E000A7D0FBF7E1FA1249A0EB0B000A6882423F
:1066F00000D20860F9F73EFE094A1178491E11F0F0
:10670000FF01117008D10B49098829B1F9F736FE4C
:10671000BDE8F05FFFF7B6B9BDE8F05FF9F72EBE50
:106720009C010020D40100204009010840D901202B
:10673000D8010020600100201CB5084C00216B46E8
:1067400001AA0846FEF708F8BDF800000028F5D1B8
:1067500020780128F2D1FFF74BFFEFE75501002029
:1067600030B504461A4889B000250560194805600F
:10677000FFF78CFE184A106840B11848184B0168A2
:106780001B68994205D247F2132008E047F2122015
:1067900005E014490B783F2B04D347F211202080E9
:1067A00009B030BD0B2305950695CDE907340E4B96
:1067B000006812681B68CDE90230019204950878E0
:1067C00000900023094A0AA10E48FDF747FEE7E7BB
:1067D000D4010020D80100209C090108A409010867
:1067E0009409010839090108A0090108396700085E
:1067F00075432F4F532D494949205469636B2054E9
:1068000061736B00A8E1012030B52A4989B00023EB
:10681000294A0B60294C2A4915681DB12468B4FB2C
:10682000F5F203E022680A24B2FBF4F20A60114692
:10683000244A274C274D116023490B6023490B60E4
:10684000002106E004EBC102491C9380D38089B289
:1068500013602A889142F5D31F4C216841B11F492A
:106860001F4D0A682D68AA4205D247F2483108E058
:1068700047F2473105E01B4A15783F2D04D347F214
:106880004631018009B030BD0B2505930693CDE953
:1068900007500868144924680968CDE90210049378
:1068A0000194107800900023104A11A11648FDF7BA
:1068B000D5FDE7E7DC010020B009010898090108CF
:1068C000E8010020EC010020E4010020E0010020AC
:1068D000C8DB012042090108B4090108BC0901080C
:1068E000940901083A090108B8090108CD690008AE
:1068F00075432F4F532D4949492054696D657220C6
:106900005461736B000000006CE2012070B502223C
:1069100080F82A20204A012913681ED0016AE1B1BB
:106920001E4A1944816112880025B1FBF2F402FB72
:1069300014121B4C92B204EBC20214687CB1C91A47
:10694000C1611168D1B18C69E41ACC61C669A642F3
:106950000ED90C6944B12146F5E7416AE0E70561CB
:106960004561106001200BE0C0E90451086105E0B9
:106970004B6963B1C0E90413186148619088401CF9
:106980009080D18880B2814200D2D08070BDC0E9B1
:10699000041548611060F1E7E40100204209010894
:1069A000C8DB012010B500200246064B064C04E06F
:1069B00003EBC001401CCA8080B221888842F7D313
:1069C00010BD0000C8DB0120420901081CB5DFF83A
:1069D00098B0DFF89880DFF898A000216B4601AAF4
:1069E0000846FDF7B9FE6846FDF7A4FAFBF75CF927
:1069F0000746D8F800004FF00309401CC8F8000013
:106A0000BBF800100026B0FBF1F301FB130019499D
:106A100080B251F83040ACB1A169D8F800002569C6
:106A200081420FD1204600F027F8208D022816D091
:106A300084F82A90A26812B12046E16890472C465B
:106A4000002EE8D0FBF730F9C41B6846FDF79CFA2E
:106A5000DAF80010A142C0D2CAF80040BDE7012117
:106A60002046FFF753FFE5E742090108E401002053
:106A7000E0010020C8DB012010B5104A8169002424
:106A80001288B1FBF2F302FB13110D4A89B202EB3B
:106A9000C10102690B68834203D10A602AB15461C3
:106AA00003E043691A6102B15361012280F82A2090
:106AB000046144618888401E888010BD4209010835
:106AC000C8DB0120044A0029116801D0014300E01D
:106AD000814311607047000030380240044A0029A9
:106AE000116801D0014300E081431160704700004C
:106AF00010380240044A0029116801D0014300E027
:106B0000814311607047000040380240044A002968
:106B1000116801D0014300E081431160704700001B
:106B200020380240044A0029116801D0014300E0E6
:106B3000814311607047000044380240044A002934
:106B4000116801D0014300E08143116070470000EB
:106B50002438024070B5204B1968204C11F00C010C
:106B600004D06610042903D0082903D004601BE078
:106B7000066019E0184A121F1168C1F380551168A8
:106B800001F03F0115B1B6FBF1F101E0B4FBF1F109
:106B900014681268C4F388146143C2F30142521CA2
:106BA0005200B1FBF2F1016019680F2202EA1111E3
:106BB0000B4A545C0168E14041601C68072505EA06
:106BC0009424145D21FA04F484601B6805EA5333AD
:106BD000D25CD140C16070BD083802400024F4008E
:106BE0001400002070B522A0F9F7F6FBFCF7C0FBFB
:106BF00001462FA0F9F7F0FB08213BA0F9F7ECFBC9
:106C0000FCF7B6FB84B2FCF7B3FB010C224646A0AE
:106C1000F9F7E2FB52A0F9F7DFFB614D61A0297A99
:106C2000C1F11602F9F7D8FB287AC0F116018A00E3
:106C3000082101EB80016BA0F9F7CEFB48A0F9F722
:106C4000CBFB0024C4EBC40005EBC000416D29B1AF
:106C5000D0E91712836D73A0F9F7BEFB641CE4B290
:106C6000162CEFD3BDE8704001A0F9F7B5BB0000CA
:106C700020202D2D2D2D2D2D2D2D2D2D2D2D2D2D5E
:106C80002D2D2D2D2D2D2D2D2D2D2D2D2D2D2D2D34
:106C90002D2D2D2D2D2D2D2D2D2D2D2D2D2D2D2D24
:106CA0002D2D2D2D2D2D2D2D2D2D2D0A0D000000DE
:106CB00020207C536E486173683A2575202020207F
:106CC00020202020202020202020202020202020C4
:106CD00020202020202020202020202020202020B4
:106CE00020200A0D0000000020207C447574547997
:106CF00070653A257520202020202020202020208B
:106D00002020202020202020202020202020202083
:106D10002020202020202020202020202020202073
:106D200020200A0D0000000020207C466C79416480
:106D300064723A25752E25752020202020202020E1
:106D40002020202020202020202020202020202043
:106D50002020202020202020202020200A0D00009C
:106D600020207C2D2D2D2D2D2D2D2D2D2D2D2D2D1E
:106D70002D2D2D2D2D2D2D2D2D2D2D2D2D2D2D2D43
:106D80002D2D2D2D2D2D2D2D2D2D2D2D2D2D2D2D33
:106D90002D2D2D2D2D2D2D2D2D2D7C0A0D0000009E
:106DA0002817002020207CD3D0D0A7C9E8B1B8CACA
:106DB000FD3A256420202020BFD5CFD0BFD5BCE42C
:106DC0003A20256420202020202020202020202060
:106DD00020202020202020202020202020200A0DDC
:106DE0000000000020207CD3D0D0A7B1E4C1BFCAEE
:106DF000FD3A256420202020BFD5CFD0BFD5BCE4EC
:106E00003A2025642020202020202020202020201F
:106E100020202020202020202020202020200A0D9B
:106E20000000000020207CBDDAB5E349443A256427
:106E30002020202020BDDAB5E355493A25642020E2
:106E4000202020B5D8D6B73A256420202020202045
:106E500020202020202020202020202020200A0D5B
:106E60000000000010B540F224524FF40011074812
:106E700000F080F9FFF7B6FE04480079002803D03F
:106E800003A0F9F7A9FAFEE710BD000028170020BB
:106E9000566572204572726F722C5265736574204C
:106EA0004461746162617365210A0D00F9F732FA79
:106EB00004480168044A01F4E06111430160BFF332
:106EC0004F8FFEE70CED00E00400FA052DE9F04FCE
:106ED00004460089A3B081087ED080077CD104F1EC
:106EE0000A054021D4F8008004F0ECFD06460C228F
:106EF0002146FCF734FCFCF73BFA3060307A012184
:106F000061F3010000F003000C27308107EB9002D1
:106F10003146404600F098FC3146002004F0A0FDC8
:106F20002878042200F07F00884EDFF824924FF08A
:106F3000010A04F112014FF01E0B4FF00008112856
:106F400030D041287ED0162846D10E2202A8F9F76B
:106F500032FC06208DF87C0012208DF87DA08DF883
:106F60007380ADF87E000246ADF86CB045468DF8F2
:106F7000727001A920A8F9F763FC21680020C0EB1A
:106F8000C00206EBC202926D8A4203D0401CC0B21E
:106F90001628F4D300244E46301990F850000528E6
:106FA0007DD0CDE0087800F00700012831D1032022
:106FB0008DF814008DF80B808DF815A0ADF804B095
:106FC0008DF80A70ADF816202768FCF7D1F9CDE9E5
:106FD0000670202201A900E03DE009A8F9F730FC85
:106FE0005CA0F9F7F9F9002709EB070191F85010B7
:106FF00004290AD1CDF8008059F82700BDF80420F3
:107000000123006801A905F01FFA7F1CFFB2142FAD
:10701000EAD3E88800281ED1687900281BD1687857
:10702000012807D0052816D123B04DA0BDE8F04FA8
:10703000F9F7D2B921680025C5EBC50006EBC00001
:10704000826D00E01EE08A4201D1406D30B16D1CBE
:10705000EDB2162DF0D323B0BDE8F08FFCF788F920
:10706000C5EBC50106EBC10140F224524865307AF8
:107070004FF40011401C307223B03448BDE8F04F8B
:1070800000F07BB868790028E5D0087800F00300AC
:107090000128E0D124680020C0EBC00500E045E0F5
:1070A00006EBC505AD6DA54211D14D78C0EBC00012
:1070B00006EBC000AD0800EBC5058C7885F8704084
:1070C0004C78A40800EBC400D0F86CC003E0401C6E
:1070D000C0B21628E0D305208DF814008DF80B807F
:1070E0008DF815A0ADF804B08DF80A70ADF8162033
:1070F0004988454661F31F436AF30F23CDE906C370
:1071000000244E46301990F85000052809D100950A
:1071100056F82400BDF804200123006801A905F0F9
:1071200093F9641CE4B2142CECD394E7009556F860
:107130002400BDF86C20012300681BA905F084F928
:10714000641CE4B2142CFFF427AF84E72817002056
:10715000F8010020205365726361685F4144440078
:10716000205750545F4144445F6661696C65640A0E
:107170000D00000092B200F07FBF92B200F0DEBFBF
:1071800070B5032000F0C8F90446042000F0C4F9EB
:10719000A00715D54C21002004F094FC040009D070
:1071A000211D481D054600F07FFA207228466168BF
:1071B000FFF78CFE2146BDE87040002004F050BC73
:1071C00070BD0000F0B5012187B00846FFF77AFCDA
:1071D00001210E033046FFF7A5FC38200590022060
:1071E0008DF8180000248DF81A4003208DF819003E
:1071F000214F01258DF81B5005A93846FCF7CCF826
:10720000052203213846FCF703F9052204213846FC
:10721000FCF7FEF8052211463846FCF7F9F8012183
:107220003046FFF78BFC00213046FFF787FCADF8B6
:1072300000404FF48270ADF80200ADF808506802CB
:10724000ADF80A001020ADF80C00ADF80440ADF820
:107250000640ADF80E400720084CADF81000694616
:10726000204600F0C6F80121204600F0ADF8FF20CE
:1072700000F006F807B0F0BD000402400030014005
:1072800070B506460024114D03E0641CE4B2C82C1E
:107290000FD80221284600F0A1F80028F5D0314689
:1072A000284600F0A4F8002405E0641CE4B2C82CD1
:1072B00001D9002070BD0121284600F08FF8002878
:1072C000F3D0284600F091F8C0B270BD0030014004
:1072D0002DE9F04188B001210220FFF70BFC4FF4AB
:1072E000804801214046FFF705FC4FF44440022648
:1072F00005908DF8186003208DF819000024234FA5
:107300008DF81A4001258DF81B5005A93846FCF769
:1073100043F805220A213846FCF77AF805220E21A7
:107320003846FCF775F805220F213846FCF770F84F
:1073300001214046FFF7EAFB00214046FFF7E6FB4C
:10734000ADF800404FF48270ADF802001020ADF8A7
:107350000C00ADF808504001ADF80440ADF80A004B
:10736000ADF80E4007200A4CADF81000ADF80660ED
:107370006946204600F03DF80121204600F024F83F
:10738000FF2000F007F808B0BDE8F08100040240DB
:107390000038004070B50B4C05460221204600F035
:1073A0001DF80028F9D02946204600F020F80121D8
:1073B000204600F013F80028F9D0204600F015F818
:1073C000C0B270BD003800400029018802D041F0F1
:1073D000400101E021F04001018070470246002099
:1073E00012890A4200D0012070478089704781814C
:1073F000704730B502884C8802F441530A88CD8822
:1074000022438C882C4322430C8922434C892243FB
:107410008C892243CC8922431A430280828B22F436
:1074200000628283098A018230BD02899207FCD5FD
:1074300081810189C907FCD08089C0B270470000F2
:107440000149C1F8DC007047000027420CB500225A
:10745000274900920192086840F4803008604FF498
:10746000A043086800F4003001900098401C009090
:10747000019810B900989842F3D10868800334D578
:10748000012001901A484030026842F080520260A8
:107490001848026842F44042026015480830026809
:1074A0000260026842F400420260026842F4A052A4
:1074B0000260031F104A1A600A6842F080720A6074
:1074C0000A689201FCD50D4940F205720A60016814
:1074D00021F003010160016841F0020101600168CF
:1074E000C1F381010229FAD10CBD01920CBD00004B
:1074F000003802400070004008544007003C024041
:1075000010B5032000F008F8BDE81040042000F09A
:1075100003B880B200F068BF70B50B4D04468021FF
:107520002846FBF785FF04F07F01084C2046FFF753
:107530007CFF00212046FFF778FF04468021284683
:10754000FBF778FF204670BD000402400030014088
:1075500010B504462C21702000F034FA40211D2083
:1075600000F030FA1B211C2000F02CFAD021202042
:1075700000F028FA0021212000F024FA9D21222089
:1075800000F020FA4921232000F01CFA00212420D9
:1075900000F018FA3421252000F014FA4E216E2054
:1075A00000F010FAA5216F2000F00CFA8D21302098
:1075B00000F008FAFF21322000F004FA42213320C3
:1075C00000F000FA1021342000F0FCF920213520D1
:1075D00000F0F8F97721362000F0F4F96E21372019
:1075E00000F0F0F96521382000F0ECF97421392021
:1075F00000F0E8F9FF21432000F0E4F9FF214420E6
:1076000000F0E0F9FF21452000F0DCF9FF214620E1
:1076100000F0D8F907216D2000F0D4F9002179207D
:1076200000F0D0F900217A2000F0CCF9222171205D
:1076300000F0C8F91921722000F0C4F9002173206C
:1076400000F0C0F90021742000F0BCF904B3A4F5E7
:107650000C54283C312C25DA0A2094FBF0F100FB75
:10766000114000EBC00202EB00104FF6FF7202EA7D
:1076700000245331C9B2752000F0A4F9210A762004
:1076800000F0A0F9E1B2BDE81040772000F09AB90F
:107690005321752000F096F90021762000F092F930
:1076A0000021F0E710BD00002DE9F04706468846AE
:1076B0004B20FFF731FF05002DD0DFF888908021A7
:1076C0004846FBF7B5FE204F7F213846FFF7ADFE59
:1076D000002406E000213846FFF7A7FE3055641C61
:1076E000E4B2AC42F6D380214846FBF7A3FE4A2021
:1076F000FFF712FF04064920FFF70EFF44EA00449B
:107700004820FFF709FF44EA00244720FFF704FF61
:107710000443C8F800400820FFF7FEFE40F00201D5
:10772000082000F04FF90820FFF7F6FE20F00201D4
:10773000082000F047F90548406800F011F8284695
:10774000BDE8F08700040240003001404000002006
:10775000024908700978272000F034B94000002061
:1077600010B504460121072000F02CF902210E205B
:1077700000F028F90820FFF7CFFE40F002010820B2
:1077800000F020F90820FFF7C7FE20F002010820D2
:1077900000F018F9FFF7B4FE210E422000F012F9B4
:1077A000C4F30741412000F00DF9C4F30721402044
:1077B00000F008F9E1B23F2000F004F902210520B1
:1077C00000F000F90021062000F0FCF80521BDE8DA
:1077D0001040072000F0F6B810B50446012107203C
:1077E00000F0F0F801210E2000F0ECF80820FFF77F
:1077F00093FE40F00101082000F0E4F80820FFF7B4
:107800008BFE20F00101082000F0DCF8FFF778FE85
:10781000210E3D2000F0D6F8C4F307413C2000F0D3
:10782000D1F8C4F307213B2000F0CCF8E1B23A20B4
:1078300000F0C8F80421052000F0C4F80921BDE8D3
:107840001040072000F0BEB82DE9F0438BB015467C
:107850000E46FFF7C1FF29463E2000F0B3F8DFF8DF
:10786000208180214046FBF7E3FD464FFF2138464B
:10787000FFF7DBFD002405E0315D3846FFF7D5FD5D
:10788000641CE4B2AC42F7D380214046FBF7D2FD42
:107890003D4E306820F0080030603C4D0027C5F8B0
:1078A00098723C464FF001084FF47A794CE0641C22
:1078B0004C4546D3306840F008003060C5F89882E7
:1078C00033A0F8F789FDFBF753FD3449CA886421DA
:1078D00000F094F809A93248FCF7A2FEF8F74AFD37
:1078E000304C2178491C2170F8F748FD09A8032184
:1078F00005970697CDE9071002AB4FF496711E204D
:1079000083E88300284A0023CDE90002274A28A102
:107910002348FCF7A3FDF8F72DFD2178491E11F04F
:10792000FF01217007D12549098821B1F8F726FD0B
:10793000FEF7A8F801E0F8F721FD00200BB0BDE844
:10794000F0830120FFF7E5FDD5F818020028AED13D
:10795000C5F89882306840F0080030600320FFF7D7
:10796000DBFD04460420FFF7D7FD1548610740689A
:1079700003D5FFF7F5FE0120E0E7FFF7F1FEDCE7B6
:107980000004024000300140003C014000804042C1
:107990005478204641494C45440D0A0028170020E0
:1079A000CC0D00209C010020900E002051AD00085D
:1079B0006C6564207461736B00000000600100203E
:1079C0004000002070B50B4D0E460446802128462D
:1079D000FBF72EFD44F08001074C2046FFF725FD04
:1079E00031462046FFF721FD2846BDE87040802142
:1079F000FBF720BD00040240003001402DE9FC5F90
:107A00008B468146924601210A20FFF75BF8402011
:107A10000024DFF87C8100908DF8044001268DF869
:107A2000076069464046FBF7B7FC8DF80460802587
:107A30008DF80640022700958DF80570694640468E
:107A4000FBF7AAFC80214046FBF7F4FC8DF80460AC
:107A50008DF806404F4C00958DF80570694620461C
:107A6000FBF79AFC80212046FBF7E4FCFFF7AAFB1A
:107A7000494D6420C5F80490FFF74BFD8021204656
:107A8000FBF7D8FC3220FFF744FD80212046FBF7AE
:107A9000CFFC4FF41670FFF73CFD0020FFF73CFDD4
:107AA0000746142000F0A0FC0120FFF735FD044636
:107AB000142000F099FC0220FFF72EFD80461420D0
:107AC00000F092FC43462246394634A0F8F784FC85
:107AD000082F01D1062C07D03648C0F8946236A092
:107AE000F8F77AFCBDE8FC9F39A0F8F775FC6868E8
:107AF000FFF736FE3B4CD4F8180270B1D4F81812D8
:107B000039A0F8F769FC80210720FFF75BFFD4F864
:107B1000181235A0F8F760FC06E034A0F8F75CFC1A
:107B2000FEE738A0F8F758FCD4F818020128F8D07E
:107B3000D4F818122CA0F8F74FFCFFF7E1FC30A0A6
:107B4000F8F74AFC01210720FFF73CFF002106203F
:107B5000FFF738FFF7210920FFF734FF05210A203E
:107B6000FFF730FFEA210B20FFF72CFFEA210C2062
:107B7000FFF728FF1F210D20FFF724FF5046FFF7D6
:107B8000E7FC5846FFF7E4FD6868FFF7E9FDA9E761
:107B900000040240000C02404000002053693434CD
:107BA00033325B25303278253032785D3A25780AD9
:107BB0000D00000000004042536934343332204944
:107BC0006E6974204572726F72210D0A0000000008
:107BD00053693434333220496E6974204F4B210D80
:107BE0000A000000008040422564000053693434DC
:107BF000333220537461747573204572726F722131
:107C00000A0D00002E0000004FF0E0210428086952
:107C100003D020F004000861704740F00400FAE748
:107C2000064810B50078012807D1FBF7E7FEFDF7FD
:107C300049F8BDE81040FBF7F1BE10BD550100202A
:107C4000124810B5016841F47001016010480168E4
:107C500041F0010101600E4A002108321160026802
:107C60000C4B1A400260031D0B4A1A60026822F492
:107C70008022026006480C300160FFF7E7FB0349F1
:107C80004FF000608039086010BD000088ED00E012
:107C900000380240FFFFF6FE10300024084A4FF47F
:107CA00016711088401C80B2B0FBF1F3108001FB0C
:107CB000130008B9002010800121024800F068B8C4
:107CC0002C0000200000014010B5084C0121204686
:107CD00000F06BF8012803D105490A680A320A60EE
:107CE0002046BDE81040012100F052B800040040D9
:107CF0004C00002010B5FBF781FE0C4C0121204602
:107D000000F053F801280CD10948018841F40041E2
:107D100001800121204600F03BF80021204600F0C0
:107D20003AF8BDE81040FBF779BE000000140040AF
:107D3000540000207FB50D46044601212020FEF7A7
:107D4000D9FE0194ADF800500024104DADF802406A
:107D5000ADF808406946284600F03EF80122114679
:107D6000284600F02EF80121284600F014F83720AC
:107D70008DF80C008DF80D4001208DF80E008DF867
:107D80000F0003A8FBF720FD7FBD0000001400409A
:107D9000C943018270470029018802D041F00101E6
:107DA00001E021F001010180704702460020138AA2
:107DB00092890B4202EA010202D0002A00D001207F
:107DC0007047002A828901D00A4300E08A438281F9
:107DD000704741627047000030B50288164C174D5D
:107DE000A0420DD0A8420BD0B0F1804F08D0144B68
:107DF000984205D0134B984202D0134B984203D1BE
:107E000022F070034A881A43104B984206D0104B58
:107E1000984203D022F440730A891A4302804A68C8
:107E2000C2620A880285A04201D0A84201D1897AA3
:107E300001860121818230BD000001400004014023
:107E40000004004000080040000C0040001000400A
:107E5000001400407047000070B5FBF7CFFD154CD3
:107E60002021204600F038F800B3204600F0AAF8A0
:107E7000114CC5B22088000418D42088642811D27F
:107E80000E4E00213046FFF7A4FF208818B90121CB
:107E90003046FFF780FF208809490144401C2080BC
:107EA0000D7003E0208840F400402080BDE8704061
:107EB000FBF7B4BD00440040540000200014004013
:107EC000C41600200029818902D041F4005101E04C
:107ED00021F40051818170470246002012880A4235
:107EE00000D00120704710B5C1F3421301F01F0408
:107EF0000121A140012B07D0022B07D01430002A0A
:107F0000026805D00A4304E00C30F8E71030F6E7C9
:107F10008A43026010BD00007FB50446008A0D460A
:107F2000C98820F4405001432182A08941F20C61AC
:107F30008843A9882A8911436A8902431143A18190
:107F4000A08A20F44071A8890843A0826846FEF701
:107F500001FE1A48844202D01948844201D1039894
:107F600000E00298A189090400EBC00101EB0010B8
:107F7000296801D5490000E08900B0FBF1F06422D6
:107F8000B0FBF2F109010B096FF018056B4300EB30
:107F90008300A3891D044FF0320306D503EBC00014
:107FA000B0FBF2F000F0070005E003EB0010B0FBBF
:107FB000F2F000F00F00084320817FBD0010014067
:107FC000001401408088C0F308007047C1F3080125
:107FD0008180704770B5040300F004F900F0A8F840
:107FE0000C4D0020C5F8BC02202005F52F75FFF7C9
:107FF000D1F9C4F30740FFF7CDF9C4F30720FFF729
:10800000C9F9E0B2FFF7C6F901202860BDE8704069
:1080100000F08EB8000042427CB501211020FEF72E
:1080200051FD01211020FEF74DFD4FF44040012489
:1080300000908DF8044000208DF8060003208DF894
:1080400005000A4D8DF8074069462846FBF7A4F95C
:10805000A1032846FBF7EEF90548C0F8BC42FFF73C
:1080600037F900F031F8034908807CBD0010024068
:1080700000004242480000202DE9F041114F064621
:10808000002015460C46C7F8BC020320FFF782F912
:10809000C4F30740FFF77EF9C4F30720FFF77AF92E
:1080A000E0B2FFF777F9002405E0FF20FFF772F94F
:1080B0003055641CA4B2AC42F7D30120C7F8BC020F
:1080C000BDE8F0810000424270B50F4D0024C5F8B4
:1080D000BC42902005F52F75FFF75CF90020FFF7F3
:1080E00059F90020FFF756F90020FFF753F9FF2058
:1080F000FFF750F944EA0024FF20FFF74BF9204333
:108100000121296070BD00000000424210B5074CFB
:108110000020C4F8BC02052004F52F74FFF73AF9DB
:10812000FF20FFF737F90121216010BD0000424216
:1081300010B5FFF7EBFFC007FBD110BD2DE9F05FD5
:108140008A46814615464FF48051002003F0BAFC60
:10815000CAF30B06C6F5805407464FEA1A38A54203
:1081600000D82C464FEA08318B464FF480523846EF
:10817000FFF782FF002005E03118795CFF2903D169
:10818000401C80B2A042F7D3A04220D24046FFF765
:1081900021FF002005E019F800108219401CB95495
:1081A00080B2A042F7D359464FF48052384600F0CF
:1081B00029F8A5420FD0281BA144A244002685B26D
:1081C0004FF4805408F10108A542CBD8C9E72246F4
:1081D00051464846EBE73946BDE8F05F002003F022
:1081E0003FBC000010B5064C0020C4F8BC020620BD
:1081F00004F52F74FFF7CEF80120206010BD0000B9
:10820000000042422DE9F0410746C8B2C0F5807433
:108210000E461546A24200D814464FF480782246F6
:108220003146384600F00EF8A54208D0281B2744F6
:10823000264485B24446A542F1D82C46EFE7BDE876
:10824000F08100002DE9F04115460C460646FFF787
:10825000C9FF114F0020C7F8BC020220FFF79AF8AF
:10826000C4F30740FFF796F8C4F30720FFF792F82E
:10827000E0B2FFF78FF8002404E0305DFFF78AF8E2
:10828000641CA4B2AC42F8D30120C7F8BC02BDE81C
:10829000F041FFF74DBF00000000424203B40198D7
:1082A0004100009850EAC12018BF04204A0D18BFB1
:1082B00040F0010040F2FF72B2EB515F08BF40F0A6
:1082C0000200012808BF052002B0704730380A2894
:1082D00001D2012070470020704770472DE9F04718
:1082E0000546643017468846814605F029FAC8B32A
:1082F0002878D5F8A81003F061FD04004FF0FF3690
:108300002DD02046C4F8048004F076FF2772214661
:10831000484605F0FBF948B365680021284605F09A
:10832000CFFC0021284606F073FF0021284607F005
:10833000A4F804220021284606F08EFB00212846DE
:1083400005F088FE0020606004F13400054605F069
:1083500085F9284605F0CEF9204603F079FE30462F
:10836000BDE8F087FFE76FF00500F9E7D5F8A83022
:108370001BB100221146284698470020F0E7000074
:1083800010B501F0C7FE0022AFF20B01BDE81040AE
:1083900041F2883005F078BA10B504466FF0040059
:1083A000FFF732FC0D4BE0080D4A18700D4C1168B8
:1083B000B4FBF1F1414310684FF47A72B2FBF0F074
:1083C00058804FF0E020026942F0020202614161F0
:1083D000016941F00101016110BD0000240000208D
:1083E0009809010840420F0070B504460C48007817
:1083F00078B10C48007860B90B4D6888844203D38B
:10840000B4FBF0F000F012F86888B4FBF0F100FB68
:1084100011444FF47A706043BDE8704000F00CB82E
:1084200055010020540100202400002008B56A46B0
:108430000821FCF741FB08BDF8B54FF0E027002408
:108440007E690D49097800FB01F56846FBF772FD6E
:10845000B969B8698842FCD002D2A1EB000102E000
:10846000A6EB000211440C440146AC42F1D368462D
:10847000FBF78AFDF8BD00002400002058B1026A15
:10848000002A0FD0137B082B0CD10968526A914245
:1084900008D100F0F9B904A340F2253206A10AA0E0
:1084A000F7F79ABF704700004C5749505C737263EE
:1084B0005C646863702E63006E6574696620213D9C
:1084C000204E554C4C000000417373657274696F07
:1084D0006E2022257322206661696C6564206174B8
:1084E000206C696E6520256420696E2025730D0A55
:1084F000000000002DE9FC41050017D02C6AD4B122
:10850000626B4FF03C01501C4FF480374FF0010676
:108510004FF6FF7319D01E32B2FBF1F0B84200D310
:1085200018460204120CA2830ED00EE029A34FF4C9
:1085300069722CA103E027A340F2A63230A136A035
:10854000F7F74AFFBDE8FC81A683A26B501C0AD056
:108550001E32B2FBF1F1B94200D319460A04120CE3
:10856000E28300D1E683A18BE08B814202D308B184
:108570000020A083A07B08B1A06A09E094F8242021
:108580007F2A01D8FF2003E0C02A03D36FF07F4089
:10859000009000E00093E06A019028B9606A0099B9
:1085A000084040F08070019004F12401284604F056
:1085B00053F86946284604F083F801A9284604F0D8
:1085C00046F8284604F080F80A21204600F0F0FE24
:1085D000B8E700004C5749505C7372635C64686391
:1085E000702E6300646863705F62696E643A206E27
:1085F0006574696620213D204E554C4C00000000FA
:10860000646863705F62696E643A206468637020B6
:10861000213D204E554C4C00417373657274696F57
:108620006E2022257322206661696C656420617466
:10863000206C696E6520256420696E2025730D0A03
:108640000000000070B5046A05460821204600F0CD
:10865000AFFE002204F12401284601F071FC607B8A
:10866000401C60730120608370BD0000164810B587
:10867000046825E0206A10B3C18B4A1EC283012919
:1086800006D0216A888B421E8A8301280CD016E00E
:10869000216A2046097B012903D00A2901D0052936
:1086A0000DD100F053FC0AE0216A2046097B012924
:1086B00003D00A2901D0052901D100F0BBFD2468AF
:1086C000002CD7D110BD0000C00000202DE9F041E2
:1086D00016460C4605000ED0C4B100224FF49A7124
:1086E000104604F001F82061002819D0627B45494A
:1086F000002A18D01AE044A340F27C6246A14EA0A2
:10870000F7F76AFE6FF00D00BDE8F0813EA340F27E
:108710007D6254A148A0F7F75FFE6FF00500F3E714
:108720004FF0FF30F0E70A68521C0A6009682160C8
:1087300040680121606101706069002741706169D2
:1087400095F82A0088706069C770206802F074FF8D
:108750006169082E486060690781606947816069C6
:10876000C76008D0042E06D0032E07D1207B052831
:1087700001D0042802D161696868C8606069076136
:108780006069476160698761002095F82A1081421D
:1087900003D9291891F82B1000E0002100F11C02E8
:1087A0006369401C80B299541028EED3002000F178
:1087B0002C016269401C80B257544028F7D3002036
:1087C00000F16C016269401C80B257548028F7D3D5
:1087D00061692C48C1F8EC0027830020626900F130
:1087E000F0015054401C80B24428F7D301223521B7
:1087F000204600F067F93146204600F073F900206A
:1088000082E70000840000204C5749505C7372637B
:108810005C646863702E6300646863705F63726594
:108820006174655F6D73673A206E657469662021B7
:108830003D204E554C4C0000417373657274696F56
:108840006E2022257322206661696C656420617444
:10885000206C696E6520256420696E2025730D0AE1
:1088600000000000646863705F6372656174655F37
:108870006D73673A206468637020213D204E554C2B
:108880004C00000063825363F8B5046A06460C216D
:10889000204600F08DFD042221463046FFF716FFEA
:1088A00005001ED104223221204600F00BF9606A37
:1088B00002F0C6FE0146204600F03DF9204600F0D9
:1088C0006DF9208BF03081B2206904F0F7F9009641
:1088D0004323074A2169606807F08CFD204600F0B9
:1088E00009F8607B401C6073142060832846F8BD43
:1088F000A408010810B5040007D0206908B104F0ED
:1089000047F900202061606110BDBDE8104003A35D
:1089100040F2C96205A10DA0F7F75EBD4C57495062
:108920005C7372635C646863702E63006468637078
:108930005F64656C6574655F6D73673A2064686336
:108940007020213D204E554C4C0000004173736552
:108950007274696F6E2022257322206661696C65CE
:1089600064206174206C696E6520256420696E2026
:1089700025730D0A00000000F8B5046A06460020C1
:1089800060620621204600F013FD01222146304698
:10899000FFF79CFE050030D102223921204600F06D
:1089A00091F8318D204600F0E7F804223721204667
:1089B00000F088F80121204600F094F803212046B9
:1089C00000F090F81C21204600F08CF8062120468B
:1089D00000F088F8204600F0E1F8208BF03081B2FA
:1089E000206904F06BF900964323114A21696068FD
:1089F00007F000FD2046FFF77DFF607B401CC1B201
:108A00006173062902D20120884000E03C2000EB7F
:108A10004001C1EBC0104FF6FF7101EAC0004FF4F6
:108A2000FA7100F2F310B0FBF1F060832846F8BD54
:108A3000A408010870B50B48002504680EE0206A00
:108A400058B1418B012903D9A1F10101418304E00F
:108A500003D14583204600F07DFD2468002CEED133
:108A600070BD0000C000002070B5046A0020144EE4
:108A7000A062E062F178A6F1280509B1E9682163F6
:108A8000317909B1296901E0216B49086163717984
:108A900009B1696900E0216BA163A168096961629C
:108AA000B17921B1A86902F0C7FDA0620120A073CD
:108AB000F079002803D0E86902F0BEFDE06270BDE5
:108AC00074C5012010B5038B44691C445B1C0383EF
:108AD00084F8F010018B43690B44491C018383F82F
:108AE000F02010BD028B43691344521C028383F8AB
:108AF000F010704770B50646486A0C46002819D039
:108B0000F7F73AFE002815D0318B656AC1F14101B3
:108B1000884200D30846C4B222460C213046FFF7F3
:108B2000D1FF04E015F8011B3046FFF7DBFF641EA0
:108B3000E4B2F7D270BD10B5028B44690B0E144439
:108B4000521C028384F8F030028B44690B0C1444ED
:108B5000521C028384F8F030028B44690B0A1444DF
:108B6000521C028384F8F030028B43691344521C78
:108B7000028383F8F01010BD10B5028B44690B0A14
:108B80001444521C028384F8F030028B436913446E
:108B9000521C028383F8F01010BD000048B1018B15
:108BA0004369FF220B44491C018383F8F020002213
:108BB0000CE008A340F2DE620AA113A0F7F70CBC98
:108BC00043690B44491C018383F8F020018B44293D
:108BD000F6D370474C5749505C7372635C646863AA
:108BE000702E6300646863705F6F7074696F6E5F8E
:108BF000747261696C65723A206468637020213D0B
:108C0000204E554C4C000000417373657274696FBF
:108C10006E2022257322206661696C656420617470
:108C2000206C696E6520256420696E2025730D0A0D
:108C3000000000002DE9F34F83B0002104468B466D
:108C400001910A219848F7F74FFE049840892C2893
:108C500014D30499F0264868A06004980089049F02
:108C600004E0721A401A3F6896B280B237B179892F
:108C7000B142F6D98046D7F804A0E9E06FF00100D0
:108C800005B0BDE8F08FB01C1FFA80F97A89701C1E
:108C90004FF0FF34824203D90AEB0600407803E02C
:108CA000386808B1406800783429054653D00BDC99
:108CB00003292BD003DCE1B101290DD11EE00629E7
:108CC0002DD0332908D13DE035294CD0362953D059
:108CD0003A2959D03B295FD000253044801C86B208
:108CE000002D05D0002000906F48005D00285BD06B
:108CF0009CE00020761E0546B6B2EEE7042803D0BD
:108D00006AA340F27B5222E00624E6E70425042809
:108D100003D266A34FF4B06210E00724DDE78107B9
:108D200004D062A340F2855264A16AE0082800D30F
:108D30000825A84204D25DA34FF4B16263A160E0AC
:108D40000824CAE7042804D058A340F28C5264A136
:108D500057E00324C1E7012803D054A34FF4B262C3
:108D600006E00024B9E7012804D050A340F2945251
:108D70005EA146E00124B0E7042803D04BA34FF4E2
:108D8000B362E4E70224A8E7042803D047A340F233
:108D90009C52DCE70424A0E7042803D043A34FF44B
:108DA000B462D4E7052498E7042D01D22A4600E0F6
:108DB00004224B466946384603F06AFE042D18D952
:108DC000A80704D039A340F2B3524BA119E03649A9
:108DD00001200855009802F02FFC33492D1F283937
:108DE000EDB241F8240009F104001FFA80F9641C77
:108DF0007AE7042D0BD0012D0DD02CA340F2BD52EB
:108E000042A147A0F7F7E8FA6FF0050038E70098AD
:108E100002F016FC01E09DF80000234900900120BB
:108E2000085521480099283840F824107889B04224
:108E30000DD8311AA8EB00008EB21FFA80F8464513
:108E40000DD2B8F1000F0AD03F68D7F804A037B1AF
:108E50001AF80610FF2902D04645FFF414AF124954
:108E6000087868B1A1F12800002200680A70012882
:108E700008D0022802D0032809D001E04FF0010BEE
:108E8000019838B100206C260190EC20E7E64FF005
:108E9000010BF7E7BBF1000F4FF00000B6D083469F
:108EA0002C266C20DBE6000074C501204C5749508D
:108EB0005C7372635C646863702E63006C656E2023
:108EC000252034203D3D2030000000006C656E20E0
:108ED0003E3D206465636F64655F6C656E000000F5
:108EE0006C656E203D3D2034000000006C656E20F6
:108EF0003D3D2031000000006465636F64655F6C78
:108F0000656E20252034203D3D203000696E76615D
:108F10006C6964206465636F64655F6C656E0000F6
:108F2000417373657274696F6E2022257322206607
:108F300061696C6564206174206C696E65202564CC
:108F400020696E2025730D0A00000000F8B5046A40
:108F500005460421204600F02BFA0322214628462C
:108F6000FFF7B4FB06001FD1022239212046FFF78C
:108F7000A9FD298D2046FFF7FFFD29462046FFF772
:108F8000B9FD2046FFF70AFE208BF03081B2206940
:108F900003F094FE009543230F4A2169606807F0AF
:108FA00029FA2046FFF7A6FC607B401CC0B2607324
:108FB0000A2804D24FF47A7110FB01F001E042F26A
:108FC000107080B24FF4FA7100F2F310B0FBF1F0C0
:108FD00060833046F8BD0000A4080108F8B5046AB3
:108FE00006460321204600F0E3F9032221463046DD
:108FF000FFF76CFB050028D1022239212046FFF73C
:1090000061FD4FF410712046FFF7B6FD04223221B6
:109010002046FFF757FD606A02F012FB014620462A
:10902000FFF789FD2046FFF7B9FD208BF03081B2B4
:10903000206903F043FE009643230F4A21696068CC
:1090400007F0D8F92046FFF755FC607B401CC0B202
:1090500060730A2804D24FF47A7110FB01F001E02A
:1090600042F2107080B24FF4FA7100F2F310B0FBCC
:10907000F1F060832846F8BDA40801082DE9F0410D
:109080000446056A5089516816464FF000082C289E
:1090900072D3087802286FD1002094F82A2008E0C3
:1090A00023180F1893F82B303F7FBB4264D1401C2C
:1090B000C0B28242F4D8486802F0C2FA29688842F5
:1090C0005AD131462846FFF7B5FD00BB2E494878F6
:1090D000E8B1A1F128021079052804D0062817D09C
:1090E000022836D048E0287B012806D003280BD080
:1090F000042809D0052807D03EE02046FFF7B4FC3D
:109100002046FFF79FFA37E02046FFF7F3F933E0F8
:10911000287B032805D0012803D0042801D0052886
:109120002AD12046276A03F085FA1849204603F021
:1091300093FA1649204603F08AFA1449204603F0B0
:10914000BFFA0C21384600F033F92046FFF714FC33
:1091500012E0287B06280FD1A5F81A802746246A3A
:10916000887848B1906802F067FA2062A0680069C8
:109170006062384600F0A4F83046C5F80880BDE8C3
:10918000F04103F005BD000074C50120A0080108EE
:10919000F8B5046A05460021204600F009F90020D0
:1091A00020626062A062E062A063606320630722C5
:1091B00021462846FFF78AFA060013D12046FFF71A
:1091C000EDFC208BF03081B2206903F077FD009533
:1091D000432304F120022169606807F00BF920465F
:1091E000FFF788FB607B401CC0B260730A2804D282
:1091F0004FF47A7110FB01F001E042F2107080B27E
:109200004FF4FA7100F2F310B0FBF1F060832846DE
:1092100003F010FA0649284603F01EFA04492846CE
:1092200003F015FA0249284603F04AFA3046F8BD21
:10923000A0080108F8B5046A05460521204600F09B
:10924000B7F8032221462846FFF740FA060020D14E
:10925000022239212046FFF735FC298D2046FFF7F1
:109260008BFC29462046FFF745FC2046FFF796FC7D
:10927000208BF03081B2206903F020FD009543235C
:1092800004F120022169606807F0B4F82046FFF776
:1092900031FB607B401CC0B260730A2804D24FF4DB
:1092A000FA6110FB01F001E044F6206080B24FF457
:1092B000FA7100F2F310B0FBF1F060833046F8BDB4
:1092C000F8B5046A06460121204600F071F8032231
:1092D00021463046FFF7FAF905004CD10222392128
:1092E0002046FFF7EFFB318D2046FFF745FC0422B7
:1092F00032212046FFF7E6FB606A02F0A1F9014641
:109300002046FFF718FC042236212046FFF7DAFB3F
:10931000206A02F095F901462046FFF70CFC042272
:1093200037212046FFF7CEFB01212046FFF7DAFB6D
:1093300003212046FFF7D6FB1C212046FFF7D2FB76
:1093400006212046FFF7CEFB31462046FFF7D2FB31
:109350002046FFF723FC208BF03081B2206903F018
:10936000ADFC00964323114A2169606807F042F87A
:109370002046FFF7BFFA607B401CC1B2617306292B
:1093800002D20120884000E03C2000EB4001C1EB0C
:10939000C0104FF6FF7101EAC0004FF4FA7100F2FD
:1093A000F310B0FBF1F060832846F8BDA408010873
:1093B000027B8A4203D001730021417341837047CD
:1093C00070B505006FF00D0637D095F831002C6AA6
:1093D00020F0080085F8310080063DD5288D361133
:1093E000B0F5107F38D3002C2FD0606808B106F09C
:1093F000EBFF3C212046F7F777FA06F0D5FF6060D7
:10940000002829D0017A442241F020010172164936
:10941000606806F09FFE43221349606806F0E6FE8E
:109420002A461249606806F0CCFF2846FFF7A4FAE6
:10943000A0B1284600F042F80EE00DA340F27A22D7
:109440000FA113A0F6F7C8FF06E03C2002F086F952
:10945000040001D02C62CCE7304670BD15F8311FF6
:1094600041F00801297070BDA00801087D90000836
:109470004C5749505C7372635C646863702E630080
:109480006E6574696620213D204E554C4C000000ED
:10949000417373657274696F6E2022257322206692
:1094A00061696C6564206174206C696E6520256457
:1094B00020696E2025730D0A0000000010B598B1D8
:1094C00050F8204F417C002C21F00801417414D049
:1094D000606818B106F078FF002060602046BDE8A3
:1094E00010400021FFF764BFBDE8104003A340F225
:1094F000C74206A10CA0F6F76FBF10BD4C574950EC
:109500005C7372635C646863702E6300646863708C
:109510005F73746F703A206E6574696620213D2018
:109520004E554C4C00000000417373657274696FB6
:109530006E2022257322206661696C656420617447
:10954000206C696E6520256420696E2025730D0AE4
:109550000000000010B5026A0446117B0C2913D0EC
:10956000062911D0012913D008291ED0052928D099
:1095700004292AD0032930D1507B022813D2204657
:10958000BDE81040FFF72ABDBDE81040FFF7F4B971
:10959000507B052804D82046BDE81040FFF790BE58
:1095A0002046FFF7F5FD2046EEE7507B01282046D8
:1095B00003D8BDE81040FFF745B8BDE81040FEF7FE
:1095C00099BFBDE81040FFF735BE507B0828E7D8AB
:1095D0002046BDE81040FFF7B9BC10BD10B5FFF73D
:1095E00045F80022AFF20B01BDE810404EF66020B6
:1095F00004F04AB910B5FFF71DFA0022AFF20B01D3
:10960000BDE810404FF4FA7004F03EB910B501689F
:10961000044691F9080010F1090F19DBFA202071B6
:109620004868B0B1097801F0F00110290CD0202968
:1096300005D040290DD1A16803F010FC08E0A289F3
:10964000A16806F087FD03E0A289A16804F03AFB57
:1096500020712068BDE810400C3004F0A5B810B5AA
:1096600004460068417819B1022901D0FB211BE0B2
:10967000426812B10278102A01D0FA2114E0227A4D
:10968000032A01D002290ED0D10701D002F098FCA4
:109690002168042048702068C0F8A4402068BDE814
:1096A000104000F007B8F3212171BDE810400C30E4
:1096B00004F07AB82DE9F0410446D0F8A400007A0D
:1096C00000F0010700F00206032824D000251DB198
:1096D0000021606804F0F4FA6068017E01291CD062
:1096E00037B1002105F094FD0021606804F067FAAD
:1096F0001EB10021606805F0C0FE9DB1042200216A
:10970000606805F0A9F90021606804F0A3FC6068B6
:1097100004F050FB0BE00125D9E7002104F04FFADB
:10972000002DF4D132463946606805F0A8FE90B1AC
:109730001C49606805F0A1FE04221B49606805F021
:109740008BF91A49606804F085FC21466068BDE821
:10975000F04104F0B5BAD4F8A41000200871C4F8A0
:10976000A40060703DB16060D4F8A8301BB1002245
:1097700004212046984737B1D4F8A8301BB1002205
:1097800011462046984736B1D4F8A8301BB10022C4
:1097900002212046984704F10C00BDE8F04104F096
:1097A00003B80000A1D1000805CE0008C59A000842
:1097B00070B501680446487830B1022804D0032807
:1097C00002D0FB20207128E0084602F0F9FB226855
:1097D0005168A1B1107800F0F000102829D00025C0
:1097E000202805D0402808D1084603F091FB04E06A
:1097F000CD612068406806F0E7FD2068456020687C
:10980000D0F8A8304BB10022114698472068D0F814
:10981000A83013B100220221984720680C3003F0D1
:10982000CBFF002811D02068BDE870400C3003F059
:10983000BBBF04205070032020722068C0F8A440F1
:109840002068BDE87040FFF735BF70BD70B50446B5
:10985000006890F9081011F1090F01DA217144E054
:10986000F321217142681AB30178102901D0F22046
:109870001DE04078E0B9FF21104604F037FE0500F6
:1098800014D02068343003F05BFF38B120683430E6
:1098900003F0E4FE2068343003F02CFF002626712C
:1098A0002068643003F04CFF18B108E0FF202071FD
:1098B0001BE020681421643003F0DCFE2071207965
:1098C00028B1284604F076FA206846600DE0216849
:1098D00002204870206845602846216804F0F0F9AD
:1098E00020680549406804F06AF92068BDE87040C6
:1098F0000C3003F059BF0000DD82000810B50446AB
:10990000002020712068406810B9204603F00AFA50
:109910002068BDE810400C3003F046BF2DE9F0414F
:109920000546002028712868416899B10078102800
:1099300010D1AC684FF480384FF6FF77444501D31F
:109940003E4600E0A6B228683146406805F074FC47
:10995000A41BF3D12868BDE8F0410C3003F024BF0C
:10996000016891F9082012F1090F07DB0A78102A23
:1099700001D0FA2202E04A782AB1FB22027101F1F9
:109980000C0003F011BF4A685AB101224A70016805
:10999000C1F8A40002680021C2F8A010006800F01D
:1099A00002B8F322EAE72DE9F047044690F89C005C
:1099B0004FF000088107D4F8A400037C01D45907B4
:1099C00001D5012700E000278168D4F8A020C068F5
:1099D0001144801AB0F5803F04D34FF6FF7543F071
:1099E000020300E085B266684FF00009B6F8660031
:1099F000A84207D205461FB125B96FF006060AE056
:109A000043F002032A46304605F00AFF060001D063
:109A1000701C41D197B1D4F8A400C068A8420DD9F8
:109A2000D4F8A8301BB12A4603212046984794F861
:109A30009C0040F0100084F89C0011E0606840F643
:109A40006932B0F86610914203D9B0F86800052871
:109A500006D3D4F8A8301BB12A46032120469847E4
:109A600016B1701C17D017E0D4F8A0002844C4F831
:109A7000A000D4F8A410CA68904200D027B1C860F2
:109A80004FF00108C4F8A090606804F0E3FDB8F15D
:109A9000000F05D10FE08FB1D4F8A410C1F80C90DD
:109AA000D4F8A4000671C4F8A49084F8019004F1DD
:109AB0000C0003F079FE0020BDE8F087606804F038
:109AC000C9FDF8E72DE9F04100270E46044647603E
:109AD000F6F750FC2672F6F751FC65786770D4F8FB
:109AE000A8308BB10022042120469847D4F8A83032
:109AF00053B10022114620469847D4F8A8301BB134
:109B0000002202212046984704F13400804603F0E9
:109B100017FE18B10021404603F0F8FD04F164007F
:109B2000804603F00DFE18B10021404603F0EEFD23
:109B3000012D03D0042D01D0032D14D194F89C00E5
:109B4000C0F3800120F0040084F89C0000290AD1B1
:109B5000D4F8A400067104F10C00C4F8A470BDE8A8
:109B6000F04103F021BEBDE8F08100002DE9F84F7F
:109B700090468946050010D0B8F80A002A2863D319
:109B8000D8F804604FF4807A344634F80E0F50450C
:109B90005AD12079062857D108E02DA340F2BB22E4
:109BA00030A134A0F6F718FCBDE8F88F60790428DE
:109BB0004AD16088082847D1D4F80E000090A169E6
:109BC000281D05D0686818B1814201D1012700E045
:109BD00000270FB1012300E0022304F108026946C7
:109BE000284600F0BBFAE088504503D0B0F5007F6E
:109BF0002AD125E01FB3022001F020FDE080D4F837
:109C00000E00A0616868C4F80E00A068C4F81200D5
:109C1000A089E082A0683060A089B080D9F80010E7
:109C2000A160B9F80400A081D9F80010C6F80610A8
:109C3000B9F804007081AA6941462846904703E0BC
:109C400069462846FEF71AFC404602F0A1FFABE742
:109C50004C5749505C7372635C6574686172702E16
:109C6000630000006E6574696620213D204E554CEE
:109C70004C000000417373657274696F6E20222579
:109C80007322206661696C6564206174206C696E62
:109C90006520256420696E2025730D0A00000000F0
:109CA00070B50A4E0546002404EB840006EB8000E4
:109CB000817C29B18068A84202D1204600F080F85A
:109CC000641CE4B20A2CEFD370BD000080C50120F3
:109CD0002DE9F35F4FF00A0B00210446DA4658469F
:109CE00088468C46D9460F46344B01EB810E03EB78
:109CF0008E020A28937C08D0ABB154B1256856680F
:109D0000B54206D148B2BDE8FC9F002BF5D148B260
:109D100009E0012B15D0022B05D3D27C624502D37A
:109D20004FFA81FA9446491CC9B20A29DCD3019939
:109D30004FF0FF3289073ED40A2814D016DAC5B294
:109D400028E01E4B53F82E3033B1D67CBE42EAD306
:109D50004FFA81F93746E6E7D57C4545E3D34FFA1C
:109D600081FBA846DFE70198C00724D0BAF10A0FAB
:109D700002DA0AF0FF050AE0BBF10A0F02DA0BF083
:109D8000FF0504E0B9F10A0F15DA09F0FF052846CE
:109D900000F016F834B1094805EB850200EB8200AB
:109DA00021684160054805EB850200EB8200002137
:109DB000C17468B2A7E71046A5E7000080C501207E
:109DC00070B50C4E00EB8004002556F8240018B145
:109DD00002F0DEFE46F8245006EB84000649857446
:109DE000C57485604560D1F80620C260498901824A
:109DF00070BD000080C50120940801082DE9FC41D8
:109E00000E46044615460E21304602F0F1FE18B10A
:109E10006FF00100BDE8FC812146286800F066FB78
:109E200008B1334B3CE02868C0F303110E2922D05F
:109E3000A168636800EA01020B409A420BD080B22D
:109E4000A0F57E41A93906D014F10C0F2FD0E0689F
:109E500068B304F10C05274B274A187800EB800102
:109E600002EB81018F7C022F24D32F6849688F4237
:109E700020D102462CE001208DF8000000208DF852
:109E800001005E208DF8020068786B4600F07F00CC
:109E90008DF80300A8788DF80400E8788DF80500A7
:109EA00004F12B023146204600F024F9B2E76FF0AE
:109EB0000300AFE7002000EB800102EB81018F7C03
:109EC000022F0AD32F6849688F4206D1C2B21A7096
:109ED0003146204600F012F89CE7401C40B20A28A8
:109EE000E9DB32462946204600F02AF892E70000D6
:109EF000940801088800002080C5012070B505463F
:109F00000E460E4802EB820100EB8104A07C022881
:109F100009D1E07CE42806D3211D284600F0D8F8BA
:109F200008B90320A07404F10C0305F12B0231469B
:109F30002846BDE8704000F0DDB8000080C5012073
:109F40002DE9F74F82B0884602984FF0FF3B2B3047
:109F50000090086815465F46029900F0C7FAD8B924
:109F6000D8F80000C0F303110E2915D0B8F1000F86
:109F700012D088B101214046FFF7AAFE04000DD49B
:109F8000DFF8A4A004EB84090AEB8906B07C40B199
:109F9000012808D03DB10DE06FF00D0005B0BDE81F
:109FA000F08F0120B0744146029800F091F8074606
:109FB000002DF3D0B07CD04602280AD31B4806F10E
:109FC0000C0329460470009A029800F093F80746A3
:109FD00028E0012826D100222846017B012903D14F
:109FE00000680028F9D172B101890022032002F033
:109FF0007BFB040015D0294602F092FC40B12046BC
:10A0000002F0C6FD0DE02C46284602F07EFE44B16B
:10A0100058F8290008B102F0BBFD48F82940002794
:10A0200000E05F463846B9E780C50120880000207F
:10A030002DE9F05F9046894682461F4600222A217C
:10A040000320DDF82CB002F04FFB06003DD0756810
:10A050000D9805F10E0401F0F1FAE0803868A06077
:10A06000B888A081DBF80010C4F81210BBF8040017
:10A07000E082D8F800102960B8F80400A880D9F868
:10A080000010C5F80610B9F8040068810A98314636
:10A090000068C4F80E000C980068A0614FF480704E
:10A0A00020800820608006202071042060714FF419
:10A0B000C160A881DAF8182050469047044630461F
:10A0C00002F066FD2046BDE8F09F4FF0FF30FAE752
:10A0D0001FB50123064C021DCDE90213CDE9002472
:10A0E00000F12B031946A21FFFF7A2FF04B010BD19
:10A0F0009A08010830B44C681D6825609B88A380CD
:10A100001368C4F80630928862810822A2818269AD
:10A1100030BC104770B5104D002404EB840005EBF3
:10A120008000827C92B1C17C491CC9B2C174F02903
:10A1300006D2012A02D0032A06D007E0022905D35D
:10A140002046FFF73DFE01E002218174641CE4B269
:10A150000A2CE2D370BD000080C501202DE9F0413A
:10A160001F4615460E00044630D0306870B32146B5
:10A1700000F0BCF950BB3078C0F303100E2825D096
:10A1800039463046FFF7A4FD00281DDB114A00EBDD
:10A19000800102EB81000223837484602B68C3601A
:10A1A000AB8803820023C37452F821605EB142F889
:10A1B00021302B4604F12B0231462046FFF79AFF4F
:10A1C000304602F0E5FC0020BDE8F0816FF00D00A4
:10A1D000FAE7000080C5012070B5044640890D46AD
:10A1E0000E283AD9606801788689CA0714D00129F7
:10A1F00005D006221B49F6F793FA48B10CE04178E6
:10A2000051B980785E2807D1607B40F0100002E0F1
:10A21000607B40F008006073082E03D0B6F5C16F74
:10A220001BD10EE095F83100800616D56FF00D01B8
:10A23000204602F0DDFC80B92946204600F024FAD1
:10A2400009E095F83100800607D5224605F12B017B
:10A250002846FFF78BFC002070BD204602F098FCDA
:10A26000F9E700009408010810B508A141626521D2
:10A2700080F832106E2180F833100649416106499A
:10A28000816100F0BDFE002010BD00006C77697098
:10A2900000000000FD9D000895B000082DE9FE4378
:10A2A000814600256846F8F78DFFDDE901710098C9
:10A2B000884681B20322104602F016FA06000AD040
:10A2C0000446791962896068F6F775FA608924682E
:10A2D0000544002CF5D14FF00041C8F800100C489F
:10A2E0004169090603D5802141610021816066B181
:10A2F000D9F81020494630469047040002D0304635
:10A3000002F046FC2046BDE8FE834FF0FF30FAE73E
:10A310000090024003490A885206FCD5C2B28A80E6
:10A3200070470000001001400A46032100F07EB88B
:10A330002DE9FE4F456804468A46287800074FEA13
:10A340009068C8F100010F46204602F051FC002839
:10A3500062D1208904285FD36068007800285BD030
:10A36000082859D12F4901260868C0F303120E2A84
:10A3700000D100268946514600F0B8F8E8BBE6B3A4
:10A380002089082848D3204600F08CF8A8BB222159
:10A39000204602F02DFCD0B14146204602F028FCB8
:10A3A00058BB21890022022002F09EF9060033D01A
:10A3B000214602F0B5FA00BB39463046756802F016
:10A3C00017FCD0B9204602F0E3FB344605E06FF0FD
:10A3D0002101204602F00CFC78B96068D9F8001021
:10A3E000E960114900260968296106704680FF204E
:10A3F00028726E814146204600E00DE002F0F8FB35
:10A4000050B90121CDE90061FF230022CDF808A059
:10A410000449204600F00EFA2046BDE8FE4F02F047
:10A42000B7BB00009C000020980000202DE9FE43EF
:10A4300091460E46074600222421012002F054F9DD
:10A44000050023D06C68D7F804801C22267084F89D
:10A4500001900026A680E680686879680830F6F7E3
:10A46000AAF966806989204600F016F86080D8F85D
:10A470000C0002900120CDE90060FF2302AA002118
:10A48000284600F0BDF9284602F082FBBDE8FE83B5
:10A490000A460B21FFF7CABF10B501F0DCF8C04334
:10A4A00080B210BD70B500240546264613E06989C8
:10A4B000686801F0D0F82044010C11FA80F4A87A01
:10A4C000C00707D0C6F10100C6B2E0B2C4F307214D
:10A4D00041EA00242D68002DE9D126B1E0B2C4F391
:10A4E000072141EA0024E04380B270BD421C12D033
:10A4F00088B191F8312092070BD54A68824208D082
:10A50000896800EA01030A40934202D10143491CD1
:10A5100001D0002070470120704700002DE9F74F5F
:10A520008AB004460B9814250026078D60680690B3
:10A53000C08801F087F8C0F30C0100F400500391CB
:10A54000089020891438143F1FFA80F9F81707EB98
:10A550005070C0F3CF000797049081E007998945B8
:10A5600001DC012000E000200399089AC1F30C01EE
:10A5700011430591C8B148461FFA80FB00221421FF
:10A58000022002F0B1F80290A8B1406814220699A6
:10A59000F6F711F90298D0F804A0606828446060CA
:10A5A0006089401B60815D4631E041F400500590B8
:10A5B0000498C000E0E74FF0FF300DB0BDE8F08F29
:10A5C0006689AE4200D92E4606B3062001F0FEF998
:10A5D00007004BD06068CDE900063B4602223146B9
:10A5E000032002F00BF95FEA000843D0204602F096
:10A5F0008CFB2248C7E904044146029802F028F97E
:10A60000A81B05042D0C04D02468D9E72468002D6C
:10A61000D6D13546059801F011F8AAF806000BF1DD
:10A62000140080B201F00AF8AAF802000021AAF88A
:10A630000A1014215046FFF72FFFAAF80A000B98C2
:10A640000C9A029943699847029802F0A1FAA9EB83
:10A650000B001FFA80F9DDE90301084480B2039082
:10A66000B9F1000F7FF47AAF0020A6E7029802F05C
:10A670008FFAA0E7384600F003F8F7E739AD000895
:10A680000146062001F05CB92DE9F84F064601208D
:10A69000009075680F4604212878B1EB101F0FD188
:10A6A00000F00F004FF6FF7101EA8009688800F0A2
:10A6B000C9FF728901464A4502D33089884203D2D4
:10A6C000304602F065FA60E0304602F0F7FA4A4898
:10A6D0002969A0F1040B0160EA684FF001083C46CB
:10A6E0008246CBF8002094F83100C0070DD0201D21
:10A6F0000BD0616849B1DAF80000884203D02146E6
:10A70000FFF7F4FE08B174B116E0B8F1000F04D001
:10A710003A484FF00008046800E02468BC4200D1C9
:10A720002468002CDFD1687A112805D105EB0900D7
:10A730004088B0F5884F26D0009870B1DBF8000053
:10A7400058B1D8463946FFF7D1FE0028B8D198F85D
:10A750000000C0F303100E28B2D0002CB0D0E8885F
:10A7600030F0C00005D0304600F0B8F806000CD03C
:10A770007568214C3946103C3046C4E9017502F039
:10A7800073FB28B12FE03C46E7E70020BDE8F88FD7
:10A79000687A012814D006280DD0112806D0394631
:10A7A000DAF80000FFF7A2FE78B119E0394630462A
:10A7B00005F044FD17E03946304603F07FFC12E017
:10A7C00039463046FFF7B4FD0DE09AF80000C0F3BB
:10A7D00003100E2804D0022130467560FFF7A4FD57
:10A7E000304602F0D5F900206060A060CBF8000090
:10A7F000CAF80000C9E700009C000020C00000204B
:10A800002DE9FE438146DDE90A541F461646884677
:10A81000104600F04FFA50B10095CDE901403B469B
:10A8200032464146484600F005F8BDE8FE836FF029
:10A830000300FAE72DE9F84F9846DDE90BA6DDF8AD
:10A8400028B017008946054631D0142102F0D0F90E
:10A8500018B16FF00100BDE8F88F6C6884F80880CB
:10A8600084F809A0386820614520207084F801B080
:10A87000288900F0E3FEDFF8608060804FF0000A76
:10A88000A4F806A0B8F8000000F0D8FEA080B8F840
:10A890000000401CA8F80000B9F1000F02D0D9F860
:10A8A000000000B97068E060A4F80AA003E06868DE
:10A8B0006F4600690090308D40B12989814205D9E9
:10A8C0003A4631462846FFF729FEC4E773693A46FF
:10A8D000294630469847BEE78C0000202DE9F14F0D
:10A8E000002700984468207800F00F0005287CD1EC
:10A8F000E08800F0A7FEC0044FEA104A608800F02C
:10A90000A1FE217801F00F01494200EB81001FFAFE
:10A9100080F9009801F0FBFF584D06462888304426
:10A920000A2809D93146204600F068F900285CD091
:10A93000288830440A2858D8A8466D684FF0000B84
:10A940000DE06869E168884207D1A86921698842F9
:10A9500003D1A889A188884204D02F462D68002DF4
:10A96000EFD106E02DB1E08800F06CFEC00424D0E9
:10A970002EE0052001F02AF805000AD131462046D4
:10A9800000F03CF9B04216DB052001F01FF805008D
:10A9900011D02021F5F7A8FF0320E877D8F804109C
:10A9A00029601422214605F10800C8F80450F5F783
:10A9B00002FFD5B10CE05D46FBE7E88900F042FEFE
:10A9C000C00405D01422214605F10800F5F7F3FE76
:10A9D000B8F800103144A8F80010A079800608D417
:10A9E000A87F40F00100A87700E041E00AEB0900F1
:10A9F000A8832846009900F043F8002836D0A88B99
:10AA000014221430A883686805F1080146683046AE
:10AA10003468F5F7D0FEA88B00F010FE7080A6F821
:10AA200006B0A6F80AB014213046FFF735FD708154
:10AA30006FF0130AD5F8049009E051462046666885
:10AA400002F0D6F82146484601F002FF3468002C97
:10AA5000F3D13946284600F087F8484601F057FF01
:10AA6000B8F80020101AA8F800004846BDE8F88F92
:10AA7000009802F08DF80020F8E70000A000002008
:10AA80002DE9F047D1F8048007460E460024012541
:10AA9000B8F8020000F0D6FD014698F8000000F07A
:10AAA0000F00404201EB8009B8F8060000F0CAFD33
:10AAB000C0047268030C0020106003EB090093804F
:10AAC0001FFA80F8A2F8068079681DE04868B0F89F
:10AAD00004C063450DD2116044B1B4F806C06345AB
:10AAE00032D3808880452FD8266000E07E6069B12F
:10AAF00015E029D0C1888B4226D31CB1E18861457D
:10AB000000D00025016804460029DFD134B1266059
:10AB1000E0889188884202D0002500E07E60B87FFE
:10AB2000C0070DD05DB178684068808830B9116881
:10AB300029B14868D1888288914203D000252846EF
:10AB4000BDE8F0870246F2E7304601F0E0FE01463C
:10AB500004480288511A0180304602F019F800209A
:10AB6000EEE70000A0000020074A30B40B4654680E
:10AB70000168844201D1516000E01960014630BC97
:10AB8000052000F0DDBE0000A00000202DE9F0410E
:10AB900044680646884660680025818891B9006847
:10ABA0007060142206F108016068F5F704FE0121C7
:10ABB0002046FFF76DFC204601F0A9FE0546204621
:10ABC00001F0E6FF74680AE06068274604683846CA
:10ABD00001F09DFE284485B2384601F0D9FF002CD3
:10ABE000F2D141463046FFF7BFFF03480188491BB9
:10ABF00001802846BDE8F081A00000202DE9F04149
:10AC0000DFF868800F4605460026002213461446EA
:10AC1000D8F804001AE04169D5F80CC0614509D1A3
:10AC20008169D5F810C0614504D18189B5F804C0A7
:10AC3000614507D0641C22B1C17F92F81FC06145F5
:10AC400000D80246016801B1034608460028E2D157
:10AC500022B119461046FFF799FF0644BE4201DAB9
:10AC6000012CD2DC3046BDE8F0810000A0000020BD
:10AC700010B500F009F80022AFF20B01BDE810405A
:10AC80004FF47A7002F000BE70B5094800254468A0
:10AC90000BE0E07F20B1401EE0772546246804E009
:10ACA000204624682946FFF771FF002CF1D170BDC2
:10ACB000A000002010B504460C480AE090F83110BE
:10ACC000C90706D08168226843680A400B409A424F
:10ACD0000AD000680028F1D10548006818B190F842
:10ACE0003110C90700D1002010BD0000C0000020B5
:10ACF000C400002010B5C0228271A823C3710121B5
:10AD00000172642444728272C3720173C724447353
:10AD10008274C37401754175FF218173C17301741D
:10AD20000021417402220270417081701B22C270A6
:10AD300001713121417110BD10B50446406908B15F
:10AD400001F026FF2046BDE81040FFF799BC000047
:10AD50008AB0DFF818B2DFF818A200260DF1240936
:10AD6000DFF81082FCF70CFA0022CDE900696423B9
:10AD700011461046F9F7F6FE9BF800005C46401CB1
:10AD8000C0B20525B0FBF5F18BF8000005FB110002
:10AD9000A8B9F8F7F7FBDAF88C025746B8B10020EB
:10ADA000C7F88C021D210020F8F7E0F96FEA901037
:10ADB00000EBD07121F00101401AC7F89002217810
:10ADC0006420B1FBF0F200FB121010B114E001207E
:10ADD000E6E7002000F024FD5A2801D9FCF766F8C8
:10ADE000002000F01DFD0746022000F019FD01467D
:10ADF0003A4661A0F5F7F0FA20784FF49677B0FB69
:10AE0000F7F107FB110040B940F224524FF4001152
:10AE10006448FCF7B2F901202070DAF8901250462D
:10AE200019B198F8161002292FD0D0F890020028F6
:10AE300098D198F816104046042993D18575F5F7F6
:10AE400099FA594C2178491C2170F5F797FA03219A
:10AE5000CDE906611E20CDF8209005965349CDE935
:10AE60000110062000905148CDE903760023504A96
:10AE700050A1C438F9F7F2FAF5F77CFA2178491EA7
:10AE800011F0FF01217066D06DE02078800702D1BB
:10AE90004CA0F5F7A1FA514D01242F1997F8500055
:10AEA00001281CD155F8240009A94068F9F7B8FB1E
:10AEB00055F824004168022000F0D2FD55F8240026
:10AEC0008168022000F0CCFD55F82410022000F02B
:10AED000C7FD214642A0F5F77FFA87F85060641C51
:10AEE000E4B2142CD9D33D4D012478352F1997F8AD
:10AEF000500001281CD155F8240009A94068F9F731
:10AF00008FFB55F824004168022000F0A9FD55F898
:10AF100024008168022000F0A3FD55F824100220CF
:10AF200000F09EFD21462EA0F5F756FA87F85060F6
:10AF3000641CE4B2142CD9D31C4809A9C438F9F70D
:10AF40006FFB09A92C48F9F76BFB00F0E3F804212B
:10AF500088F8161006E72949098821B1F5F70EFA95
:10AF6000FAF790FDFEE6F5F709FAFBE6040000208B
:10AF7000008041424C130020D2D1CAB9D3C33A5306
:10AF800052414D43434DBFD5BCE4252525642020C7
:10AF90005352414D494EBFD5BCE4252525640D0AC9
:10AFA00000000000281700209C01002074040020ED
:10AFB00031D40008736C6E696B20737672207461F3
:10AFC000736B0000CDF8CFDFD2D1B0CEB3F620C77F
:10AFD000EBC1ACBDD3CDF8CFDF0D0A00F8010020E6
:10AFE0002564BAC5BFCDBBA7B6CBC8CECEF1D2D1F2
:10AFF000C9BEB3FD0D0A0000240900206001002035
:10B0000070B5062180F82A101D490A7880F82B2097
:10B010004A7880F82C208A7880F82D20CA7880F829
:10B020002E200A7980F82F20497980F8301040F2DC
:10B03000DC510185322180F8311000F12B01002014
:10B04000F7F7E6FF0F48104D052201682868F7F76B
:10B050003FFE0E48052201680D480068F7F7FEFD27
:10B0600000244FF440062868314600EB4410F7F7FF
:10B0700053FE641C052CF6DBF8F7D8F8002070BDF1
:10B080004C1300203C000020340000203800002039
:10B090003000002070B50C460025F7F75FFE06462D
:10B0A00007E0628970196168F5F785FB608924689B
:10B0B0000544002CF5D1A8B2F8F70EF908B100202C
:10B0C00070BD4FF0FF3070BD10B500210B4802F08D
:10B0D0005FFC00210A4802F05BFC0021094802F0F5
:10B0E00057FC0021084802F053FC084900200A6878
:10B0F00002B108600649086010BD000071AC00088C
:10B1000081830008DD950008F595000814010020F2
:10B110001801002038B500F0D7F8F7F701FE6946AE
:10B120002948F9F77DFAFFF7CFFF284801F048FAE0
:10B13000274800241421046026480460264804603F
:10B1400026480460264804602648046026480460B7
:10B15000264804702648F5F7C7FB26482E4D3821AF
:10B16000046025480460254804602548046025489B
:10B17000048025480470254804602548046025485B
:10B1800004702868F5F7B0FB2C60244D1421286862
:10B19000F5F788FB22482C60244D046021482021CB
:10B1A0000460214804802868F5F79EFB20482C6045
:10B1B000048020480460204804602048046000F0B7
:10B1C000F1F8F7F795FF38BDA8C6012064130020F9
:10B1D000D8000020DC000020E0000020E400002077
:10B1E000E8000020C4000020C0000020BC000020B7
:10B1F0006CC70120F4000020F8000020FC000020B3
:10B2000000010020F2000020F100002004010020D5
:10B2100008010020880000209000002094000020F9
:10B22000980000209C0000208C000020A40000203A
:10B23000A0000020AC000020B0000020B4000020DE
:10B2400010B58AB0F5F796F8184C2178491C217092
:10B25000F5F794F8002009A9032205900690CDE99E
:10B2600007210C2202928021CDE90310104B092006
:10B27000CDE900030E4800230E4A0FA1C438F9F7A8
:10B28000EDF8F5F777F82178491E11F0FF012170EC
:10B2900008D10C49098829B1F5F770F8FAF7F2FBE3
:10B2A0000AB010BDF5F76AF8FAE700009C0100202B
:10B2B0006014002025B40008646863702074617312
:10B2C0006B0000006001002008B569460148F9F7ED
:10B2D000A7F908BD9C13002070B586B0F7F71EFFD4
:10B2E00010B900F077F810B1012006B070BDF8F782
:10B2F00065F908B10220F8E70021084604F0B6FC21
:10B300001F48FFF7F7FC0026039604960596F5F70D
:10B3100031F81C4C2178491C2170F5F72FF81A4898
:10B320001A490096CDE90110154805AB04AA03A9F6
:10B33000183001F01DF90546F5F71CF82178491E73
:10B3400011F0FF01217007D11149098821B1F5F7EA
:10B3500015F8FAF797FB01E0F5F710F875B1084812
:10B36000183001F061F906490AA018314862084610
:10B3700001F0AAF9024886750020B6E70320B4E779
:10B380004C1300209C010020B5FC000869A20008B5
:10B390006001002057655A6F6E652D2D47617465F9
:10B3A00057617900084810B50168002000F058FB8B
:10B3B00006480168002000F053FB05480168BDE81D
:10B3C0001040002000F04CBBB8000020A800002076
:10B3D0005000002070B500F0C7FA0146002000F0D0
:10B3E00071FB0D4C43F69C612060002000F06AFB6D
:10B3F0000A4D4FF47A612860002000F063FB084991
:10B400000860216821B1296811B108B1002070BD20
:10B41000FFF7C8FF012070BDB8000020A800002081
:10B42000500000202DE9FE433E4D3AA068622846B8
:10B43000FDF7C6FFA5F118040020A0753AA0F4F7A7
:10B44000CBFF0120A075A8464FF4FA79D8E901573F
:10B45000D8F80C60002D37D00220A075E078627912
:10B4600021798DE80700A3786278217838A0F4F775
:10B47000B3FF280E6073C5F307432373C5F3072298
:10B48000E272E9B2A17200903FA0F4F7A5FF380E76
:10B490006074C7F307432374C7F30722E273F9B25A
:10B4A000A173009044A0F4F797FF300E6075C6F3C7
:10B4B00007432375C6F30722E274F1B2A17400902A
:10B4C00049A0F4F789FF1CE0D8F82000407B04284D
:10B4D0001BD9FF20A075A07A54F80B1F40EA012168
:10B4E000C8F80410E17862684BA041EA0221C8F86C
:10B4F0000810E179A26841EA0221C8F80C10F4F7BB
:10B500006BFFBDE8FE43FFF7DFBE4846FCF76CFF6C
:10B510009CE7000057655A6F6E652D2D4761746575
:10B520005761790064130020D5FDD4DAB2E9D5D291
:10B5300044484350B7FECEF1C6F72CC7EBC9D4B58B
:10B54000C82E2E2E2E2E2E2E2E2E2E2E0D0A000022
:10B55000CDF8BFA8656EB5C44D4143B5D8D6B7CEBA
:10B56000AA3A2E2E2E2E2E2E2E2E2E2E2E2E2E2E73
:10B570002E2E25642E25642E25642E25642E25640A
:10B580002E25640D0A000000CDA8B9FD44484350A3
:10B59000BBF1C8A1B5BD4950B5D8D6B72E2E2E2EB9
:10B5A0002E2E2E2E2E2E2E2E2E2E25642E25642E61
:10B5B00025642E25640D0A00CDA8B9FD44484350EA
:10B5C000BBF1C8A1B5BDD7D3CDF8D1DAC2EB2E2ED1
:10B5D0002E2E2E2E2E2E2E2E2E2E25642E25642E31
:10B5E00025642E25640D0A00CDA8B9FD44484350BA
:10B5F000BBF1C8A1B5BDB5C4C4ACC8CFCDF8B9D8EE
:10B600002E2E2E2E2E2E2E2E2E2E25642E25642E00
:10B6100025642E25640D0A0044484350B7FECEF140
:10B62000B3ACCAB12CCAB9D3C3BEB2CCAC4950B5C5
:10B63000D8D6B7210D0A000000BA704740BA70474B
:10B6400000BA704740BA70470148FEF727BE0000B5
:10B6500064130020704718B50022ADF8002010F0E8
:10B6600001030BD0002909DD10F8014B8DF80140D2
:10B67000491E03E030F8024B891E22440129F9DCFF
:10B68000002902DD00788DF80000BDF800001044AC
:10B69000010C11FA80F0010C11FA80F023B1C1B253
:10B6A000C0F3072040EA012080B218BD08B54FF46E
:10B6B000A060F8F7BBF802F08FF96846F8F7CAF80F
:10B6C00001F0ECFC6846F8F735FE002008BD0000EC
:10B6D00070B504001FD0104D6868844202D3A8687A
:10B6E000844205D3F4F746FEBDE87040F4F746BE49
:10B6F00000210A4801F089FFA4F10800002101712E
:10B70000E968884200D2E86001F04EFBBDE8704075
:10B71000024802F049B870BDA800002048C60120C8
:10B720000C494FF47A5200230868C01C20F0030033
:10B7300048600280438003714868012300F57A5015
:10B7400088600371028042804868C86019460248D8
:10B7500002F00AB8A800002048C601202DE9F041F7
:10B7600000280DD04FF6FC71C01C00EA01054FF413
:10B770007A560C2D01D20C2504E0B54202D90020E6
:10B78000BDE8F0810021244801F03FFF234BC5F5BF
:10B790007A5799895868091A89B237E0441822798A
:10B7A00092BB2288521A083AAA422ED3228805F167
:10B7B000140C521A0127083A624511D34A1908326B
:10B7C00092B21044002505712588058041802280B1
:10B7D00027710088B04204D05968891C425200E0A9
:10B7E0002771D868844209D1D3E9012101E000889A
:10B7F000104405790DB18842F9D1D860064801F0AE
:10B80000D3FF04F10800BBE7FFE7415A8F42C5DCD4
:10B81000014801F0C9FFB2E748C60120A800002096
:10B8200010B50B4B0B4C002253F82030114604EBA3
:10B83000800005E0446934F8114004B1521C491CF1
:10B840008B42F7D864204243B2FBF3F0C0B210BD84
:10B8500070080108600000202DE9F04707464FF608
:10B86000FC70C91C01EA00044FF47A5A0C2C01D276
:10B870000C2401E0544517D82F494868874202D369
:10B880008A68974204D3F4F775FDF4F777FD10E06A
:10B89000A7F10805281A86B228888846801B083830
:10B8A0001FFA80F94C4503D94FF00000BDE8F0873E
:10B8B00001D13846FAE74FF00001204801F0A5FE1B
:10B8C0002888D8F80410424600EB0108002398F8B5
:10B8D0000400D0B104F11400484512D830190830E2
:10B8E00084B20819D168884200D2D06003712988D7
:10B8F000018046802C800088504502D05168891C08
:10B9000044520E4801F050FFD3E730190830D46894
:10B91000B8F800C080B2444501D10C18D46001448D
:10B920000B71A1F800C04E80288009885145E8D0ED
:10B930005268921C8852E4E7A800002048C6012003
:10B9400070B5054600290CD00C46F4F713FD0549E7
:10B9500051F82520226041F82540BDE87040F4F7F9
:10B960000DBD70BD70C6012046F66B6070470000CB
:10B97000F0B50020401C80B20E28FBD31048124EB8
:10B98000104C006806F11C05C01C20F003010020CB
:10B99000074644F82070002209E054F820300B607C
:10B9A00044F8201036F81030521C194492B235F881
:10B9B00010309342F1D8401C80B20E28E9D3F0BD7C
:10B9C000B800002070C60120A808010870B505461F
:10B9D0000E2808D30AA340F29D120DA114A0F4F77B
:10B9E000FBFC002070BDF4F7C5FC1C4951F8254054
:10B9F00014B1226841F82520F4F7C0FC204670BD40
:10BA00004C5749505C7372635C6D656D702E6300BA
:10BA10006D656D705F6D616C6C6F633A20747970E9
:10BA200065203C204D454D505F4D415800000000C1
:10BA3000417373657274696F6E20222573222066CC
:10BA400061696C6564206174206C696E6520256491
:10BA500020696E2025730D0A0000000070C60120C9
:10BA600070B50C460646F4F785FC134D2978491C41
:10BA70002970F4F783FC002C1CD0104800EB8600E2
:10BA80008068211A304600F04DF8F4F773FC2978ED
:10BA9000491E11F0FF01297008D10949098829B10F
:10BAA000F4F76CFCBDE87040F9F7ECBFBDE87040FE
:10BAB000F4F764BC70BD00009C0100206000002011
:10BAC0006001002070B50D460646F4F753FC124C99
:10BAD0002178491C2170F4F751FC2946304600F0CA
:10BAE0006BF80546F4F746FC2178491E11F0FF017A
:10BAF000217007D10949098821B1F4F73FFCF9F712
:10BB0000C1FF01E0F4F73AFC681C04D0044800EBE4
:10BB100086008068284470BD9C01002060010020E0
:10BB20006000002070B5134A131893F8203093B1C9
:10BB3000114B53F820308B421AD90F4B02EB800285
:10BB40000C3B53F820305069B1FBF3F130F8114051
:10BB50000020034608E011688847012070BD556940
:10BB60000E18401C25F81630A042F8DB002070BDEE
:10BB7000022070BD600000208808010870B50446EE
:10BB80000B480C4E002150F8240006EB84054200BF
:10BB9000686900F057F806480021183050F8242052
:10BBA000A86800F04FF80120311981F8200070BD1D
:10BBB00070080108600000202DE9F0411F4E054685
:10BBC000002470190F4690F8200010B931682846FB
:10BBD00088474FF0FF327FB3194B53F82510B7FB5E
:10BBE000F1FC01FB1C711FFA8CF009B1401C80B202
:10BBF00013490C3951F82510491E1DD406EB850652
:10BC0000776937F811C0BCF1000F04D000248442DA
:10BC100010D1002207E0641CA4B2F8E774698F1801
:10BC2000521C24F817008242F8D353F825004843E9
:10BC3000BDE8F081491EE4D51046F9E76000002018
:10BC40007C08010801E000F8011B521EFBD270477E
:10BC500010B504000CD0206820B100F099FF00203E
:10BC6000606020602146BDE810400720FFF768BEF5
:10BC700010BD0000F8B50D0004466FF00D0623D08E
:10BC8000002028602CB304F16400074601F058FD41
:10BC9000002823D094F90800761DB04213DB6946D2
:10BCA0003846D4F8982001F069FC401C1FD0D4F825
:10BCB000A8301BB100220121204698470098002897
:10BCC0001ED028600020F8BD13A34FF48F7217A177
:10BCD00008E011A34FF490721CA103E00EA340F200
:10BCE000211222A12AA0F4F777FB3046F8BDF4F721
:10BCF00041FB94F908106FF0020507E0257207E098
:10BD0000F4F738FB94F908106FF00905B142F5DA41
:10BD1000F4F734FB2846F8BD4C5749505C73726306
:10BD20005C6170695F6C69622E6300006E657463AC
:10BD30006F6E6E5F6163636570743A20696E7661E1
:10BD40006C696420706F696E746572006E657463EF
:10BD50006F6E6E5F6163636570743A20696E7661C1
:10BD60006C696420636F6E6E000000006E65746322
:10BD70006F6E6E5F6163636570743A20696E7661A1
:10BD80006C6964206163636570746D626F78000034
:10BD9000417373657274696F6E2022257322206669
:10BDA00061696C6564206174206C696E652025642E
:10BDB00020696E2025730D0A000000002DE9F04176
:10BDC00007460E460820FFF701FE040026D0002596
:10BDD0002572277007F0F0006560102808D0202831
:10BDE00003D0402815D1002703E04FF4FA6700E0A4
:10BDF000142704F10C000021804601F0B5FC40B985
:10BE0000394604F1340001F035FC48B1404601F0F8
:10BE1000A5FC21460820FFF793FD0020BDE8F08136
:10BE200004F1640001F066FC6570C4E929564FF026
:10BE3000FF30C4F8A050C4E9250584F89C50204682
:10BE4000ECE7000030B587B0040016D00F48CDE90C
:10BE500000040391ADF81020684603F0E7FE0546A4
:10BE6000F4F788FA94F9081011F1090F00DB257234
:10BE7000F4F784FA284607B030BD05A3AB2209A128
:10BE80000FA0F4F7A9FA6FF00D00F4E70D96000883
:10BE90004C5749505C7372635C6170695F6C696296
:10BEA0002E6300006E6574636F6E6E5F62696E6410
:10BEB0003A20696E76616C696420636F6E6E000073
:10BEC000417373657274696F6E2022257322206638
:10BED00061696C6564206174206C696E65202564FD
:10BEE00020696E2025730D0A00000000032100F078
:10BEF00001B8000030B587B0040015D00F48CDE977
:10BF000000048DF80C10684603F090FE0546F4F727
:10BF100031FA94F9081011F1090F00DB2572F4F7DA
:10BF20002DFA284607B030BD05A340F29D2209A195
:10BF30000FA0F4F751FA6FF00D00F3E75F960008D9
:10BF40004C5749505C7372635C6170695F6C6962E5
:10BF50002E6300006E6574636F6E6E5F636C6F734B
:10BF6000653A20696E76616C696420636F6E6E005D
:10BF7000417373657274696F6E2022257322206687
:10BF800061696C6564206174206C696E652025644C
:10BF900020696E2025730D0A0000000010B586B0E0
:10BFA000040008D00548CDE90004684603F03EFED1
:10BFB000204600F04DF806B0002010BDB1970008F3
:10BFC000F8B504463430064601F0BAFB30B911E04A
:10BFD0002078102829D00098FFF73AFE69463046AD
:10BFE00001F010FB401CF3D1304601F037FB304626
:10BFF00001F080FB04F16400064601F0A1FB00287B
:10C0000025D000256946304601F0FCFA401C18D0C6
:10C01000009C2046FFF7D4FF606810B101F0CCFD12
:10C020006560204600F014F8ECE7009D002DD5D0A7
:10C03000606810B1298903F0FFF8284600F0A8FDD8
:10C04000CCE7304601F00AFB304601F053FBF8BD67
:10C0500070B504460C30054601F080FB284601F01F
:10C0600097FB2146BDE870400820FFF769BC00003F
:10C0700030B587B0040013D00E48CDE900046846FF
:10C0800003F0D4FD0546F4F775F994F9081011F1A1
:10C09000090F00DB2572F4F771F9284607B030BDAF
:10C0A00005A3FA2209A111A0F4F796F96FF00D008B
:10C0B000F4E700004D9800084C5749505C737263D8
:10C0C0005C6170695F6C69622E6300006E65746309
:10C0D0006F6E6E5F6C697374656E3A20696E76611F
:10C0E0006C696420636F6E6E0000000041737365BD
:10C0F0007274696F6E2022257322206661696C65F7
:10C1000064206174206C696E6520256420696E204E
:10C1100025730D0A0000000030B50D4687B01146AA
:10C12000FFF74CFE040017D00C4800908DF80C501F
:10C130006846019403F07AFD70B104F10C0001F03F
:10C140000DFB04F1340001F089FA21460820FFF7C5
:10C15000F7FB002007B030BD2046FBE7FD98000844
:10C16000F8B50E0005466FF00D0411D000273760BA
:10C170009DB105F1340001F0E3FA002815D02878CC
:10C1800010281CD031462846BDE8F84000F090B891
:10C190001FA34FF4E77223A103E01DA34FF4E8723D
:10C1A00028A12FA0F4F718F927E019A340F2D11223
:10C1B00036A12BA0F4F710F96FF00C00F8BD0720A2
:10C1C0000097FFF703FC04000BD06946284600F0F7
:10C1D0006FF8050013D021460720FFF7B1FB284672
:10C1E000F8BDF4F7C7F895F908104FF0FF3411F1D6
:10C1F000090F00DB2C72F4F7C1F82046F8BD009857
:10C20000206000986060A781A76000203460F8BDBE
:10C210004C5749505C7372635C6170695F6C696212
:10C220002E6300006E6574636F6E6E5F7265637679
:10C230003A20696E76616C696420706F696E74650E
:10C24000720000006E6574636F6E6E5F7265637678
:10C250003A20696E76616C696420636F6E6E0000CF
:10C26000417373657274696F6E2022257322206694
:10C2700061696C6564206174206C696E6520256459
:10C2800020696E2025730D0A000000006E6574633E
:10C290006F6E6E5F6163636570743A20696E76617C
:10C2A0006C696420726563766D626F7800000000CF
:10C2B000F0B587B004464FF000000D006FF00D069A
:10C2C00000901BD02860F4B104F13400074601F05F
:10C2D00037FA002821D094F90800761DB0421ADB05
:10C2E00069463846D4F8982001F048F9401C1ED021
:10C2F0002078102824D00098006835E029A340F267
:10C300005F122DA103E027A340F2611232A139A0F0
:10C31000F4F762F8304607B0F0BD22A34FF4B172D3
:10C320003FA134A0F4F758F86FF00C00F3E7F4F7EE
:10C3300021F894F908106FF002052DE025722DE028
:10C3400094F89C00000701D5009868B93D48CDE9F4
:10C350000104009808B1008900E00120049001A8C0
:10C3600003F064FC009850B10289D4F8A83013B1EE
:10C37000012120469847009828600020CBE7D4F898
:10C38000A8301BB10022012120469847F3F7F2FFA5
:10C3900094F908106FF00B05B142CFDAF3F7EEFF16
:10C3A0002846B8E74C5749505C7372635C6170690A
:10C3B0005F6C69622E6300006E6574636F6E6E5F02
:10C3C000726563763A20696E76616C696420706F7D
:10C3D000696E7465720000006E6574636F6E6E5FE7
:10C3E000726563763A20696E76616C696420636F6A
:10C3F0006E6E0000417373657274696F6E20222542
:10C400007322206661696C6564206174206C696EBA
:10C410006520256420696E2025730D0A0000000048
:10C420006E6574636F6E6E5F6163636570743A20EE
:10C43000696E76616C696420726563766D626F788F
:10C44000000000001D9900082DE9F04186B0174654
:10C450000C9D04000CD020786FF00506102813D036
:10C4600022A340F25F2226A12EA0F3F7B5FF28E019
:10C470001EA340F25E2236A12AA0F3F7ADFF6FF0B3
:10C480000D0006B0BDE8F081CFB194F89C0003F038
:10C49000040200F00200104300D001205FEA00080F
:10C4A00000D075B13148CDE9000403918DF8143006
:10C4B0006846049703F0BAFB060004D00BE00020A6
:10C4C000DFE73046DDE735B1B8F1000F02D0049860
:10C4D000286000E02F60F3F74DFF94F9081011F188
:10C4E000090F00DB2672F3F749FFEAE74C57495082
:10C4F0005C7372635C6170695F6C69622E630000DB
:10C500006E6574636F6E6E5F77726974653A2069E9
:10C510006E76616C696420636F6E6E2D3E74797007
:10C5200065000000417373657274696F6E20222587
:10C530007322206661696C6564206174206C696E89
:10C540006520256420696E2025730D0A0000000017
:10C550006E6574636F6E6E5F77726974653A206999
:10C560006E76616C696420636F6E6E00619900087D
:10C570002DE9F041044606A890E8E0000020606044
:10C58000A060E06084F83100C4E907500A4D2878C3
:10C5900084F83400401C28702046276100F034F8ED
:10C5A0002046B04710B10020BDE8F08168682060E7
:10C5B00020466C60F8E70000BC00002070470000D7
:10C5C00010B5040019D094F83100C00702D02046FD
:10C5D00000F030F80B4A5168A14210D12068506039
:10C5E00006E00868A04209D120680860002904D04C
:10C5F0009068A04201D10020906010BD0146002942
:10C60000EFD110BDBC00002070B51D461646044693
:10C6100000F022F83146204600F052F82946204624
:10C62000BDE8704000F013B8014988607047000011
:10C63000BC00002090F83110CA0707D021F001019A
:10C6400080F83110890601D5FDF72ABB704701B18A
:10C650000968C1607047000070B50C00054628D01D
:10C660002068696888421ED01348006809E00168A4
:10C670006A68914204D1C66801F09EFA304600E033
:10C68000C0680028F3D10D48006809E007D00168B0
:10C6900029B16A68914202D144B121680160C06841
:10C6A0000028F3D12CB12068686070BD4FF0000104
:10C6B000F4E74FF00000F7E7E4000020E00000207E
:10C6C00001B109688160704790F83110CA070AD13A
:10C6D00041F0010180F83110CA0604D5890602D55F
:10C6E000011DFDF7F5BC70472DE9F04717460D46D3
:10C6F00030B1012806D0022806D0032850D105E029
:10C70000362604E0222602E00E2600E000264FF046
:10C7100001094FF00008EFB3012F5DD0022F5BD06D
:10C72000032F3DD10D20FFF751F9040039D0A01996
:10C730001330277320F00300C4E90080F61C26F0B4
:10C740000300C0F5007041462581A84200DD28465F
:10C750006081A4F80E9026462D1A4FF4007A884680
:10C7600016E00D20FFF732F9B8B1077380F80D809D
:10C77000C0F80080A9B230600181514500D3514614
:10C78000418100F110024260A0F80E906D1A064639
:10C79000002D00E007E0E4DC2AE0204600F0F8F994
:10C7A0000020BDE8F08706F1130020F00301E81C2B
:10C7B00020F00300084480B2FEF7D0FF0400F0D060
:10C7C000A019133020F00300606025816581C4F852
:10C7D000008084F80C800BE00C20FFF7F7F80400D1
:10C7E000DFD0C4F8048025816581C4F800802773F8
:10C7F000A4F80E9084F80D802046D2E770B5DDE9EC
:10C80000044530B1012806D0022806D003280DD1F6
:10C8100005E0362004E0222002E00E2000E00020A7
:10C82000C01C20F003004618AE4201D9002070BDA4
:10C8300000251D6014B12044586000E05D600220B6
:10C840005873198159811A730120D881184670BD17
:10C8500030B408B100290CD130BC0BA340F2ED225A
:10C860000DA11BA0F3F7B8BD03890C8923440381F4
:10C8700010460268002AF7D102890B891A44028106
:10C88000016030BC704700004C5749505C737263C4
:10C890005C706275662E6300286820213D204E552D
:10C8A0004C4C2920262620287420213D204E554C12
:10C8B0004C29202870726F6772616D6D65722076E9
:10C8C000696F6C6174657320415049290000000054
:10C8D000417373657274696F6E202225732220661E
:10C8E00061696C6564206174206C696E65202564E3
:10C8F00020696E2025730D0A0000000010B50C465B
:10C90000FFF7A6FF2046BDE8104000F0FEB9002169
:10C9100002E0491C0068C9B20028FAD108467047F5
:10C920002DE9F0474FF000070C4605003E466FF03A
:10C930000D0904D01CB128892189884204D22AA378
:10C940004FF457722CA134E06FF0050A68896189B1
:10C95000C01B891B884201DB88B200E080B28046A0
:10C9600060684246811968683844F3F724FF07EB92
:10C97000080087B206EB080086B26089B04201D891
:10C98000246800266889B84202D12D68002755B175
:10C99000ACB160892189884211D1206878B112A395
:10C9A00040F27D3215E0002C1BD00FA34FF45E72D5
:10C9B0001DA121A0F3F710FD4846BDE8F08775B131
:10C9C0006889298988420AD1286840B106A340F2C3
:10C9D000823224A118A0F3F7FFFC5046EDE7002CAB
:10C9E000B4D10020E9E700004C5749505C737263F2
:10C9F0005C706275662E6300706275665F636F704F
:10CA0000793A20746172676574206E6F7420626970
:10CA10006720656E6F75676820746F20686F6C643F
:10CA200020736F7572636500705F746F20213D2005
:10CA30004E554C4C00000000417373657274696F71
:10CA40006E2022257322206661696C656420617402
:10CA5000206C696E6520256420696E2025730D0A9F
:10CA600000000000706275665F636F70792829208E
:10CA7000646F6573206E6F7420616C6C6F772070CB
:10CA800061636B657420717565756573210A0000BB
:10CA90002DE9F047164689464FF0000828B1B9F154
:10CAA000000F07D0002704462CE019A340F29D3266
:10CAB0001BA103E016A340F29E3221A129A0F3F7A7
:10CAC0008BFC0020BDE8F0872BB16089984202D82A
:10CAD000181A83B215E06089C01A85B2B54200D930
:10CAE000354660682A46C11809EB0700F3F763FE74
:10CAF00008EB05001FFA80F8781987B2701B86B220
:10CB0000002324680EB1002CDED14046DAE7000095
:10CB10004C5749505C7372635C706275662E63009B
:10CB2000706275665F636F70795F7061727469615E
:10CB30006C3A20696E76616C6964206275660000EB
:10CB4000706275665F636F70795F7061727469613E
:10CB50006C3A20696E76616C6964206461746170FE
:10CB600074720000417373657274696F6E202225C0
:10CB70007322206661696C6564206174206C696E43
:10CB80006520256420696E2025730D0A00000000D1
:10CB900070B504000AD00026F3F7ECFBE189491ECA
:10CBA0008DB2E581F3F7EAFB15B117E0002070BD07
:10CBB000617B207B2568890703D52169204688474A
:10CBC00008E003280CD001280DD002280BD0204605
:10CBD000FEF77EFD761CF6B22C00DDD1304670BD2E
:10CBE00021460D2001E021460C20FEF7A9FEF1E7C9
:10CBF00010B579B170B100290EDA4A4293B2428978
:10CC00009A420AD216A340F20D2219A120A0F3F7EE
:10CC1000E3FB22E0002010BD8BB2027B446832B1FE
:10CC2000032A04D0022A0AD0012A08D015E0621A89
:10CC300000F1100342609A4208D244600DE00029DE
:10CC40000BDA42899A4208D3621A426042890A4446
:10CC50004281028911440181DCE7012010BD0000FE
:10CC60004C5749505C7372635C706275662E63004A
:10CC7000696E6372656D656E745F6D61676E697410
:10CC8000756465203C3D20702D3E6C656E00000093
:10CC9000417373657274696F6E202225732220665A
:10CCA00061696C6564206174206C696E652025641F
:10CCB00020696E2025730D0A0000000070B50289FE
:10CCC0008A4221D98A1A0D46044605E0281A85B2FF
:10CCD00020891044208124686089A842F6D3207BF3
:10CCE00050B96089A84207D0A088001B284481B2AF
:10CCF0002046FEF7B1FD044665812581206808B114
:10CD0000FFF746FF0020206070BD10B5040008D07A
:10CD1000F3F730FBE189491CE181BDE81040F3F7EE
:10CD20002DBB10BD70B5044600684FF0FF3500788C
:10CD300000F0F000102827D0202812D0402802D080
:10CD4000FA20207170BD207A00F0C8F82168486090
:10CD5000226820B1BDE87040114900F0D5B82571B6
:10CD600070BD03F021FB2168002848602168F6D0DF
:10CD70000978222901D101210174226809495068EA
:10CD8000BDE8704003F01DBB01F02AFC21680028BB
:10CD900048602168E3D0BDE87040084600F02CBA36
:10CDA0003DCF00082BD0000810B5154B01885A68FC
:10CDB000114488420FD00A796AB99A6891420AD020
:10CDC000DA688A4200D1D8600A8802805A680988E5
:10CDD000841A921C8C5241885A68114481420DD0A9
:10CDE0000A79002A0AD1DA68824200D1D960028821
:10CDF0000A805A680088891A921C815210BD00006E
:10CE0000A800002010B504464078012802D004286C
:10CE100004D006E02046FCF7C6FD02E02046FCF701
:10CE200049FC94F89C10C80616D56068A0B1B0F80B
:10CE3000662040F669339A420ED9B0F8680005289A
:10CE40000AD221F0100084F89C00D4F8A8301BB15D
:10CE50000022022120469847002010BD01B1096838
:10CE600001600020704700002DE9F0470746406848
:10CE7000DFF85C90002690F809803546D9F800402C
:10CE800021E0217C41451BD12CB1206818B111490A
:10CE90000968884214D1D4F814C0BCF1000F0FD037
:10CEA0000D4B3A462146A069E04748B100270126CC
:10CEB00035B1E068E860D9F80010E160C9F80040D9
:10CEC0002546E4680EB9002CDBD13046BDE8F0877A
:10CED000C80000209C0000209800002070B5054686
:10CEE0000020FEF773FD040009D01C21F3F7FCFCC1
:10CEF0002574FF20A07203480168E16004602046A9
:10CF000070BD0000C8000020C0E905127047000095
:10CF100009490A68824209D1D2680A6008E0D168EA
:10CF200019B1814201D1C168D1600A46002AF6D107
:10CF300001460020FEF704BDC80000202DE9F041A5
:10CF400014460F46060031D006F13400804600F04A
:10CF5000F7FBF8B1218900220320FFF7C5FB05008C
:10CF600024D02146FFF7DCFCA8B90720FEF72EFDF0
:10CF7000040010D00F48256065600068A060387C10
:10CF8000A0812D892146404600F0C0FB38B12046E3
:10CF9000FEF75EFE0AE02846FFF7FAFD06E0D6F847
:10CFA000A8301BB12A460021304698470020BDE832
:10CFB000F0810000980000202DE9F0411E46154642
:10CFC0000F46040012D004F13400804600F0B8FB94
:10CFD00080B1F3F7CFF994F9081011F1090F00DBD4
:10CFE0002672F3F7CBF975B12E890DE06FF00500CD
:10CFF000BDE8F081BDB12989384602F01DF9284607
:10D00000FFF7C6FD0FE000262946404600F07EFBF4
:10D0100010B14FF0FF30EBE7D4F8A8301BB1324627
:10D020000021204698470020E2E72DE9F0471F46FF
:10D03000DDF82080164605001CD005F1340081463D
:10D0400000F07EFBB0B10720FEF7C0FC040011D059
:10D05000266066609FB13868A060A4F80C803689AD
:10D060002146484600F052FB58B12046BDE8F04743
:10D07000FEF7EEBD3046BDE8F047FFF789BD002062
:10D08000EAE7D5F8A830002B05D032462846BDE89F
:10D09000F04700211847BDE8F08700002DE9F04374
:10D0A0008BB0F4F7C7FDF3F765F92B4D2978491CD0
:10D0B0002970F3F763F900240327CDE9064709AE89
:10D0C0004FF01E084FF49679244A0896059440467E
:10D0D00004948DE8050321482346214A21A1C43840
:10D0E000F7F7BCF9CDE90647214A089605940620D2
:10D0F00004948DE805031E4800231E4A1EA1C4386F
:10D10000F7F7ACF9CDE9064764200A210896CDE986
:10D1100002101C4A05941D20CDE900021948049410
:10D120000023194A19A1C438F7F798F9F3F722F93F
:10D130002978491E11F0FF01297009D11749098882
:10D1400031B1F3F71BF9F8F79DFC0BB0BDE8F083A4
:10D15000F3F714F9F9E700009C010020900E00207D
:10D1600051AD00086C6564207461736B00000000B1
:10D170007404002031D40008737672207461736BDC
:10D18000000000003C0C0020EDFF00087561727487
:10D190005F64617461207461736B00006001002042
:10D1A00070B5044640781546012802D0042804D002
:10D1B00006E02046FCF7F7FB02E02046FCF77AFA8F
:10D1C000C4B16068B0B1B0F8661040F669329142FF
:10D1D00010D9B0F8680005280CD294F89C0020F013
:10D1E000100084F89C00D4F8A8301BB12A46022114
:10D1F00020469847002070BD10B54468014620467F
:10D2000000F05EFD0949204602F002F80849204678
:10D2100002F033F904220749204601F01DFC2046A4
:10D22000BDE81040044900F015BF0000B9CF000868
:10D23000A1D1000805CE0008C59A0008F0B5054642
:10D240008BB010210220FEF73DFC04004FF0FF37A9
:10D2500051D0C42102202560FEF734FC6060002814
:10D260004BD04FF480610220FEF72CFCA060002818
:10D2700048D02F4E0125701990F85000002843D057
:10D280006D1CEDB2142DF6D3142D41D0F3F772F8C6
:10D29000074600200322CDE9060209A9089105905E
:10D2A0004FF48072A168CDE9032005F10A0019232B
:10D2B000C0B28DE80B0023461E4A1FA16068F7F735
:10D2C000CDF83846F3F75AF8BDF8240048B3217B6F
:10D2D0001EA0F3F781F802206168FEF7C1FB02206F
:10D2E000A168FEF7BDFB21460220FEF7B9FB6FF0F7
:10D2F00003000BB0F0BD3846FBE721460220FEF7E5
:10D30000AFFBF8E7616808E0257346F82540BBE706
:10D3100002206168FEF7A4FBA1680220FEF7A0FBD3
:10D32000EBE77119012081F850000020E1E70000CF
:10D33000F801002069D30008736C696E6B20636C80
:10D3400069656E74207461736B0000002564BAC552
:10D35000BFCDBBA7B6CBC8CECEF1B4B4BDA8CAA7CB
:10D36000B0DC0D0A000000007CB504460C21002052
:10D37000FEF7A8FB0546217B22A0F3F72DF805F167
:10D380000A0669462068FEF7EBFE38B310F10C0F71
:10D3900001D00B30F5D129460020FEF761FB206853
:10D3A000FEF7A4FD2068FEF7F9FD227B1A48002154
:10D3B0001154217B19A0F3F70FF802206168FEF7E2
:10D3C0004FFB0220A168FEF74BFB21460220FEF72F
:10D3D00047FB01A90020F7F723F97CBD0098C8227C
:10D3E000016849892981006841683046F3F7E3F90B
:10D3F000206868602846F5F7CFF90098FEF728FC0A
:10D40000BFE700002564BAC5BFCDBBA7B6CB20D20D
:10D41000D1C1ACBDD30D0A00480200202564BAC5B5
:10D42000BFCDBBA7B6CB20D2D1B6CFBFAA0D0A00C5
:10D430008CB002E06420FAF7D7FFFDF74DFF00281B
:10D44000F8D1FDF7FDFE384C02E00A20FAF7CCFFD8
:10D45000A07D0028F9D0A07D0128F6D0F2F78AFF40
:10D46000324D2978491C2970F2F788FF00240320E7
:10D47000CDE906400AAE089664200A21CDE90210E3
:10D480002B4A05940720CDE900022948049423463D
:10D49000284A29A1C438F6F7E1FFF2F76BFF297893
:10D4A000491E11F0FF01297007D12749098821B1D0
:10D4B000F2F764FFF8F7E6FA01E0F2F75FFF002207
:10D4C00011461020FEF728FE074640F222521F495F
:10D4D000FEF7B8FCFF213846FEF7CAFD0525C7F860
:10D4E000985009A93846FEF7C5FB40B10022CDE9A6
:10D4F00000460A2311461046F7F734FBF1E7099876
:10D50000C0F89850FFF79AFE0028EAD010A0F2F772
:10D5100063FF0998FEF7EAFC0998FEF73FFD11A0AA
:10D52000F2F75AFFDDE700004C1300209C010020B9
:10D53000E8090020B5000108756172745F737672A6
:10D54000207461736B00000060010020A0080108D6
:10D55000BDA8C1A2D0C2C1ACBDD3CAA7B0DC0D0A60
:10D5600000000000D2D1B6CFBFAAB2A2C9BEB3FD9F
:10D57000D0C2C1ACBDD30D0A000000002DE9FF41AF
:10D5800014000E46804608D0C82060434FF47A71DC
:10D59000B0FBF1F535B9012504E0002502A8F7F745
:10D5A00083FB0446002702A8CDE9007003AB3A468E
:10D5B00029464046F6F782FB2EB11149884201D137
:10D5C000376000E03060BDF80800A0F5E441D939CB
:10D5D00006D002A8F7F768FBA04206D9001B06E0B8
:10D5E0004FF0FF3004B0BDE8F081E14308444FF450
:10D5F0007A714843C821B0FBF1F0401CF2E700000B
:10D60000E00801080122FFF7B9BF7CB5054601A873
:10D61000F7F74AFB044601A8002300901A4621466A
:10D620002846F6F7A9FDBDF80400A0F5E441D93974
:10D6300006D001A8F7F738FBA04204D3001B04E092
:10D640004FF0FF307CBDE14308444FF47A7148430A
:10D65000C821B0FBF1F0401C7CBD704738B50446D2
:10D660006946F6F7E9FA6A4601212046F6F75CFAC0
:10D6700038BD000008B5142900DD14218AB26B46BC
:10D6800004A1F6F70DFABDF80000002801D04FF014
:10D69000FF3008BD4C574950205175697565000031
:10D6A0002DE9FE430E0081464FF0000400D1104EDC
:10D6B0004FF40078002702AD3046F3F75DF882B2F0
:10D6C0004346314648460095F6F7ACFBBDF80800E6
:10D6D00000280BD00022CDE90075641CE4B20523BC
:10D6E00011461046F7F73EFA0A2CE5D3BDE8FE8353
:10D6F000E008010810B5044600F022F8002804D024
:10D700002046BDE81040FFF7A9BF10BD7CB50C0056
:10D71000054600D1094C2046F3F72EF882B201A845
:10D7200000904FF4007321462846F6F77BFBBDF8C6
:10D730000400002801D04FF0FF307CBDE008010854
:10D7400010B54068002805D003A1F3F7F5F80028CC
:10D7500000D0012010BD00003F51000008B56A460E
:10D760000121F6F781FC08BD38B50A4604466B4630
:10D7700004A1F6F73DFC0CB1002038BD4FF0FF309E
:10D7800038BD00004C5749502053656D0000000023
:10D7900010B5044600F010F8002804D02046BDE87B
:10D7A0001040FFF7DBBF10BD08B56A464FF40071AB
:10D7B000F6F780FD08BD000010B54068002805D0D0
:10D7C00003A1F3F7B9F8002800D0012010BD000034
:10D7D0003F53454D00000000F0B58BB00F461D468D
:10D7E0001CA1109EF3F7A8F870BBF2F7C3FD1D4C07
:10D7F0002178491C2170F2F7C1FD0A20B5FBF0F138
:10D80000002009AA032305900690CDE90732164AA5
:10D81000002312680291CDE90350F0B2CDE9000275
:10D820003A4612A11648F6F719FEF2F7A3FD217841
:10D83000491E11F0FF01217007D11249098821B159
:10D84000F2F79CFDF8F71EF901E0F2F797FD0BB037
:10D850000020F0BD74637069705F74687265616404
:10D86000000000009C01002050000020544350495B
:10D8700050546872656164207461736B000000002D
:10D88000A8C601206001002070B5044615460E466A
:10D890000B20FEF79BF800280DD00021C560104B2F
:10D8A00080E85200196829B14A68A24210D9121BB7
:10D8B0004A600160186070BD54689C4207D9536883
:10D8C00044681B1B53600A680260086070BD114603
:10D8D00042684B68D31A43600A68002AF3D0EBE72A
:10D8E0001401002010B500220C494FF47A70FFF7A4
:10D8F000CBFF00220A4941F28830FFF7C5FF002222
:10D9000008494EF66020FFF7BFFFBDE81040002237
:10D9100005494FF4FA70FFF7B7BF000071AC00087B
:10D9200081830008DD950008F59500082DE9F04792
:10D93000164D884681464FF0FF37286830B142685F
:10D940005AB141464846FFF719FE07E041464846AE
:10D95000BDE8F0470022FFF711BE3846411C296898
:10D9600004D04A6882420DD9101A0CE00868286079
:10D97000D1E902460B20FDF7E3FF002CDDD0304655
:10D98000A047DAE700204860BDE8F08714010020D6
:10D9900030B4104C0B462168002919D000228D6844
:10D9A000854211D1CD689D420ED1086852B11060F8
:10D9B000086818B142684B681A44426030BC0B20BA
:10D9C000FDF7BEBF2060F3E70A4609680029E6D1EB
:10D9D00030BC70471401002010B5A820FAF7DCFC19
:10D9E0002E4802F011FB4FF4E13002F05FFDF5F735
:10D9F00073FEF4F7F9F82AA0F2F7EEFC2AA0F2F78A
:10DA0000EBFC2CA0F2F7E8FC2CA0F2F7E5FC24A03C
:10DA1000F2F7E2FCF5F7ACFC014629A0F2F7DCFCDA
:10DA200024A0F2F7D9FC284928A00A46F2F7D4FC32
:10DA30000220FEF7A3F80020FEF7A0F8F5F798FC07
:10DA400000226421F9F7DAFFFAF7E6FAFAF73CFB6D
:10DA5000A0F56F4117391FD022490120C1F8940267
:10DA600021A0F2F7B9FCF9F7FDF9244CE18829B1BE
:10DA7000A1F5045122A07A39F2F7AEFCF5F778FC53
:10DA8000E2886421F9F7BAFFF5F762FD21480168E1
:10DA900041F00801016010BD1FA0E2E7F0CD0500D4
:10DAA0001B5B376D000000000A0A0A0A0D466C79FC
:10DAB000000000001B5B306D000000002000000033
:10DAC00025750A0D0000000095E6020052656C65A0
:10DAD00061736520257520284C6962202575290A07
:10DAE0000D00000000004042573235513132383AC3
:10DAF0004552524F52210A0D000000002817002005
:10DB0000736574206368616E6E656C2025754D0ABF
:10DB10000D000000003C0140573235513132383A97
:10DB200031364D20427974650A0D00002DE9FC471D
:10DB30000446007E0F460A282FD021461D48D4F8FF
:10DB40005090D4F828802669D4F8885000F058FF07
:10DB50001849012018390870206F08B101F03DFC08
:10DB6000E06E08B101F039FC4FB1A18B608BCDE9BB
:10DB70000001231D22464146484601F0E5FB2146AF
:10DB80000220FDF7DDFE002D12D002B03046AC467B
:10DB9000BDE8F0476FF00901604706482146001DC7
:10DBA00000F02EFF2146BDE8FC470220FDF7C8BE6D
:10DBB000BDE8FC87E40000200121FFF7B7BF416109
:10DBC00070476FF0090070472DE9F04104460220CC
:10DBD000FDF7FCFE374D060036D100231A46EE68ED
:10DBE000E86906E0416A711A994201D30B46024680
:10DBF000C0680028F6D112B11046FFF7DDFF022001
:10DC0000FDF7E4FE06001FD17F2600273B46D5F82E
:10DC10000CC0A8690DE0417EA14209D8B14207D8E5
:10DC2000426AACEB0202BA4202D3174603460E46E2
:10DC3000C0680028EFD113B11846FFF7BDFF0220DE
:10DC4000FDF7C4FE060032D09421F2F74DFE747643
:10DC500041F2D060A6F866000023A6F868304010B4
:10DC6000B085F0857372FF20B0724FF40670F086B5
:10DC70000620A6F84400A6F84030A6F84200C01FCF
:10DC8000B0860120A6F84C00103600F0DBFCB06432
:10DC90003064B063F064E8687061A8787074F373FE
:10DCA0000548F0660548F06786F88230103E304639
:10DCB000BDE8F081CC00002015F2000800DD6D0009
:10DCC000016170472DE9F0410546007E0C460426AF
:10DCD00050B11DA340F2B7121FA129A0F2F77CFB9F
:10DCE0006FF00500BDE8F0811AB900F07DFC02007C
:10DCF00006D0DFF8B8C000215CF82100006811E010
:10DD00006FF00100EEE7438B93420AD130B1036814
:10DD100023B11CB127680FB1BB4202D16FF00700DD
:10DD2000E0E7C0680028EED1491CB142E4DB14B141
:10DD3000206800B128601E486A830169E9600561B6
:10DD400001F0F4FC0020CDE74C5749505C7372633E
:10DD50005C7463702E6300007463705F62696E644C
:10DD60003A2063616E206F6E6C792062696E642068
:10DD7000696E20737461746520434C4F53454400B1
:10DD8000417373657274696F6E2022257322206659
:10DD900061696C6564206174206C696E652025641E
:10DDA00020696E2025730D0A000000002809010873
:10DDB000CC000020017E012903D0817F41F01001B9
:10DDC00081770121AFF300802DE9FC470446007EF6
:10DDD000464E4FF00009012791B3042801D00728CF
:10DDE00037D1616F21B9A18DA1F53062683A30D089
:10DDF000A18B608BCDE90001231D2246A16A206D15
:10DE000001F0A2FA204600F0DEFDB069A04202D186
:10DE1000C068B06107E0306228B1C068A042FAD1A2
:10DE2000316AE068C860C4F80C903770207E04281E
:10DE300007D021460220FDF783FD0020BDE8FC87C6
:10DE400007E00A202076F069E060F46101F06EFCE2
:10DE5000F3E74FF00508082840D2DFE800F0041C83
:10DE6000252D2D3F3F35608B002578B13069A042CC
:10DE700002D1C068306107E0306228B1C068A042BA
:10DE8000FAD1316AE068C860C4F80C9021460220DB
:10DE9000FDF756FD27E0154800252146143000F017
:10DEA000AFFD21460320F3E7104800252146183036
:10DEB00000F0A6FD3770E9E7204601F0BBFA050047
:10DEC00009D184F8188006E0204601F0B3FA050075
:10DED00001D10920207634B115B104E0002502E01B
:10DEE000204600F0B7FB2846A8E70000CC00002041
:10DEF0002DE9F0478046089E9A4691460F46F00766
:10DF000000D00420B10701D50C2100E00021451804
:10DF10000420FDF75BFD040012D026730026C4E93F
:10DF2000006738891421401B208166813846FEF73E
:10DF30005FFE48B1204601F042FA0020BDE8F087BC
:10DF40003846FEF725FEF8E7606840682061B8F8BB
:10DF50001A00FDF773FB21690880B8F81C00FDF773
:10DF60006DFB216948805046FDF766FB21694860DA
:10DF7000A808000300F5A04040EA0900FDF75EFB99
:10DF800021698881206946822046D7E710B504467A
:10DF90000846FCF78FFE38B1008D28B1283880B2D2
:10DFA000844200D220460446204610BDF8B50446FF
:10DFB0000026B0F86800771E0D46082804D3A07F1D
:10DFC00040F08000A07720E0A80700D50126F007E8
:10DFD00000D00420B10701D50C2100E0002101444C
:10DFE000B4F8660088B100221046FEF77DFB0028D9
:10DFF000E5D0009601462A462046E36DFFF778FFFC
:10E000000200DCD0E06E10B104E03846F8BDE266F4
:10E0100004E0084601680029FBD102600020A4F852
:10E020006A00A80707D0E06D401CE065B4F8660000
:10E03000401EA4F86600E80703D0A07F40F020004F
:10E04000A0775068FEF763FC34F8681F084420800E
:10E050000020F8BDC0F88810704700002DE9F0419D
:10E06000144EB078401CB0700027B4691EE094F8DC
:10E070002110B078814219D084F82100A07FC10717
:10E0800009D040F00200A077204600F0E3FAA07F1C
:10E0900020F00300A077E568606F30B1377020464C
:10E0A00000F082FE30780028DED12C46002CDED134
:10E0B000BDE8F081CC000020704700002DE9FC474E
:10E0C0000546BB4E40680C46B060017801F00F0178
:10E0D00000EB8101716000780007800E4142284604
:10E0E000FEF786FD002874D12889142871D3B14F1A
:10E0F00021463868FCF7FAF90028F4D13878C0F3E3
:10E1000003100E2865D070688089FDF79BFA000B1C
:10E11000800041422846FEF76BFD0028E3D170687D
:10E120000088FDF78FFA0146706801804088FDF78E
:10E1300089FA0146706841804068FDF781FA01461E
:10E1400070684160F1608068FDF77AFA0146706896
:10E1500081603161C089FDF775FA01467068C1813F
:10E160008089FDF76FFA00F03F0C86F800C029891E
:10E170005FEA8C7000D0012008447080DFF838A27C
:10E180008E480023DAF800400068A14671683A68BA
:10E190001AE0A78BB1F80080474513D1678BB1F81F
:10E1A000028047450ED1676887420BD127689742A6
:10E1B00008D12BB1E768DF60C4F80C90CAF80040C2
:10E1C00024B13FE02346E468002CE2D17C4B1C687C
:10E1D00013E0E7E0A38B0F88BB420DD1638B4F8820
:10E1E000BB4209D16368834206D12368934203D1BD
:10E1F000204601F0B5FAD5E0E468002CEAD1DFF85A
:10E20000C4A10027DAF8000081460BE0438BB1F887
:10E210000280434504D10368934206D080B12BB1FC
:10E220000746C0680028F1D10AE048B12FB1C168A3
:10E23000F960C0F80C90CAF8000000F0E5F8B1E011
:10E24000002C7AD0DFF8808100275FEA0C70C8F8D4
:10E2500000702A89A8F80820C8F80450C8F81010DF
:10E260007761777003D5687B40F001006873606F59
:10E2700040B1204600F098FD0A3075D0606F08B1BB
:10E28000708818BB2046B46100F0ECFB0A306BD0FC
:10E290007078010706D5D4F888207AB16FF00A01AA
:10E2A00020690AE0C00612D5A07FC00606D4D4F8C3
:10E2B00088201AB16FF00B012069904721463E4833
:10E2C00000F09EFB21460220FDF73AFB4CE0B4F83B
:10E2D0006420002032B1A36F13B121462069984712
:10E2E0000A3041D07069F0B1A17FC90605D5FEF7AB
:10E2F0004FFC2046FFF760FC36E0E56F3DB1D4F8F7
:10E3000010C00246002321466046A84705E00023CE
:10E3100002462146184600F07DFF10F10A0F23D077
:10E3200008B1706960677078800619D5606F28B190
:10E33000417B41F02001417312E021E0A08DA0F566
:10E340003061683901D0401CA085E56F2DB10023F4
:10E350001A4621462069A84700E000200A3003D071
:10E360002046B76100F076F9B7617761D8F804000C
:10E370004446002802D0FEF70BFC6760BDE8FC872E
:10E380008889FDF75FF940070CD470680B4B094A88
:10E3900001884088CDE900017188F0680144306946
:10E3A00000F0D2FF2846BDE8FC47FEF7F1BB0000B5
:10E3B000F00000209C000020E400002098000020D5
:10E3C000E8000020E00000206CC701207CB5044676
:10E3D000006D401EFDF730F903460022114620462D
:10E3E00000F0FCF905000ED006210020CDE9000167
:10E3F000A37A221D21462846FCF702FA2846BDE8EA
:10E400007C40FEF7C5BB7CBD7CB5334E05463078FD
:10E4100041075FD4C1060DD57068304B304A018882
:10E420004088CDE900017188F0680144306900F04E
:10E430008BFF4FE080074DD5687EFFF7C5FB0400DA
:10E4400040D0274800682060688B608323480068BC
:10E45000606070680188A18303212176F1680A4613
:10E46000491CA1622163C189A4F86010C089A4F885
:10E470006200A4F84E10521E626528692061686926
:10E480006061287A00F08C00207216480168E16013
:10E49000046001F04BF9144901200870204600F097
:10E4A0002BFAE08E211DFFF771FDE0861221204638
:10E4B000FFF77CFD050008D000212046FFF736FB62
:10E4C00028467CBD4FF0FF307CBD2046BDE87C4037
:10E4D00000F0C0B800207CBDF000002098000020B3
:10E4E0009C000020E4000020CC00002070B5044611
:10E4F000007E40B120A34FF4037223A12BA0F1F7BB
:10E500006BFF002070BD0320FDF760FA0500F9D015
:10E5100020692861608B688301202876607E687698
:10E52000207A40F002002872A07AA872607A68729D
:10E5300020682860608B80B127490869A04202D119
:10E54000C068086107E0086228B1C068A042FAD13B
:10E55000096AE068C8600020E06021460220FDF7FB
:10E56000EFF91E4868611C4814300168E9600560D5
:10E5700001F0DCF8284670BD4C5749505C7372635B
:10E580005C7463702E6300007463705F6C697374F5
:10E59000656E3A2070636220616C726561647920F7
:10E5A000636F6E6E6563746564000000417373652C
:10E5B0007274696F6E2022257322206661696C6512
:10E5C00064206174206C696E6520256420696E206A
:10E5D00025730D0A00000000CC000020C3DB0008FA
:10E5E0004020FFF7F1BA0000F0B5144D144E00249E
:10E5F0004FF6FF774FF4404C4FF4804EB088411CEB
:10E60000B180B84201D1A6F804C0B288002155F803
:10E610002100006809E0438B934205D1641CA4B239
:10E620007445EBD30020F0BDC0680028F3D1491C2D
:10E63000C9B20429EBD390B2F0BD0000280901084B
:10E64000CC0000200249D1E90202104488607047E2
:10E65000CC0000202DE9F04704465F480068A04246
:10E6600002D10020BDE8F087B4F86010B4F84C0087
:10E67000814200D208468146A07FE56E80070FD513
:10E680004DB128694068FCF7DBFFA16C401A29896D
:10E690000144494504D92046BDE8F04700F0A6BE34
:10E6A000D4F870804FF0000A5FEA080001D17EE0E4
:10E6B0008046D8F800000028FAD178E0206FA8B191
:10E6C000A17F11F0440F11D1E06E28B102686AB940
:10E6D0000089E28E904209D2B4F8660030B1B4F8F5
:10E6E0006800082802D211F0A00F6CD02868E066FC
:10E6F000207E02280BD01020FCF7A0FF01462869DD
:10E70000828911438181A07F20F00300A0772146F8
:10E71000284600F099F828694068FCF791FF064602
:10E7200028698089FCF78EFF800700D001202989A5
:10E7300030440844216D091A00D520652869808974
:10E74000FCF780FF800700D001202989C8422AD029
:10E75000C5F800A0206F70B128694068FCF770FF11
:10E760000646D8F810004068FCF76AFF301A16D544
:10E7700004F1700602E0256713E03668306850B196
:10E7800000694068FCF75CFF074628694068FCF7B1
:10E7900057FF381AF1D430682860356006E0C8F8B1
:10E7A0000050A84602E0284600F009FEE56E55B18B
:10E7B00028694068FCF744FFA16C401A298901448C
:10E7C00049457FF67BAFE06E08B9A4F86AA0A07F48
:10E7D00020F08000A07744E7080100202DE9F041F7
:10E7E000054688180F46143081B298460022012051
:10E7F000FDF77AFF060023D0688B7468FCF71EFFD4
:10E800002080A88BFCF71AFF6080C4F80480A86AF7
:10E81000FCF712FFA060B808000300F5A04080B22A
:10E8200040F01000FCF70AFFA081E88DFCF706FF1E
:10E83000E081002020826082E98DA86A0844286374
:10E840003046BDE8F08100007CB505460C46886A7C
:10E85000FCF7F2FE29698860E08DFCF7EFFE29697C
:10E86000C881E18DA06A084420632E69287B143694
:10E87000C00709D0211D40F2B450FFF787FB40F0DC
:10E880000170FCF7D9FE3060B4F934000026401C5A
:10E8900000D1A6860CB1206830B9201DFCF70AFA19
:10E8A000002825D040682060A06B38B91148006866
:10E8B000A06328694068FCF7C3FEE0636968288AA2
:10E8C0008A88801A4A89121A4A8169680A89101A44
:10E8D000088169682869221D486028690621068226
:10E8E000607ACDE90001A37A21466868FBF788FFCA
:10E8F0007CBD0000D800002070B51E4E0546706833
:10E9000000F114048089FCF79DFE0521B1EB103F56
:10E910001ED270688089FCF795FE6FF0040101EB50
:10E920001030090C01EA8003002140F2B4560DE0DA
:10E93000605C00280CD001280BD0022804EB0100F9
:10E9400009D04078002803D0084481B29942EFD31F
:10E9500070BD491C0CE04278042AF9D1091D994286
:10E96000F6D8408842BAB24200D802B93246EA86A6
:10E9700089B2EBE7F00000202DE9F0411D46DDE90A
:10E980000637089E0C46914211D2BF0707D49F7FDD
:10E990007F060CD41EB1DE6E0EB91B6F3BB104F2C4
:10E9A000B75121F00301914200D80A4691B20022EA
:10E9B000FDF79AFE002804D04189091B29800481B3
:10E9C0004481BDE8F08170B50446007E002816D071
:10E9D0000A2814D0012812D0606F002510B1FEF76C
:10E9E000D7F865674FF0FF30A086E06E00F0F5FCC9
:10E9F000206F00F0F2FCE5662567A4F86A5070BD50
:10EA000070B50C4601460068A04202D1C06808609B
:10EA10000BE0104906E0C068A04203D1096AE06833
:10EA2000C86002E008620028F5D100252046E560B4
:10EA3000FFF7C9FF207E0A280AD0012808D0A07F4E
:10EA4000C10705D040F00200A0772046FFF702FE84
:10EA5000257670BDCC000020C0F8841080F82020FE
:10EA6000704700002DE9FC5F0446C74E002000906F
:10EA7000307841071CD5207E022814D0A06AF168A6
:10EA80000A1A14D4A28D1044081A00280FDC7078DA
:10EA900040F008007070A07F20F00100A0776FF0B8
:10EAA0000A00BDE8FC9F206D31698842EFD069E122
:10EAB000800709D5207E022806D0032804D0A07F35
:10EAC00040F00200A0775DE1A07FC00602D4AF480D
:10EAD00000686062002084F892002046FFF70CFF77
:10EAE000207EDFF8ACA2DFF8AC82AB4FAB4D801ECE
:10EAF0004FF001094FF00A0B0828D8D2DFE800F0E8
:10EB0000046DBFC3FABFEFEE3078C106CFD58007E2
:10EB100057D5206F00694068FCF792FD3169401CB1
:10EB200088424BD134F8660F401C24F83E09F06847
:10EB30000246401C20602162A0607068521EC1899C
:10EB40002187C08960870420E26204F8100C34F841
:10EB50000E0FA4F13201363CFFF718FA00EB8001EA
:10EB60004FF6FF72E08602EA4101A4F84E10B4F8B5
:10EB70004C10012900D1400024F84C0FA08B401EFE
:10EB8000A083606A0168616200F019FC606A4C3C15
:10EB900070B10020A08684F84600D4F880305BB1C4
:10EBA000002221462069984700900A3032D086E73B
:10EBB0004FF0FF30A086F0E70098F6E73078C00607
:10EBC000A4D57068764B774A01884088CDE900016A
:10EBD0007188F0680144306943E03078C10643D55C
:10EBE000A16C3069411A012931D4216D411A0029E3
:10EBF0002DDC0420207663692BB100222146206998
:10EC0000984710B909E06FF00D000A3002D0204695
:10EC1000FEF7D2FF6FF0090043E7B4F84C502046EE
:10EC200000F0F4F8B4F8640010B1401EA4F86400D9
:10EC3000E08E012D00D14000A4F84C0070788006D1
:10EC400011D5A07F40F00200A077072050E0716846
:10EC5000534B0A884988CDE900127288F168114443
:10EC6000504A00F071FB8DE0800707D5A06AF1687B
:10EC7000401E884202D1204600F0FAFA82E0204687
:10EC800000F0C4F8DAE7204600F0C0F8707880069B
:10EC900030784FEAC06024D5002819DA206D316938
:10ECA000884215D1A07F40F00200A0772046FFF7F0
:10ECB0008AFE3868A04202D1C068386048E0286007
:10ECC000F0B3C068A042FAD12968E068C8603FE0AC
:10ECD000A07F40F00200A077082009E044E01FE098
:10ECE00008E000284EDA206D316988424AD10620BA
:10ECF000207647E0204600F089F87078800641D5FC
:10ED0000A07F40F00200A0772046FFF75CFE386845
:10ED1000A042D1D0286098B1C068A042FAD1D3E710
:10ED2000204600F073F83078C0062BD5206D31698D
:10ED3000884227D12046FFF746FE3868A04200E00F
:10ED400006E0B9D0286018B1C068A042FAD1BBE78C
:10ED50008AF8009084F818B0D8F80010E160C8F87C
:10ED6000004000F0E3FC0DE0204600F04FF8307862
:10ED7000C00607D5206D3169884203D1707840F014
:10ED80001000707000208CE6F0000020D8000020F9
:10ED9000CC000020E8000020E4000020EC0000206F
:10EDA000980000209C0000202DE9F041456F0446AA
:10EDB00000206E7B6067E76F2FB100232A46214653
:10EDC0002069B84705E000232A462146184600F08E
:10EDD00021FA6FF0090728B10A3015D065670020C5
:10EDE000BDE8F081B106FAD5A18DA1F53062683A8F
:10EDF00001D0491CA185E56F25B100231A462146A3
:10EE00002069A8470A30EAD13846E9E72DE9F04100
:10EE1000FC4F04464FF000063878C0067DD5B4F8A4
:10EE20006050A16D636DF8686A18B3EB000C0BD4E9
:10EE3000834202D13B69CB1A06D43B69994217D170
:10EE40007968C989A94213D97968CB89A4F8603057
:10EE5000B4F86250C9898D4201D2A4F8621060658D
:10EE60003869A06594F8910063B108B184F89160A5
:10EE7000A36C3869C11A002936DCA4F8646079886B
:10EE800041B12EE00028F3D184F89060012084F88D
:10EE90009100EDE7B4F86050A16D2944914220D172
:10EEA000B4F9341000291CDB83421AD194F84700CE
:10EEB000411CC9B2814201D984F8471094F8470037
:10EEC000032809D9B4F84C00E18E014489B281428B
:10EED00001D9A4F84C10A2E002D1204600F0F1F9CB
:10EEE0009DE084F847609AE0012977D4226D821A68
:10EEF000002A73DCA27F530706D522F00402A27712
:10EF0000B4F84E20A4F84C2084F84660B4F84220AF
:10EF1000B4F9403002EBE30200E0BCE0A4F8442086
:10EF2000A4F86410B4F866201144A4F8661084F8BC
:10EF30004760A064207E042830D3B4F84C00B4F8B5
:10EF40004E108842E18E04D2014489B2814207D832
:10EF500024E0494391FBF0F1014489B288421DD27B
:10EF6000A4F84C101AE028682067B4F8640050B187
:10EF700028698089FCF766FBC00704D0B4F86400F8
:10EF8000401EA4F864006868FDF7C1FCB4F868107E
:10EF9000081AA4F86800284600F011FA206FC8B1DA
:10EFA00000694068FCF74CFB0546206F00698089CA
:10EFB000FCF748FB800700D001202844256F2989F1
:10EFC00008443969401A0028CDDD1DB1A686E677D0
:10EFD00025E003E04FF0FF30A086F8E7A4F8646076
:10EFE0001DE02868E06608B9A4F86A60B4F8640017
:10EFF00050B128698089FCF725FBC00704D0B4F81C
:10F000006400401EA4F864006868FDF780FCB4F852
:10F010006810081AA4F86800284600F0D0F9E06EDD
:10F02000B8B100694068FCF70BFB0546E06E00696B
:10F030008089FCF707FB800700D001202844E56E9B
:10F04000298901443869411A03D4216D401A0028E6
:10F05000C7DDA06BF8B1E16B3A69891A1BD56A4923
:10F060000988081AB4F94010A0EBE10000B201448D
:10F070000AB2A4F84020002801DA404200B2B4F9F4
:10F080004210A0EBA1000844A4F8420000EBE2000B
:10F09000A4F84400A6637B88002B7DD0207E07283F
:10F0A0007AD2A06AFA68594D811A012924D41344EE
:10F0B000C31A5B1C002B1FDC686842898A420ADA8B
:10F0C0000289521A93B203E0038146810068891ACB
:10F0D00042898A42F8DB494209B2FDF789FDBA89C3
:10F0E000A06A2989821A891A2981F86029694860E9
:10F0F000A16A401A07D572E0101A04D5A07F40F02B
:10F100000200A0776BE0A18DA06A4218F9688A1A04
:10F11000521C002A63DC884261D128698089FCF78F
:10F1200091FA800700D001202989084480B27880B4
:10F13000A18D81422DD228698089FCF783FAC0070E
:10F140000ED028698089FCF77DFA00F03E00FCF7BC
:10F1500075FA01462869828922F47C521143818123
:10F16000A08D288128698089FCF76CFA800702D578
:10F170002889401E288129896868FDF79FFD286934
:10F180008089FCF75FFA800700D0012029890844B4
:10F19000788080B2F96800E026E00144A162A18D88
:10F1A000081AA085204600F021FB6868018909B192
:10F1B00078616E6028698089FCF744FAC00703D043
:10F1C000787840F020007870A07FC10702D020F04E
:10F1D000010014E040F00100A077BDE8F081204676
:10F1E000BDE8F04100F002B9A06AF9680A1A05D436
:10F1F000A28D1044081A401C0028EEDDA07F40F0CC
:10F200000200E9E7F0000020D80000206CC70120D0
:10F21000C167704710B51400084606D0218900F078
:10F220000BF82046FDF7B4FC00E00BB1002010BD48
:10F23000BDE81040FEF7BEBD10B50446808D084401
:10F2400080B240F66831A085884200D9A185204669
:10F2500000F0CCFA40F2DA21884208DBA07F40F0CF
:10F260000200A0772046BDE81040FFF7F3B910BDBB
:10F270002DE9F041066F0546002E20D0306805F1DB
:10F280006C04286700E02468206850B10069406879
:10F29000FCF7D6F9074630694068FCF7D1F9381A0F
:10F2A000F1D42068306026603168002009B9A5F8E3
:10F2B0006A0015F8461F491C05F80E192860BDE8BC
:10F2C000F08110B50446006F002825D0A07F4007CC
:10F2D00022D42046FFF7CCFFB4F84C00B4F86010FD
:10F2E000884201D9480800E04008A4F84E0081B2E5
:10F2F000E08EB1EB400F05D24FF6FF7101EA4001FD
:10F30000A4F84E1089B200EB40000844A4F84C0069
:10F31000A07F40F00400A07710BD016F002912D03B
:10F3200000E011460A68002AFBD1C26E0A60016F34
:10F33000C1660021016790F84620521C80F84620E3
:10F340008163FFF787B970472DE9FC5F1746DDE958
:10F350000C9A884683461E46002214210120FDF7A0
:10F36000C3F9050029D048466C68FCF767F920808E
:10F370005046FCF763F960805846FCF75DF9606021
:10F380004046FCF759F9A06045F21400FCF756F925
:10F39000A08146F60B00E0810020208260820621D9
:10F3A000CDE90001FF23324639462846FBF728FA0B
:10F3B0002846BDE8FC5FFDF7EBBBBDE8FC9F10B540
:10F3C000040009D0606808B1FDF7E2FB2146BDE802
:10F3D00010400420FCF7B4BA10BD10B503E0046877
:10F3E000FFF7EDFF20460028F9D110BD7CB504469B
:10F3F0000025006DFCF720F903460022294620462F
:10F40000FFF7ECF9050012D0A07F062120F00300E1
:10F41000A077607ACDE90001A37A221D2146284613
:10F42000FBF7EEF92846FDF7B3FB00207CBD6FF03B
:10F4300001007CBD70B5C46E05460CB909E00C46F0
:10F4400021680029FBD120698089FCF7FBF840077F
:10F4500005D02846BDE870400121FEF7A7BD012078
:10F46000FCF7ECF801462069828911438181A87F6D
:10F4700040F02000A877002070BD8167704710B56C
:10F480000446007E6FF00C03012815D069B1A07FFF
:10F4900040F01000A0770AB1012110E0606F98B130
:10F4A000FDF776FB002060670EE06AB1032805D007
:10F4B000042803D0072801D0184610BDC9B2204641
:10F4C000BDE81040FEF780BC002010BD2DE9FC47D0
:10F4D000924F4FF4FA7A4FF00009F868401CF86038
:10F4E000B878401CB8700026BC69F8E094F8211088
:10F4F000B878814201D1E468F1E084F82100002568
:10F50000227EA846022A03D194F8460006281BD082
:10F5100094F846100C2919D094F89100C0B194F8D1
:10F5200090107F4A491CC9B284F89010825C9142C5
:10F5300044D384F89090072802D2401C84F89100AC
:10F54000204600F029FB39E0012543E0012535E0A4
:10F55000B4F93400002801DB401CA086206F68B39A
:10F56000B4F93400B4F94430984227DB022A0AD0B7
:10F57000B4F84200B4F9402000EBE200694A515C63
:10F580008840A4F84400A4F83490B4F84C00B4F8CF
:10F590006010884200D308464108A4F84E10E08E5F
:10F5A000B1EB400F05D24FF6FF7101EA4001A4F81C
:10F5B0004E10A4F84C002046FFF7AFFE207E062830
:10F5C00008D1A07FC00605D5606AF968081A282806
:10F5D00000D96D1C207A000729D5207E042801D08F
:10F5E000072824D15048D4F88C10D7F80CC0084410
:10F5F000B0FBFAF2606AACEB0000824203D24FF03B
:10F6000001086D1C13E094F8922042F29F4C12FB0B
:10F610000CF201EBC201B1FBFAF1814207D22046A4
:10F62000FEF7D4FE94F89200401C84F89200207EED
:10F63000032802D0092807D00BE0606AF968081A8D
:10F64000282806D96D1C04E0606AF968081AF028B9
:10F65000F8D84DB32046FFF7B6F9E0680EB1F06078
:10F6600000E0B861B8F1000F09D0A18B608BCDE943
:10F670000001231D2246A16A206DFFF765FE214689
:10F68000D4F81080D4F88850E4680220FCF758F9C8
:10F6900087F800901DB36FF009014046A8473878FD
:10F6A00000287FF420AF1AE02646E468F07F401C73
:10F6B000C0B2F07796F82010884210D386F81F90D9
:10F6C00087F80090D6F8842032B1314630699047EF
:10F6D00039780029E5D110B93046FEF7BBFF002C80
:10F6E0007FF404AF0025FC6914E0606AF968081A29
:10F6F000F0280DD92046FFF766F9E0680DB1E86003
:10F7000000E0F8612146E4680220FCF719F901E005
:10F710002546E468002CE8D1BDE8FC87CC00002039
:10F72000E308010818090108B84C0A0008484168B4
:10F7300000290CD10749084A09681268114306D00C
:10F740000121416000220549FA20FEF79DB870476B
:10F7500014010020E4000020E800002001FD000862
:10F760001CB5164C21784A0726D48A0715D5826A1B
:10F77000E1688B1A16D4838D1A448A1A002A11DC88
:10F7800060680F4B02884088CDE9000260880D4A0E
:10F7900001442069FFF7D8FD0EE0C90702D00A49ED
:10F7A00009684162618839B1817F41F00201817746
:10F7B000BDE81C40FEF74EBF00201CBDF00000203D
:10F7C000980000209C000020D800002010B5FEF713
:10F7D00045FC05494878401C4870C00703D0BDE887
:10F7E0001040FFF773BE10BDCC00002070B5858DB2
:10F7F000826AC48E531940F2B456016BB44200D9E8
:10F8000034460C441C1B02D4C585581A70BD531ACB
:10F81000002B01DD002100E0891AC185002070BDA8
:10F820002DE9FF4F064600208BB005460390079058
:10F8300005900990ADF820000746824604468046B0
:10F84000F08EB6F862109146B0EB510F00D3480825
:10F8500006900C9860B1307E1146042814D0072819
:10F8600012D0022810D003280ED06FF00C001CE03C
:10F87000ACA34FF4BF72B0A1BCA0F0F7ADFD6FF028
:10F880000D000FB0BDE8F08F71B1B6F86600904280
:10F8900003D3B6F86800082806D3B07F40F0800193
:10F8A000B1774FF0FF3000E000200028E9D1F06E82
:10F8B000B6F868B0002867D0054600680028FBD17C
:10F8C000287BC10700D00421800701D50C2000E06F
:10F8D00000202B89084419180698401A82B2B6F8FD
:10F8E0006A00ADF8200078B12F464946484500D25D
:10F8F00001468846A0EB0800ADF8200004EB0801A3
:10F90000A2EB08008CB282B24C453DD2002A3BD01B
:10F91000002B39D0A9EB0400904200DD104680B2E4
:10F9200004900E982F46C00719D001210E9800961A
:10F93000CDE9010108AB03200499FFF71DF80390FE
:10F9400000286FD06889BDF82010084468810C98A1
:10F95000049A011903984068F0F72DFF0BE001228B
:10F9600003200499FCF7C0FE03900028E9D00C980E
:10F970000119039841600498204484B20398FCF76D
:10F98000C6FF58441FFA80FB66E0A9EB040081B271
:10F99000DDE90520801A80B2814200D80846049033
:10F9A0000E98C0071ED0BAF1000F19D000200E9992
:10F9B0000096CDE90110049808AB104481B20020F4
:10F9C000069AFEF7D9FF019000282BD00C98011958
:10F9D0000198426805981044049AF0F7ECFE15E08F
:10F9E0000120E4E7012200200499FCF77DFE0700D6
:10F9F00018D00C9800222044786010460599FCF736
:10FA000073FE019078B13946FCF722FF0198FCF7AC
:10FA10007EFF58441FFA80FBBBF1080F05D90198FF
:10FA2000FDF7B6F86DE03846FAE709980090F06DFA
:10FA30000022031930460199FEF75AFA070060D0F8
:10FA4000BDF820007881BAF1000F0CD0079807604C
:10FA500004980797204484B24C4596D3B8F1000F20
:10FA60001FD06C6813E0BA46F2E7218901EB080069
:10FA70002081206850B961896068424608440C9929
:10FA8000F0F799FE618901EB080060812468002C81
:10FA9000EBD1298901EB080028816989A1EB0800D5
:10FAA0006881BDF82000A6F86A00039840B1686834
:10FAB0000399FCF7CDFE0398298900890844288121
:10FAC000E5B1C5F800A056F85C1F01EB09003060F5
:10FAD0007189A1EB09007081A6F80CB067B1386993
:10FAE00050B10E98800707D40820FBF7A7FD014608
:10FAF00038698289114381810020C2E6C6F86CA072
:10FB0000E1E7B07F40F08000B077039808B1FDF7DF
:10FB10003FF85FEA0A0001D0FFF75FFC4FF0FF30CB
:10FB2000AFE600004C5749505C7372635C746370BD
:10FB30005F6F75742E6300007463705F7772697411
:10FB4000653A20617267203D3D204E554C4C20287F
:10FB500070726F6772616D6D65722076696F6C612E
:10FB6000746573204150492900000000417373659A
:10FB70007274696F6E2022257322206661696C653C
:10FB800064206174206C696E6520256420696E2094
:10FB900025730D0A000000002DE9FC41046F0546A5
:10FBA00014B9EC6E002C3ED020698089FBF74AFD29
:10FBB000C00701D02089C8B100205FEA000817D033
:10FBC00000222069002143682846FEF707FE07004F
:10FBD00029D07E68B8F1000F0CD01120FBF72EFD64
:10FBE000B18921F47C510843B0810DE00120E4E7A4
:10FBF0000122E6E76068238906F114010289D21A1E
:10FC000093B20122FCF744FF06210020CDE9000158
:10FC1000AB7A2A1D29463846FAF7F2FD3846BDE888
:10FC2000FC41FCF7B5BFBDE8FC81000030B585B0F4
:10FC30006FF00505044605720B48FDF781FD80B1A4
:10FC400000208DF80000694607480294FDF728FD62
:10FC5000606800210C30FDF7D8FC94F9080005B06D
:10FC600030BD2846FBE7000080C7012038B50D46AF
:10FC70000446F3F74FFD08481421C0E90045074842
:10FC8000FDF7F8FC052000904FF47A730022044938
:10FC900004A0FDF7A1FD38BD0C01002080C70120A4
:10FCA00039FD000874637069705F7468726561641F
:10FCB000000000002DE9F04107460E460F48FDF711
:10FCC0003FFDB8B10A20FBF781FE04004FF0FF357D
:10FCD0000DD001202070C4E9027621460748FDF7C7
:10FCE00015FD002804D021460A20FBF729FE2846EE
:10FCF000BDE8F0816FF00500FAE7000080C7012041
:10FD000010B5FFF763FD0848084900680968084313
:10FD100006D00022BDE810400549FA20FDF7B4BD29
:10FD200004490020486010BDE4000020E8000020E5
:10FD300001FD0008140100201E4808B5016809B142
:10FD4000406834E069461C48FDF7F0FD009B1878D8
:10FD50000628F7D2DFE800F00307161C212999686E
:10FD6000081D096823E0D96891F8310010F0600F90
:10FD7000986802D0FAF730FA01E0FAF785FC0A2019
:10FD800000990FE0083393E80700FDF77DFD07E0D9
:10FD9000D3E90301FDF7FCFD02E0D3E90210884737
:10FDA00009200099FBF7CCFDCCE7D3E90210884786
:10FDB000C8E700000C01002080C701200FB41048E4
:10FDC0002DE9F04107AA0699F0F7F4FA0C48F0F78C
:10FDD000D3FC85B200240B4E094F0BE04021304686
:10FDE000F8F77AF80028F9D0395D3046F8F7EEF8E0
:10FDF000641CA4B2AC42F1D3BDE8F0015DF814FB81
:10FE00006016002000440040F0B504468BB010217D
:10FE10000220FBF757FE05004FF0FF3755D0C421F5
:10FE200002202C60FBF74EFE6860002849D04FF49A
:10FE300080610220FBF746FEA860002847D02B4EC9
:10FE40000124301990F85000002845D0641CE4B219
:10FE5000142CF6D3142C38D0F0F78CFA0746002077
:10FE60000322CDE9060209A9089105904FF480729A
:10FE7000A968CDE9032004F10A001923C0B28DE876
:10FE80000B002B461A4A1BA16868F4F7E7FA3846BC
:10FE9000F0F774FABDF8240010B3297B1AA0F0F72C
:10FEA0009BFA02206968FBF7DBFD0220A968FBF7DB
:10FEB000D7FD29460220FBF7D3FD6FF003000BB0FE
:10FEC000F0BD29460220FBF7CBFD3846F7E70220BC
:10FED0006968FBF7C5FDF4E72C7346F82450B9E7D1
:10FEE0003119012081F850000020E8E7700200205D
:10FEF00025FF00087561727420636C69656E74205B
:10FF00007461736B000000002564BAC5BFCDBBA748
:10FF1000B6CBC8CECEF1B4B4BDA8CAA7B0DC0D0A2A
:10FF2000000000001CB50446017B23A0F0F754FA42
:10FF300069462068FCF714F918B310F10C0F01D0D2
:10FF40000B30F5D12068FBF7D1FF2068FCF726F8CD
:10FF5000227B1E4800211154217B1DA0F0F73CFAA2
:10FF600002206168FBF77CFD0220A168FBF778FDA9
:10FF700021460220FBF774FD01A90020F4F750FB95
:10FF80001CBD1248C8212830F0F7AEFC009800686C
:10FF9000428941680D482830F0F70DFC0B4911A04B
:10FFA0002831F0F719FA09482830FFF707FF0098C1
:10FFB000FBF74EFEBCE700002564BAC5BFCDBBA76A
:10FFC000B6CB20D2D1C1ACBDD30D0A00C0020020F7
:10FFD0002564BAC5BFCDBBA7B6CB20D2D1B6CFBFA3
:10FFE000AA0D0A0025730D0A000000000EB50025B9
:10FFF00002AC00F0C3FA0022CDE90054642311469C
:020000040801F1
:100000001046F4F7AFFDF4E7F0B50646012187B0DE
:100010000846F6F757FD01211020F6F783FD234D22
:10002000072209212846F3F7F3F907220A21284677
:10003000F3F7EEF902218DF814108DF815104FF436
:10004000C060002404908DF8164001278DF81770C9
:1000500004A92846F3F7A0F9ADF80440ADF806402E
:10006000ADF80840ADF80C400C20114CADF80A007A
:10007000009669462046F7F74FFF01212046F7F723
:1000800021FF012240F225512046F7F72CFF2520C1
:100090008DF8180003208DF819008DF81A008DF8DE
:1000A0001B7006A8F3F790FB07B0F0BD00000240FC
:1000B000001001401FB5002211461020FCF72CF85B
:1000C000074641F250421749FBF7BCFEFF21384674
:1000D000FBF7CEFF0524002503AEC7F8984002A920
:1000E0003846FBF7C7FD40B10022CDE900560A2390
:1000F00011461046F4F736FDF1E70298C0F8984033
:10010000FFF782FE0028EAD007A0F0F765F9029811
:10011000FBF7ECFE0298FBF741FF08A0F0F75CF953
:10012000DDE70000A0080108BDA8C1A2D0C2C1AC93
:10013000BDD3CAA7B0DC0D0A00000000D2D1B6CFF3
:10014000BFAAB2A2C9BEB3FDD0C2C1ACBDD30D0A15
:10015000000000002DE9F047234E00256FF007094D
:1001600073680FE0984201D101250AE05C8A94424D
:1001700007D183B31F6877B369B30C685CB3A74238
:100180002AD0DB68002BEDD101B109680160FAB912
:10019000776800244FF6FF7C4FF440484FF4804AC4
:1001A0003288511C3180624501D1A6F80080394661
:1001B000328809E04B8A934205D1641CA4B25445AD
:1001C000EED3002203E0C9680029F3D192B212B144
:1001D000428225B106E0FFE74846BDE8F087716836
:1001E000C16070600020F8E71C01002070B5164661
:1001F000428A0D46044622B90146FFF7ABFF0028AC
:1002000010D155B128686060A682207C094A40F070
:10021000040020745068014606E00020F3E78442A1
:1002200001D1002070BDC0680028F8D1E1605460A1
:10023000F7E700001C010020704700002DE9F84F8F
:10024000D0F804B0824602899BF800000F4600F007
:100250000F00082101EB80018A427DD380004142DA
:100260005046FCF7C5FC002876D1DFF83091DAF86B
:1002700004403946D9F80000FAF738F905462088D5
:10028000FBF7E0F906466088FBF7DCF90024DFF8AD
:1002900010E10346442805D04249002210464C682C
:1002A000009444E0432E46D1386AE8B34068D8B39E
:1002B000011D05D0416819B1DEF8002091423AD104
:1002C00004463DE0618A99422FD115B99CB121685D
:1002D00089B1D4F80080D9F800C0E0450BD025B32F
:1002E0004CB1B8F1000F06D0B96808EA01080CEA71
:1002F000010CE04519D118B9217C490700D42046EA
:10030000A18AB14211D1211D05D0616819B1DEF871
:1003100000C0614509D12AB1E168D1602149009A44
:10032000E2604C602CB10BE005E02246E468002C52
:10033000C8D1040004D17968D9F80000814227D1DE
:100340006FF007015046FCF753FC28B95CB1A56972
:1003500015B10096124B00E01AE052462146E069C2
:10036000A847BDE8F88F9DB999F80000C0F30310C5
:100370000E280DD09BF8000000F00F01082000EBC4
:1003800081015046FCF734FC03215046F9F7CCFFBD
:100390005046BDE8F84FFCF7FBBB00009C00002076
:1003A000980000201C01002010B50120FBF70EFB77
:1003B000040004D02021F0F797FAFF20A072204615
:1003C00010BDC0E90612704709494A68824209D146
:1003D000D2684A6008E0D16819B1814201D1C16890
:1003E000D1600A46002AF6D101460120FBF7A8BADF
:1003F0001C0100202DE9FE4F9246428ADDF8309024
:1004000098460F46054622B90146FFF7A3FE00288D
:1004100014D108213846FCF7EBFB88B100220821F3
:100420000120FCF761F9040006D0388948B139464B
:100430002046FCF763FA04E04FF0FF30BDE8FE8F82
:100440003C46688A6668FBF7F9F830804046FBF75F
:10045000F5F870800020F0806DB1286858B1D9F8A7
:10046000041088420AD0BC4202D02046FCF790FB20
:100470006FF00500E2E709F1040800E0A8462089D2
:10048000FBF7DCF8B080697A11228DE80602AB7ABE
:10049000524641462046FAF7CDF90546BC4202D005
:1004A0002046FCF775FB2846C8E700002DE9F0411F
:1004B000804688B001210820F6F704FB012148049A
:1004C000F6F718FB02258DF8145060208DF81550B2
:1004D0000024264F04908DF8164001268DF81760F1
:1004E00004A93846F2F758FF072205213846F2F7EB
:1004F0008FFF072206213846F2F78AFFADF8084041
:100500000C201B4FADF80440ADF80A00CDF8008078
:10051000ADF80640ADF80C4069463846F7F7FCFCEC
:1005200026208DF818008DF8195003208DF81A0038
:100530008DF81B6006A8F3F747F9012240F2255118
:100540003846F7F7D0FC01213846F7F7BBFC42F2FA
:10055000CF016320F7F7EEFB00210648F7F71BFCFD
:100560000548048008B0BDE8F0810000000C02409E
:100570000044004000140040540000202DE9F843DE
:100580000E4E3088000417D5308800240C4F00F040
:10059000FF082546381990F8500040B1009557F8EB
:1005A00024000123424600680649FBF74DFF641C06
:1005B000E4B2142CEED33580BDE8F883540000205B
:1005C00070020020C416002010B500290AD0087857
:1005D000002807D005487844F0F7AEF9002801D08C
:1005E000002010BD0248784410BD000066050000E0
:1005F0005E05000010B500290AD00878002807D051
:1006000005487844F0F798F9002801D0002010BD83
:100610000248784410BD00004A060000420600006F
:100620004FF04070E1EE100A7047F0F785BC000013
:1006300000C1814001C0804101C0804100C18140B2
:1006400001C0804100C1814000C1814001C08041A2
:1006500001C0804100C1814000C1814001C0804192
:1006600000C1814001C0804101C0804100C1814082
:1006700001C0804100C1814000C1814001C0804172
:1006800000C1814001C0804101C0804100C1814062
:1006900000C1814001C0804101C0804100C1814052
:1006A00001C0804100C1814000C1814001C0804142
:1006B00001C0804100C1814000C1814001C0804132
:1006C00000C1814001C0804101C0804100C1814022
:1006D00000C1814001C0804101C0804100C1814012
:1006E00001C0804100C1814000C1814001C0804102
:1006F00000C1814001C0804101C0804100C18140F2
:1007000001C0804100C1814000C1814001C08041E1
:1007100001C0804100C1814000C1814001C08041D1
:1007200000C1814001C0804101C0804100C18140C1
:1007300000C0C101C30302C2C60607C705C5C40481
:10074000CC0C0DCD0FCFCE0E0ACACB0BC90908C8F1
:10075000D81819D91BDBDA1A1EDEDF1FDD1D1CDCE1
:1007600014D4D515D71716D6D21213D311D1D01051
:10077000F03031F133F3F23236F6F737F53534F441
:100780003CFCFD3DFF3F3EFEFA3A3BFB39F9F838B1
:1007900028E8E929EB2B2AEAEE2E2FEF2DEDEC2CA1
:1007A000E42425E527E7E62622E2E323E12120E011
:1007B000A06061A163A3A26266A6A767A56564A401
:1007C0006CACAD6DAF6F6EAEAA6A6BAB69A9A86871
:1007D00078B8B979BB7B7ABABE7E7FBF7DBDBC7C61
:1007E000B47475B577B7B67672B2B373B17170B0D1
:1007F00050909151935352929656579755959454C1
:100800009C5C5D9D5F9F9E5E5A9A9B5B9959589830
:10081000884849894B8B8A4A4E8E8F4F8D4D4C8C20
:100820004484854587474686824243834181804090
:100830007856341255AA55AAAA55AA55A5A5A5A514
:100840005D748B256D85C523C9282EB4E42114F56C
:10085000E42114F5E42114F5E42114F5E42114F560
:10086000E42114F5E42114F5E42114F5E42114F550
:10087000800C00000019000080070000200000002C
:100880002000000020000000009001000020030074
:1008900000F00000FFFFFFFFFFFF0000000000006E
:1008A00000000000FFFFFFFF1C00200094001C0060
:1008B0001400200018001000AC00140014001000F8
:1008C00010001002040006000A00080024000500C1
:1008D0000F0008000A000800080008006400280053
:1008E000FFFFFFFF03060C1830607800C80A0108FC
:1008F000F00A0108100B0108D00A0108BC0A01081F
:10090000A40A0108B00A0108040B0108DC0A010866
:10091000E40A0108F80A01080102030405060707B2
:100920000707070707000000E0000020DC000020A8
:10093000E4000020E80000203E0102000A006400FC
:1009400011001100C0C701200C0000008000000051
:1009500000020000C0C901204001000000CB0120BE
:100960000C000000800000000002000000CD01200B
:1009700080000000000200004006000000CF0120BF
:100980000A00000040D501200C000000800000009B
:100990000002000040000000C800000040D7012015
:1009A0000C00000080000000000200008800000031
:1009B00064000000C8D901200C0000008000000085
:1009C0000002000088000000901400003031323333
:1009D0003435363738394142434445464030580073
:1009E00030313233343536373839616263646566A5
:1009F0004030780004000008000000000000000201
:100A000000010000100000000000000000000000D5
:100A100002400000000000A00000000005400000AF
:100A2000000000C8000000000C4000000000409CD6
:100A300000000000194000000020BCBE00000000C3
:100A400034400000BFC91B8E00000004B540000008
:100A5000504BCFD06607E2CF010000006C41000090
:100A60003E8251AADFEEA73401000000D942000007
:100A7000DCB5A0E23A301F97FFFFFFFFB44500004E
:100A8000FD25A0C8E9A3C14FFFFFFFFFFF3F000006
:100A90000000008000000000FF3F00000000008018
:100AA0000000000046494E5F574149545F31000045
:100AB00046494E5F574149545F3200004553544107
:100AC000424C495348454400434C4F534544000071
:100AD00053594E5F5243564400000000434C4F535D
:100AE000494E47004C4153545F41434B00000000C6
:100AF0004C495354454E000054494D455F574149B8
:100B000054000000434C4F53455F57414954000087
:100B100053594E5F53454E5400000000680C0108C5
:100B200000000020F8010000C4010008A80C010822
:100B3000F801002098E501002002000810010000E3
:100B400043000000F8FFFFFF0040404040404040AD
:100B50004040414141414140404040404040404090
:100B60004040404040404040400502020202020234
:100B70000202020202020202022020202020202083
:100B80002020200202020202020290909090909097
:100B90001010101010101010101010101010101055
:100BA00010101010020202020202888888888888C9
:100BB00008080808080808080808080808080808B5
:100BC00008080808020202024000000000000000BD
:100BD0000000000000000000000000000000000015
:100BE0000000000000000000000000000000000005
:100BF00000000000000000000000000000000000F5
:100C000000000000000000000000000000000000E4
:100C100000000000000000000000000000000000D4
:100C200000000000000000000000000000000000C4
:100C300000000000000000000000000000000000B4
:100C40000000000000000000000000001C00000088
:100C500043000000F8FFFFFF0C0000000E00000042
:100C60000F0000002E00000001182D0102030404F3
:100C7000051C060708097264031617EF137DBB14E1
:100C80000821B814084C1C3220326816104CAC01F4
:100C9000201420036812F062100349CDAB22C00B70
:080CA000486E194C01D8000058
:040000050800018965
:00000001FF
