Product: MDK-ARM Professional 5.10
Component: ARM Compiler 5.04 update 1 (build 49)
Tool: armlink [5040049]

==============================================================================

Section Cross References

    main.o(i.HardFault_Handler) refers to _printf_pad.o(.text) for _printf_pre_padding
    main.o(i.HardFault_Handler) refers to _printf_percent.o(.ARM.Collect$$_printf_percent$$00000000) for _printf_percent
    main.o(i.HardFault_Handler) refers to _printf_x.o(.ARM.Collect$$_printf_percent$$0000000C) for _printf_x
    main.o(i.HardFault_Handler) refers to _printf_hex_int_ll_ptr.o(.text) for _printf_longlong_hex
    main.o(i.HardFault_Handler) refers to __2printf.o(.text) for __2printf
    main.o(i.main) refers to misc.o(i.NVIC_PriorityGroupConfig) for NVIC_PriorityGroupConfig
    main.o(i.main) refers to main.o(i.system_init) for system_init
    main.o(i.main) refers to os_core.o(i.OSInit) for OSInit
    main.o(i.main) refers to task.o(i.run_init) for run_init
    main.o(i.main) refers to os_core.o(i.OSStart) for OSStart
    main.o(i.system_init) refers to _printf_percent.o(.ARM.Collect$$_printf_percent$$00000000) for _printf_percent
    main.o(i.system_init) refers to _printf_u.o(.ARM.Collect$$_printf_percent$$0000000A) for _printf_u
    main.o(i.system_init) refers to _printf_dec.o(.text) for _printf_int_dec
    main.o(i.system_init) refers to delay.o(i.delay_init) for delay_init
    main.o(i.system_init) refers to usart.o(i.uart_init) for uart_init
    main.o(i.system_init) refers to usart2.o(i.usart2_init) for usart2_init
    main.o(i.system_init) refers to led.o(i.LED_Init) for LED_Init
    main.o(i.system_init) refers to beep.o(i.BEEP_Init) for BEEP_Init
==============================================================================

Removing Unused input sections from the image.

    Removing main.o(.rev16_text), (4 bytes).
    Removing main.o(.revsh_text), (4 bytes).
    Removing system_stm32f4xx.o(.rev16_text), (4 bytes).
    Removing system_stm32f4xx.o(.revsh_text), (4 bytes).
    Removing system_stm32f4xx.o(i.SystemCoreClockUpdate), (120 bytes).
    Removing system_stm32f4xx.o(.data), (20 bytes).
    Removing publicfunc.o(.rev16_text), (4 bytes).
    Removing publicfunc.o(.revsh_text), (4 bytes).
    Removing publicfunc.o(i.AlignTo4), (12 bytes).
    Removing publicfunc.o(i.AlignTo8), (12 bytes).
    Removing publicfunc.o(i.CRC16), (44 bytes).
    Removing publicfunc.o(i.CheckSum), (30 bytes).
    Removing publicfunc.o(i.ChkStr), (66 bytes).
    Removing publicfunc.o(i.CompareBuf), (30 bytes).
    Removing publicfunc.o(i.DisplayBuf), (72 bytes).
    Removing publicfunc.o(i.DisplayBufU16), (72 bytes).
    Removing publicfunc.o(i.DisplayBufU16_Dec), (72 bytes).
    Removing publicfunc.o(i.DisplayBufU32), (72 bytes).
==============================================================================

Image Symbol Table

    Local Symbols

    Symbol Name                              Value     Ov Type        Size  Object(Section)

    ../clib/angel/boardlib.s                 0x00000000   Number         0  boardshut.o ABSOLUTE
    ../clib/angel/boardlib.s                 0x00000000   Number         0  boardinit1.o ABSOLUTE
    ../clib/angel/boardlib.s                 0x00000000   Number         0  boardinit2.o ABSOLUTE
    ../clib/angel/boardlib.s                 0x00000000   Number         0  boardinit3.o ABSOLUTE
    ../clib/angel/dczerorl2.s                0x00000000   Number         0  __dczerorl2.o ABSOLUTE
    ../clib/angel/handlers.s                 0x00000000   Number         0  __scatter_zi.o ABSOLUTE
    ../clib/angel/kernel.s                   0x00000000   Number         0  rtentry4.o ABSOLUTE
    ../clib/angel/kernel.s                   0x00000000   Number         0  rtentry2.o ABSOLUTE
    ../clib/angel/kernel.s                   0x00000000   Number         0  rtexit.o ABSOLUTE
    ../clib/angel/kernel.s                   0x00000000   Number         0  rtexit2.o ABSOLUTE
    ../clib/angel/kernel.s                   0x00000000   Number         0  rtentry.o ABSOLUTE
    ../clib/angel/rt.s                       0x00000000   Number         0  rt_div0.o ABSOLUTE
    ../clib/angel/rt.s                       0x00000000   Number         0  rt_locale_intlibspace.o ABSOLUTE
    ../clib/angel/rt.s                       0x00000000   Number         0  rt_locale.o ABSOLUTE
    ../clib/angel/rt.s                       0x00000000   Number         0  rt_raise.o ABSOLUTE
    ../clib/angel/rt.s                       0x00000000   Number         0  aeabi_ldiv0_sigfpe.o ABSOLUTE
    ../clib/angel/rt.s                       0x00000000   Number         0  aeabi_ldiv0.o ABSOLUTE
    ../clib/angel/rt.s                       0x00000000   Number         0  rt_ctype_table.o ABSOLUTE
    ../clib/angel/scatter.s                  0x00000000   Number         0  __scatter.o ABSOLUTE
    ../clib/angel/startup.s                  0x00000000   Number         0  __main.o ABSOLUTE
    ../clib/angel/sys.s                      0x00000000   Number         0  use_no_semi.o ABSOLUTE
    ../clib/angel/sys.s                      0x00000000   Number         0  libspace.o ABSOLUTE
    ../clib/angel/sys.s                      0x00000000   Number         0  sys_stackheap_outer.o ABSOLUTE
    ../clib/angel/sys.s                      0x00000000   Number         0  use_no_semi_2.o ABSOLUTE
    ../clib/angel/sys.s                      0x00000000   Number         0  indicate_semi.o ABSOLUTE
    ../clib/angel/sysapp.c                   0x00000000   Number         0  sys_wrch.o ABSOLUTE
    ../clib/angel/sysapp.c                   0x00000000   Number         0  sys_command.o ABSOLUTE
    ../clib/armsys.c                         0x00000000   Number         0  argv_veneer.o ABSOLUTE
    ../clib/armsys.c                         0x00000000   Number         0  no_argv.o ABSOLUTE
    ../clib/armsys.c                         0x00000000   Number         0  _get_argv_nomalloc.o ABSOLUTE
    ../clib/armsys.c                         0x00000000   Number         0  argv_veneer.o ABSOLUTE
    ../clib/bigflt.c                         0x00000000   Number         0  bigflt0.o ABSOLUTE
    ../clib/btod.s                           0x00000000   Number         0  btod.o ABSOLUTE
    ../clib/heapalloc.c                      0x00000000   Number         0  hrguard.o ABSOLUTE
    ../clib/heapaux.c                        0x00000000   Number         0  heapauxi.o ABSOLUTE
    ../clib/libinit.s                        0x00000000   Number         0  libshutdown2.o ABSOLUTE
    ../clib/libinit.s                        0x00000000   Number         0  libinit2.o ABSOLUTE
    ../clib/libinit.s                        0x00000000   Number         0  libshutdown.o ABSOLUTE
    ../clib/libinit.s                        0x00000000   Number         0  libinit.o ABSOLUTE
    ../clib/locale.c                         0x00000000   Number         0  _wcrtomb.o ABSOLUTE
    ../clib/locale.s                         0x00000000   Number         0  lc_numeric_c.o ABSOLUTE
    ../clib/locale.s                         0x00000000   Number         0  lc_ctype_c.o ABSOLUTE
    ../clib/longlong.s                       0x00000000   Number         0  lludivv7m.o ABSOLUTE
    ../clib/longlong.s                       0x00000000   Number         0  lludiv10.o ABSOLUTE
    ../clib/memcpset.s                       0x00000000   Number         0  rt_memcpy_v6.o ABSOLUTE
    ../clib/memcpset.s                       0x00000000   Number         0  strcmpv7m.o ABSOLUTE
    ../clib/memcpset.s                       0x00000000   Number         0  rt_memclr_w.o ABSOLUTE
    ../clib/memcpset.s                       0x00000000   Number         0  rt_memclr.o ABSOLUTE
    ../clib/memcpset.s                       0x00000000   Number         0  rt_memcpy_w.o ABSOLUTE
    ../clib/misc.s                           0x00000000   Number         0  printf_stubs.o ABSOLUTE
    ../clib/printf.c                         0x00000000   Number         0  _printf_str.o ABSOLUTE
    ../clib/printf.c                         0x00000000   Number         0  _printf_dec.o ABSOLUTE
    ../clib/printf.c                         0x00000000   Number         0  _printf_hex_ll.o ABSOLUTE
    ../clib/printf.c                         0x00000000   Number         0  _printf_hex_int.o ABSOLUTE
    ../clib/printf.c                         0x00000000   Number         0  _printf_hex_int_ll.o ABSOLUTE
    ../clib/printf.c                         0x00000000   Number         0  _printf_hex_ptr.o ABSOLUTE
    ../clib/printf.c                         0x00000000   Number         0  _printf_hex_int_ptr.o ABSOLUTE
    ../clib/printf.c                         0x00000000   Number         0  _printf_hex_ll_ptr.o ABSOLUTE
    ../clib/printf.c                         0x00000000   Number         0  _printf_hex_int_ll_ptr.o ABSOLUTE
    ../clib/printf.c                         0x00000000   Number         0  __printf_flags.o ABSOLUTE
    ../clib/printf.c                         0x00000000   Number         0  __printf_flags_ss.o ABSOLUTE
    ../clib/printf.c                         0x00000000   Number         0  __printf_wp.o ABSOLUTE
    ../clib/printf.c                         0x00000000   Number         0  __printf_flags_wp.o ABSOLUTE
    ../clib/printf.c                         0x00000000   Number         0  __printf_ss_wp.o ABSOLUTE
    ../clib/printf.c                         0x00000000   Number         0  __2printf.o ABSOLUTE
    ../clib/printf.c                         0x00000000   Number         0  c89vsprintf.o ABSOLUTE
    ../clib/printf.c                         0x00000000   Number         0  __printf_flags_ss_wp.o ABSOLUTE
    ../clib/printf.c                         0x00000000   Number         0  _printf_fp_dec.o ABSOLUTE
    ../clib/printf.c                         0x00000000   Number         0  __printf_ss.o ABSOLUTE
    ../clib/printf.c                         0x00000000   Number         0  _printf_fp_infnan.o ABSOLUTE
    ../clib/printf.c                         0x00000000   Number         0  _printf_wchar.o ABSOLUTE
    ../clib/printf.c                         0x00000000   Number         0  __printf_nopercent.o ABSOLUTE
    ../clib/printf.c                         0x00000000   Number         0  _printf_char.o ABSOLUTE
    ../clib/printf.c                         0x00000000   Number         0  _printf_truncate.o ABSOLUTE
    ../clib/printf.c                         0x00000000   Number         0  _printf_intcommon.o ABSOLUTE
    ../clib/printf.c                         0x00000000   Number         0  _printf_charcount.o ABSOLUTE
    ../clib/printf.c                         0x00000000   Number         0  _printf_char_common.o ABSOLUTE
    ../clib/printf.c                         0x00000000   Number         0  _sputc.o ABSOLUTE
    ../clib/printf.c                         0x00000000   Number         0  _printf_wctomb.o ABSOLUTE
    ../clib/printf.c                         0x00000000   Number         0  _printf_longlong_dec.o ABSOLUTE
    ../clib/printf.c                         0x00000000   Number         0  _printf_oct_ll.o ABSOLUTE
    ../clib/printf.c                         0x00000000   Number         0  _printf_oct_int.o ABSOLUTE
    ../clib/printf.c                         0x00000000   Number         0  _printf_oct_int_ll.o ABSOLUTE
    ../clib/printf.c                         0x00000000   Number         0  _printf_char_file.o ABSOLUTE
    ../clib/printf.c                         0x00000000   Number         0  _printf_pad.o ABSOLUTE
    ../clib/printf.c                         0x00000000   Number         0  __printf.o ABSOLUTE
    ../clib/printf.c                         0x00000000   Number         0  noretval__2sprintf.o ABSOLUTE
    ../clib/printf.c                         0x00000000   Number         0  noretval__2printf.o ABSOLUTE
    ../clib/printf.c                         0x00000000   Number         0  __2sprintf.o ABSOLUTE
    ../clib/printf_percent.s                 0x00000000   Number         0  _printf_ls.o ABSOLUTE
    ../clib/printf_percent.s                 0x00000000   Number         0  _printf_llo.o ABSOLUTE
    ../clib/printf_percent.s                 0x00000000   Number         0  _printf_s.o ABSOLUTE
    ../clib/printf_percent.s                 0x00000000   Number         0  _printf_c.o ABSOLUTE
    ../clib/printf_percent.s                 0x00000000   Number         0  _printf_n.o ABSOLUTE
    ../clib/printf_percent.s                 0x00000000   Number         0  _printf_lli.o ABSOLUTE
    ../clib/printf_percent.s                 0x00000000   Number         0  _printf_percent_end.o ABSOLUTE
    ../clib/printf_percent.s                 0x00000000   Number         0  _printf_p.o ABSOLUTE
    ../clib/printf_percent.s                 0x00000000   Number         0  _printf_a.o ABSOLUTE
    ../clib/printf_percent.s                 0x00000000   Number         0  _printf_ll.o ABSOLUTE
    ../clib/printf_percent.s                 0x00000000   Number         0  _printf_i.o ABSOLUTE
    ../clib/printf_percent.s                 0x00000000   Number         0  _printf_f.o ABSOLUTE
    ../clib/printf_percent.s                 0x00000000   Number         0  _printf_g.o ABSOLUTE
    ../clib/printf_percent.s                 0x00000000   Number         0  _printf_e.o ABSOLUTE
    ../clib/printf_percent.s                 0x00000000   Number         0  _printf_percent.o ABSOLUTE
    ../clib/printf_percent.s                 0x00000000   Number         0  _printf_llu.o ABSOLUTE
    ../clib/printf_percent.s                 0x00000000   Number         0  _printf_l.o ABSOLUTE
    ../clib/printf_percent.s                 0x00000000   Number         0  _printf_u.o ABSOLUTE
    ../clib/printf_percent.s                 0x00000000   Number         0  _printf_lc.o ABSOLUTE
    ../clib/printf_percent.s                 0x00000000   Number         0  _printf_llx.o ABSOLUTE
    ../clib/printf_percent.s                 0x00000000   Number         0  _printf_d.o ABSOLUTE
    ../clib/printf_percent.s                 0x00000000   Number         0  _printf_x.o ABSOLUTE
    ../clib/printf_percent.s                 0x00000000   Number         0  _printf_lld.o ABSOLUTE
    ../clib/printf_percent.s                 0x00000000   Number         0  _printf_o.o ABSOLUTE
    ../clib/signal.c                         0x00000000   Number         0  defsig_abrt_inner.o ABSOLUTE
    ../clib/signal.c                         0x00000000   Number         0  defsig_rtmem_formal.o ABSOLUTE
    ../clib/signal.c                         0x00000000   Number         0  defsig_rtmem_outer.o ABSOLUTE
    ../clib/signal.c                         0x00000000   Number         0  defsig_general.o ABSOLUTE
    ../clib/signal.c                         0x00000000   Number         0  __raise.o ABSOLUTE
    ../clib/signal.c                         0x00000000   Number         0  defsig_fpe_inner.o ABSOLUTE
    ../clib/signal.c                         0x00000000   Number         0  defsig_exit.o ABSOLUTE
    ../clib/signal.c                         0x00000000   Number         0  defsig_fpe_formal.o ABSOLUTE
    ../clib/signal.c                         0x00000000   Number         0  defsig_fpe_outer.o ABSOLUTE
    ../clib/signal.c                         0x00000000   Number         0  defsig_rtmem_inner.o ABSOLUTE
    ../clib/signal.c                         0x00000000   Number         0  defsig_other.o ABSOLUTE
    ../clib/signal.c                         0x00000000   Number         0  defsig_segv_inner.o ABSOLUTE
    ../clib/signal.c                         0x00000000   Number         0  defsig_cppl_inner.o ABSOLUTE
    ../clib/signal.c                         0x00000000   Number         0  defsig_pvfn_inner.o ABSOLUTE
    ../clib/signal.c                         0x00000000   Number         0  defsig_stak_inner.o ABSOLUTE
    ../clib/signal.c                         0x00000000   Number         0  defsig_rtred_inner.o ABSOLUTE
    ../clib/signal.s                         0x00000000   Number         0  defsig.o ABSOLUTE
    ../clib/stdio.c                          0x00000000   Number         0  ferror_locked.o ABSOLUTE
    ../clib/stdio.c                          0x00000000   Number         0  ferror.o ABSOLUTE
    ../clib/stdlib.c                         0x00000000   Number         0  exit.o ABSOLUTE
    ../clib/string.c                         0x00000000   Number         0  memcmp.o ABSOLUTE
    ../clib/string.c                         0x00000000   Number         0  strstr.o ABSOLUTE
    ../clib/string.c                         0x00000000   Number         0  strlen.o ABSOLUTE
    ../clib/string.c                         0x00000000   Number         0  strcpy.o ABSOLUTE
    ../fplib/fpinit.s                        0x00000000   Number         0  fpinit.o ABSOLUTE
    ../fplib/istatus.s                       0x00000000   Number         0  istatus.o ABSOLUTE
    ../fplib/printf1.s                       0x00000000   Number         0  printf1.o ABSOLUTE
    ../fplib/usenofp.s                       0x00000000   Number         0  usenofp.o ABSOLUTE
    ../mathlib/fpclassify.c                  0x00000000   Number         0  fpclassify.o ABSOLUTE
    CORE\startup_stm32f40_41xxx.s            0x00000000   Number         0  startup_stm32f40_41xxx.o ABSOLUTE
    Control\ClientPktRecv.c                  0x00000000   Number         0  clientpktrecv.o ABSOLUTE
    Control\SLinkPktRecv.c                   0x00000000   Number         0  slinkpktrecv.o ABSOLUTE
    Control\\ClientPktRecv.c                 0x00000000   Number         0  clientpktrecv.o ABSOLUTE
    Control\\SLinkPktRecv.c                  0x00000000   Number         0  slinkpktrecv.o ABSOLUTE
    DataSave\RoomFlashSave.c                 0x00000000   Number         0  roomflashsave.o ABSOLUTE
    DataSave\\RoomFlashSave.c                0x00000000   Number         0  roomflashsave.o ABSOLUTE
    HARDWARE\BEEP\beep.c                     0x00000000   Number         0  beep.o ABSOLUTE
    HARDWARE\ETHERNET\lan8720.c              0x00000000   Number         0  lan8720.o ABSOLUTE
    HARDWARE\LED\led.c                       0x00000000   Number         0  led.o ABSOLUTE
    HARDWARE\LWIP\lwip.c                     0x00000000   Number         0  lwip.o ABSOLUTE
    HARDWARE\SI4432\Si4432.c                 0x00000000   Number         0  si4432.o ABSOLUTE
    HARDWARE\SPI\spi.c                       0x00000000   Number         0  spi.o ABSOLUTE
    HARDWARE\TIMER\timer.c                   0x00000000   Number         0  timer.o ABSOLUTE
    HARDWARE\USART2\usart2.c                 0x00000000   Number         0  usart2.o ABSOLUTE
    HARDWARE\W25QXX\w25qxx.c                 0x00000000   Number         0  w25qxx.o ABSOLUTE
    HARDWARE\\BEEP\\beep.c                   0x00000000   Number         0  beep.o ABSOLUTE
    HARDWARE\\ETHERNET\\lan8720.c            0x00000000   Number         0  lan8720.o ABSOLUTE
    HARDWARE\\LED\\led.c                     0x00000000   Number         0  led.o ABSOLUTE
    HARDWARE\\LWIP\\lwip.c                   0x00000000   Number         0  lwip.o ABSOLUTE
    HARDWARE\\SI4432\\Si4432.c               0x00000000   Number         0  si4432.o ABSOLUTE
    HARDWARE\\SPI\\spi.c                     0x00000000   Number         0  spi.o ABSOLUTE
    HARDWARE\\TIMER\\timer.c                 0x00000000   Number         0  timer.o ABSOLUTE
    HARDWARE\\USART2\\usart2.c               0x00000000   Number         0  usart2.o ABSOLUTE
    HARDWARE\\W25QXX\\w25qxx.c               0x00000000   Number         0  w25qxx.o ABSOLUTE
    LWIP\\src\\api_lib.c                     0x00000000   Number         0  api_lib.o ABSOLUTE
    LWIP\\src\\api_msg.c                     0x00000000   Number         0  api_msg.o ABSOLUTE
    LWIP\\src\\autoip.c                      0x00000000   Number         0  autoip.o ABSOLUTE
    LWIP\\src\\def.c                         0x00000000   Number         0  def.o ABSOLUTE
    LWIP\\src\\dhcp.c                        0x00000000   Number         0  dhcp.o ABSOLUTE
    LWIP\\src\\dns.c                         0x00000000   Number         0  dns.o ABSOLUTE
    LWIP\\src\\err.c                         0x00000000   Number         0  err.o ABSOLUTE
    LWIP\\src\\etharp.c                      0x00000000   Number         0  etharp.o ABSOLUTE
    LWIP\\src\\ethernetif.c                  0x00000000   Number         0  ethernetif.o ABSOLUTE
    LWIP\\src\\icmp.c                        0x00000000   Number         0  icmp.o ABSOLUTE
    LWIP\\src\\igmp.c                        0x00000000   Number         0  igmp.o ABSOLUTE
    LWIP\\src\\inet.c                        0x00000000   Number         0  inet.o ABSOLUTE
    LWIP\\src\\inet_chksum.c                 0x00000000   Number         0  inet_chksum.o ABSOLUTE
    LWIP\\src\\init.c                        0x00000000   Number         0  init.o ABSOLUTE
    LWIP\\src\\ip.c                          0x00000000   Number         0  ip.o ABSOLUTE
    LWIP\\src\\ip_addr.c                     0x00000000   Number         0  ip_addr.o ABSOLUTE
    LWIP\\src\\ip_frag.c                     0x00000000   Number         0  ip_frag.o ABSOLUTE
    LWIP\\src\\mem.c                         0x00000000   Number         0  mem.o ABSOLUTE
    LWIP\\src\\memp.c                        0x00000000   Number         0  memp.o ABSOLUTE
    LWIP\\src\\netbuf.c                      0x00000000   Number         0  netbuf.o ABSOLUTE
    LWIP\\src\\netdb.c                       0x00000000   Number         0  netdb.o ABSOLUTE
    LWIP\\src\\netif.c                       0x00000000   Number         0  netif.o ABSOLUTE
    LWIP\\src\\netifapi.c                    0x00000000   Number         0  netifapi.o ABSOLUTE
    LWIP\\src\\pbuf.c                        0x00000000   Number         0  pbuf.o ABSOLUTE
    LWIP\\src\\raw.c                         0x00000000   Number         0  raw.o ABSOLUTE
    LWIP\\src\\sockets.c                     0x00000000   Number         0  sockets.o ABSOLUTE
    LWIP\\src\\stats.c                       0x00000000   Number         0  stats.o ABSOLUTE
    LWIP\\src\\sys_arch.c                    0x00000000   Number         0  sys_arch.o ABSOLUTE
    LWIP\\src\\tcp.c                         0x00000000   Number         0  tcp.o ABSOLUTE
    LWIP\\src\\tcp_in.c                      0x00000000   Number         0  tcp_in.o ABSOLUTE
    LWIP\\src\\tcp_out.c                     0x00000000   Number         0  tcp_out.o ABSOLUTE
    LWIP\\src\\tcpip.c                       0x00000000   Number         0  tcpip.o ABSOLUTE
    LWIP\\src\\timers.c                      0x00000000   Number         0  timers.o ABSOLUTE
    LWIP\\src\\udp.c                         0x00000000   Number         0  udp.o ABSOLUTE
    LWIP\src\api_lib.c                       0x00000000   Number         0  api_lib.o ABSOLUTE
    LWIP\src\api_msg.c                       0x00000000   Number         0  api_msg.o ABSOLUTE
    LWIP\src\autoip.c                        0x00000000   Number         0  autoip.o ABSOLUTE
    LWIP\src\def.c                           0x00000000   Number         0  def.o ABSOLUTE
    LWIP\src\dhcp.c                          0x00000000   Number         0  dhcp.o ABSOLUTE
    LWIP\src\dns.c                           0x00000000   Number         0  dns.o ABSOLUTE
    LWIP\src\err.c                           0x00000000   Number         0  err.o ABSOLUTE
    LWIP\src\etharp.c                        0x00000000   Number         0  etharp.o ABSOLUTE
    LWIP\src\ethernetif.c                    0x00000000   Number         0  ethernetif.o ABSOLUTE
    LWIP\src\icmp.c                          0x00000000   Number         0  icmp.o ABSOLUTE
    LWIP\src\igmp.c                          0x00000000   Number         0  igmp.o ABSOLUTE
    LWIP\src\inet.c                          0x00000000   Number         0  inet.o ABSOLUTE
    LWIP\src\inet_chksum.c                   0x00000000   Number         0  inet_chksum.o ABSOLUTE
    LWIP\src\init.c                          0x00000000   Number         0  init.o ABSOLUTE
    LWIP\src\ip.c                            0x00000000   Number         0  ip.o ABSOLUTE
    LWIP\src\ip_addr.c                       0x00000000   Number         0  ip_addr.o ABSOLUTE
    LWIP\src\ip_frag.c                       0x00000000   Number         0  ip_frag.o ABSOLUTE
    LWIP\src\mem.c                           0x00000000   Number         0  mem.o ABSOLUTE
    LWIP\src\memp.c                          0x00000000   Number         0  memp.o ABSOLUTE
    LWIP\src\netbuf.c                        0x00000000   Number         0  netbuf.o ABSOLUTE
    LWIP\src\netdb.c                         0x00000000   Number         0  netdb.o ABSOLUTE
    LWIP\src\netif.c                         0x00000000   Number         0  netif.o ABSOLUTE
    LWIP\src\netifapi.c                      0x00000000   Number         0  netifapi.o ABSOLUTE
    LWIP\src\pbuf.c                          0x00000000   Number         0  pbuf.o ABSOLUTE
    LWIP\src\raw.c                           0x00000000   Number         0  raw.o ABSOLUTE
    LWIP\src\sockets.c                       0x00000000   Number         0  sockets.o ABSOLUTE
    LWIP\src\stats.c                         0x00000000   Number         0  stats.o ABSOLUTE
    LWIP\src\sys_arch.c                      0x00000000   Number         0  sys_arch.o ABSOLUTE
    LWIP\src\tcp.c                           0x00000000   Number         0  tcp.o ABSOLUTE
    LWIP\src\tcp_in.c                        0x00000000   Number         0  tcp_in.o ABSOLUTE
    LWIP\src\tcp_out.c                       0x00000000   Number         0  tcp_out.o ABSOLUTE
    LWIP\src\tcpip.c                         0x00000000   Number         0  tcpip.o ABSOLUTE
    LWIP\src\timers.c                        0x00000000   Number         0  timers.o ABSOLUTE
    LWIP\src\udp.c                           0x00000000   Number         0  udp.o ABSOLUTE
    Lib\STM32F4x7_ETH_Driver\src\stm32f4x7_eth.c 0x00000000   Number         0  stm32f4x7_eth.o ABSOLUTE
    Lib\STM32F4xx_StdPeriph_Driver\src\misc.c 0x00000000   Number         0  misc.o ABSOLUTE
    Lib\STM32F4xx_StdPeriph_Driver\src\stm32f4xx_exti.c 0x00000000   Number         0  stm32f4xx_exti.o ABSOLUTE
    Lib\STM32F4xx_StdPeriph_Driver\src\stm32f4xx_fsmc.c 0x00000000   Number         0  stm32f4xx_fsmc.o ABSOLUTE
    Lib\STM32F4xx_StdPeriph_Driver\src\stm32f4xx_gpio.c 0x00000000   Number         0  stm32f4xx_gpio.o ABSOLUTE
    Lib\STM32F4xx_StdPeriph_Driver\src\stm32f4xx_iwdg.c 0x00000000   Number         0  stm32f4xx_iwdg.o ABSOLUTE
    Lib\STM32F4xx_StdPeriph_Driver\src\stm32f4xx_pwr.c 0x00000000   Number         0  stm32f4xx_pwr.o ABSOLUTE
    Lib\STM32F4xx_StdPeriph_Driver\src\stm32f4xx_rcc.c 0x00000000   Number         0  stm32f4xx_rcc.o ABSOLUTE
    Lib\STM32F4xx_StdPeriph_Driver\src\stm32f4xx_rtc.c 0x00000000   Number         0  stm32f4xx_rtc.o ABSOLUTE
    Lib\STM32F4xx_StdPeriph_Driver\src\stm32f4xx_spi.c 0x00000000   Number         0  stm32f4xx_spi.o ABSOLUTE
    Lib\STM32F4xx_StdPeriph_Driver\src\stm32f4xx_syscfg.c 0x00000000   Number         0  stm32f4xx_syscfg.o ABSOLUTE
    Lib\STM32F4xx_StdPeriph_Driver\src\stm32f4xx_tim.c 0x00000000   Number         0  stm32f4xx_tim.o ABSOLUTE
    Lib\STM32F4xx_StdPeriph_Driver\src\stm32f4xx_usart.c 0x00000000   Number         0  stm32f4xx_usart.o ABSOLUTE
    Lib\STM32F4xx_StdPeriph_Driver\src\stm32f4xx_wwdg.c 0x00000000   Number         0  stm32f4xx_wwdg.o ABSOLUTE
    Lib\\STM32F4x7_ETH_Driver\\src\\stm32f4x7_eth.c 0x00000000   Number         0  stm32f4x7_eth.o ABSOLUTE
    Lib\\STM32F4xx_StdPeriph_Driver\\src\\misc.c 0x00000000   Number         0  misc.o ABSOLUTE
    Lib\\STM32F4xx_StdPeriph_Driver\\src\\stm32f4xx_exti.c 0x00000000   Number         0  stm32f4xx_exti.o ABSOLUTE
    Lib\\STM32F4xx_StdPeriph_Driver\\src\\stm32f4xx_fsmc.c 0x00000000   Number         0  stm32f4xx_fsmc.o ABSOLUTE
    Lib\\STM32F4xx_StdPeriph_Driver\\src\\stm32f4xx_gpio.c 0x00000000   Number         0  stm32f4xx_gpio.o ABSOLUTE
    Lib\\STM32F4xx_StdPeriph_Driver\\src\\stm32f4xx_iwdg.c 0x00000000   Number         0  stm32f4xx_iwdg.o ABSOLUTE
    Lib\\STM32F4xx_StdPeriph_Driver\\src\\stm32f4xx_pwr.c 0x00000000   Number         0  stm32f4xx_pwr.o ABSOLUTE
    Lib\\STM32F4xx_StdPeriph_Driver\\src\\stm32f4xx_rcc.c 0x00000000   Number         0  stm32f4xx_rcc.o ABSOLUTE
    Lib\\STM32F4xx_StdPeriph_Driver\\src\\stm32f4xx_rtc.c 0x00000000   Number         0  stm32f4xx_rtc.o ABSOLUTE
    Lib\\STM32F4xx_StdPeriph_Driver\\src\\stm32f4xx_spi.c 0x00000000   Number         0  stm32f4xx_spi.o ABSOLUTE
    Lib\\STM32F4xx_StdPeriph_Driver\\src\\stm32f4xx_syscfg.c 0x00000000   Number         0  stm32f4xx_syscfg.o ABSOLUTE
    Lib\\STM32F4xx_StdPeriph_Driver\\src\\stm32f4xx_tim.c 0x00000000   Number         0  stm32f4xx_tim.o ABSOLUTE
    Lib\\STM32F4xx_StdPeriph_Driver\\src\\stm32f4xx_usart.c 0x00000000   Number         0  stm32f4xx_usart.o ABSOLUTE
    Lib\\STM32F4xx_StdPeriph_Driver\\src\\stm32f4xx_wwdg.c 0x00000000   Number         0  stm32f4xx_wwdg.o ABSOLUTE
    MALLOC\\malloc.c                         0x00000000   Number         0  malloc.o ABSOLUTE
    MALLOC\malloc.c                          0x00000000   Number         0  malloc.o ABSOLUTE
    SYSTEM\\delay\\delay.c                   0x00000000   Number         0  delay.o ABSOLUTE
    SYSTEM\\sys\\sys.c                       0x00000000   Number         0  sys.o ABSOLUTE
    SYSTEM\\usart\\usart.c                   0x00000000   Number         0  usart.o ABSOLUTE
    SYSTEM\delay\delay.c                     0x00000000   Number         0  delay.o ABSOLUTE
    SYSTEM\sys\sys.c                         0x00000000   Number         0  sys.o ABSOLUTE
    SYSTEM\usart\usart.c                     0x00000000   Number         0  usart.o ABSOLUTE
    UCOS\\src\\bsp.c                         0x00000000   Number         0  bsp.o ABSOLUTE
    UCOS\\src\\os_cpu_c.c                    0x00000000   Number         0  os_cpu_c.o ABSOLUTE
    UCOS\\src\\os_mem.c                      0x00000000   Number         0  os_mem.o ABSOLUTE
    UCOS\src\bsp.c                           0x00000000   Number         0  bsp.o ABSOLUTE
    UCOS\src\cpu_a.asm                       0x00000000   Number         0  cpu_a.o ABSOLUTE
    UCOS\src\cpu_c.c                         0x00000000   Number         0  cpu_c.o ABSOLUTE
    UCOS\src\cpu_core.c                      0x00000000   Number         0  cpu_core.o ABSOLUTE
    UCOS\src\lib_ascii.c                     0x00000000   Number         0  lib_ascii.o ABSOLUTE
    UCOS\src\lib_math.c                      0x00000000   Number         0  lib_math.o ABSOLUTE
    UCOS\src\lib_mem.c                       0x00000000   Number         0  lib_mem.o ABSOLUTE
    UCOS\src\lib_mem_a.asm                   0x00000000   Number         0  lib_mem_a.o ABSOLUTE
    UCOS\src\lib_str.c                       0x00000000   Number         0  lib_str.o ABSOLUTE
    UCOS\src\os_app_hooks.c                  0x00000000   Number         0  os_app_hooks.o ABSOLUTE
    UCOS\src\os_cfg_app.c                    0x00000000   Number         0  os_cfg_app.o ABSOLUTE
    UCOS\src\os_core.c                       0x00000000   Number         0  os_core.o ABSOLUTE
    UCOS\src\os_cpu_a.asm                    0x00000000   Number         0  os_cpu_a.o ABSOLUTE
    UCOS\src\os_cpu_c.c                      0x00000000   Number         0  os_cpu_c.o ABSOLUTE
    UCOS\src\os_dbg.c                        0x00000000   Number         0  os_dbg.o ABSOLUTE
    UCOS\src\os_flag.c                       0x00000000   Number         0  os_flag.o ABSOLUTE
    UCOS\src\os_int.c                        0x00000000   Number         0  os_int.o ABSOLUTE
    UCOS\src\os_mem.c                        0x00000000   Number         0  os_mem.o ABSOLUTE
    UCOS\src\os_msg.c                        0x00000000   Number         0  os_msg.o ABSOLUTE
    UCOS\src\os_mutex.c                      0x00000000   Number         0  os_mutex.o ABSOLUTE
    UCOS\src\os_pend_multi.c                 0x00000000   Number         0  os_pend_multi.o ABSOLUTE
    UCOS\src\os_prio.c                       0x00000000   Number         0  os_prio.o ABSOLUTE
    UCOS\src\os_q.c                          0x00000000   Number         0  os_q.o ABSOLUTE
    UCOS\src\os_sem.c                        0x00000000   Number         0  os_sem.o ABSOLUTE
    UCOS\src\os_stat.c                       0x00000000   Number         0  os_stat.o ABSOLUTE
    UCOS\src\os_task.c                       0x00000000   Number         0  os_task.o ABSOLUTE
    UCOS\src\os_tick.c                       0x00000000   Number         0  os_tick.o ABSOLUTE
    UCOS\src\os_time.c                       0x00000000   Number         0  os_time.o ABSOLUTE
    UCOS\src\os_tmr.c                        0x00000000   Number         0  os_tmr.o ABSOLUTE
    UCOS\src\os_var.c                        0x00000000   Number         0  os_var.o ABSOLUTE
    User\PublicFunc.c                        0x00000000   Number         0  publicfunc.o ABSOLUTE
    User\\PublicFunc.c                       0x00000000   Number         0  publicfunc.o ABSOLUTE
    User\\main.c                             0x00000000   Number         0  main.o ABSOLUTE
    User\\system_stm32f4xx.c                 0x00000000   Number         0  system_stm32f4xx.o ABSOLUTE
    User\\task.c                             0x00000000   Number         0  task.o ABSOLUTE
    User\main.c                              0x00000000   Number         0  main.o ABSOLUTE
    User\system_stm32f4xx.c                  0x00000000   Number         0  system_stm32f4xx.o ABSOLUTE
    User\task.c                              0x00000000   Number         0  task.o ABSOLUTE
    dc.s                                     0x00000000   Number         0  dc.o ABSOLUTE
    RESET                                    0x08000000   Section      392  startup_stm32f40_41xxx.o(RESET)
    !!!main                                  0x08000188   Section        8  __main.o(!!!main)
    !!!scatter                               0x08000190   Section       52  __scatter.o(!!!scatter)
    !!dczerorl2                              0x080001c4   Section       90  __dczerorl2.o(!!dczerorl2)
    !!handler_zi                             0x08000220   Section       28  __scatter_zi.o(!!handler_zi)
    .ARM.Collect$$_printf_percent$$00000000  0x0800023c   Section        0  _printf_percent.o(.ARM.Collect$$_printf_percent$$00000000)
    .ARM.Collect$$_printf_percent$$00000001  0x0800023c   Section        6  _printf_n.o(.ARM.Collect$$_printf_percent$$00000001)
    .ARM.Collect$$_printf_percent$$00000002  0x08000242   Section        6  _printf_p.o(.ARM.Collect$$_printf_percent$$00000002)
    .ARM.Collect$$_printf_percent$$00000003  0x08000248   Section        6  _printf_f.o(.ARM.Collect$$_printf_percent$$00000003)
    .ARM.Collect$$_printf_percent$$00000004  0x0800024e   Section        6  _printf_e.o(.ARM.Collect$$_printf_percent$$00000004)
    .ARM.Collect$$_printf_percent$$00000005  0x08000254   Section        6  _printf_g.o(.ARM.Collect$$_printf_percent$$00000005)
    .ARM.Collect$$_printf_percent$$00000006  0x0800025a   Section        6  _printf_a.o(.ARM.Collect$$_printf_percent$$00000006)
    .ARM.Collect$$_printf_percent$$00000007  0x08000260   Section       10  _printf_ll.o(.ARM.Collect$$_printf_percent$$00000007)
    .ARM.Collect$$_printf_percent$$00000008  0x0800026a   Section        6  _printf_i.o(.ARM.Collect$$_printf_percent$$00000008)
    .ARM.Collect$$_printf_percent$$00000009  0x08000270   Section        6  _printf_d.o(.ARM.Collect$$_printf_percent$$00000009)
    .ARM.Collect$$_printf_percent$$0000000A  0x08000276   Section        6  _printf_u.o(.ARM.Collect$$_printf_percent$$0000000A)
    .ARM.Collect$$_printf_percent$$0000000B  0x0800027c   Section        6  _printf_o.o(.ARM.Collect$$_printf_percent$$0000000B)
    .ARM.Collect$$_printf_percent$$0000000C  0x08000282   Section        6  _printf_x.o(.ARM.Collect$$_printf_percent$$0000000C)
    .ARM.Collect$$_printf_percent$$0000000D  0x08000288   Section        6  _printf_lli.o(.ARM.Collect$$_printf_percent$$0000000D)
    .ARM.Collect$$_printf_percent$$0000000E  0x0800028e   Section        6  _printf_lld.o(.ARM.Collect$$_printf_percent$$0000000E)
    .ARM.Collect$$_printf_percent$$0000000F  0x08000294   Section        6  _printf_llu.o(.ARM.Collect$$_printf_percent$$0000000F)
    .ARM.Collect$$_printf_percent$$00000010  0x0800029a   Section        6  _printf_llo.o(.ARM.Collect$$_printf_percent$$00000010)
    .ARM.Collect$$_printf_percent$$00000011  0x080002a0   Section        6  _printf_llx.o(.ARM.Collect$$_printf_percent$$00000011)
    .ARM.Collect$$_printf_percent$$00000012  0x080002a6   Section       10  _printf_l.o(.ARM.Collect$$_printf_percent$$00000012)
    .ARM.Collect$$_printf_percent$$00000013  0x080002b0   Section        6  _printf_c.o(.ARM.Collect$$_printf_percent$$00000013)
    .ARM.Collect$$_printf_percent$$00000014  0x080002b6   Section        6  _printf_s.o(.ARM.Collect$$_printf_percent$$00000014)
    .ARM.Collect$$_printf_percent$$00000015  0x080002bc   Section        6  _printf_lc.o(.ARM.Collect$$_printf_percent$$00000015)
    .ARM.Collect$$_printf_percent$$00000016  0x080002c2   Section        6  _printf_ls.o(.ARM.Collect$$_printf_percent$$00000016)
    .ARM.Collect$$_printf_percent$$00000017  0x080002c8   Section        4  _printf_percent_end.o(.ARM.Collect$$_printf_percent$$00000017)
    .ARM.Collect$$libinit$$00000000          0x080002cc   Section        2  libinit.o(.ARM.Collect$$libinit$$00000000)
    .ARM.Collect$$libinit$$00000001          0x080002ce   Section        4  libinit2.o(.ARM.Collect$$libinit$$00000001)
    .ARM.Collect$$libinit$$00000008          0x080002d2   Section        0  libinit2.o(.ARM.Collect$$libinit$$00000008)
    .ARM.Collect$$libinit$$0000000A          0x080002d2   Section        0  libinit2.o(.ARM.Collect$$libinit$$0000000A)
    .ARM.Collect$$libinit$$0000000C          0x080002d2   Section        0  libinit2.o(.ARM.Collect$$libinit$$0000000C)
    .ARM.Collect$$libinit$$0000000D          0x080002d2   Section        6  libinit2.o(.ARM.Collect$$libinit$$0000000D)
    .ARM.Collect$$libinit$$0000000F          0x080002d8   Section        0  libinit2.o(.ARM.Collect$$libinit$$0000000F)
    .ARM.Collect$$libinit$$00000010          0x080002d8   Section       12  libinit2.o(.ARM.Collect$$libinit$$00000010)
    .ARM.Collect$$libinit$$00000011          0x080002e4   Section        0  libinit2.o(.ARM.Collect$$libinit$$00000011)
    .ARM.Collect$$libinit$$00000013          0x080002e4   Section        0  libinit2.o(.ARM.Collect$$libinit$$00000013)
    .ARM.Collect$$libinit$$00000014          0x080002e4   Section       10  libinit2.o(.ARM.Collect$$libinit$$00000014)
    .ARM.Collect$$libinit$$00000015          0x080002ee   Section        0  libinit2.o(.ARM.Collect$$libinit$$00000015)
    .ARM.Collect$$libinit$$00000017          0x080002ee   Section        0  libinit2.o(.ARM.Collect$$libinit$$00000017)
    .ARM.Collect$$libinit$$00000019          0x080002ee   Section        0  libinit2.o(.ARM.Collect$$libinit$$00000019)
    .ARM.Collect$$libinit$$0000001B          0x080002ee   Section        0  libinit2.o(.ARM.Collect$$libinit$$0000001B)
    .ARM.Collect$$libinit$$0000001D          0x080002ee   Section        0  libinit2.o(.ARM.Collect$$libinit$$0000001D)
    .ARM.Collect$$libinit$$0000001F          0x080002ee   Section        0  libinit2.o(.ARM.Collect$$libinit$$0000001F)
    .ARM.Collect$$libinit$$00000021          0x080002ee   Section        0  libinit2.o(.ARM.Collect$$libinit$$00000021)
    .ARM.Collect$$libinit$$00000023          0x080002ee   Section        0  libinit2.o(.ARM.Collect$$libinit$$00000023)
    .ARM.Collect$$libinit$$0000002A          0x080002ee   Section        0  libinit2.o(.ARM.Collect$$libinit$$0000002A)
    .ARM.Collect$$libinit$$0000002C          0x080002ee   Section        0  libinit2.o(.ARM.Collect$$libinit$$0000002C)
    .ARM.Collect$$libinit$$0000002E          0x080002ee   Section        0  libinit2.o(.ARM.Collect$$libinit$$0000002E)
    .ARM.Collect$$libinit$$00000030          0x080002ee   Section        0  libinit2.o(.ARM.Collect$$libinit$$00000030)
    .ARM.Collect$$libinit$$00000031          0x080002ee   Section        2  libinit2.o(.ARM.Collect$$libinit$$00000031)
    .ARM.Collect$$libshutdown$$00000000      0x080002f0   Section        2  libshutdown.o(.ARM.Collect$$libshutdown$$00000000)
    .ARM.Collect$$libshutdown$$00000003      0x080002f2   Section        0  libshutdown2.o(.ARM.Collect$$libshutdown$$00000003)
    .ARM.Collect$$libshutdown$$00000006      0x080002f2   Section        0  libshutdown2.o(.ARM.Collect$$libshutdown$$00000006)
    .ARM.Collect$$libshutdown$$00000009      0x080002f2   Section        0  libshutdown2.o(.ARM.Collect$$libshutdown$$00000009)
    .ARM.Collect$$libshutdown$$0000000B      0x080002f2   Section        0  libshutdown2.o(.ARM.Collect$$libshutdown$$0000000B)
    .ARM.Collect$$libshutdown$$0000000E      0x080002f2   Section        0  libshutdown2.o(.ARM.Collect$$libshutdown$$0000000E)
    .ARM.Collect$$libshutdown$$0000000F      0x080002f2   Section        2  libshutdown2.o(.ARM.Collect$$libshutdown$$0000000F)
    .ARM.Collect$$rtentry$$00000000          0x080002f4   Section        0  rtentry.o(.ARM.Collect$$rtentry$$00000000)
    .ARM.Collect$$rtentry$$00000002          0x080002f4   Section        0  rtentry2.o(.ARM.Collect$$rtentry$$00000002)
    .ARM.Collect$$rtentry$$00000004          0x080002f4   Section        6  rtentry4.o(.ARM.Collect$$rtentry$$00000004)
    .ARM.Collect$$rtentry$$00000009          0x080002fa   Section        0  rtentry2.o(.ARM.Collect$$rtentry$$00000009)
    .ARM.Collect$$rtentry$$0000000A          0x080002fa   Section        4  rtentry2.o(.ARM.Collect$$rtentry$$0000000A)
    .ARM.Collect$$rtentry$$0000000C          0x080002fe   Section        0  rtentry2.o(.ARM.Collect$$rtentry$$0000000C)
    .ARM.Collect$$rtentry$$0000000D          0x080002fe   Section        8  rtentry2.o(.ARM.Collect$$rtentry$$0000000D)
    .ARM.Collect$$rtexit$$00000000           0x08000306   Section        2  rtexit.o(.ARM.Collect$$rtexit$$00000000)
    .ARM.Collect$$rtexit$$00000002           0x08000308   Section        0  rtexit2.o(.ARM.Collect$$rtexit$$00000002)
    .ARM.Collect$$rtexit$$00000003           0x08000308   Section        4  rtexit2.o(.ARM.Collect$$rtexit$$00000003)
    .ARM.Collect$$rtexit$$00000004           0x0800030c   Section        6  rtexit2.o(.ARM.Collect$$rtexit$$00000004)
    .emb_text                                0x08000314   Section       28  publicfunc.o(.emb_text)
    $v0                                      0x08000314   Number         0  publicfunc.o(.emb_text)
    .text                                    0x08000330   Section       60  startup_stm32f40_41xxx.o(.text)
    $v0                                      0x08000330   Number         0  startup_stm32f40_41xxx.o(.text)
    .text                                    0x0800036c   Section       52  cpu_a.o(.text)
    $v0                                      0x0800036c   Number         0  cpu_a.o(.text)
    .text                                    0x080003a0   Section        2  use_no_semi_2.o(.text)
    .text                                    0x080003a4   Section       16  rt_ctype_table.o(.text)
    .text                                    0x080003b4   Section        0  c89vsprintf.o(.text)
    .text                                    0x080003d8   Section        0  __2printf.o(.text)
    .text                                    0x080003f0   Section        0  _printf_pad.o(.text)
    .text                                    0x0800043e   Section        0  _printf_str.o(.text)
    .text                                    0x08000490   Section        0  _printf_dec.o(.text)
    .text                                    0x08000504   Section        0  _printf_hex_int_ll_ptr.o(.text)
    _printf_hex_common                       0x08000505   Thumb Code     0  _printf_hex_int_ll_ptr.o(.text)
    .text                                    0x08000598   Section        0  __printf_flags_ss_wp.o(.text)
    .text                                    0x08000720   Section        0  memcmp.o(.text)
    .text                                    0x08000778   Section        0  strlen.o(.text)
    .text                                    0x080007b6   Section      138  rt_memcpy_v6.o(.text)
    .text                                    0x08000840   Section      100  rt_memcpy_w.o(.text)
    .text                                    0x080008a4   Section       68  rt_memclr.o(.text)
    .text                                    0x080008e8   Section       78  rt_memclr_w.o(.text)
    .text                                    0x08000938   Section      128  strcmpv7m.o(.text)
    .text                                    0x080009b8   Section        0  heapauxi.o(.text)
    .text                                    0x080009be   Section        2  use_no_semi.o(.text)
    .text                                    0x080009c0   Section        8  rt_locale_intlibspace.o(.text)
    .text                                    0x080009c8   Section        0  _printf_truncate.o(.text)
    .text                                    0x080009ec   Section        0  _printf_intcommon.o(.text)
    .text                                    0x08000a9e   Section        0  _printf_charcount.o(.text)
    .text                                    0x08000ac8   Section        0  _printf_char_common.o(.text)
    _printf_input_char                       0x08000ac9   Thumb Code    10  _printf_char_common.o(.text)
    .text                                    0x08000af8   Section        0  _sputc.o(.text)
    .text                                    0x08000b02   Section        0  _printf_char.o(.text)
    .text                                    0x08000b30   Section        0  _printf_char_file.o(.text)
    .text                                    0x08000b54   Section        0  _printf_wctomb.o(.text)
    .text                                    0x08000c10   Section        0  _printf_longlong_dec.o(.text)
    .text                                    0x08000c88   Section        0  _printf_oct_int_ll.o(.text)
    _printf_longlong_oct_internal            0x08000c89   Thumb Code     0  _printf_oct_int_ll.o(.text)
    .text                                    0x08000cf8   Section        8  libspace.o(.text)
    .text                                    0x08000d00   Section      138  lludiv10.o(.text)
    .text                                    0x08000d8a   Section        0  _printf_fp_dec.o(.text)
    _fp_digits                               0x08000d8d   Thumb Code   428  _printf_fp_dec.o(.text)
    .text                                    0x080011a0   Section        0  _printf_wchar.o(.text)
    .text                                    0x080011cc   Section        0  ferror.o(.text)
    .text                                    0x080011d4   Section        0  _wcrtomb.o(.text)
    .text                                    0x08001214   Section       74  sys_stackheap_outer.o(.text)
    .text                                    0x08001260   Section        0  _printf_fp_infnan.o(.text)
    .text                                    0x080012e0   Section        0  bigflt0.o(.text)
    .text                                    0x080013b8   Section        0  exit.o(.text)
    CL$$btod_d2e                             0x080013c4   Section       62  btod.o(CL$$btod_d2e)
    CL$$btod_d2e_denorm_low                  0x08001402   Section       70  btod.o(CL$$btod_d2e_denorm_low)
    CL$$btod_d2e_norm_op1                    0x08001448   Section       96  btod.o(CL$$btod_d2e_norm_op1)
    CL$$btod_div_common                      0x080014a8   Section      824  btod.o(CL$$btod_div_common)
    CL$$btod_e2e                             0x080017e0   Section      198  btod.o(CL$$btod_e2e)
    CL$$btod_ediv                            0x080018a6   Section       40  btod.o(CL$$btod_ediv)
    CL$$btod_emul                            0x080018ce   Section       40  btod.o(CL$$btod_emul)
    CL$$btod_mult_common                     0x080018f6   Section      580  btod.o(CL$$btod_mult_common)
    CODE                                     0x08001b3c   Section      172  os_cpu_a.o(CODE)
    $v0                                      0x08001b3c   Number         0  os_cpu_a.o(CODE)
    i.BEEP_Init                              0x08001be8   Section        0  beep.o(i.BEEP_Init)
    i.BSP_CPU_ClkFreq                        0x08001c24   Section        0  bsp.o(i.BSP_CPU_ClkFreq)
    i.CPU_Init                               0x08001c34   Section        0  cpu_core.o(i.CPU_Init)
    i.CPU_NameClr                            0x08001c4c   Section        0  cpu_core.o(i.CPU_NameClr)
    i.CPU_TS_TmrFreqSet                      0x08001c6c   Section        0  cpu_core.o(i.CPU_TS_TmrFreqSet)
    i.CPU_TS_TmrInit                         0x08001c78   Section        0  bsp.o(i.CPU_TS_TmrInit)
    i.CPU_TS_TmrRd                           0x08001ca8   Section        0  bsp.o(i.CPU_TS_TmrRd)
    i.Check_Client_status                    0x08001cb4   Section        0  clientpktrecv.o(i.Check_Client_status)
    i.Client_AATT                            0x08001ce0   Section        0  clientpktrecv.o(i.Client_AATT)
    i.Client_Beat                            0x08001dc8   Section        0  clientpktrecv.o(i.Client_Beat)
    i.Client_Bulk                            0x08001dfc   Section        0  clientpktrecv.o(i.Client_Bulk)
    i.Client_Cmd                             0x080022f8   Section        0  clientpktrecv.o(i.Client_Cmd)
    i.Client_Config                          0x08002330   Section        0  clientpktrecv.o(i.Client_Config)
    i.Client_Ctrl                            0x08002400   Section        0  clientpktrecv.o(i.Client_Ctrl)
    i.Client_Data                            0x08002798   Section        0  clientpktrecv.o(i.Client_Data)
    i.Client_Key                             0x08002830   Section        0  clientpktrecv.o(i.Client_Key)
    i.Client_Login                           0x0800294c   Section        0  clientpktrecv.o(i.Client_Login)
    i.Client_Query                           0x08002a00   Section        0  clientpktrecv.o(i.Client_Query)
    i.Client_Status                          0x08002a44   Section        0  clientpktrecv.o(i.Client_Status)
    i.Client_Var                             0x08002ab8   Section        0  clientpktrecv.o(i.Client_Var)
    i.ETH_DMAClearITPendingBit               0x08002c1c   Section        0  stm32f4x7_eth.o(i.ETH_DMAClearITPendingBit)
    i.ETH_DMAITConfig                        0x08002c28   Section        0  stm32f4x7_eth.o(i.ETH_DMAITConfig)
    i.ETH_DMAReceptionCmd                    0x08002c40   Section        0  stm32f4x7_eth.o(i.ETH_DMAReceptionCmd)
    i.ETH_DMARxDescChainInit                 0x08002c5c   Section        0  stm32f4x7_eth.o(i.ETH_DMARxDescChainInit)
    i.ETH_DMATransmissionCmd                 0x08002cb4   Section        0  stm32f4x7_eth.o(i.ETH_DMATransmissionCmd)
    i.ETH_DMATxDescChainInit                 0x08002cd0   Section        0  stm32f4x7_eth.o(i.ETH_DMATxDescChainInit)
    i.ETH_DMATxDescChecksumInsertionConfig   0x08002d18   Section        0  stm32f4x7_eth.o(i.ETH_DMATxDescChecksumInsertionConfig)
    i.ETH_DeInit                             0x08002d20   Section        0  stm32f4x7_eth.o(i.ETH_DeInit)
    i.ETH_Delay                              0x08002d38   Section        0  stm32f4x7_eth.o(i.ETH_Delay)
    ETH_Delay                                0x08002d39   Thumb Code    18  stm32f4x7_eth.o(i.ETH_Delay)
    i.ETH_FlushTransmitFIFO                  0x08002d4c   Section        0  stm32f4x7_eth.o(i.ETH_FlushTransmitFIFO)
    i.ETH_GetCurrentTxBuffer                 0x08002d5c   Section        0  lan8720.o(i.ETH_GetCurrentTxBuffer)
    i.ETH_GetRxPktSize                       0x08002d68   Section        0  stm32f4x7_eth.o(i.ETH_GetRxPktSize)
    i.ETH_GetSoftwareResetStatus             0x08002d88   Section        0  stm32f4x7_eth.o(i.ETH_GetSoftwareResetStatus)
    i.ETH_IRQHandler                         0x08002d9c   Section        0  lan8720.o(i.ETH_IRQHandler)
    i.ETH_Init                               0x08002dd0   Section        0  stm32f4x7_eth.o(i.ETH_Init)
    i.ETH_MACAddressConfig                   0x08003010   Section        0  stm32f4x7_eth.o(i.ETH_MACAddressConfig)
    i.ETH_MACDMA_Config                      0x0800302c   Section        0  lan8720.o(i.ETH_MACDMA_Config)
    i.ETH_MACReceptionCmd                    0x080030b8   Section        0  stm32f4x7_eth.o(i.ETH_MACReceptionCmd)
    i.ETH_MACTransmissionCmd                 0x080030d4   Section        0  stm32f4x7_eth.o(i.ETH_MACTransmissionCmd)
    i.ETH_Mem_Free                           0x080030f0   Section        0  lan8720.o(i.ETH_Mem_Free)
    i.ETH_Mem_Malloc                         0x0800311c   Section        0  lan8720.o(i.ETH_Mem_Malloc)
    i.ETH_ReadPHYRegister                    0x0800316c   Section        0  stm32f4x7_eth.o(i.ETH_ReadPHYRegister)
    i.ETH_Rx_Packet                          0x080031c4   Section        0  lan8720.o(i.ETH_Rx_Packet)
    i.ETH_SoftwareReset                      0x0800321c   Section        0  stm32f4x7_eth.o(i.ETH_SoftwareReset)
    i.ETH_Start                              0x0800322c   Section        0  stm32f4x7_eth.o(i.ETH_Start)
    i.ETH_StructInit                         0x0800324e   Section        0  stm32f4x7_eth.o(i.ETH_StructInit)
    i.ETH_Tx_Packet                          0x080032d8   Section        0  lan8720.o(i.ETH_Tx_Packet)
    i.ETH_WritePHYRegister                   0x0800331c   Section        0  stm32f4x7_eth.o(i.ETH_WritePHYRegister)
    i.FLYMyAddr                              0x08003370   Section        0  slinkpktrecv.o(i.FLYMyAddr)
    i.GPIO_Init                              0x08003398   Section        0  stm32f4xx_gpio.o(i.GPIO_Init)
    i.GPIO_PinAFConfig                       0x08003410   Section        0  stm32f4xx_gpio.o(i.GPIO_PinAFConfig)
    i.GPIO_ResetBits                         0x08003430   Section        0  stm32f4xx_gpio.o(i.GPIO_ResetBits)
    i.GPIO_SetBits                           0x08003434   Section        0  stm32f4xx_gpio.o(i.GPIO_SetBits)
    i.GenerateDefPw                          0x08003438   Section        0  publicfunc.o(i.GenerateDefPw)
    i.GetHwID                                0x08003458   Section        0  publicfunc.o(i.GetHwID)
    i.HardFault_Handler                      0x080034a4   Section        0  main.o(i.HardFault_Handler)
    i.IWDG_Configuration                     0x08003550   Section        0  publicfunc.o(i.IWDG_Configuration)
    i.IWDG_Enable                            0x08003574   Section        0  stm32f4xx_iwdg.o(i.IWDG_Enable)
    i.IWDG_PeriodCB                          0x08003584   Section        0  publicfunc.o(i.IWDG_PeriodCB)
    i.IWDG_ReloadCounter                     0x08003588   Section        0  stm32f4xx_iwdg.o(i.IWDG_ReloadCounter)
    i.IWDG_SetPrescaler                      0x08003598   Section        0  stm32f4xx_iwdg.o(i.IWDG_SetPrescaler)
    i.IWDG_SetReload                         0x080035a4   Section        0  stm32f4xx_iwdg.o(i.IWDG_SetReload)
    i.IWDG_WriteAccessCmd                    0x080035b0   Section        0  stm32f4xx_iwdg.o(i.IWDG_WriteAccessCmd)
    i.LAN8720_Init                           0x080035bc   Section        0  lan8720.o(i.LAN8720_Init)
    i.LED_Init                               0x080036d8   Section        0  led.o(i.LED_Init)
    i.LWIP_init                              0x08003714   Section        0  init.o(i.LWIP_init)
    i.MakeHash33                             0x0800373a   Section        0  publicfunc.o(i.MakeHash33)
    i.MemCpy                                 0x0800375e   Section        0  publicfunc.o(i.MemCpy)
    i.Mem_Clr                                0x08003782   Section        0  lib_mem.o(i.Mem_Clr)
    i.Mem_Set                                0x0800378a   Section        0  lib_mem.o(i.Mem_Set)
    i.NVIC_Init                              0x080037c8   Section        0  misc.o(i.NVIC_Init)
    i.NVIC_PriorityGroupConfig               0x0800382c   Section        0  misc.o(i.NVIC_PriorityGroupConfig)
    i.OSCfg_Init                             0x08003840   Section        0  os_cfg_app.o(i.OSCfg_Init)
    i.OSIdleTaskHook                         0x08003844   Section        0  os_cpu_c.o(i.OSIdleTaskHook)
    i.OSInit                                 0x08003854   Section        0  os_core.o(i.OSInit)
    i.OSInitHook                             0x080039d8   Section        0  os_cpu_c.o(i.OSInitHook)
    i.OSIntEnter                             0x080039fc   Section        0  os_core.o(i.OSIntEnter)
    i.OSIntExit                              0x08003a1c   Section        0  os_core.o(i.OSIntExit)
    i.OSQCreate                              0x08003aa0   Section        0  os_q.o(i.OSQCreate)
    i.OSQDel                                 0x08003b28   Section        0  os_q.o(i.OSQDel)
    i.OSQFlush                               0x08003c38   Section        0  os_q.o(i.OSQFlush)
    i.OSQPend                                0x08003cbc   Section        0  os_q.o(i.OSQPend)
    i.OSQPost                                0x08003e24   Section        0  os_q.o(i.OSQPost)
    i.OSSched                                0x08003ec0   Section        0  os_core.o(i.OSSched)
    i.OSSchedLock                            0x08003f34   Section        0  os_core.o(i.OSSchedLock)
    i.OSSchedUnlock                          0x08003f88   Section        0  os_core.o(i.OSSchedUnlock)
    i.OSSemCreate                            0x08003ff0   Section        0  os_sem.o(i.OSSemCreate)
    i.OSSemDel                               0x08004068   Section        0  os_sem.o(i.OSSemDel)
    i.OSSemPend                              0x08004178   Section        0  os_sem.o(i.OSSemPend)
    i.OSSemPost                              0x080042b4   Section        0  os_sem.o(i.OSSemPost)
    i.OSStart                                0x08004334   Section        0  os_core.o(i.OSStart)
    i.OSStatReset                            0x0800438c   Section        0  os_stat.o(i.OSStatReset)
    i.OSStatTaskHook                         0x0800444c   Section        0  os_cpu_c.o(i.OSStatTaskHook)
    i.OSTaskCreate                           0x0800445c   Section        0  os_task.o(i.OSTaskCreate)
    i.OSTaskCreateHook                       0x08004610   Section        0  os_cpu_c.o(i.OSTaskCreateHook)
    i.OSTaskDel                              0x08004620   Section        0  os_task.o(i.OSTaskDel)
    i.OSTaskDelHook                          0x08004738   Section        0  os_cpu_c.o(i.OSTaskDelHook)
    i.OSTaskReturnHook                       0x08004748   Section        0  os_cpu_c.o(i.OSTaskReturnHook)
    i.OSTaskSemPend                          0x08004758   Section        0  os_task.o(i.OSTaskSemPend)
    i.OSTaskStkChk                           0x08004890   Section        0  os_task.o(i.OSTaskStkChk)
    i.OSTaskStkInit                          0x08004924   Section        0  os_cpu_c.o(i.OSTaskStkInit)
    i.OSTaskSwHook                           0x08004a60   Section        0  os_cpu_c.o(i.OSTaskSwHook)
    i.OSTimeDly                              0x08004ab8   Section        0  os_time.o(i.OSTimeDly)
    i.OSTimeDlyHMSM                          0x08004b64   Section        0  os_time.o(i.OSTimeDlyHMSM)
    i.OSTimeGet                              0x08004ca8   Section        0  os_time.o(i.OSTimeGet)
    i.OSTimeTick                             0x08004cc4   Section        0  os_time.o(i.OSTimeTick)
    i.OSTimeTickHook                         0x08004d04   Section        0  os_cpu_c.o(i.OSTimeTickHook)
    i.OS_Dbg_Init                            0x08004d14   Section        0  os_dbg.o(i.OS_Dbg_Init)
    i.OS_FlagInit                            0x08004d18   Section        0  os_flag.o(i.OS_FlagInit)
    i.OS_FlagPost                            0x08004d30   Section        0  os_flag.o(i.OS_FlagPost)
    i.OS_FlagTaskRdy                         0x08004e60   Section        0  os_flag.o(i.OS_FlagTaskRdy)
    i.OS_IdleTask                            0x08004ea4   Section        0  os_core.o(i.OS_IdleTask)
    i.OS_IdleTaskInit                        0x08004ecc   Section        0  os_core.o(i.OS_IdleTaskInit)
    i.OS_IntQPost                            0x08004f34   Section        0  os_int.o(i.OS_IntQPost)
    i.OS_IntQRePost                          0x08004fe4   Section        0  os_int.o(i.OS_IntQRePost)
    i.OS_IntQTask                            0x08005100   Section        0  os_int.o(i.OS_IntQTask)
    i.OS_IntQTaskInit                        0x0800517c   Section        0  os_int.o(i.OS_IntQTaskInit)
    i.OS_MemInit                             0x08005294   Section        0  os_mem.o(i.OS_MemInit)
    i.OS_MsgPoolCreate                       0x080052ac   Section        0  os_msg.o(i.OS_MsgPoolCreate)
    i.OS_MsgPoolInit                         0x080052dc   Section        0  os_msg.o(i.OS_MsgPoolInit)
    i.OS_MsgQFreeAll                         0x08005324   Section        0  os_msg.o(i.OS_MsgQFreeAll)
    i.OS_MsgQGet                             0x08005358   Section        0  os_msg.o(i.OS_MsgQGet)
    i.OS_MsgQInit                            0x080053b0   Section        0  os_msg.o(i.OS_MsgQInit)
    i.OS_MsgQPut                             0x080053c0   Section        0  os_msg.o(i.OS_MsgQPut)
    i.OS_MutexInit                           0x08005444   Section        0  os_mutex.o(i.OS_MutexInit)
    i.OS_Pend                                0x0800545c   Section        0  os_core.o(i.OS_Pend)
    i.OS_PendDataInit                        0x080054ac   Section        0  os_core.o(i.OS_PendDataInit)
    i.OS_PendDbgNameAdd                      0x080054dc   Section        0  os_core.o(i.OS_PendDbgNameAdd)
    i.OS_PendDbgNameRemove                   0x08005524   Section        0  os_core.o(i.OS_PendDbgNameRemove)
    i.OS_PendListInit                        0x08005540   Section        0  os_core.o(i.OS_PendListInit)
    i.OS_PendListInsertPrio                  0x0800554a   Section        0  os_core.o(i.OS_PendListInsertPrio)
    i.OS_PendListRemove                      0x080055a4   Section        0  os_core.o(i.OS_PendListRemove)
    i.OS_PendListRemove1                     0x080055ca   Section        0  os_core.o(i.OS_PendListRemove1)
    i.OS_PendObjDel                          0x08005600   Section        0  os_core.o(i.OS_PendObjDel)
    i.OS_PendObjDel1                         0x08005680   Section        0  os_core.o(i.OS_PendObjDel1)
    i.OS_Post                                0x080056a0   Section        0  os_core.o(i.OS_Post)
    i.OS_Post1                               0x08005738   Section        0  os_core.o(i.OS_Post1)
    i.OS_PrioGetHighest                      0x08005760   Section        0  os_prio.o(i.OS_PrioGetHighest)
    i.OS_PrioInit                            0x08005784   Section        0  os_prio.o(i.OS_PrioInit)
    i.OS_PrioInsert                          0x0800579c   Section        0  os_prio.o(i.OS_PrioInsert)
    i.OS_PrioRemove                          0x080057bc   Section        0  os_prio.o(i.OS_PrioRemove)
    i.OS_QClr                                0x080057dc   Section        0  os_q.o(i.OS_QClr)
    i.OS_QDbgListAdd                         0x0800580c   Section        0  os_q.o(i.OS_QDbgListAdd)
    i.OS_QDbgListRemove                      0x08005830   Section        0  os_q.o(i.OS_QDbgListRemove)
    i.OS_QInit                               0x08005858   Section        0  os_q.o(i.OS_QInit)
    i.OS_QPost                               0x08005870   Section        0  os_q.o(i.OS_QPost)
    i.OS_RdyListInit                         0x0800593c   Section        0  os_core.o(i.OS_RdyListInit)
    i.OS_RdyListInsert                       0x08005960   Section        0  os_core.o(i.OS_RdyListInsert)
    i.OS_RdyListInsertHead                   0x08005990   Section        0  os_core.o(i.OS_RdyListInsertHead)
    i.OS_RdyListInsertTail                   0x080059c8   Section        0  os_core.o(i.OS_RdyListInsertTail)
    i.OS_RdyListMoveHeadToTail               0x080059fc   Section        0  os_core.o(i.OS_RdyListMoveHeadToTail)
    i.OS_RdyListRemove                       0x08005a30   Section        0  os_core.o(i.OS_RdyListRemove)
    i.OS_Sched0                              0x08005a84   Section        0  os_core.o(i.OS_Sched0)
    i.OS_SchedLockTimeMeasStart              0x08005ac8   Section        0  os_core.o(i.OS_SchedLockTimeMeasStart)
    i.OS_SchedLockTimeMeasStop               0x08005ae4   Section        0  os_core.o(i.OS_SchedLockTimeMeasStop)
    i.OS_SchedRoundRobin                     0x08005b20   Section        0  os_core.o(i.OS_SchedRoundRobin)
    i.OS_SemClr                              0x08005b80   Section        0  os_sem.o(i.OS_SemClr)
    i.OS_SemDbgListAdd                       0x08005ba4   Section        0  os_sem.o(i.OS_SemDbgListAdd)
    i.OS_SemDbgListRemove                    0x08005bc8   Section        0  os_sem.o(i.OS_SemDbgListRemove)
    i.OS_SemInit                             0x08005bf0   Section        0  os_sem.o(i.OS_SemInit)
    i.OS_SemPost                             0x08005c08   Section        0  os_sem.o(i.OS_SemPost)
    i.OS_StatTask                            0x08005cac   Section        0  os_stat.o(i.OS_StatTask)
    i.OS_StatTaskInit                        0x08005ed4   Section        0  os_stat.o(i.OS_StatTaskInit)
    i.OS_TaskBlock                           0x08005f90   Section        0  os_core.o(i.OS_TaskBlock)
    i.OS_TaskDbgListAdd                      0x08005fbc   Section        0  os_task.o(i.OS_TaskDbgListAdd)
    i.OS_TaskDbgListRemove                   0x08005fe0   Section        0  os_task.o(i.OS_TaskDbgListRemove)
    i.OS_TaskInit                            0x08006018   Section        0  os_task.o(i.OS_TaskInit)
    i.OS_TaskInitTCB                         0x08006038   Section        0  os_task.o(i.OS_TaskInitTCB)
    i.OS_TaskQPost                           0x080060f8   Section        0  os_task.o(i.OS_TaskQPost)
    i.OS_TaskRdy                             0x080061e4   Section        0  os_core.o(i.OS_TaskRdy)
    i.OS_TaskResume                          0x08006200   Section        0  os_task.o(i.OS_TaskResume)
    i.OS_TaskReturn                          0x080062bc   Section        0  os_task.o(i.OS_TaskReturn)
    i.OS_TaskSemPost                         0x080062d4   Section        0  os_task.o(i.OS_TaskSemPost)
    i.OS_TaskSuspend                         0x080063e4   Section        0  os_task.o(i.OS_TaskSuspend)
    i.OS_TickListInit                        0x0800648c   Section        0  os_tick.o(i.OS_TickListInit)
    i.OS_TickListInsert                      0x080064b8   Section        0  os_tick.o(i.OS_TickListInsert)
    i.OS_TickListRemove                      0x08006590   Section        0  os_tick.o(i.OS_TickListRemove)
    i.OS_TickListResetPeak                   0x080065c8   Section        0  os_tick.o(i.OS_TickListResetPeak)
    i.OS_TickListUpdate                      0x080065f0   Section        0  os_tick.o(i.OS_TickListUpdate)
    i.OS_TickTask                            0x08006738   Section        0  os_tick.o(i.OS_TickTask)
    i.OS_TickTaskInit                        0x08006760   Section        0  os_tick.o(i.OS_TickTaskInit)
    i.OS_TmrInit                             0x08006808   Section        0  os_tmr.o(i.OS_TmrInit)
    i.OS_TmrLink                             0x0800690c   Section        0  os_tmr.o(i.OS_TmrLink)
    i.OS_TmrResetPeak                        0x080069a4   Section        0  os_tmr.o(i.OS_TmrResetPeak)
    i.OS_TmrTask                             0x080069cc   Section        0  os_tmr.o(i.OS_TmrTask)
    i.OS_TmrUnlink                           0x08006a78   Section        0  os_tmr.o(i.OS_TmrUnlink)
    i.RCC_AHB1PeriphClockCmd                 0x08006ac4   Section        0  stm32f4xx_rcc.o(i.RCC_AHB1PeriphClockCmd)
    i.RCC_AHB1PeriphResetCmd                 0x08006adc   Section        0  stm32f4xx_rcc.o(i.RCC_AHB1PeriphResetCmd)
    i.RCC_APB1PeriphClockCmd                 0x08006af4   Section        0  stm32f4xx_rcc.o(i.RCC_APB1PeriphClockCmd)
    i.RCC_APB1PeriphResetCmd                 0x08006b0c   Section        0  stm32f4xx_rcc.o(i.RCC_APB1PeriphResetCmd)
    i.RCC_APB2PeriphClockCmd                 0x08006b24   Section        0  stm32f4xx_rcc.o(i.RCC_APB2PeriphClockCmd)
    i.RCC_APB2PeriphResetCmd                 0x08006b3c   Section        0  stm32f4xx_rcc.o(i.RCC_APB2PeriphResetCmd)
    i.RCC_GetClocksFreq                      0x08006b54   Section        0  stm32f4xx_rcc.o(i.RCC_GetClocksFreq)
    i.RFS_Debug                              0x08006be4   Section        0  roomflashsave.o(i.RFS_Debug)
    i.RFS_Init                               0x08006e64   Section        0  roomflashsave.o(i.RFS_Init)
    i.RebootBoard                            0x08006eac   Section        0  publicfunc.o(i.RebootBoard)
    i.RecvPacketFromTerminal                 0x08006ecc   Section        0  slinkpktrecv.o(i.RecvPacketFromTerminal)
    i.Rom_ReadPage                           0x08007174   Section        0  roomflashsave.o(i.Rom_ReadPage)
    i.Rom_WritePage                          0x0800717a   Section        0  roomflashsave.o(i.Rom_WritePage)
    i.SLink_Data                             0x08007180   Section        0  si4432.o(i.SLink_Data)
    i.SPI1_Init                              0x080071c4   Section        0  spi.o(i.SPI1_Init)
    i.SPI1_ReadWriteByte                     0x08007280   Section        0  spi.o(i.SPI1_ReadWriteByte)
    i.SPI2_Init                              0x080072d0   Section        0  spi.o(i.SPI2_Init)
    i.SPI2_ReadWriteByte                     0x08007394   Section        0  spi.o(i.SPI2_ReadWriteByte)
    i.SPI_Cmd                                0x080073c8   Section        0  stm32f4xx_spi.o(i.SPI_Cmd)
    i.SPI_I2S_GetFlagStatus                  0x080073dc   Section        0  stm32f4xx_spi.o(i.SPI_I2S_GetFlagStatus)
    i.SPI_I2S_ReceiveData                    0x080073ea   Section        0  stm32f4xx_spi.o(i.SPI_I2S_ReceiveData)
    i.SPI_I2S_SendData                       0x080073ee   Section        0  stm32f4xx_spi.o(i.SPI_I2S_SendData)
    i.SPI_Init                               0x080073f2   Section        0  stm32f4xx_spi.o(i.SPI_Init)
    i.SPI_WriteByte                          0x0800742a   Section        0  spi.o(i.SPI_WriteByte)
    i.SYSCFG_ETH_MediaInterfaceConfig        0x08007440   Section        0  stm32f4xx_syscfg.o(i.SYSCFG_ETH_MediaInterfaceConfig)
    i.SetSysClock                            0x0800744c   Section        0  system_stm32f4xx.o(i.SetSysClock)
    SetSysClock                              0x0800744d   Thumb Code   162  system_stm32f4xx.o(i.SetSysClock)
    i.Si4432_ClearNIRQ                       0x08007500   Section        0  si4432.o(i.Si4432_ClearNIRQ)
    Si4432_ClearNIRQ                         0x08007501   Thumb Code    18  si4432.o(i.Si4432_ClearNIRQ)
    i.Si4432_DelayMs                         0x08007512   Section        0  si4432.o(i.Si4432_DelayMs)
    Si4432_DelayMs                           0x08007513   Thumb Code     6  si4432.o(i.Si4432_DelayMs)
    i.Si4432_ReadReg                         0x08007518   Section        0  si4432.o(i.Si4432_ReadReg)
    Si4432_ReadReg                           0x08007519   Thumb Code    48  si4432.o(i.Si4432_ReadReg)
    i.Si4432_RegConfig                       0x08007550   Section        0  si4432.o(i.Si4432_RegConfig)
    Si4432_RegConfig                         0x08007551   Thumb Code   342  si4432.o(i.Si4432_RegConfig)
    i.Si4432_RxPacket                        0x080076a8   Section        0  si4432.o(i.Si4432_RxPacket)
    i.Si4432_SetRssiThred                    0x08007750   Section        0  si4432.o(i.Si4432_SetRssiThred)
    i.Si4432_SetRxMode                       0x08007760   Section        0  si4432.o(i.Si4432_SetRxMode)
    Si4432_SetRxMode                         0x08007761   Thumb Code   120  si4432.o(i.Si4432_SetRxMode)
    i.Si4432_SetTxMode                       0x080077d8   Section        0  si4432.o(i.Si4432_SetTxMode)
    Si4432_SetTxMode                         0x080077d9   Thumb Code   112  si4432.o(i.Si4432_SetTxMode)
    i.Si4432_TxPacket                        0x08007848   Section        0  si4432.o(i.Si4432_TxPacket)
    i.Si4432_WriteReg                        0x080079c4   Section        0  si4432.o(i.Si4432_WriteReg)
    Si4432_WriteReg                          0x080079c5   Thumb Code    48  si4432.o(i.Si4432_WriteReg)
    i.Si4432_init                            0x080079fc   Section        0  si4432.o(i.Si4432_init)
    i.SysTick_CLKSourceConfig                0x08007c08   Section        0  misc.o(i.SysTick_CLKSourceConfig)
    i.SysTick_Handler                        0x08007c20   Section        0  delay.o(i.SysTick_Handler)
    i.SystemInit                             0x08007c40   Section        0  system_stm32f4xx.o(i.SystemInit)
    i.TIM1_UP_TIM10_IRQHandler               0x08007c9c   Section        0  timer.o(i.TIM1_UP_TIM10_IRQHandler)
    i.TIM3_IRQHandler                        0x08007cc8   Section        0  timer.o(i.TIM3_IRQHandler)
    i.TIM7_IRQHandler                        0x08007cf4   Section        0  timer.o(i.TIM7_IRQHandler)
    i.TIM7_Int_Init                          0x08007d34   Section        0  timer.o(i.TIM7_Int_Init)
    i.TIM_ClearITPendingBit                  0x08007d90   Section        0  stm32f4xx_tim.o(i.TIM_ClearITPendingBit)
    i.TIM_Cmd                                0x08007d96   Section        0  stm32f4xx_tim.o(i.TIM_Cmd)
    i.TIM_GetITStatus                        0x08007daa   Section        0  stm32f4xx_tim.o(i.TIM_GetITStatus)
    i.TIM_ITConfig                           0x08007dc2   Section        0  stm32f4xx_tim.o(i.TIM_ITConfig)
    i.TIM_SetCounter                         0x08007dd2   Section        0  stm32f4xx_tim.o(i.TIM_SetCounter)
    i.TIM_TimeBaseInit                       0x08007dd8   Section        0  stm32f4xx_tim.o(i.TIM_TimeBaseInit)
    i.USART1_IRQHandler                      0x08007e54   Section        0  usart.o(i.USART1_IRQHandler)
    i.USART2_IRQHandler                      0x08007e58   Section        0  usart2.o(i.USART2_IRQHandler)
    i.USART_Cmd                              0x08007ec4   Section        0  stm32f4xx_usart.o(i.USART_Cmd)
    i.USART_GetFlagStatus                    0x08007ed8   Section        0  stm32f4xx_usart.o(i.USART_GetFlagStatus)
    i.USART_ITConfig                         0x08007ee6   Section        0  stm32f4xx_usart.o(i.USART_ITConfig)
    i.USART_Init                             0x08007f18   Section        0  stm32f4xx_usart.o(i.USART_Init)
    i.USART_ReceiveData                      0x08007fc4   Section        0  stm32f4xx_usart.o(i.USART_ReceiveData)
    i.USART_SendData                         0x08007fcc   Section        0  stm32f4xx_usart.o(i.USART_SendData)
    i.W25QXX_Erase_Sector                    0x08007fd4   Section        0  w25qxx.o(i.W25QXX_Erase_Sector)
    i.W25QXX_Init                            0x08008018   Section        0  w25qxx.o(i.W25QXX_Init)
    i.W25QXX_Read                            0x08008078   Section        0  w25qxx.o(i.W25QXX_Read)
    i.W25QXX_ReadID                          0x080080c8   Section        0  w25qxx.o(i.W25QXX_ReadID)
    i.W25QXX_ReadSR                          0x0800810c   Section        0  w25qxx.o(i.W25QXX_ReadSR)
    i.W25QXX_Wait_Busy                       0x08008130   Section        0  w25qxx.o(i.W25QXX_Wait_Busy)
    i.W25QXX_Write                           0x0800813c   Section        0  w25qxx.o(i.W25QXX_Write)
    i.W25QXX_Write_Enable                    0x080081e4   Section        0  w25qxx.o(i.W25QXX_Write_Enable)
    i.W25QXX_Write_NoCheck                   0x08008204   Section        0  w25qxx.o(i.W25QXX_Write_NoCheck)
    i.W25QXX_Write_Page                      0x08008244   Section        0  w25qxx.o(i.W25QXX_Write_Page)
    i.__ARM_fpclassify                       0x0800829c   Section        0  fpclassify.o(i.__ARM_fpclassify)
    i._is_digit                              0x080082cc   Section        0  __printf_wp.o(i._is_digit)
    i._sys_exit                              0x080082da   Section        0  usart.o(i._sys_exit)
    i.accept_function                        0x080082dc   Section        0  api_msg.o(i.accept_function)
    accept_function                          0x080082dd   Thumb Code   162  api_msg.o(i.accept_function)
    i.arp_timer                              0x08008380   Section        0  timers.o(i.arp_timer)
    i.delay_init                             0x08008398   Section        0  delay.o(i.delay_init)
    i.delay_ms                               0x080083e8   Section        0  delay.o(i.delay_ms)
    i.delay_ostimedly                        0x0800842c   Section        0  delay.o(i.delay_ostimedly)
    i.delay_us                               0x08008438   Section        0  delay.o(i.delay_us)
    i.dhcp_arp_reply                         0x0800847c   Section        0  dhcp.o(i.dhcp_arp_reply)
    i.dhcp_bind                              0x080084f4   Section        0  dhcp.o(i.dhcp_bind)
    dhcp_bind                                0x080084f5   Thumb Code   222  dhcp.o(i.dhcp_bind)
    i.dhcp_check                             0x08008644   Section        0  dhcp.o(i.dhcp_check)
    dhcp_check                               0x08008645   Thumb Code    38  dhcp.o(i.dhcp_check)
    i.dhcp_coarse_tmr                        0x0800866c   Section        0  dhcp.o(i.dhcp_coarse_tmr)
    i.dhcp_create_msg                        0x080086cc   Section        0  dhcp.o(i.dhcp_create_msg)
    dhcp_create_msg                          0x080086cd   Thumb Code   310  dhcp.o(i.dhcp_create_msg)
    i.dhcp_decline                           0x08008888   Section        0  dhcp.o(i.dhcp_decline)
    dhcp_decline                             0x08008889   Thumb Code   104  dhcp.o(i.dhcp_decline)
    i.dhcp_delete_msg                        0x080088f4   Section        0  dhcp.o(i.dhcp_delete_msg)
    dhcp_delete_msg                          0x080088f5   Thumb Code    40  dhcp.o(i.dhcp_delete_msg)
    i.dhcp_discover                          0x08008978   Section        0  dhcp.o(i.dhcp_discover)
    dhcp_discover                            0x08008979   Thumb Code   184  dhcp.o(i.dhcp_discover)
    i.dhcp_fine_tmr                          0x08008a34   Section        0  dhcp.o(i.dhcp_fine_tmr)
    i.dhcp_handle_ack                        0x08008a68   Section        0  dhcp.o(i.dhcp_handle_ack)
    dhcp_handle_ack                          0x08008a69   Thumb Code    88  dhcp.o(i.dhcp_handle_ack)
    i.dhcp_option                            0x08008ac4   Section        0  dhcp.o(i.dhcp_option)
    dhcp_option                              0x08008ac5   Thumb Code    32  dhcp.o(i.dhcp_option)
    i.dhcp_option_byte                       0x08008ae4   Section        0  dhcp.o(i.dhcp_option_byte)
    dhcp_option_byte                         0x08008ae5   Thumb Code    16  dhcp.o(i.dhcp_option_byte)
    i.dhcp_option_hostname                   0x08008af4   Section        0  dhcp.o(i.dhcp_option_hostname)
    dhcp_option_hostname                     0x08008af5   Thumb Code    66  dhcp.o(i.dhcp_option_hostname)
    i.dhcp_option_long                       0x08008b36   Section        0  dhcp.o(i.dhcp_option_long)
    dhcp_option_long                         0x08008b37   Thumb Code    66  dhcp.o(i.dhcp_option_long)
    i.dhcp_option_short                      0x08008b78   Section        0  dhcp.o(i.dhcp_option_short)
    dhcp_option_short                        0x08008b79   Thumb Code    34  dhcp.o(i.dhcp_option_short)
    i.dhcp_option_trailer                    0x08008b9c   Section        0  dhcp.o(i.dhcp_option_trailer)
    dhcp_option_trailer                      0x08008b9d   Thumb Code    56  dhcp.o(i.dhcp_option_trailer)
    i.dhcp_parse_reply                       0x08008c34   Section        0  dhcp.o(i.dhcp_parse_reply)
    dhcp_parse_reply                         0x08008c35   Thumb Code   626  dhcp.o(i.dhcp_parse_reply)
    i.dhcp_rebind                            0x08008f4c   Section        0  dhcp.o(i.dhcp_rebind)
    dhcp_rebind                              0x08008f4d   Thumb Code   138  dhcp.o(i.dhcp_rebind)
    i.dhcp_reboot                            0x08008fdc   Section        0  dhcp.o(i.dhcp_reboot)
    dhcp_reboot                              0x08008fdd   Thumb Code   156  dhcp.o(i.dhcp_reboot)
    i.dhcp_recv                              0x0800907c   Section        0  dhcp.o(i.dhcp_recv)
    dhcp_recv                                0x0800907d   Thumb Code   266  dhcp.o(i.dhcp_recv)
    i.dhcp_release                           0x08009190   Section        0  dhcp.o(i.dhcp_release)
    i.dhcp_renew                             0x08009234   Section        0  dhcp.o(i.dhcp_renew)
    i.dhcp_select                            0x080092c0   Section        0  dhcp.o(i.dhcp_select)
    dhcp_select                              0x080092c1   Thumb Code   236  dhcp.o(i.dhcp_select)
    i.dhcp_set_state                         0x080093b0   Section        0  dhcp.o(i.dhcp_set_state)
    dhcp_set_state                           0x080093b1   Thumb Code    16  dhcp.o(i.dhcp_set_state)
    i.dhcp_start                             0x080093c0   Section        0  dhcp.o(i.dhcp_start)
    i.dhcp_stop                              0x080094bc   Section        0  dhcp.o(i.dhcp_stop)
    i.dhcp_timeout                           0x08009554   Section        0  dhcp.o(i.dhcp_timeout)
    dhcp_timeout                             0x08009555   Thumb Code   136  dhcp.o(i.dhcp_timeout)
    i.dhcp_timer_coarse                      0x080095dc   Section        0  timers.o(i.dhcp_timer_coarse)
    i.dhcp_timer_fine                        0x080095f4   Section        0  timers.o(i.dhcp_timer_fine)
    i.do_bind                                0x0800960c   Section        0  api_msg.o(i.do_bind)
    i.do_close                               0x0800965e   Section        0  api_msg.o(i.do_close)
    i.do_close_internal                      0x080096b4   Section        0  api_msg.o(i.do_close_internal)
    do_close_internal                        0x080096b5   Thumb Code   238  api_msg.o(i.do_close_internal)
    i.do_delconn                             0x080097b0   Section        0  api_msg.o(i.do_delconn)
    i.do_listen                              0x0800984c   Section        0  api_msg.o(i.do_listen)
    i.do_newconn                             0x080098fc   Section        0  api_msg.o(i.do_newconn)
    i.do_recv                                0x0800991c   Section        0  api_msg.o(i.do_recv)
    i.do_write                               0x08009960   Section        0  api_msg.o(i.do_write)
    i.do_writemore                           0x080099a6   Section        0  api_msg.o(i.do_writemore)
    do_writemore                             0x080099a7   Thumb Code   286  api_msg.o(i.do_writemore)
    i.err_tcp                                0x08009ac4   Section        0  api_msg.o(i.err_tcp)
    err_tcp                                  0x08009ac5   Thumb Code   166  api_msg.o(i.err_tcp)
    i.etharp_arp_input                       0x08009b6c   Section        0  etharp.o(i.etharp_arp_input)
    etharp_arp_input                         0x08009b6d   Thumb Code   228  etharp.o(i.etharp_arp_input)
    i.etharp_cleanup_netif                   0x08009ca0   Section        0  etharp.o(i.etharp_cleanup_netif)
    i.etharp_find_entry                      0x08009cd0   Section        0  etharp.o(i.etharp_find_entry)
    etharp_find_entry                        0x08009cd1   Thumb Code   234  etharp.o(i.etharp_find_entry)
    i.etharp_free_entry                      0x08009dc0   Section        0  etharp.o(i.etharp_free_entry)
    etharp_free_entry                        0x08009dc1   Thumb Code    50  etharp.o(i.etharp_free_entry)
    i.etharp_output                          0x08009dfc   Section        0  etharp.o(i.etharp_output)
    i.etharp_output_to_arp_index             0x08009efc   Section        0  etharp.o(i.etharp_output_to_arp_index)
    etharp_output_to_arp_index               0x08009efd   Thumb Code    62  etharp.o(i.etharp_output_to_arp_index)
    i.etharp_query                           0x08009f40   Section        0  etharp.o(i.etharp_query)
    i.etharp_raw                             0x0800a030   Section        0  etharp.o(i.etharp_raw)
    etharp_raw                               0x0800a031   Thumb Code   160  etharp.o(i.etharp_raw)
    i.etharp_request                         0x0800a0d0   Section        0  etharp.o(i.etharp_request)
    i.etharp_send_ip                         0x0800a0f4   Section        0  etharp.o(i.etharp_send_ip)
    etharp_send_ip                           0x0800a0f5   Thumb Code    32  etharp.o(i.etharp_send_ip)
    i.etharp_tmr                             0x0800a114   Section        0  etharp.o(i.etharp_tmr)
    i.etharp_update_arp_entry                0x0800a15c   Section        0  etharp.o(i.etharp_update_arp_entry)
    etharp_update_arp_entry                  0x0800a15d   Thumb Code   118  etharp.o(i.etharp_update_arp_entry)
    i.ethernet_input                         0x0800a1d8   Section        0  etharp.o(i.ethernet_input)
    i.ethernetif_init                        0x0800a268   Section        0  ethernetif.o(i.ethernetif_init)
    i.ethernetif_input                       0x0800a29c   Section        0  ethernetif.o(i.ethernetif_input)
    i.fputc                                  0x0800a314   Section        0  usart.o(i.fputc)
    i.icmp_dest_unreach                      0x0800a328   Section        0  icmp.o(i.icmp_dest_unreach)
    i.icmp_input                             0x0800a330   Section        0  icmp.o(i.icmp_input)
    i.icmp_send_response                     0x0800a42c   Section        0  icmp.o(i.icmp_send_response)
    icmp_send_response                       0x0800a42d   Thumb Code   100  icmp.o(i.icmp_send_response)
    i.icmp_time_exceeded                     0x0800a490   Section        0  icmp.o(i.icmp_time_exceeded)
    i.inet_chksum                            0x0800a498   Section        0  inet_chksum.o(i.inet_chksum)
    i.inet_chksum_pbuf                       0x0800a4a4   Section        0  inet_chksum.o(i.inet_chksum_pbuf)
    i.ip4_addr_isbroadcast                   0x0800a4ec   Section        0  ip_addr.o(i.ip4_addr_isbroadcast)
    i.ip_frag                                0x0800a51c   Section        0  ip_frag.o(i.ip_frag)
    i.ip_frag_free_pbuf_custom_ref           0x0800a680   Section        0  ip_frag.o(i.ip_frag_free_pbuf_custom_ref)
    ip_frag_free_pbuf_custom_ref             0x0800a681   Thumb Code     8  ip_frag.o(i.ip_frag_free_pbuf_custom_ref)
    i.ip_input                               0x0800a688   Section        0  ip.o(i.ip_input)
    i.ip_output                              0x0800a800   Section        0  ip.o(i.ip_output)
    i.ip_output_if                           0x0800a834   Section        0  ip.o(i.ip_output_if)
    i.ip_reass                               0x0800a8dc   Section        0  ip_frag.o(i.ip_reass)
    i.ip_reass_chain_frag_into_datagram_and_validate 0x0800aa80   Section        0  ip_frag.o(i.ip_reass_chain_frag_into_datagram_and_validate)
    ip_reass_chain_frag_into_datagram_and_validate 0x0800aa81   Thumb Code   226  ip_frag.o(i.ip_reass_chain_frag_into_datagram_and_validate)
    i.ip_reass_dequeue_datagram              0x0800ab68   Section        0  ip_frag.o(i.ip_reass_dequeue_datagram)
    ip_reass_dequeue_datagram                0x0800ab69   Thumb Code    30  ip_frag.o(i.ip_reass_dequeue_datagram)
    i.ip_reass_free_complete_datagram        0x0800ab8c   Section        0  ip_frag.o(i.ip_reass_free_complete_datagram)
    ip_reass_free_complete_datagram          0x0800ab8d   Thumb Code   108  ip_frag.o(i.ip_reass_free_complete_datagram)
    i.ip_reass_remove_oldest_datagram        0x0800abfc   Section        0  ip_frag.o(i.ip_reass_remove_oldest_datagram)
    ip_reass_remove_oldest_datagram          0x0800abfd   Thumb Code   110  ip_frag.o(i.ip_reass_remove_oldest_datagram)
    i.ip_reass_timer                         0x0800ac70   Section        0  timers.o(i.ip_reass_timer)
    i.ip_reass_tmr                           0x0800ac88   Section        0  ip_frag.o(i.ip_reass_tmr)
    i.ip_route                               0x0800acb4   Section        0  ip.o(i.ip_route)
    i.ip_set                                 0x0800acf4   Section        0  lwip.o(i.ip_set)
    i.ipfrag_free_pbuf_custom                0x0800ad38   Section        0  ip_frag.o(i.ipfrag_free_pbuf_custom)
    ipfrag_free_pbuf_custom                  0x0800ad39   Thumb Code    22  ip_frag.o(i.ipfrag_free_pbuf_custom)
    i.led_task                               0x0800ad50   Section        0  task.o(i.led_task)
    i.low_level_init                         0x0800b000   Section        0  ethernetif.o(i.low_level_init)
    low_level_init                           0x0800b001   Thumb Code   128  ethernetif.o(i.low_level_init)
    i.low_level_output                       0x0800b094   Section        0  ethernetif.o(i.low_level_output)
    low_level_output                         0x0800b095   Thumb Code    52  ethernetif.o(i.low_level_output)
    i.lwip_comm_delete_next_timeout          0x0800b0c8   Section        0  lwip.o(i.lwip_comm_delete_next_timeout)
    i.lwip_comm_destroy                      0x0800b114   Section        0  lwip.o(i.lwip_comm_destroy)
    i.lwip_comm_dhcp_creat                   0x0800b240   Section        0  lwip.o(i.lwip_comm_dhcp_creat)
    i.lwip_comm_dhcp_delete                  0x0800b2c8   Section        0  lwip.o(i.lwip_comm_dhcp_delete)
    i.lwip_comm_init                         0x0800b2d8   Section        0  lwip.o(i.lwip_comm_init)
    i.lwip_comm_mem_free                     0x0800b3a4   Section        0  lwip.o(i.lwip_comm_mem_free)
    i.lwip_comm_mem_malloc                   0x0800b3d4   Section        0  lwip.o(i.lwip_comm_mem_malloc)
    i.lwip_dhcp_task                         0x0800b424   Section        0  lwip.o(i.lwip_dhcp_task)
    i.lwip_htonl                             0x0800b638   Section        0  def.o(i.lwip_htonl)
    i.lwip_htons                             0x0800b63c   Section        0  def.o(i.lwip_htons)
    i.lwip_ntohl                             0x0800b640   Section        0  def.o(i.lwip_ntohl)
    i.lwip_ntohs                             0x0800b644   Section        0  def.o(i.lwip_ntohs)
    i.lwip_pkt_handle                        0x0800b648   Section        0  lwip.o(i.lwip_pkt_handle)
    i.lwip_socket_init                       0x0800b654   Section        0  sockets.o(i.lwip_socket_init)
    i.lwip_standard_chksum                   0x0800b656   Section        0  inet_chksum.o(i.lwip_standard_chksum)
    lwip_standard_chksum                     0x0800b657   Thumb Code    86  inet_chksum.o(i.lwip_standard_chksum)
    i.main                                   0x0800b6ac   Section        0  main.o(i.main)
    i.mem_free                               0x0800b6d0   Section        0  mem.o(i.mem_free)
    i.mem_init                               0x0800b720   Section        0  mem.o(i.mem_init)
    i.mem_malloc                             0x0800b75c   Section        0  mem.o(i.mem_malloc)
    i.mem_perused                            0x0800b820   Section        0  malloc.o(i.mem_perused)
    i.mem_trim                               0x0800b858   Section        0  mem.o(i.mem_trim)
    i.memp_free                              0x0800b940   Section        0  memp.o(i.memp_free)
    i.memp_get_memorysize                    0x0800b968   Section        0  memp.o(i.memp_get_memorysize)
    i.memp_init                              0x0800b970   Section        0  memp.o(i.memp_init)
    i.memp_malloc                            0x0800b9cc   Section        0  memp.o(i.memp_malloc)
    i.myfree                                 0x0800ba60   Section        0  malloc.o(i.myfree)
    i.mymalloc                               0x0800bac4   Section        0  malloc.o(i.mymalloc)
    i.mymem_free                             0x0800bb24   Section        0  malloc.o(i.mymem_free)
    i.mymem_init                             0x0800bb7c   Section        0  malloc.o(i.mymem_init)
    i.mymem_malloc                           0x0800bbb8   Section        0  malloc.o(i.mymem_malloc)
    i.mymemset                               0x0800bc44   Section        0  malloc.o(i.mymemset)
    i.netbuf_delete                          0x0800bc50   Section        0  netbuf.o(i.netbuf_delete)
    i.netconn_accept                         0x0800bc74   Section        0  api_lib.o(i.netconn_accept)
    i.netconn_alloc                          0x0800bdbc   Section        0  api_msg.o(i.netconn_alloc)
    i.netconn_bind                           0x0800be44   Section        0  api_lib.o(i.netconn_bind)
    i.netconn_close                          0x0800beec   Section        0  api_lib.o(i.netconn_close)
    i.netconn_close_shutdown                 0x0800bef4   Section        0  api_lib.o(i.netconn_close_shutdown)
    netconn_close_shutdown                   0x0800bef5   Thumb Code    72  api_lib.o(i.netconn_close_shutdown)
    i.netconn_delete                         0x0800bf9c   Section        0  api_lib.o(i.netconn_delete)
    i.netconn_drain                          0x0800bfc0   Section        0  api_msg.o(i.netconn_drain)
    netconn_drain                            0x0800bfc1   Thumb Code   144  api_msg.o(i.netconn_drain)
    i.netconn_free                           0x0800c050   Section        0  api_msg.o(i.netconn_free)
    i.netconn_listen_with_backlog            0x0800c070   Section        0  api_lib.o(i.netconn_listen_with_backlog)
    i.netconn_new_with_proto_and_callback    0x0800c118   Section        0  api_lib.o(i.netconn_new_with_proto_and_callback)
    i.netconn_recv                           0x0800c160   Section        0  api_lib.o(i.netconn_recv)
    i.netconn_recv_data                      0x0800c2b0   Section        0  api_lib.o(i.netconn_recv_data)
    netconn_recv_data                        0x0800c2b1   Thumb Code   244  api_lib.o(i.netconn_recv_data)
    i.netconn_write_partly                   0x0800c448   Section        0  api_lib.o(i.netconn_write_partly)
    i.netif_add                              0x0800c570   Section        0  netif.o(i.netif_add)
    i.netif_init                             0x0800c5bc   Section        0  netif.o(i.netif_init)
    i.netif_remove                           0x0800c5c0   Section        0  netif.o(i.netif_remove)
    i.netif_set_addr                         0x0800c608   Section        0  netif.o(i.netif_set_addr)
    i.netif_set_default                      0x0800c628   Section        0  netif.o(i.netif_set_default)
    i.netif_set_down                         0x0800c634   Section        0  netif.o(i.netif_set_down)
    i.netif_set_gw                           0x0800c64e   Section        0  netif.o(i.netif_set_gw)
    i.netif_set_ipaddr                       0x0800c658   Section        0  netif.o(i.netif_set_ipaddr)
    i.netif_set_netmask                      0x0800c6c0   Section        0  netif.o(i.netif_set_netmask)
    i.netif_set_up                           0x0800c6c8   Section        0  netif.o(i.netif_set_up)
    i.pbuf_alloc                             0x0800c6e8   Section        0  pbuf.o(i.pbuf_alloc)
    i.pbuf_alloced_custom                    0x0800c7fc   Section        0  pbuf.o(i.pbuf_alloced_custom)
    i.pbuf_cat                               0x0800c850   Section        0  pbuf.o(i.pbuf_cat)
    i.pbuf_chain                             0x0800c8fc   Section        0  pbuf.o(i.pbuf_chain)
    i.pbuf_clen                              0x0800c90e   Section        0  pbuf.o(i.pbuf_clen)
    i.pbuf_copy                              0x0800c920   Section        0  pbuf.o(i.pbuf_copy)
    i.pbuf_copy_partial                      0x0800ca90   Section        0  pbuf.o(i.pbuf_copy_partial)
    i.pbuf_free                              0x0800cb90   Section        0  pbuf.o(i.pbuf_free)
    i.pbuf_header                            0x0800cbf0   Section        0  pbuf.o(i.pbuf_header)
    i.pbuf_realloc                           0x0800ccbc   Section        0  pbuf.o(i.pbuf_realloc)
    i.pbuf_ref                               0x0800cd0a   Section        0  pbuf.o(i.pbuf_ref)
    i.pcb_new                                0x0800cd24   Section        0  api_msg.o(i.pcb_new)
    pcb_new                                  0x0800cd25   Thumb Code   124  api_msg.o(i.pcb_new)
    i.plug_holes                             0x0800cda8   Section        0  mem.o(i.plug_holes)
    plug_holes                               0x0800cda9   Thumb Code    86  mem.o(i.plug_holes)
    i.poll_tcp                               0x0800ce04   Section        0  api_msg.o(i.poll_tcp)
    poll_tcp                                 0x0800ce05   Thumb Code    88  api_msg.o(i.poll_tcp)
    i.raw_bind                               0x0800ce5c   Section        0  raw.o(i.raw_bind)
    i.raw_input                              0x0800ce68   Section        0  raw.o(i.raw_input)
    i.raw_new                                0x0800cedc   Section        0  raw.o(i.raw_new)
    i.raw_recv                               0x0800cf08   Section        0  raw.o(i.raw_recv)
    i.raw_remove                             0x0800cf10   Section        0  raw.o(i.raw_remove)
    i.recv_raw                               0x0800cf3c   Section        0  api_msg.o(i.recv_raw)
    recv_raw                                 0x0800cf3d   Thumb Code   118  api_msg.o(i.recv_raw)
    i.recv_tcp                               0x0800cfb8   Section        0  api_msg.o(i.recv_tcp)
    recv_tcp                                 0x0800cfb9   Thumb Code   114  api_msg.o(i.recv_tcp)
    i.recv_udp                               0x0800d02a   Section        0  api_msg.o(i.recv_udp)
    recv_udp                                 0x0800d02b   Thumb Code   112  api_msg.o(i.recv_udp)
    i.run_init                               0x0800d09c   Section        0  task.o(i.run_init)
    i.sent_tcp                               0x0800d1a0   Section        0  api_msg.o(i.sent_tcp)
    sent_tcp                                 0x0800d1a1   Thumb Code    88  api_msg.o(i.sent_tcp)
    i.setup_tcp                              0x0800d1f8   Section        0  api_msg.o(i.setup_tcp)
    setup_tcp                                0x0800d1f9   Thumb Code    50  api_msg.o(i.setup_tcp)
    i.slink_client_init                      0x0800d23c   Section        0  task.o(i.slink_client_init)
    i.slink_client_task                      0x0800d368   Section        0  task.o(i.slink_client_task)
    i.slink_svr_task                         0x0800d430   Section        0  task.o(i.slink_svr_task)
    i.sys_arch_mbox_fetch                    0x0800d57c   Section        0  sys_arch.o(i.sys_arch_mbox_fetch)
    i.sys_arch_mbox_tryfetch                 0x0800d604   Section        0  sys_arch.o(i.sys_arch_mbox_tryfetch)
    i.sys_arch_sem_wait                      0x0800d60a   Section        0  sys_arch.o(i.sys_arch_sem_wait)
    i.sys_init                               0x0800d65a   Section        0  sys_arch.o(i.sys_init)
    i.sys_mbox_free                          0x0800d65c   Section        0  sys_arch.o(i.sys_mbox_free)
    i.sys_mbox_new                           0x0800d674   Section        0  sys_arch.o(i.sys_mbox_new)
    i.sys_mbox_post                          0x0800d6a0   Section        0  sys_arch.o(i.sys_mbox_post)
    i.sys_mbox_set_invalid                   0x0800d6f4   Section        0  sys_arch.o(i.sys_mbox_set_invalid)
    i.sys_mbox_trypost                       0x0800d70c   Section        0  sys_arch.o(i.sys_mbox_trypost)
    i.sys_mbox_valid                         0x0800d740   Section        0  sys_arch.o(i.sys_mbox_valid)
    i.sys_sem_free                           0x0800d75c   Section        0  sys_arch.o(i.sys_sem_free)
    i.sys_sem_new                            0x0800d768   Section        0  sys_arch.o(i.sys_sem_new)
    i.sys_sem_set_invalid                    0x0800d790   Section        0  sys_arch.o(i.sys_sem_set_invalid)
    i.sys_sem_signal                         0x0800d7a8   Section        0  sys_arch.o(i.sys_sem_signal)
    i.sys_sem_valid                          0x0800d7b8   Section        0  sys_arch.o(i.sys_sem_valid)
    i.sys_thread_new                         0x0800d7d8   Section        0  sys_arch.o(i.sys_thread_new)
    i.sys_timeout                            0x0800d888   Section        0  timers.o(i.sys_timeout)
    i.sys_timeouts_init                      0x0800d8e4   Section        0  timers.o(i.sys_timeouts_init)
    i.sys_timeouts_mbox_fetch                0x0800d92c   Section        0  timers.o(i.sys_timeouts_mbox_fetch)
    i.sys_untimeout                          0x0800d990   Section        0  timers.o(i.sys_untimeout)
    i.system_init                            0x0800d9d8   Section        0  main.o(i.system_init)
    i.tcp_abandon                            0x0800db2c   Section        0  tcp.o(i.tcp_abandon)
    i.tcp_abort                              0x0800dbb8   Section        0  tcp.o(i.tcp_abort)
    i.tcp_accept                             0x0800dbbe   Section        0  tcp.o(i.tcp_accept)
    i.tcp_accept_null                        0x0800dbc2   Section        0  tcp.o(i.tcp_accept_null)
    tcp_accept_null                          0x0800dbc3   Thumb Code     6  tcp.o(i.tcp_accept_null)
    i.tcp_alloc                              0x0800dbc8   Section        0  tcp.o(i.tcp_alloc)
    i.tcp_arg                                0x0800dcc0   Section        0  tcp.o(i.tcp_arg)
    i.tcp_bind                               0x0800dcc4   Section        0  tcp.o(i.tcp_bind)
    i.tcp_close                              0x0800ddb4   Section        0  tcp.o(i.tcp_close)
    i.tcp_close_shutdown                     0x0800ddc8   Section        0  tcp.o(i.tcp_close_shutdown)
    tcp_close_shutdown                       0x0800ddc9   Thumb Code   290  tcp.o(i.tcp_close_shutdown)
    i.tcp_create_segment                     0x0800def0   Section        0  tcp_out.o(i.tcp_create_segment)
    tcp_create_segment                       0x0800def1   Thumb Code   156  tcp_out.o(i.tcp_create_segment)
    i.tcp_eff_send_mss                       0x0800df8c   Section        0  tcp.o(i.tcp_eff_send_mss)
    i.tcp_enqueue_flags                      0x0800dfac   Section        0  tcp_out.o(i.tcp_enqueue_flags)
    i.tcp_err                                0x0800e054   Section        0  tcp.o(i.tcp_err)
    i.tcp_fasttmr                            0x0800e05c   Section        0  tcp.o(i.tcp_fasttmr)
    i.tcp_init                               0x0800e0b8   Section        0  tcp.o(i.tcp_init)
    i.tcp_input                              0x0800e0bc   Section        0  tcp_in.o(i.tcp_input)
    i.tcp_keepalive                          0x0800e3cc   Section        0  tcp_out.o(i.tcp_keepalive)
    i.tcp_listen_input                       0x0800e408   Section        0  tcp_in.o(i.tcp_listen_input)
    tcp_listen_input                         0x0800e409   Thumb Code   208  tcp_in.o(i.tcp_listen_input)
    i.tcp_listen_with_backlog                0x0800e4ec   Section        0  tcp.o(i.tcp_listen_with_backlog)
    i.tcp_new                                0x0800e5e0   Section        0  tcp.o(i.tcp_new)
    i.tcp_new_port                           0x0800e5e8   Section        0  tcp.o(i.tcp_new_port)
    tcp_new_port                             0x0800e5e9   Thumb Code    82  tcp.o(i.tcp_new_port)
    i.tcp_next_iss                           0x0800e644   Section        0  tcp.o(i.tcp_next_iss)
    i.tcp_output                             0x0800e654   Section        0  tcp_out.o(i.tcp_output)
    i.tcp_output_alloc_header                0x0800e7dc   Section        0  tcp_out.o(i.tcp_output_alloc_header)
    tcp_output_alloc_header                  0x0800e7dd   Thumb Code   106  tcp_out.o(i.tcp_output_alloc_header)
    i.tcp_output_segment                     0x0800e848   Section        0  tcp_out.o(i.tcp_output_segment)
    tcp_output_segment                       0x0800e849   Thumb Code   170  tcp_out.o(i.tcp_output_segment)
    i.tcp_parseopt                           0x0800e8f8   Section        0  tcp_in.o(i.tcp_parseopt)
    tcp_parseopt                             0x0800e8f9   Thumb Code   124  tcp_in.o(i.tcp_parseopt)
    i.tcp_pbuf_prealloc                      0x0800e978   Section        0  tcp_out.o(i.tcp_pbuf_prealloc)
    tcp_pbuf_prealloc                        0x0800e979   Thumb Code    78  tcp_out.o(i.tcp_pbuf_prealloc)
    i.tcp_pcb_purge                          0x0800e9c6   Section        0  tcp.o(i.tcp_pcb_purge)
    i.tcp_pcb_remove                         0x0800ea00   Section        0  tcp.o(i.tcp_pcb_remove)
    i.tcp_poll                               0x0800ea58   Section        0  tcp.o(i.tcp_poll)
    i.tcp_process                            0x0800ea64   Section        0  tcp_in.o(i.tcp_process)
    tcp_process                              0x0800ea65   Thumb Code   804  tcp_in.o(i.tcp_process)
    i.tcp_process_refused_data               0x0800eda8   Section        0  tcp.o(i.tcp_process_refused_data)
    i.tcp_receive                            0x0800ee0c   Section        0  tcp_in.o(i.tcp_receive)
    tcp_receive                              0x0800ee0d   Thumb Code  1028  tcp_in.o(i.tcp_receive)
    i.tcp_recv                               0x0800f210   Section        0  tcp.o(i.tcp_recv)
    i.tcp_recv_null                          0x0800f214   Section        0  tcp.o(i.tcp_recv_null)
    i.tcp_recved                             0x0800f238   Section        0  tcp.o(i.tcp_recved)
    i.tcp_rexmit                             0x0800f270   Section        0  tcp_out.o(i.tcp_rexmit)
    i.tcp_rexmit_fast                        0x0800f2c2   Section        0  tcp_out.o(i.tcp_rexmit_fast)
    i.tcp_rexmit_rto                         0x0800f31a   Section        0  tcp_out.o(i.tcp_rexmit_rto)
    i.tcp_rst                                0x0800f348   Section        0  tcp_out.o(i.tcp_rst)
    i.tcp_seg_free                           0x0800f3be   Section        0  tcp.o(i.tcp_seg_free)
    i.tcp_segs_free                          0x0800f3da   Section        0  tcp.o(i.tcp_segs_free)
    i.tcp_send_empty_ack                     0x0800f3ec   Section        0  tcp_out.o(i.tcp_send_empty_ack)
    i.tcp_send_fin                           0x0800f434   Section        0  tcp_out.o(i.tcp_send_fin)
    i.tcp_sent                               0x0800f47a   Section        0  tcp.o(i.tcp_sent)
    i.tcp_shutdown                           0x0800f47e   Section        0  tcp.o(i.tcp_shutdown)
    i.tcp_slowtmr                            0x0800f4cc   Section        0  tcp.o(i.tcp_slowtmr)
    i.tcp_timer_needed                       0x0800f72c   Section        0  timers.o(i.tcp_timer_needed)
    i.tcp_timewait_input                     0x0800f760   Section        0  tcp_in.o(i.tcp_timewait_input)
    tcp_timewait_input                       0x0800f761   Thumb Code    92  tcp_in.o(i.tcp_timewait_input)
    i.tcp_tmr                                0x0800f7cc   Section        0  tcp.o(i.tcp_tmr)
    i.tcp_update_rcv_ann_wnd                 0x0800f7ec   Section        0  tcp.o(i.tcp_update_rcv_ann_wnd)
    i.tcp_write                              0x0800f820   Section        0  tcp_out.o(i.tcp_write)
    i.tcp_zero_window_probe                  0x0800fb98   Section        0  tcp_out.o(i.tcp_zero_window_probe)
    i.tcpip_apimsg                           0x0800fc2c   Section        0  tcpip.o(i.tcpip_apimsg)
    i.tcpip_init                             0x0800fc6c   Section        0  tcpip.o(i.tcpip_init)
    i.tcpip_input                            0x0800fcb4   Section        0  tcpip.o(i.tcpip_input)
    i.tcpip_tcp_timer                        0x0800fd00   Section        0  timers.o(i.tcpip_tcp_timer)
    tcpip_tcp_timer                          0x0800fd01   Thumb Code    40  timers.o(i.tcpip_tcp_timer)
    i.tcpip_thread                           0x0800fd38   Section        0  tcpip.o(i.tcpip_thread)
    tcpip_thread                             0x0800fd39   Thumb Code   122  tcpip.o(i.tcpip_thread)
    i.u2_printf                              0x0800fdbc   Section        0  usart2.o(i.u2_printf)
    i.uart_client_init                       0x0800fe08   Section        0  task.o(i.uart_client_init)
    i.uart_client_task                       0x0800ff24   Section        0  task.o(i.uart_client_task)
    i.uart_data_task                         0x0800ffec   Section        0  task.o(i.uart_data_task)
    i.uart_init                              0x08010008   Section        0  usart.o(i.uart_init)
    i.uart_svr_task                          0x080100b4   Section        0  task.o(i.uart_svr_task)
    i.udp_bind                               0x08010154   Section        0  udp.o(i.udp_bind)
    i.udp_connect                            0x080101ec   Section        0  udp.o(i.udp_connect)
    i.udp_init                               0x08010238   Section        0  udp.o(i.udp_init)
    i.udp_input                              0x0801023c   Section        0  udp.o(i.udp_input)
    i.udp_new                                0x080103a8   Section        0  udp.o(i.udp_new)
    i.udp_recv                               0x080103c2   Section        0  udp.o(i.udp_recv)
    i.udp_remove                             0x080103c8   Section        0  udp.o(i.udp_remove)
    i.udp_sendto_if                          0x080103f4   Section        0  udp.o(i.udp_sendto_if)
    i.usart2_init                            0x080104ac   Section        0  usart2.o(i.usart2_init)
    i.usart_Data                             0x0801057c   Section        0  usart2.o(i.usart_Data)
    locale$$code                             0x080105c8   Section       44  lc_ctype_c.o(locale$$code)
    locale$$code                             0x080105f4   Section       44  lc_numeric_c.o(locale$$code)
    x$fpl$fpinit                             0x08010620   Section       10  fpinit.o(x$fpl$fpinit)
    $v0                                      0x08010620   Number         0  fpinit.o(x$fpl$fpinit)
    x$fpl$printf1                            0x0801062a   Section        4  printf1.o(x$fpl$printf1)
    $v0                                      0x0801062a   Number         0  printf1.o(x$fpl$printf1)
    x$fpl$usenofp                            0x0801062e   Section        0  usenofp.o(x$fpl$usenofp)
    .constdata                               0x08010630   Section      576  publicfunc.o(.constdata)
    auchCRCHi                                0x08010630   Data         256  publicfunc.o(.constdata)
    auchCRCLo                                0x08010730   Data         256  publicfunc.o(.constdata)
    gPwArgs                                  0x08010830   Data          64  publicfunc.o(.constdata)
    .constdata                               0x08010870   Section       36  malloc.o(.constdata)
    .constdata                               0x08010894   Section       12  etharp.o(.constdata)
    .constdata                               0x080108a0   Section        4  ip_addr.o(.constdata)
    .constdata                               0x080108a4   Section        4  ip_addr.o(.constdata)
    .constdata                               0x080108a8   Section       56  memp.o(.constdata)
    memp_sizes                               0x080108a8   Data          28  memp.o(.constdata)
    memp_num                                 0x080108c4   Data          28  memp.o(.constdata)
    .constdata                               0x080108e0   Section        4  sys_arch.o(.constdata)
    .constdata                               0x080108e4   Section       84  tcp.o(.constdata)
    .constdata                               0x08010938   Section      148  os_cfg_app.o(.constdata)
    .constdata                               0x080109cc   Section       40  _printf_hex_int_ll_ptr.o(.constdata)
    uc_hextab                                0x080109cc   Data          20  _printf_hex_int_ll_ptr.o(.constdata)
    lc_hextab                                0x080109e0   Data          20  _printf_hex_int_ll_ptr.o(.constdata)
    .constdata                               0x080109f4   Section       17  __printf_flags_ss_wp.o(.constdata)
    maptable                                 0x080109f4   Data          17  __printf_flags_ss_wp.o(.constdata)
    .constdata                               0x08010a08   Section        8  _printf_wctomb.o(.constdata)
    initial_mbstate                          0x08010a08   Data           8  _printf_wctomb.o(.constdata)
    .constdata                               0x08010a10   Section      148  bigflt0.o(.constdata)
    tenpwrs_x                                0x08010a10   Data          60  bigflt0.o(.constdata)
    tenpwrs_i                                0x08010a4c   Data          64  bigflt0.o(.constdata)
    .conststring                             0x08010aa4   Section      117  tcp.o(.conststring)
    locale$$data                             0x08010b3c   Section      272  lc_ctype_c.o(locale$$data)
    __lcctype_c_name                         0x08010b40   Data           2  lc_ctype_c.o(locale$$data)
    __lcctype_c_start                        0x08010b48   Data           0  lc_ctype_c.o(locale$$data)
    locale$$data                             0x08010c4c   Section       28  lc_numeric_c.o(locale$$data)
    __lcctype_c_end                          0x08010c4c   Data           0  lc_ctype_c.o(locale$$data)
    __lcnum_c_name                           0x08010c50   Data           2  lc_numeric_c.o(locale$$data)
    __lcnum_c_start                          0x08010c58   Data           0  lc_numeric_c.o(locale$$data)
    __lcnum_c_point                          0x08010c64   Data           0  lc_numeric_c.o(locale$$data)
    __lcnum_c_thousands                      0x08010c66   Data           0  lc_numeric_c.o(locale$$data)
    __lcnum_c_grouping                       0x08010c67   Data           0  lc_numeric_c.o(locale$$data)
    __lcnum_c_end                            0x08010c68   Data           0  lc_numeric_c.o(locale$$data)
    .ARM.__AT_0x10000000                     0x10000000   Section    61440  malloc.o(.ARM.__AT_0x10000000)
    .ARM.__AT_0x1000F000                     0x1000f000   Section     3840  malloc.o(.ARM.__AT_0x1000F000)
    .data                                    0x20000000   Section        4  publicfunc.o(.data)
    HwID                                     0x20000000   Data           4  publicfunc.o(.data)
    .data                                    0x20000004   Section        1  task.o(.data)
    times                                    0x20000004   Data           1  task.o(.data)
    .data                                    0x20000008   Section       12  stm32f4x7_eth.o(.data)
    .data                                    0x20000014   Section       16  stm32f4xx_rcc.o(.data)
    APBAHBPrescTable                         0x20000014   Data          16  stm32f4xx_rcc.o(.data)
    .data                                    0x20000024   Section        4  delay.o(.data)
    fac_us                                   0x20000024   Data           1  delay.o(.data)
    fac_ms                                   0x20000026   Data           2  delay.o(.data)
    .data                                    0x20000028   Section        4  usart.o(.data)
    .data                                    0x2000002c   Section        2  timer.o(.data)
    .data                                    0x20000030   Section       16  lan8720.o(.data)
    .data                                    0x20000040   Section        8  si4432.o(.data)
    gMyRxAddr                                0x20000044   Data           4  si4432.o(.data)
    .data                                    0x20000048   Section        2  w25qxx.o(.data)
    .data                                    0x2000004c   Section        4  lwip.o(.data)
    .data                                    0x20000050   Section        4  lwip.o(.data)
    .data                                    0x20000054   Section        2  usart2.o(.data)
    .data                                    0x20000058   Section        4  slinkpktrecv.o(.data)
    MyAddr                                   0x20000058   Data           4  slinkpktrecv.o(.data)
    .data                                    0x2000005c   Section        4  clientpktrecv.o(.data)
    .data                                    0x20000060   Section       36  malloc.o(.data)
    .data                                    0x20000084   Section        4  dhcp.o(.data)
    xid                                      0x20000084   Data           4  dhcp.o(.data)
    .data                                    0x20000088   Section        1  etharp.o(.data)
    .data                                    0x2000008c   Section       20  ip.o(.data)
    .data                                    0x200000a0   Section        8  ip_frag.o(.data)
    .data                                    0x200000a8   Section       16  mem.o(.data)
    .data                                    0x200000b8   Section        4  memp.o(.data)
    .data                                    0x200000bc   Section       12  netif.o(.data)
    .data                                    0x200000c8   Section        4  raw.o(.data)
    raw_pcbs                                 0x200000c8   Data           4  raw.o(.data)
    .data                                    0x200000cc   Section       36  tcp.o(.data)
    tcp_timer                                0x200000cd   Data           1  tcp.o(.data)
    tcp_timer_ctr                            0x200000ce   Data           1  tcp.o(.data)
    tcp_port                                 0x200000d0   Data           2  tcp.o(.data)
    iss                                      0x200000d4   Data           4  tcp.o(.data)
    .data                                    0x200000f0   Section       28  tcp_in.o(.data)
    flags                                    0x200000f0   Data           1  tcp_in.o(.data)
    .data                                    0x2000010c   Section        8  tcpip.o(.data)
    tcpip_init_done                          0x2000010c   Data           4  tcpip.o(.data)
    tcpip_init_done_arg                      0x20000110   Data           4  tcpip.o(.data)
    .data                                    0x20000114   Section        8  timers.o(.data)
    .data                                    0x2000011c   Section        8  udp.o(.data)
    udp_port                                 0x2000011c   Data           2  udp.o(.data)
    .data                                    0x20000124   Section        4  cpu_core.o(.data)
    .data                                    0x20000128   Section        4  os_cpu_c.o(.data)
    .data                                    0x2000012c   Section        8  os_prio.o(.data)
    .data                                    0x20000134   Section        4  os_var.o(.data)
    .data                                    0x20000138   Section        4  os_var.o(.data)
    .data                                    0x2000013c   Section        4  os_var.o(.data)
    .data                                    0x20000140   Section        4  os_var.o(.data)
    .data                                    0x20000144   Section        4  os_var.o(.data)
    .data                                    0x20000148   Section        4  os_var.o(.data)
    .data                                    0x2000014c   Section        4  os_var.o(.data)
    .data                                    0x20000150   Section        4  os_var.o(.data)
    .data                                    0x20000154   Section        1  os_var.o(.data)
    .data                                    0x20000155   Section        1  os_var.o(.data)
    .data                                    0x20000158   Section        4  os_var.o(.data)
    .data                                    0x2000015c   Section        4  os_var.o(.data)
    .data                                    0x20000160   Section        2  os_var.o(.data)
    .data                                    0x20000162   Section        2  os_var.o(.data)
    .data                                    0x20000164   Section        2  os_var.o(.data)
    .data                                    0x20000168   Section        4  os_var.o(.data)
    .data                                    0x2000016c   Section        4  os_var.o(.data)
    .data                                    0x20000170   Section        2  os_var.o(.data)
    .data                                    0x20000174   Section        4  os_var.o(.data)
    .data                                    0x20000178   Section        2  os_var.o(.data)
    .data                                    0x2000017c   Section        4  os_var.o(.data)
    .data                                    0x20000180   Section        2  os_var.o(.data)
    .data                                    0x20000182   Section        1  os_var.o(.data)
    .data                                    0x20000183   Section        1  os_var.o(.data)
    .data                                    0x20000184   Section        1  os_var.o(.data)
    .data                                    0x20000188   Section        4  os_var.o(.data)
    .data                                    0x2000018c   Section        2  os_var.o(.data)
    .data                                    0x20000190   Section        4  os_var.o(.data)
    .data                                    0x20000194   Section        4  os_var.o(.data)
    .data                                    0x20000198   Section        4  os_var.o(.data)
    .data                                    0x2000019c   Section        1  os_var.o(.data)
    .data                                    0x200001a0   Section        4  os_var.o(.data)
    .data                                    0x200001a4   Section        1  os_var.o(.data)
    .data                                    0x200001a8   Section        4  os_var.o(.data)
    .data                                    0x200001ac   Section        2  os_var.o(.data)
    .data                                    0x200001ae   Section        1  os_var.o(.data)
    .data                                    0x200001b0   Section        2  os_var.o(.data)
    .data                                    0x200001b2   Section        2  os_var.o(.data)
    .data                                    0x200001b4   Section        4  os_var.o(.data)
    .data                                    0x200001b8   Section        4  os_var.o(.data)
    .data                                    0x200001bc   Section        4  os_var.o(.data)
    .data                                    0x200001c0   Section        1  os_var.o(.data)
    .data                                    0x200001c4   Section        4  os_var.o(.data)
    .data                                    0x200001c8   Section        4  os_var.o(.data)
    .data                                    0x200001cc   Section        4  os_var.o(.data)
    .data                                    0x200001d0   Section        2  os_var.o(.data)
    .data                                    0x200001d2   Section        1  os_var.o(.data)
    .data                                    0x200001d4   Section        4  os_var.o(.data)
    .data                                    0x200001d8   Section        4  os_var.o(.data)
    .data                                    0x200001dc   Section        4  os_var.o(.data)
    .data                                    0x200001e0   Section        4  os_var.o(.data)
    .data                                    0x200001e4   Section        4  os_var.o(.data)
    .data                                    0x200001e8   Section        4  os_var.o(.data)
    .data                                    0x200001ec   Section        4  os_var.o(.data)
    .data                                    0x200001f0   Section        4  os_var.o(.data)
    .data                                    0x200001f4   Section        4  os_var.o(.data)
    .bss                                     0x200001f8   Section     4424  task.o(.bss)
    .bss                                     0x20001340   Section       12  stm32f4x7_eth.o(.bss)
    .bss                                     0x2000134c   Section      788  lwip.o(.bss)
    .bss                                     0x20001660   Section      200  usart2.o(.bss)
    .bss                                     0x20001728   Section     1316  roomflashsave.o(.bss)
    .bss                                     0x20001c4c   Section    102400  malloc.o(.bss)
    .bss                                     0x2001ac4c   Section     6400  malloc.o(.bss)
    .bss                                     0x2001c54c   Section       50  dhcp.o(.bss)
    .bss                                     0x2001c580   Section      200  etharp.o(.bss)
    arp_table                                0x2001c580   Data         200  etharp.o(.bss)
    .bss                                     0x2001c648   Section       40  mem.o(.bss)
    mem_mutex                                0x2001c648   Data          40  mem.o(.bss)
    .bss                                     0x2001c670   Section       56  memp.o(.bss)
    memp_tab                                 0x2001c670   Data          56  memp.o(.bss)
    .bss                                     0x2001c6a8   Section      196  sys_arch.o(.bss)
    .bss                                     0x2001c76c   Section       20  tcp_in.o(.bss)
    .bss                                     0x2001c780   Section       48  tcpip.o(.bss)
    mbox                                     0x2001c780   Data          48  tcpip.o(.bss)
    .bss                                     0x2001c7b0   Section       16  cpu_core.o(.bss)
    .bss                                     0x2001c7c0   Section      512  os_cfg_app.o(.bss)
    .bss                                     0x2001c9c0   Section      320  os_cfg_app.o(.bss)
    .bss                                     0x2001cb00   Section      512  os_cfg_app.o(.bss)
    .bss                                     0x2001cd00   Section      512  os_cfg_app.o(.bss)
    .bss                                     0x2001cf00   Section     1600  os_cfg_app.o(.bss)
    .bss                                     0x2001d540   Section      512  os_cfg_app.o(.bss)
    .bss                                     0x2001d740   Section      512  os_cfg_app.o(.bss)
    .bss                                     0x2001d940   Section      136  os_cfg_app.o(.bss)
    .bss                                     0x2001d9c8   Section      512  os_cfg_app.o(.bss)
    .bss                                     0x2001dbc8   Section      136  os_cfg_app.o(.bss)
    .bss                                     0x2001dc50   Section      196  os_var.o(.bss)
    .bss                                     0x2001dd14   Section      196  os_var.o(.bss)
    .bss                                     0x2001ddd8   Section       12  os_var.o(.bss)
    .bss                                     0x2001dde4   Section      768  os_var.o(.bss)
    .bss                                     0x2001e0e4   Section      196  os_var.o(.bss)
    .bss                                     0x2001e1a8   Section      196  os_var.o(.bss)
    .bss                                     0x2001e26c   Section      196  os_var.o(.bss)
    .bss                                     0x2001e330   Section       96  libspace.o(.bss)
    HEAP                                     0x2001e390   Section        0  startup_stm32f40_41xxx.o(HEAP)
    STACK                                    0x2001e390   Section     1024  startup_stm32f40_41xxx.o(STACK)
    Heap_Mem                                 0x2001e390   Data           0  startup_stm32f40_41xxx.o(HEAP)
    Stack_Mem                                0x2001e390   Data        1024  startup_stm32f40_41xxx.o(STACK)
    __initial_sp                             0x2001e790   Data           0  startup_stm32f40_41xxx.o(STACK)
    .ARM.__AT_0x68000000                     0x68000000   Section    204800  malloc.o(.ARM.__AT_0x68000000)
    .ARM.__AT_0x68032000                     0x68032000   Section    12800  malloc.o(.ARM.__AT_0x68032000)

    Global Symbols

    Symbol Name                              Value     Ov Type        Size  Object(Section)

    BuildAttributes$$THM_ISAv4$E$P$D$K$B$S$7EM$VFPi3$EXTD16$VFPS$VFMA$PE$A:L22UL41UL21$X:L11$S22US41US21$IEEE1$IW$USESV6$~STKCKD$USESV7$~SHL$OTIME$ROPI$IEEEJ$EBA8$UX$STANDARDLIB$REQ8$PRES8$EABIv2 0x00000000   Number         0  anon$$obj.o ABSOLUTE
    __ARM_use_no_argv                        0x00000000   Number         0  main.o ABSOLUTE
    _printf_flags                            0x00000000   Number         0  printf_stubs.o ABSOLUTE
    _printf_return_value                     0x00000000   Number         0  printf_stubs.o ABSOLUTE
    _printf_sizespec                         0x00000000   Number         0  printf_stubs.o ABSOLUTE
    _printf_widthprec                        0x00000000   Number         0  printf_stubs.o ABSOLUTE
    __ARM_exceptions_init                     - Undefined Weak Reference
    __alloca_initialize                       - Undefined Weak Reference
    __cpp_initialize__aeabi_                  - Undefined Weak Reference
    __cxa_finalize                            - Undefined Weak Reference
    __sigvec_lookup                           - Undefined Weak Reference
    _atexit_init                              - Undefined Weak Reference
    _call_atexit_fns                          - Undefined Weak Reference
    _clock_init                               - Undefined Weak Reference
    _fp_trap_init                             - Undefined Weak Reference
    _fp_trap_shutdown                         - Undefined Weak Reference
    _get_lc_collate                           - Undefined Weak Reference
    _get_lc_monetary                          - Undefined Weak Reference
    _get_lc_time                              - Undefined Weak Reference
    _getenv_init                              - Undefined Weak Reference
    _handle_redirection                       - Undefined Weak Reference
    _init_alloc                               - Undefined Weak Reference
    _init_user_alloc                          - Undefined Weak Reference
    _initio                                   - Undefined Weak Reference
    _mutex_acquire                            - Undefined Weak Reference
    _mutex_release                            - Undefined Weak Reference
    _printf_fp_hex                            - Undefined Weak Reference
    _printf_mbtowc                            - Undefined Weak Reference
    _printf_wc                                - Undefined Weak Reference
    _rand_init                                - Undefined Weak Reference
    _signal_finish                            - Undefined Weak Reference
    _signal_init                              - Undefined Weak Reference
    _terminate_alloc                          - Undefined Weak Reference
    _terminate_user_alloc                     - Undefined Weak Reference
    _terminateio                              - Undefined Weak Reference
    __Vectors_Size                           0x00000188   Number         0  startup_stm32f40_41xxx.o ABSOLUTE
    __Vectors                                0x08000000   Data           4  startup_stm32f40_41xxx.o(RESET)
    __Vectors_End                            0x08000188   Data           0  startup_stm32f40_41xxx.o(RESET)
    __main                                   0x08000189   Thumb Code     8  __main.o(!!!main)
    __scatterload                            0x08000191   Thumb Code     0  __scatter.o(!!!scatter)
    __scatterload_rt2                        0x08000191   Thumb Code    44  __scatter.o(!!!scatter)
    __scatterload_rt2_thumb_only             0x08000191   Thumb Code     0  __scatter.o(!!!scatter)
    __scatterload_null                       0x0800019f   Thumb Code     0  __scatter.o(!!!scatter)
    __decompress                             0x080001c5   Thumb Code    90  __dczerorl2.o(!!dczerorl2)
    __decompress1                            0x080001c5   Thumb Code     0  __dczerorl2.o(!!dczerorl2)
    __scatterload_zeroinit                   0x08000221   Thumb Code    28  __scatter_zi.o(!!handler_zi)
    _printf_n                                0x0800023d   Thumb Code     0  _printf_n.o(.ARM.Collect$$_printf_percent$$00000001)
    _printf_percent                          0x0800023d   Thumb Code     0  _printf_percent.o(.ARM.Collect$$_printf_percent$$00000000)
    _printf_p                                0x08000243   Thumb Code     0  _printf_p.o(.ARM.Collect$$_printf_percent$$00000002)
    _printf_f                                0x08000249   Thumb Code     0  _printf_f.o(.ARM.Collect$$_printf_percent$$00000003)
    _printf_e                                0x0800024f   Thumb Code     0  _printf_e.o(.ARM.Collect$$_printf_percent$$00000004)
    _printf_g                                0x08000255   Thumb Code     0  _printf_g.o(.ARM.Collect$$_printf_percent$$00000005)
    _printf_a                                0x0800025b   Thumb Code     0  _printf_a.o(.ARM.Collect$$_printf_percent$$00000006)
    _printf_ll                               0x08000261   Thumb Code     0  _printf_ll.o(.ARM.Collect$$_printf_percent$$00000007)
    _printf_i                                0x0800026b   Thumb Code     0  _printf_i.o(.ARM.Collect$$_printf_percent$$00000008)
    _printf_d                                0x08000271   Thumb Code     0  _printf_d.o(.ARM.Collect$$_printf_percent$$00000009)
    _printf_u                                0x08000277   Thumb Code     0  _printf_u.o(.ARM.Collect$$_printf_percent$$0000000A)
    _printf_o                                0x0800027d   Thumb Code     0  _printf_o.o(.ARM.Collect$$_printf_percent$$0000000B)
    _printf_x                                0x08000283   Thumb Code     0  _printf_x.o(.ARM.Collect$$_printf_percent$$0000000C)
    _printf_lli                              0x08000289   Thumb Code     0  _printf_lli.o(.ARM.Collect$$_printf_percent$$0000000D)
    _printf_lld                              0x0800028f   Thumb Code     0  _printf_lld.o(.ARM.Collect$$_printf_percent$$0000000E)
    _printf_llu                              0x08000295   Thumb Code     0  _printf_llu.o(.ARM.Collect$$_printf_percent$$0000000F)
    _printf_llo                              0x0800029b   Thumb Code     0  _printf_llo.o(.ARM.Collect$$_printf_percent$$00000010)
    _printf_llx                              0x080002a1   Thumb Code     0  _printf_llx.o(.ARM.Collect$$_printf_percent$$00000011)
    _printf_l                                0x080002a7   Thumb Code     0  _printf_l.o(.ARM.Collect$$_printf_percent$$00000012)
    _printf_c                                0x080002b1   Thumb Code     0  _printf_c.o(.ARM.Collect$$_printf_percent$$00000013)
    _printf_s                                0x080002b7   Thumb Code     0  _printf_s.o(.ARM.Collect$$_printf_percent$$00000014)
    _printf_lc                               0x080002bd   Thumb Code     0  _printf_lc.o(.ARM.Collect$$_printf_percent$$00000015)
    _printf_ls                               0x080002c3   Thumb Code     0  _printf_ls.o(.ARM.Collect$$_printf_percent$$00000016)
    _printf_percent_end                      0x080002c9   Thumb Code     0  _printf_percent_end.o(.ARM.Collect$$_printf_percent$$00000017)
    __rt_lib_init                            0x080002cd   Thumb Code     0  libinit.o(.ARM.Collect$$libinit$$00000000)
    __rt_lib_init_fp_1                       0x080002cf   Thumb Code     0  libinit2.o(.ARM.Collect$$libinit$$00000001)
    __rt_lib_init_heap_1                     0x080002d3   Thumb Code     0  libinit2.o(.ARM.Collect$$libinit$$00000008)
    __rt_lib_init_lc_common                  0x080002d3   Thumb Code     0  libinit2.o(.ARM.Collect$$libinit$$0000000D)
    __rt_lib_init_rand_1                     0x080002d3   Thumb Code     0  libinit2.o(.ARM.Collect$$libinit$$0000000C)
    __rt_lib_init_user_alloc_1               0x080002d3   Thumb Code     0  libinit2.o(.ARM.Collect$$libinit$$0000000A)
    __rt_lib_init_lc_collate_1               0x080002d9   Thumb Code     0  libinit2.o(.ARM.Collect$$libinit$$0000000F)
    __rt_lib_init_lc_ctype_2                 0x080002d9   Thumb Code     0  libinit2.o(.ARM.Collect$$libinit$$00000010)
    __rt_lib_init_lc_ctype_1                 0x080002e5   Thumb Code     0  libinit2.o(.ARM.Collect$$libinit$$00000011)
    __rt_lib_init_lc_monetary_1              0x080002e5   Thumb Code     0  libinit2.o(.ARM.Collect$$libinit$$00000013)
    __rt_lib_init_lc_numeric_2               0x080002e5   Thumb Code     0  libinit2.o(.ARM.Collect$$libinit$$00000014)
    __rt_lib_init_alloca_1                   0x080002ef   Thumb Code     0  libinit2.o(.ARM.Collect$$libinit$$0000002C)
    __rt_lib_init_argv_1                     0x080002ef   Thumb Code     0  libinit2.o(.ARM.Collect$$libinit$$0000002A)
    __rt_lib_init_atexit_1                   0x080002ef   Thumb Code     0  libinit2.o(.ARM.Collect$$libinit$$00000019)
    __rt_lib_init_clock_1                    0x080002ef   Thumb Code     0  libinit2.o(.ARM.Collect$$libinit$$0000001F)
    __rt_lib_init_cpp_1                      0x080002ef   Thumb Code     0  libinit2.o(.ARM.Collect$$libinit$$00000030)
    __rt_lib_init_exceptions_1               0x080002ef   Thumb Code     0  libinit2.o(.ARM.Collect$$libinit$$0000002E)
    __rt_lib_init_fp_trap_1                  0x080002ef   Thumb Code     0  libinit2.o(.ARM.Collect$$libinit$$0000001D)
    __rt_lib_init_getenv_1                   0x080002ef   Thumb Code     0  libinit2.o(.ARM.Collect$$libinit$$00000021)
    __rt_lib_init_lc_numeric_1               0x080002ef   Thumb Code     0  libinit2.o(.ARM.Collect$$libinit$$00000015)
    __rt_lib_init_lc_time_1                  0x080002ef   Thumb Code     0  libinit2.o(.ARM.Collect$$libinit$$00000017)
    __rt_lib_init_return                     0x080002ef   Thumb Code     0  libinit2.o(.ARM.Collect$$libinit$$00000031)
    __rt_lib_init_signal_1                   0x080002ef   Thumb Code     0  libinit2.o(.ARM.Collect$$libinit$$0000001B)
    __rt_lib_init_stdio_1                    0x080002ef   Thumb Code     0  libinit2.o(.ARM.Collect$$libinit$$00000023)
    __rt_lib_shutdown                        0x080002f1   Thumb Code     0  libshutdown.o(.ARM.Collect$$libshutdown$$00000000)
    __rt_lib_shutdown_fp_trap_1              0x080002f3   Thumb Code     0  libshutdown2.o(.ARM.Collect$$libshutdown$$00000006)
    __rt_lib_shutdown_heap_1                 0x080002f3   Thumb Code     0  libshutdown2.o(.ARM.Collect$$libshutdown$$0000000E)
    __rt_lib_shutdown_return                 0x080002f3   Thumb Code     0  libshutdown2.o(.ARM.Collect$$libshutdown$$0000000F)
    __rt_lib_shutdown_signal_1               0x080002f3   Thumb Code     0  libshutdown2.o(.ARM.Collect$$libshutdown$$00000009)
    __rt_lib_shutdown_stdio_1                0x080002f3   Thumb Code     0  libshutdown2.o(.ARM.Collect$$libshutdown$$00000003)
    __rt_lib_shutdown_user_alloc_1           0x080002f3   Thumb Code     0  libshutdown2.o(.ARM.Collect$$libshutdown$$0000000B)
    __rt_entry                               0x080002f5   Thumb Code     0  rtentry.o(.ARM.Collect$$rtentry$$00000000)
    __rt_entry_presh_1                       0x080002f5   Thumb Code     0  rtentry2.o(.ARM.Collect$$rtentry$$00000002)
    __rt_entry_sh                            0x080002f5   Thumb Code     0  rtentry4.o(.ARM.Collect$$rtentry$$00000004)
    __rt_entry_li                            0x080002fb   Thumb Code     0  rtentry2.o(.ARM.Collect$$rtentry$$0000000A)
    __rt_entry_postsh_1                      0x080002fb   Thumb Code     0  rtentry2.o(.ARM.Collect$$rtentry$$00000009)
    __rt_entry_main                          0x080002ff   Thumb Code     0  rtentry2.o(.ARM.Collect$$rtentry$$0000000D)
    __rt_entry_postli_1                      0x080002ff   Thumb Code     0  rtentry2.o(.ARM.Collect$$rtentry$$0000000C)
    __rt_exit                                0x08000307   Thumb Code     0  rtexit.o(.ARM.Collect$$rtexit$$00000000)
    __rt_exit_ls                             0x08000309   Thumb Code     0  rtexit2.o(.ARM.Collect$$rtexit$$00000003)
    __rt_exit_prels_1                        0x08000309   Thumb Code     0  rtexit2.o(.ARM.Collect$$rtexit$$00000002)
    __rt_exit_exit                           0x0800030d   Thumb Code     0  rtexit2.o(.ARM.Collect$$rtexit$$00000004)
    SaveCpuStatus                            0x08000315   Thumb Code     8  publicfunc.o(.emb_text)
    RestoreCpuStatus                         0x0800031d   Thumb Code     6  publicfunc.o(.emb_text)
    SaveCpuStatus_SLink                      0x08000323   Thumb Code     8  publicfunc.o(.emb_text)
    RestoreCpuStatus_SLink                   0x0800032b   Thumb Code     6  publicfunc.o(.emb_text)
    Reset_Handler                            0x08000331   Thumb Code     8  startup_stm32f40_41xxx.o(.text)
    NMI_Handler                              0x08000339   Thumb Code     2  startup_stm32f40_41xxx.o(.text)
    MemManage_Handler                        0x0800033d   Thumb Code     2  startup_stm32f40_41xxx.o(.text)
    BusFault_Handler                         0x0800033f   Thumb Code     2  startup_stm32f40_41xxx.o(.text)
    UsageFault_Handler                       0x08000341   Thumb Code     2  startup_stm32f40_41xxx.o(.text)
    SVC_Handler                              0x08000343   Thumb Code     2  startup_stm32f40_41xxx.o(.text)
    DebugMon_Handler                         0x08000345   Thumb Code     2  startup_stm32f40_41xxx.o(.text)
    ADC_IRQHandler                           0x0800034b   Thumb Code     0  startup_stm32f40_41xxx.o(.text)
    CAN1_RX0_IRQHandler                      0x0800034b   Thumb Code     0  startup_stm32f40_41xxx.o(.text)
    CAN1_RX1_IRQHandler                      0x0800034b   Thumb Code     0  startup_stm32f40_41xxx.o(.text)
    CAN1_SCE_IRQHandler                      0x0800034b   Thumb Code     0  startup_stm32f40_41xxx.o(.text)
    CAN1_TX_IRQHandler                       0x0800034b   Thumb Code     0  startup_stm32f40_41xxx.o(.text)
    CAN2_RX0_IRQHandler                      0x0800034b   Thumb Code     0  startup_stm32f40_41xxx.o(.text)
    CAN2_RX1_IRQHandler                      0x0800034b   Thumb Code     0  startup_stm32f40_41xxx.o(.text)
    CAN2_SCE_IRQHandler                      0x0800034b   Thumb Code     0  startup_stm32f40_41xxx.o(.text)
    CAN2_TX_IRQHandler                       0x0800034b   Thumb Code     0  startup_stm32f40_41xxx.o(.text)
    CRYP_IRQHandler                          0x0800034b   Thumb Code     0  startup_stm32f40_41xxx.o(.text)
    DCMI_IRQHandler                          0x0800034b   Thumb Code     0  startup_stm32f40_41xxx.o(.text)
    DMA1_Stream0_IRQHandler                  0x0800034b   Thumb Code     0  startup_stm32f40_41xxx.o(.text)
    DMA1_Stream1_IRQHandler                  0x0800034b   Thumb Code     0  startup_stm32f40_41xxx.o(.text)
    DMA1_Stream2_IRQHandler                  0x0800034b   Thumb Code     0  startup_stm32f40_41xxx.o(.text)
    DMA1_Stream3_IRQHandler                  0x0800034b   Thumb Code     0  startup_stm32f40_41xxx.o(.text)
    DMA1_Stream4_IRQHandler                  0x0800034b   Thumb Code     0  startup_stm32f40_41xxx.o(.text)
    DMA1_Stream5_IRQHandler                  0x0800034b   Thumb Code     0  startup_stm32f40_41xxx.o(.text)
    DMA1_Stream6_IRQHandler                  0x0800034b   Thumb Code     0  startup_stm32f40_41xxx.o(.text)
    DMA1_Stream7_IRQHandler                  0x0800034b   Thumb Code     0  startup_stm32f40_41xxx.o(.text)
    DMA2_Stream0_IRQHandler                  0x0800034b   Thumb Code     0  startup_stm32f40_41xxx.o(.text)
    DMA2_Stream1_IRQHandler                  0x0800034b   Thumb Code     0  startup_stm32f40_41xxx.o(.text)
    DMA2_Stream2_IRQHandler                  0x0800034b   Thumb Code     0  startup_stm32f40_41xxx.o(.text)
    DMA2_Stream3_IRQHandler                  0x0800034b   Thumb Code     0  startup_stm32f40_41xxx.o(.text)
    DMA2_Stream4_IRQHandler                  0x0800034b   Thumb Code     0  startup_stm32f40_41xxx.o(.text)
    DMA2_Stream5_IRQHandler                  0x0800034b   Thumb Code     0  startup_stm32f40_41xxx.o(.text)
    DMA2_Stream6_IRQHandler                  0x0800034b   Thumb Code     0  startup_stm32f40_41xxx.o(.text)
    DMA2_Stream7_IRQHandler                  0x0800034b   Thumb Code     0  startup_stm32f40_41xxx.o(.text)
    ETH_WKUP_IRQHandler                      0x0800034b   Thumb Code     0  startup_stm32f40_41xxx.o(.text)
    EXTI0_IRQHandler                         0x0800034b   Thumb Code     0  startup_stm32f40_41xxx.o(.text)
    EXTI15_10_IRQHandler                     0x0800034b   Thumb Code     0  startup_stm32f40_41xxx.o(.text)
    EXTI1_IRQHandler                         0x0800034b   Thumb Code     0  startup_stm32f40_41xxx.o(.text)
    EXTI2_IRQHandler                         0x0800034b   Thumb Code     0  startup_stm32f40_41xxx.o(.text)
    EXTI3_IRQHandler                         0x0800034b   Thumb Code     0  startup_stm32f40_41xxx.o(.text)
    EXTI4_IRQHandler                         0x0800034b   Thumb Code     0  startup_stm32f40_41xxx.o(.text)
    EXTI9_5_IRQHandler                       0x0800034b   Thumb Code     0  startup_stm32f40_41xxx.o(.text)
    FLASH_IRQHandler                         0x0800034b   Thumb Code     0  startup_stm32f40_41xxx.o(.text)
    FPU_IRQHandler                           0x0800034b   Thumb Code     0  startup_stm32f40_41xxx.o(.text)
    FSMC_IRQHandler                          0x0800034b   Thumb Code     0  startup_stm32f40_41xxx.o(.text)
    HASH_RNG_IRQHandler                      0x0800034b   Thumb Code     0  startup_stm32f40_41xxx.o(.text)
    I2C1_ER_IRQHandler                       0x0800034b   Thumb Code     0  startup_stm32f40_41xxx.o(.text)
    I2C1_EV_IRQHandler                       0x0800034b   Thumb Code     0  startup_stm32f40_41xxx.o(.text)
    I2C2_ER_IRQHandler                       0x0800034b   Thumb Code     0  startup_stm32f40_41xxx.o(.text)
    I2C2_EV_IRQHandler                       0x0800034b   Thumb Code     0  startup_stm32f40_41xxx.o(.text)
    I2C3_ER_IRQHandler                       0x0800034b   Thumb Code     0  startup_stm32f40_41xxx.o(.text)
    I2C3_EV_IRQHandler                       0x0800034b   Thumb Code     0  startup_stm32f40_41xxx.o(.text)
    OTG_FS_IRQHandler                        0x0800034b   Thumb Code     0  startup_stm32f40_41xxx.o(.text)
    OTG_FS_WKUP_IRQHandler                   0x0800034b   Thumb Code     0  startup_stm32f40_41xxx.o(.text)
    OTG_HS_EP1_IN_IRQHandler                 0x0800034b   Thumb Code     0  startup_stm32f40_41xxx.o(.text)
    OTG_HS_EP1_OUT_IRQHandler                0x0800034b   Thumb Code     0  startup_stm32f40_41xxx.o(.text)
    OTG_HS_IRQHandler                        0x0800034b   Thumb Code     0  startup_stm32f40_41xxx.o(.text)
    OTG_HS_WKUP_IRQHandler                   0x0800034b   Thumb Code     0  startup_stm32f40_41xxx.o(.text)
    PVD_IRQHandler                           0x0800034b   Thumb Code     0  startup_stm32f40_41xxx.o(.text)
    RCC_IRQHandler                           0x0800034b   Thumb Code     0  startup_stm32f40_41xxx.o(.text)
    RTC_Alarm_IRQHandler                     0x0800034b   Thumb Code     0  startup_stm32f40_41xxx.o(.text)
    RTC_WKUP_IRQHandler                      0x0800034b   Thumb Code     0  startup_stm32f40_41xxx.o(.text)
    SDIO_IRQHandler                          0x0800034b   Thumb Code     0  startup_stm32f40_41xxx.o(.text)
    SPI1_IRQHandler                          0x0800034b   Thumb Code     0  startup_stm32f40_41xxx.o(.text)
    SPI2_IRQHandler                          0x0800034b   Thumb Code     0  startup_stm32f40_41xxx.o(.text)
    SPI3_IRQHandler                          0x0800034b   Thumb Code     0  startup_stm32f40_41xxx.o(.text)
    TAMP_STAMP_IRQHandler                    0x0800034b   Thumb Code     0  startup_stm32f40_41xxx.o(.text)
    TIM1_BRK_TIM9_IRQHandler                 0x0800034b   Thumb Code     0  startup_stm32f40_41xxx.o(.text)
    TIM1_CC_IRQHandler                       0x0800034b   Thumb Code     0  startup_stm32f40_41xxx.o(.text)
    TIM1_TRG_COM_TIM11_IRQHandler            0x0800034b   Thumb Code     0  startup_stm32f40_41xxx.o(.text)
    TIM2_IRQHandler                          0x0800034b   Thumb Code     0  startup_stm32f40_41xxx.o(.text)
    TIM4_IRQHandler                          0x0800034b   Thumb Code     0  startup_stm32f40_41xxx.o(.text)
    TIM5_IRQHandler                          0x0800034b   Thumb Code     0  startup_stm32f40_41xxx.o(.text)
    TIM6_DAC_IRQHandler                      0x0800034b   Thumb Code     0  startup_stm32f40_41xxx.o(.text)
    TIM8_BRK_TIM12_IRQHandler                0x0800034b   Thumb Code     0  startup_stm32f40_41xxx.o(.text)
    TIM8_CC_IRQHandler                       0x0800034b   Thumb Code     0  startup_stm32f40_41xxx.o(.text)
    TIM8_TRG_COM_TIM14_IRQHandler            0x0800034b   Thumb Code     0  startup_stm32f40_41xxx.o(.text)
    TIM8_UP_TIM13_IRQHandler                 0x0800034b   Thumb Code     0  startup_stm32f40_41xxx.o(.text)
    UART4_IRQHandler                         0x0800034b   Thumb Code     0  startup_stm32f40_41xxx.o(.text)
    UART5_IRQHandler                         0x0800034b   Thumb Code     0  startup_stm32f40_41xxx.o(.text)
    USART3_IRQHandler                        0x0800034b   Thumb Code     0  startup_stm32f40_41xxx.o(.text)
    USART6_IRQHandler                        0x0800034b   Thumb Code     0  startup_stm32f40_41xxx.o(.text)
    WWDG_IRQHandler                          0x0800034b   Thumb Code     0  startup_stm32f40_41xxx.o(.text)
    __user_initial_stackheap                 0x0800034d   Thumb Code     0  startup_stm32f40_41xxx.o(.text)
    CPU_IntDis                               0x0800036d   Thumb Code     0  cpu_a.o(.text)
    CPU_IntEn                                0x08000371   Thumb Code     0  cpu_a.o(.text)
    CPU_SR_Save                              0x08000375   Thumb Code     0  cpu_a.o(.text)
    CPU_SR_Restore                           0x0800037d   Thumb Code     0  cpu_a.o(.text)
    CPU_WaitForInt                           0x08000383   Thumb Code     0  cpu_a.o(.text)
    CPU_WaitForExcept                        0x08000387   Thumb Code     0  cpu_a.o(.text)
    CPU_CntLeadZeros                         0x0800038b   Thumb Code     0  cpu_a.o(.text)
    CPU_CntTrailZeros                        0x08000391   Thumb Code     0  cpu_a.o(.text)
    CPU_RevBits                              0x0800039b   Thumb Code     0  cpu_a.o(.text)
    __use_no_semihosting                     0x080003a1   Thumb Code     2  use_no_semi_2.o(.text)
    __rt_ctype_table                         0x080003a5   Thumb Code    16  rt_ctype_table.o(.text)
    __c89vsprintf                            0x080003b5   Thumb Code    32  c89vsprintf.o(.text)
    __2printf                                0x080003d9   Thumb Code    20  __2printf.o(.text)
    _printf_pre_padding                      0x080003f1   Thumb Code    44  _printf_pad.o(.text)
    _printf_post_padding                     0x0800041d   Thumb Code    34  _printf_pad.o(.text)
    _printf_str                              0x0800043f   Thumb Code    82  _printf_str.o(.text)
    _printf_int_dec                          0x08000491   Thumb Code   100  _printf_dec.o(.text)
    _printf_longlong_hex                     0x08000505   Thumb Code    86  _printf_hex_int_ll_ptr.o(.text)
    _printf_int_hex                          0x0800055b   Thumb Code    28  _printf_hex_int_ll_ptr.o(.text)
    _printf_ll_hex                           0x08000577   Thumb Code    12  _printf_hex_int_ll_ptr.o(.text)
    _printf_hex_ptr                          0x08000583   Thumb Code    18  _printf_hex_int_ll_ptr.o(.text)
    __printf                                 0x08000599   Thumb Code   388  __printf_flags_ss_wp.o(.text)
    memcmp                                   0x08000721   Thumb Code    88  memcmp.o(.text)
    strlen                                   0x08000779   Thumb Code    62  strlen.o(.text)
    __aeabi_memcpy                           0x080007b7   Thumb Code     0  rt_memcpy_v6.o(.text)
    __rt_memcpy                              0x080007b7   Thumb Code   138  rt_memcpy_v6.o(.text)
    _memcpy_lastbytes                        0x0800081d   Thumb Code     0  rt_memcpy_v6.o(.text)
    __aeabi_memcpy4                          0x08000841   Thumb Code     0  rt_memcpy_w.o(.text)
    __aeabi_memcpy8                          0x08000841   Thumb Code     0  rt_memcpy_w.o(.text)
    __rt_memcpy_w                            0x08000841   Thumb Code   100  rt_memcpy_w.o(.text)
    _memcpy_lastbytes_aligned                0x08000889   Thumb Code     0  rt_memcpy_w.o(.text)
    __aeabi_memclr                           0x080008a5   Thumb Code     0  rt_memclr.o(.text)
    __rt_memclr                              0x080008a5   Thumb Code    68  rt_memclr.o(.text)
    _memset                                  0x080008a9   Thumb Code     0  rt_memclr.o(.text)
    __aeabi_memclr4                          0x080008e9   Thumb Code     0  rt_memclr_w.o(.text)
    __aeabi_memclr8                          0x080008e9   Thumb Code     0  rt_memclr_w.o(.text)
    __rt_memclr_w                            0x080008e9   Thumb Code    78  rt_memclr_w.o(.text)
    _memset_w                                0x080008ed   Thumb Code     0  rt_memclr_w.o(.text)
    strcmp                                   0x08000939   Thumb Code   128  strcmpv7m.o(.text)
    __use_two_region_memory                  0x080009b9   Thumb Code     2  heapauxi.o(.text)
    __rt_heap_escrow$2region                 0x080009bb   Thumb Code     2  heapauxi.o(.text)
    __rt_heap_expand$2region                 0x080009bd   Thumb Code     2  heapauxi.o(.text)
    __I$use$semihosting                      0x080009bf   Thumb Code     0  use_no_semi.o(.text)
    __use_no_semihosting_swi                 0x080009bf   Thumb Code     2  use_no_semi.o(.text)
    __rt_locale                              0x080009c1   Thumb Code     8  rt_locale_intlibspace.o(.text)
    _printf_truncate_signed                  0x080009c9   Thumb Code    18  _printf_truncate.o(.text)
    _printf_truncate_unsigned                0x080009db   Thumb Code    18  _printf_truncate.o(.text)
    _printf_int_common                       0x080009ed   Thumb Code   178  _printf_intcommon.o(.text)
    _printf_charcount                        0x08000a9f   Thumb Code    40  _printf_charcount.o(.text)
    _printf_char_common                      0x08000ad3   Thumb Code    32  _printf_char_common.o(.text)
    _sputc                                   0x08000af9   Thumb Code    10  _sputc.o(.text)
    _printf_cs_common                        0x08000b03   Thumb Code    20  _printf_char.o(.text)
    _printf_char                             0x08000b17   Thumb Code    16  _printf_char.o(.text)
    _printf_string                           0x08000b27   Thumb Code     8  _printf_char.o(.text)
    _printf_char_file                        0x08000b31   Thumb Code    32  _printf_char_file.o(.text)
    _printf_wctomb                           0x08000b55   Thumb Code   182  _printf_wctomb.o(.text)
    _printf_longlong_dec                     0x08000c11   Thumb Code   104  _printf_longlong_dec.o(.text)
    _printf_longlong_oct                     0x08000c89   Thumb Code    68  _printf_oct_int_ll.o(.text)
    _printf_int_oct                          0x08000ccd   Thumb Code    24  _printf_oct_int_ll.o(.text)
    _printf_ll_oct                           0x08000ce5   Thumb Code    12  _printf_oct_int_ll.o(.text)
    __user_libspace                          0x08000cf9   Thumb Code     8  libspace.o(.text)
    __user_perproc_libspace                  0x08000cf9   Thumb Code     0  libspace.o(.text)
    __user_perthread_libspace                0x08000cf9   Thumb Code     0  libspace.o(.text)
    _ll_udiv10                               0x08000d01   Thumb Code   138  lludiv10.o(.text)
    __lib_sel_fp_printf                      0x08000d8b   Thumb Code     2  _printf_fp_dec.o(.text)
    _printf_fp_dec_real                      0x08000f39   Thumb Code   616  _printf_fp_dec.o(.text)
    _printf_lcs_common                       0x080011a1   Thumb Code    20  _printf_wchar.o(.text)
    _printf_wchar                            0x080011b5   Thumb Code    16  _printf_wchar.o(.text)
    _printf_wstring                          0x080011c5   Thumb Code     8  _printf_wchar.o(.text)
    ferror                                   0x080011cd   Thumb Code     8  ferror.o(.text)
    _wcrtomb                                 0x080011d5   Thumb Code    64  _wcrtomb.o(.text)
    __user_setup_stackheap                   0x08001215   Thumb Code    74  sys_stackheap_outer.o(.text)
    _printf_fp_infnan                        0x08001261   Thumb Code   112  _printf_fp_infnan.o(.text)
    _btod_etento                             0x080012e1   Thumb Code   212  bigflt0.o(.text)
    exit                                     0x080013b9   Thumb Code    12  exit.o(.text)
    _btod_d2e                                0x080013c5   Thumb Code    62  btod.o(CL$$btod_d2e)
    _d2e_denorm_low                          0x08001403   Thumb Code    70  btod.o(CL$$btod_d2e_denorm_low)
    _d2e_norm_op1                            0x08001449   Thumb Code    96  btod.o(CL$$btod_d2e_norm_op1)
    __btod_div_common                        0x080014a9   Thumb Code   696  btod.o(CL$$btod_div_common)
    _e2e                                     0x080017e1   Thumb Code   198  btod.o(CL$$btod_e2e)
    _btod_ediv                               0x080018a7   Thumb Code    40  btod.o(CL$$btod_ediv)
    _btod_emul                               0x080018cf   Thumb Code    40  btod.o(CL$$btod_emul)
    __btod_mult_common                       0x080018f7   Thumb Code   580  btod.o(CL$$btod_mult_common)
    OSStartHighRdy                           0x08001b3d   Thumb Code     0  os_cpu_a.o(CODE)
    OSCtxSw                                  0x08001b5f   Thumb Code     0  os_cpu_a.o(CODE)
    OSIntCtxSw                               0x08001b69   Thumb Code     0  os_cpu_a.o(CODE)
    PendSV_Handler                           0x08001b73   Thumb Code     0  os_cpu_a.o(CODE)
    BEEP_Init                                0x08001be9   Thumb Code    56  beep.o(i.BEEP_Init)
    BSP_CPU_ClkFreq                          0x08001c25   Thumb Code    14  bsp.o(i.BSP_CPU_ClkFreq)
    CPU_Init                                 0x08001c35   Thumb Code    20  cpu_core.o(i.CPU_Init)
    CPU_NameClr                              0x08001c4d   Thumb Code    26  cpu_core.o(i.CPU_NameClr)
    CPU_TS_TmrFreqSet                        0x08001c6d   Thumb Code     6  cpu_core.o(i.CPU_TS_TmrFreqSet)
    CPU_TS_TmrInit                           0x08001c79   Thumb Code    38  bsp.o(i.CPU_TS_TmrInit)
    CPU_TS_TmrRd                             0x08001ca9   Thumb Code     6  bsp.o(i.CPU_TS_TmrRd)
    Check_Client_status                      0x08001cb5   Thumb Code    40  clientpktrecv.o(i.Check_Client_status)
    Client_AATT                              0x08001ce1   Thumb Code   194  clientpktrecv.o(i.Client_AATT)
    Client_Beat                              0x08001dc9   Thumb Code    36  clientpktrecv.o(i.Client_Beat)
    Client_Bulk                              0x08001dfd   Thumb Code  1254  clientpktrecv.o(i.Client_Bulk)
    Client_Cmd                               0x080022f9   Thumb Code    50  clientpktrecv.o(i.Client_Cmd)
    Client_Config                            0x08002331   Thumb Code   178  clientpktrecv.o(i.Client_Config)
    Client_Ctrl                              0x08002401   Thumb Code   864  clientpktrecv.o(i.Client_Ctrl)
    Client_Data                              0x08002799   Thumb Code   150  clientpktrecv.o(i.Client_Data)
    Client_Key                               0x08002831   Thumb Code   260  clientpktrecv.o(i.Client_Key)
    Client_Login                             0x0800294d   Thumb Code   140  clientpktrecv.o(i.Client_Login)
    Client_Query                             0x08002a01   Thumb Code    64  clientpktrecv.o(i.Client_Query)
    Client_Status                            0x08002a45   Thumb Code    96  clientpktrecv.o(i.Client_Status)
    Client_Var                               0x08002ab9   Thumb Code   326  clientpktrecv.o(i.Client_Var)
    ETH_DMAClearITPendingBit                 0x08002c1d   Thumb Code     6  stm32f4x7_eth.o(i.ETH_DMAClearITPendingBit)
    ETH_DMAITConfig                          0x08002c29   Thumb Code    18  stm32f4x7_eth.o(i.ETH_DMAITConfig)
    ETH_DMAReceptionCmd                      0x08002c41   Thumb Code    22  stm32f4x7_eth.o(i.ETH_DMAReceptionCmd)
    ETH_DMARxDescChainInit                   0x08002c5d   Thumb Code    74  stm32f4x7_eth.o(i.ETH_DMARxDescChainInit)
    ETH_DMATransmissionCmd                   0x08002cb5   Thumb Code    22  stm32f4x7_eth.o(i.ETH_DMATransmissionCmd)
    ETH_DMATxDescChainInit                   0x08002cd1   Thumb Code    62  stm32f4x7_eth.o(i.ETH_DMATxDescChainInit)
    ETH_DMATxDescChecksumInsertionConfig     0x08002d19   Thumb Code     8  stm32f4x7_eth.o(i.ETH_DMATxDescChecksumInsertionConfig)
    ETH_DeInit                               0x08002d21   Thumb Code    24  stm32f4x7_eth.o(i.ETH_DeInit)
    ETH_FlushTransmitFIFO                    0x08002d4d   Thumb Code    12  stm32f4x7_eth.o(i.ETH_FlushTransmitFIFO)
    ETH_GetCurrentTxBuffer                   0x08002d5d   Thumb Code     8  lan8720.o(i.ETH_GetCurrentTxBuffer)
    ETH_GetRxPktSize                         0x08002d69   Thumb Code    30  stm32f4x7_eth.o(i.ETH_GetRxPktSize)
    ETH_GetSoftwareResetStatus               0x08002d89   Thumb Code    14  stm32f4x7_eth.o(i.ETH_GetSoftwareResetStatus)
    ETH_IRQHandler                           0x08002d9d   Thumb Code    46  lan8720.o(i.ETH_IRQHandler)
    ETH_Init                                 0x08002dd1   Thumb Code   520  stm32f4x7_eth.o(i.ETH_Init)
    ETH_MACAddressConfig                     0x08003011   Thumb Code    22  stm32f4x7_eth.o(i.ETH_MACAddressConfig)
    ETH_MACDMA_Config                        0x0800302d   Thumb Code   134  lan8720.o(i.ETH_MACDMA_Config)
    ETH_MACReceptionCmd                      0x080030b9   Thumb Code    22  stm32f4x7_eth.o(i.ETH_MACReceptionCmd)
    ETH_MACTransmissionCmd                   0x080030d5   Thumb Code    22  stm32f4x7_eth.o(i.ETH_MACTransmissionCmd)
    ETH_Mem_Free                             0x080030f1   Thumb Code    40  lan8720.o(i.ETH_Mem_Free)
    ETH_Mem_Malloc                           0x0800311d   Thumb Code    74  lan8720.o(i.ETH_Mem_Malloc)
    ETH_ReadPHYRegister                      0x0800316d   Thumb Code    80  stm32f4x7_eth.o(i.ETH_ReadPHYRegister)
    ETH_Rx_Packet                            0x080031c5   Thumb Code    80  lan8720.o(i.ETH_Rx_Packet)
    ETH_SoftwareReset                        0x0800321d   Thumb Code    12  stm32f4x7_eth.o(i.ETH_SoftwareReset)
    ETH_Start                                0x0800322d   Thumb Code    34  stm32f4x7_eth.o(i.ETH_Start)
    ETH_StructInit                           0x0800324f   Thumb Code   136  stm32f4x7_eth.o(i.ETH_StructInit)
    ETH_Tx_Packet                            0x080032d9   Thumb Code    60  lan8720.o(i.ETH_Tx_Packet)
    ETH_WritePHYRegister                     0x0800331d   Thumb Code    76  stm32f4x7_eth.o(i.ETH_WritePHYRegister)
    FLYMyAddr                                0x08003371   Thumb Code    30  slinkpktrecv.o(i.FLYMyAddr)
    GPIO_Init                                0x08003399   Thumb Code   120  stm32f4xx_gpio.o(i.GPIO_Init)
    GPIO_PinAFConfig                         0x08003411   Thumb Code    32  stm32f4xx_gpio.o(i.GPIO_PinAFConfig)
    GPIO_ResetBits                           0x08003431   Thumb Code     4  stm32f4xx_gpio.o(i.GPIO_ResetBits)
    GPIO_SetBits                             0x08003435   Thumb Code     4  stm32f4xx_gpio.o(i.GPIO_SetBits)
    GenerateDefPw                            0x08003439   Thumb Code    26  publicfunc.o(i.GenerateDefPw)
    GetHwID                                  0x08003459   Thumb Code    62  publicfunc.o(i.GetHwID)
    HardFault_Handler                        0x080034a5   Thumb Code   106  main.o(i.HardFault_Handler)
    IWDG_Configuration                       0x08003551   Thumb Code    36  publicfunc.o(i.IWDG_Configuration)
    IWDG_Enable                              0x08003575   Thumb Code    10  stm32f4xx_iwdg.o(i.IWDG_Enable)
    IWDG_PeriodCB                            0x08003585   Thumb Code     4  publicfunc.o(i.IWDG_PeriodCB)
    IWDG_ReloadCounter                       0x08003589   Thumb Code    10  stm32f4xx_iwdg.o(i.IWDG_ReloadCounter)
    IWDG_SetPrescaler                        0x08003599   Thumb Code     6  stm32f4xx_iwdg.o(i.IWDG_SetPrescaler)
    IWDG_SetReload                           0x080035a5   Thumb Code     6  stm32f4xx_iwdg.o(i.IWDG_SetReload)
    IWDG_WriteAccessCmd                      0x080035b1   Thumb Code     6  stm32f4xx_iwdg.o(i.IWDG_WriteAccessCmd)
    LAN8720_Init                             0x080035bd   Thumb Code   266  lan8720.o(i.LAN8720_Init)
    LED_Init                                 0x080036d9   Thumb Code    56  led.o(i.LED_Init)
    LWIP_init                                0x08003715   Thumb Code    38  init.o(i.LWIP_init)
    MakeHash33                               0x0800373b   Thumb Code    36  publicfunc.o(i.MakeHash33)
    MemCpy                                   0x0800375f   Thumb Code    36  publicfunc.o(i.MemCpy)
    Mem_Clr                                  0x08003783   Thumb Code     8  lib_mem.o(i.Mem_Clr)
    Mem_Set                                  0x0800378b   Thumb Code    62  lib_mem.o(i.Mem_Set)
    NVIC_Init                                0x080037c9   Thumb Code    96  misc.o(i.NVIC_Init)
    NVIC_PriorityGroupConfig                 0x0800382d   Thumb Code    10  misc.o(i.NVIC_PriorityGroupConfig)
    OSCfg_Init                               0x08003841   Thumb Code     2  os_cfg_app.o(i.OSCfg_Init)
    OSIdleTaskHook                           0x08003845   Thumb Code    12  os_cpu_c.o(i.OSIdleTaskHook)
    OSInit                                   0x08003855   Thumb Code   290  os_core.o(i.OSInit)
    OSInitHook                               0x080039d9   Thumb Code    22  os_cpu_c.o(i.OSInitHook)
    OSIntEnter                               0x080039fd   Thumb Code    22  os_core.o(i.OSIntEnter)
    OSIntExit                                0x08003a1d   Thumb Code   100  os_core.o(i.OSIntExit)
    OSQCreate                                0x08003aa1   Thumb Code   118  os_q.o(i.OSQCreate)
    OSQDel                                   0x08003b29   Thumb Code   256  os_q.o(i.OSQDel)
    OSQFlush                                 0x08003c39   Thumb Code   116  os_q.o(i.OSQFlush)
    OSQPend                                  0x08003cbd   Thumb Code   344  os_q.o(i.OSQPend)
    OSQPost                                  0x08003e25   Thumb Code   146  os_q.o(i.OSQPost)
    OSSched                                  0x08003ec1   Thumb Code    86  os_core.o(i.OSSched)
    OSSchedLock                              0x08003f35   Thumb Code    72  os_core.o(i.OSSchedLock)
    OSSchedUnlock                            0x08003f89   Thumb Code    92  os_core.o(i.OSSchedUnlock)
    OSSemCreate                              0x08003ff1   Thumb Code   104  os_sem.o(i.OSSemCreate)
    OSSemDel                                 0x08004069   Thumb Code   256  os_sem.o(i.OSSemDel)
    OSSemPend                                0x08004179   Thumb Code   298  os_sem.o(i.OSSemPend)
    OSSemPost                                0x080042b5   Thumb Code   118  os_sem.o(i.OSSemPost)
    OSStart                                  0x08004335   Thumb Code    62  os_core.o(i.OSStart)
    OSStatReset                              0x0800438d   Thumb Code   150  os_stat.o(i.OSStatReset)
    OSStatTaskHook                           0x0800444d   Thumb Code    12  os_cpu_c.o(i.OSStatTaskHook)
    OSTaskCreate                             0x0800445d   Thumb Code   400  os_task.o(i.OSTaskCreate)
    OSTaskCreateHook                         0x08004611   Thumb Code    12  os_cpu_c.o(i.OSTaskCreateHook)
    OSTaskDel                                0x08004621   Thumb Code   252  os_task.o(i.OSTaskDel)
    OSTaskDelHook                            0x08004739   Thumb Code    12  os_cpu_c.o(i.OSTaskDelHook)
    OSTaskReturnHook                         0x08004749   Thumb Code    12  os_cpu_c.o(i.OSTaskReturnHook)
    OSTaskSemPend                            0x08004759   Thumb Code   300  os_task.o(i.OSTaskSemPend)
    OSTaskStkChk                             0x08004891   Thumb Code   138  os_task.o(i.OSTaskStkChk)
    OSTaskStkInit                            0x08004925   Thumb Code   310  os_cpu_c.o(i.OSTaskStkInit)
    OSTaskSwHook                             0x08004a61   Thumb Code    72  os_cpu_c.o(i.OSTaskSwHook)
    OSTimeDly                                0x08004ab9   Thumb Code   158  os_time.o(i.OSTimeDly)
    OSTimeDlyHMSM                            0x08004b65   Thumb Code   308  os_time.o(i.OSTimeDlyHMSM)
    OSTimeGet                                0x08004ca9   Thumb Code    24  os_time.o(i.OSTimeGet)
    OSTimeTick                               0x08004cc5   Thumb Code    52  os_time.o(i.OSTimeTick)
    OSTimeTickHook                           0x08004d05   Thumb Code    12  os_cpu_c.o(i.OSTimeTickHook)
    OS_Dbg_Init                              0x08004d15   Thumb Code     2  os_dbg.o(i.OS_Dbg_Init)
    OS_FlagInit                              0x08004d19   Thumb Code    14  os_flag.o(i.OS_FlagInit)
    OS_FlagPost                              0x08004d31   Thumb Code   294  os_flag.o(i.OS_FlagPost)
    OS_FlagTaskRdy                           0x08004e61   Thumb Code    68  os_flag.o(i.OS_FlagTaskRdy)
    OS_IdleTask                              0x08004ea5   Thumb Code    30  os_core.o(i.OS_IdleTask)
    OS_IdleTaskInit                          0x08004ecd   Thumb Code    60  os_core.o(i.OS_IdleTaskInit)
    OS_IntQPost                              0x08004f35   Thumb Code   138  os_int.o(i.OS_IntQPost)
    OS_IntQRePost                            0x08004fe5   Thumb Code   224  os_int.o(i.OS_IntQRePost)
    OS_IntQTask                              0x08005101   Thumb Code   106  os_int.o(i.OS_IntQTask)
    OS_IntQTaskInit                          0x0800517d   Thumb Code   192  os_int.o(i.OS_IntQTaskInit)
    OS_MemInit                               0x08005295   Thumb Code    14  os_mem.o(i.OS_MemInit)
    OS_MsgPoolCreate                         0x080052ad   Thumb Code    48  os_msg.o(i.OS_MsgPoolCreate)
    OS_MsgPoolInit                           0x080052dd   Thumb Code    58  os_msg.o(i.OS_MsgPoolInit)
    OS_MsgQFreeAll                           0x08005325   Thumb Code    48  os_msg.o(i.OS_MsgQFreeAll)
    OS_MsgQGet                               0x08005359   Thumb Code    82  os_msg.o(i.OS_MsgQGet)
    OS_MsgQInit                              0x080053b1   Thumb Code    14  os_msg.o(i.OS_MsgQInit)
    OS_MsgQPut                               0x080053c1   Thumb Code   128  os_msg.o(i.OS_MsgQPut)
    OS_MutexInit                             0x08005445   Thumb Code    14  os_mutex.o(i.OS_MutexInit)
    OS_Pend                                  0x0800545d   Thumb Code    74  os_core.o(i.OS_Pend)
    OS_PendDataInit                          0x080054ad   Thumb Code    48  os_core.o(i.OS_PendDataInit)
    OS_PendDbgNameAdd                        0x080054dd   Thumb Code    46  os_core.o(i.OS_PendDbgNameAdd)
    OS_PendDbgNameRemove                     0x08005525   Thumb Code    22  os_core.o(i.OS_PendDbgNameRemove)
    OS_PendListInit                          0x08005541   Thumb Code    10  os_core.o(i.OS_PendListInit)
    OS_PendListInsertPrio                    0x0800554b   Thumb Code    90  os_core.o(i.OS_PendListInsertPrio)
    OS_PendListRemove                        0x080055a5   Thumb Code    38  os_core.o(i.OS_PendListRemove)
    OS_PendListRemove1                       0x080055cb   Thumb Code    54  os_core.o(i.OS_PendListRemove1)
    OS_PendObjDel                            0x08005601   Thumb Code   128  os_core.o(i.OS_PendObjDel)
    OS_PendObjDel1                           0x08005681   Thumb Code    32  os_core.o(i.OS_PendObjDel1)
    OS_Post                                  0x080056a1   Thumb Code   152  os_core.o(i.OS_Post)
    OS_Post1                                 0x08005739   Thumb Code    38  os_core.o(i.OS_Post1)
    OS_PrioGetHighest                        0x08005761   Thumb Code    32  os_prio.o(i.OS_PrioGetHighest)
    OS_PrioInit                              0x08005785   Thumb Code    18  os_prio.o(i.OS_PrioInit)
    OS_PrioInsert                            0x0800579d   Thumb Code    28  os_prio.o(i.OS_PrioInsert)
    OS_PrioRemove                            0x080057bd   Thumb Code    28  os_prio.o(i.OS_PrioRemove)
    OS_QClr                                  0x080057dd   Thumb Code    40  os_q.o(i.OS_QClr)
    OS_QDbgListAdd                           0x0800580d   Thumb Code    26  os_q.o(i.OS_QDbgListAdd)
    OS_QDbgListRemove                        0x08005831   Thumb Code    36  os_q.o(i.OS_QDbgListRemove)
    OS_QInit                                 0x08005859   Thumb Code    14  os_q.o(i.OS_QInit)
    OS_QPost                                 0x08005871   Thumb Code   196  os_q.o(i.OS_QPost)
    OS_RdyListInit                           0x0800593d   Thumb Code    30  os_core.o(i.OS_RdyListInit)
    OS_RdyListInsert                         0x08005961   Thumb Code    42  os_core.o(i.OS_RdyListInsert)
    OS_RdyListInsertHead                     0x08005991   Thumb Code    52  os_core.o(i.OS_RdyListInsertHead)
    OS_RdyListInsertTail                     0x080059c9   Thumb Code    48  os_core.o(i.OS_RdyListInsertTail)
    OS_RdyListMoveHeadToTail                 0x080059fd   Thumb Code    52  os_core.o(i.OS_RdyListMoveHeadToTail)
    OS_RdyListRemove                         0x08005a31   Thumb Code    78  os_core.o(i.OS_RdyListRemove)
    OS_Sched0                                0x08005a85   Thumb Code    50  os_core.o(i.OS_Sched0)
    OS_SchedLockTimeMeasStart                0x08005ac9   Thumb Code    20  os_core.o(i.OS_SchedLockTimeMeasStart)
    OS_SchedLockTimeMeasStop                 0x08005ae5   Thumb Code    42  os_core.o(i.OS_SchedLockTimeMeasStop)
    OS_SchedRoundRobin                       0x08005b21   Thumb Code    80  os_core.o(i.OS_SchedRoundRobin)
    OS_SemClr                                0x08005b81   Thumb Code    22  os_sem.o(i.OS_SemClr)
    OS_SemDbgListAdd                         0x08005ba5   Thumb Code    26  os_sem.o(i.OS_SemDbgListAdd)
    OS_SemDbgListRemove                      0x08005bc9   Thumb Code    36  os_sem.o(i.OS_SemDbgListRemove)
    OS_SemInit                               0x08005bf1   Thumb Code    14  os_sem.o(i.OS_SemInit)
    OS_SemPost                               0x08005c09   Thumb Code   160  os_sem.o(i.OS_SemPost)
    OS_StatTask                              0x08005cad   Thumb Code   482  os_stat.o(i.OS_StatTask)
    OS_StatTaskInit                          0x08005ed5   Thumb Code   118  os_stat.o(i.OS_StatTaskInit)
    OS_TaskBlock                             0x08005f91   Thumb Code    42  os_core.o(i.OS_TaskBlock)
    OS_TaskDbgListAdd                        0x08005fbd   Thumb Code    30  os_task.o(i.OS_TaskDbgListAdd)
    OS_TaskDbgListRemove                     0x08005fe1   Thumb Code    50  os_task.o(i.OS_TaskDbgListRemove)
    OS_TaskInit                              0x08006019   Thumb Code    18  os_task.o(i.OS_TaskInit)
    OS_TaskInitTCB                           0x08006039   Thumb Code   180  os_task.o(i.OS_TaskInitTCB)
    OS_TaskQPost                             0x080060f9   Thumb Code   222  os_task.o(i.OS_TaskQPost)
    OS_TaskRdy                               0x080061e5   Thumb Code    28  os_core.o(i.OS_TaskRdy)
    OS_TaskResume                            0x08006201   Thumb Code   184  os_task.o(i.OS_TaskResume)
    OS_TaskReturn                            0x080062bd   Thumb Code    20  os_task.o(i.OS_TaskReturn)
    OS_TaskSemPost                           0x080062d5   Thumb Code   260  os_task.o(i.OS_TaskSemPost)
    OS_TaskSuspend                           0x080063e5   Thumb Code   160  os_task.o(i.OS_TaskSuspend)
    OS_TickListInit                          0x0800648d   Thumb Code    34  os_tick.o(i.OS_TickListInit)
    OS_TickListInsert                        0x080064b9   Thumb Code   202  os_tick.o(i.OS_TickListInsert)
    OS_TickListRemove                        0x08006591   Thumb Code    54  os_tick.o(i.OS_TickListRemove)
    OS_TickListResetPeak                     0x080065c9   Thumb Code    30  os_tick.o(i.OS_TickListResetPeak)
    OS_TickListUpdate                        0x080065f1   Thumb Code   304  os_tick.o(i.OS_TickListUpdate)
    OS_TickTask                              0x08006739   Thumb Code    36  os_tick.o(i.OS_TickTask)
    OS_TickTaskInit                          0x08006761   Thumb Code   112  os_tick.o(i.OS_TickTaskInit)
    OS_TmrInit                               0x08006809   Thumb Code   172  os_tmr.o(i.OS_TmrInit)
    OS_TmrLink                               0x0800690d   Thumb Code   140  os_tmr.o(i.OS_TmrLink)
    OS_TmrResetPeak                          0x080069a5   Thumb Code    30  os_tmr.o(i.OS_TmrResetPeak)
    OS_TmrTask                               0x080069cd   Thumb Code   156  os_tmr.o(i.OS_TmrTask)
    OS_TmrUnlink                             0x08006a79   Thumb Code    68  os_tmr.o(i.OS_TmrUnlink)
    RCC_AHB1PeriphClockCmd                   0x08006ac5   Thumb Code    18  stm32f4xx_rcc.o(i.RCC_AHB1PeriphClockCmd)
    RCC_AHB1PeriphResetCmd                   0x08006add   Thumb Code    18  stm32f4xx_rcc.o(i.RCC_AHB1PeriphResetCmd)
    RCC_APB1PeriphClockCmd                   0x08006af5   Thumb Code    18  stm32f4xx_rcc.o(i.RCC_APB1PeriphClockCmd)
    RCC_APB1PeriphResetCmd                   0x08006b0d   Thumb Code    18  stm32f4xx_rcc.o(i.RCC_APB1PeriphResetCmd)
    RCC_APB2PeriphClockCmd                   0x08006b25   Thumb Code    18  stm32f4xx_rcc.o(i.RCC_APB2PeriphClockCmd)
    RCC_APB2PeriphResetCmd                   0x08006b3d   Thumb Code    18  stm32f4xx_rcc.o(i.RCC_APB2PeriphResetCmd)
    RCC_GetClocksFreq                        0x08006b55   Thumb Code   132  stm32f4xx_rcc.o(i.RCC_GetClocksFreq)
    RFS_Debug                                0x08006be5   Thumb Code   138  roomflashsave.o(i.RFS_Debug)
    RFS_Init                                 0x08006e65   Thumb Code    38  roomflashsave.o(i.RFS_Init)
    RebootBoard                              0x08006ead   Thumb Code    24  publicfunc.o(i.RebootBoard)
    RecvPacketFromTerminal                   0x08006ecd   Thumb Code   640  slinkpktrecv.o(i.RecvPacketFromTerminal)
    Rom_ReadPage                             0x08007175   Thumb Code     6  roomflashsave.o(i.Rom_ReadPage)
    Rom_WritePage                            0x0800717b   Thumb Code     6  roomflashsave.o(i.Rom_WritePage)
    SLink_Data                               0x08007181   Thumb Code    66  si4432.o(i.SLink_Data)
    SPI1_Init                                0x080071c5   Thumb Code   180  spi.o(i.SPI1_Init)
    SPI1_ReadWriteByte                       0x08007281   Thumb Code    76  spi.o(i.SPI1_ReadWriteByte)
    SPI2_Init                                0x080072d1   Thumb Code   188  spi.o(i.SPI2_Init)
    SPI2_ReadWriteByte                       0x08007395   Thumb Code    48  spi.o(i.SPI2_ReadWriteByte)
    SPI_Cmd                                  0x080073c9   Thumb Code    20  stm32f4xx_spi.o(i.SPI_Cmd)
    SPI_I2S_GetFlagStatus                    0x080073dd   Thumb Code    14  stm32f4xx_spi.o(i.SPI_I2S_GetFlagStatus)
    SPI_I2S_ReceiveData                      0x080073eb   Thumb Code     4  stm32f4xx_spi.o(i.SPI_I2S_ReceiveData)
    SPI_I2S_SendData                         0x080073ef   Thumb Code     4  stm32f4xx_spi.o(i.SPI_I2S_SendData)
    SPI_Init                                 0x080073f3   Thumb Code    56  stm32f4xx_spi.o(i.SPI_Init)
    SPI_WriteByte                            0x0800742b   Thumb Code    20  spi.o(i.SPI_WriteByte)
    SYSCFG_ETH_MediaInterfaceConfig          0x08007441   Thumb Code     8  stm32f4xx_syscfg.o(i.SYSCFG_ETH_MediaInterfaceConfig)
    Si4432_RxPacket                          0x080076a9   Thumb Code   156  si4432.o(i.Si4432_RxPacket)
    Si4432_SetRssiThred                      0x08007751   Thumb Code    12  si4432.o(i.Si4432_SetRssiThred)
    Si4432_TxPacket                          0x08007849   Thumb Code   312  si4432.o(i.Si4432_TxPacket)
    Si4432_init                              0x080079fd   Thumb Code   404  si4432.o(i.Si4432_init)
    SysTick_CLKSourceConfig                  0x08007c09   Thumb Code    24  misc.o(i.SysTick_CLKSourceConfig)
    SysTick_Handler                          0x08007c21   Thumb Code    28  delay.o(i.SysTick_Handler)
    SystemInit                               0x08007c41   Thumb Code    74  system_stm32f4xx.o(i.SystemInit)
    TIM1_UP_TIM10_IRQHandler                 0x08007c9d   Thumb Code    36  timer.o(i.TIM1_UP_TIM10_IRQHandler)
    TIM3_IRQHandler                          0x08007cc9   Thumb Code    36  timer.o(i.TIM3_IRQHandler)
    TIM7_IRQHandler                          0x08007cf5   Thumb Code    54  timer.o(i.TIM7_IRQHandler)
    TIM7_Int_Init                            0x08007d35   Thumb Code    86  timer.o(i.TIM7_Int_Init)
    TIM_ClearITPendingBit                    0x08007d91   Thumb Code     6  stm32f4xx_tim.o(i.TIM_ClearITPendingBit)
    TIM_Cmd                                  0x08007d97   Thumb Code    20  stm32f4xx_tim.o(i.TIM_Cmd)
    TIM_GetITStatus                          0x08007dab   Thumb Code    24  stm32f4xx_tim.o(i.TIM_GetITStatus)
    TIM_ITConfig                             0x08007dc3   Thumb Code    16  stm32f4xx_tim.o(i.TIM_ITConfig)
    TIM_SetCounter                           0x08007dd3   Thumb Code     4  stm32f4xx_tim.o(i.TIM_SetCounter)
    TIM_TimeBaseInit                         0x08007dd9   Thumb Code    96  stm32f4xx_tim.o(i.TIM_TimeBaseInit)
    USART1_IRQHandler                        0x08007e55   Thumb Code     2  usart.o(i.USART1_IRQHandler)
    USART2_IRQHandler                        0x08007e59   Thumb Code    92  usart2.o(i.USART2_IRQHandler)
    USART_Cmd                                0x08007ec5   Thumb Code    20  stm32f4xx_usart.o(i.USART_Cmd)
    USART_GetFlagStatus                      0x08007ed9   Thumb Code    14  stm32f4xx_usart.o(i.USART_GetFlagStatus)
    USART_ITConfig                           0x08007ee7   Thumb Code    48  stm32f4xx_usart.o(i.USART_ITConfig)
    USART_Init                               0x08007f19   Thumb Code   164  stm32f4xx_usart.o(i.USART_Init)
    USART_ReceiveData                        0x08007fc5   Thumb Code     8  stm32f4xx_usart.o(i.USART_ReceiveData)
    USART_SendData                           0x08007fcd   Thumb Code     8  stm32f4xx_usart.o(i.USART_SendData)
    W25QXX_Erase_Sector                      0x08007fd5   Thumb Code    64  w25qxx.o(i.W25QXX_Erase_Sector)
    W25QXX_Init                              0x08008019   Thumb Code    84  w25qxx.o(i.W25QXX_Init)
    W25QXX_Read                              0x08008079   Thumb Code    76  w25qxx.o(i.W25QXX_Read)
    W25QXX_ReadID                            0x080080c9   Thumb Code    62  w25qxx.o(i.W25QXX_ReadID)
    W25QXX_ReadSR                            0x0800810d   Thumb Code    32  w25qxx.o(i.W25QXX_ReadSR)
    W25QXX_Wait_Busy                         0x08008131   Thumb Code    12  w25qxx.o(i.W25QXX_Wait_Busy)
    W25QXX_Write                             0x0800813d   Thumb Code   166  w25qxx.o(i.W25QXX_Write)
    W25QXX_Write_Enable                      0x080081e5   Thumb Code    26  w25qxx.o(i.W25QXX_Write_Enable)
    W25QXX_Write_NoCheck                     0x08008205   Thumb Code    62  w25qxx.o(i.W25QXX_Write_NoCheck)
    W25QXX_Write_Page                        0x08008245   Thumb Code    82  w25qxx.o(i.W25QXX_Write_Page)
    __ARM_fpclassify                         0x0800829d   Thumb Code    48  fpclassify.o(i.__ARM_fpclassify)
    _is_digit                                0x080082cd   Thumb Code    14  __printf_wp.o(i._is_digit)
    _sys_exit                                0x080082db   Thumb Code     2  usart.o(i._sys_exit)
    arp_timer                                0x08008381   Thumb Code    24  timers.o(i.arp_timer)
    delay_init                               0x08008399   Thumb Code    66  delay.o(i.delay_init)
    delay_ms                                 0x080083e9   Thumb Code    56  delay.o(i.delay_ms)
    delay_ostimedly                          0x0800842d   Thumb Code    12  delay.o(i.delay_ostimedly)
    delay_us                                 0x08008439   Thumb Code    62  delay.o(i.delay_us)
    dhcp_arp_reply                           0x0800847d   Thumb Code    42  dhcp.o(i.dhcp_arp_reply)
    dhcp_coarse_tmr                          0x0800866d   Thumb Code    90  dhcp.o(i.dhcp_coarse_tmr)
    dhcp_fine_tmr                            0x08008a35   Thumb Code    46  dhcp.o(i.dhcp_fine_tmr)
    dhcp_release                             0x08009191   Thumb Code   160  dhcp.o(i.dhcp_release)
    dhcp_renew                               0x08009235   Thumb Code   140  dhcp.o(i.dhcp_renew)
    dhcp_start                               0x080093c1   Thumb Code   168  dhcp.o(i.dhcp_start)
    dhcp_stop                                0x080094bd   Thumb Code    64  dhcp.o(i.dhcp_stop)
    dhcp_timer_coarse                        0x080095dd   Thumb Code    24  timers.o(i.dhcp_timer_coarse)
    dhcp_timer_fine                          0x080095f5   Thumb Code    24  timers.o(i.dhcp_timer_fine)
    do_bind                                  0x0800960d   Thumb Code    82  api_msg.o(i.do_bind)
    do_close                                 0x0800965f   Thumb Code    86  api_msg.o(i.do_close)
    do_delconn                               0x080097b1   Thumb Code   156  api_msg.o(i.do_delconn)
    do_listen                                0x0800984d   Thumb Code   170  api_msg.o(i.do_listen)
    do_newconn                               0x080098fd   Thumb Code    32  api_msg.o(i.do_newconn)
    do_recv                                  0x0800991d   Thumb Code    68  api_msg.o(i.do_recv)
    do_write                                 0x08009961   Thumb Code    70  api_msg.o(i.do_write)
    etharp_cleanup_netif                     0x08009ca1   Thumb Code    42  etharp.o(i.etharp_cleanup_netif)
    etharp_output                            0x08009dfd   Thumb Code   242  etharp.o(i.etharp_output)
    etharp_query                             0x08009f41   Thumb Code   232  etharp.o(i.etharp_query)
    etharp_request                           0x0800a0d1   Thumb Code    32  etharp.o(i.etharp_request)
    etharp_tmr                               0x0800a115   Thumb Code    66  etharp.o(i.etharp_tmr)
    ethernet_input                           0x0800a1d9   Thumb Code   138  etharp.o(i.ethernet_input)
    ethernetif_init                          0x0800a269   Thumb Code    34  ethernetif.o(i.ethernetif_init)
    ethernetif_input                         0x0800a29d   Thumb Code   116  ethernetif.o(i.ethernetif_input)
    fputc                                    0x0800a315   Thumb Code    14  usart.o(i.fputc)
    icmp_dest_unreach                        0x0800a329   Thumb Code     8  icmp.o(i.icmp_dest_unreach)
    icmp_input                               0x0800a331   Thumb Code   242  icmp.o(i.icmp_input)
    icmp_time_exceeded                       0x0800a491   Thumb Code     8  icmp.o(i.icmp_time_exceeded)
    inet_chksum                              0x0800a499   Thumb Code    12  inet_chksum.o(i.inet_chksum)
    inet_chksum_pbuf                         0x0800a4a5   Thumb Code    72  inet_chksum.o(i.inet_chksum_pbuf)
    ip4_addr_isbroadcast                     0x0800a4ed   Thumb Code    46  ip_addr.o(i.ip4_addr_isbroadcast)
    ip_frag                                  0x0800a51d   Thumb Code   352  ip_frag.o(i.ip_frag)
    ip_input                                 0x0800a689   Thumb Code   366  ip.o(i.ip_input)
    ip_output                                0x0800a801   Thumb Code    52  ip.o(i.ip_output)
    ip_output_if                             0x0800a835   Thumb Code   164  ip.o(i.ip_output_if)
    ip_reass                                 0x0800a8dd   Thumb Code   414  ip_frag.o(i.ip_reass)
    ip_reass_timer                           0x0800ac71   Thumb Code    24  timers.o(i.ip_reass_timer)
    ip_reass_tmr                             0x0800ac89   Thumb Code    40  ip_frag.o(i.ip_reass_tmr)
    ip_route                                 0x0800acb5   Thumb Code    54  ip.o(i.ip_route)
    ip_set                                   0x0800acf5   Thumb Code    68  lwip.o(i.ip_set)
    led_task                                 0x0800ad51   Thumb Code   540  task.o(i.led_task)
    lwip_comm_delete_next_timeout            0x0800b0c9   Thumb Code    50  lwip.o(i.lwip_comm_delete_next_timeout)
    lwip_comm_destroy                        0x0800b115   Thumb Code   180  lwip.o(i.lwip_comm_destroy)
    lwip_comm_dhcp_creat                     0x0800b241   Thumb Code   106  lwip.o(i.lwip_comm_dhcp_creat)
    lwip_comm_dhcp_delete                    0x0800b2c9   Thumb Code    12  lwip.o(i.lwip_comm_dhcp_delete)
    lwip_comm_init                           0x0800b2d9   Thumb Code   168  lwip.o(i.lwip_comm_init)
    lwip_comm_mem_free                       0x0800b3a5   Thumb Code    36  lwip.o(i.lwip_comm_mem_free)
    lwip_comm_mem_malloc                     0x0800b3d5   Thumb Code    68  lwip.o(i.lwip_comm_mem_malloc)
    lwip_dhcp_task                           0x0800b425   Thumb Code   238  lwip.o(i.lwip_dhcp_task)
    lwip_htonl                               0x0800b639   Thumb Code     4  def.o(i.lwip_htonl)
    lwip_htons                               0x0800b63d   Thumb Code     4  def.o(i.lwip_htons)
    lwip_ntohl                               0x0800b641   Thumb Code     4  def.o(i.lwip_ntohl)
    lwip_ntohs                               0x0800b645   Thumb Code     4  def.o(i.lwip_ntohs)
    lwip_pkt_handle                          0x0800b649   Thumb Code     6  lwip.o(i.lwip_pkt_handle)
    lwip_socket_init                         0x0800b655   Thumb Code     2  sockets.o(i.lwip_socket_init)
    main                                     0x0800b6ad   Thumb Code    34  main.o(i.main)
    mem_free                                 0x0800b6d1   Thumb Code    72  mem.o(i.mem_free)
    mem_init                                 0x0800b721   Thumb Code    52  mem.o(i.mem_init)
    mem_malloc                               0x0800b75d   Thumb Code   188  mem.o(i.mem_malloc)
    mem_perused                              0x0800b821   Thumb Code    48  malloc.o(i.mem_perused)
    mem_trim                                 0x0800b859   Thumb Code   224  mem.o(i.mem_trim)
    memp_free                                0x0800b941   Thumb Code    36  memp.o(i.memp_free)
    memp_get_memorysize                      0x0800b969   Thumb Code     6  memp.o(i.memp_get_memorysize)
    memp_init                                0x0800b971   Thumb Code    80  memp.o(i.memp_init)
    memp_malloc                              0x0800b9cd   Thumb Code    52  memp.o(i.memp_malloc)
    myfree                                   0x0800ba61   Thumb Code    86  malloc.o(i.myfree)
    mymalloc                                 0x0800bac5   Thumb Code    84  malloc.o(i.mymalloc)
    mymem_free                               0x0800bb25   Thumb Code    80  malloc.o(i.mymem_free)
    mymem_init                               0x0800bb7d   Thumb Code    52  malloc.o(i.mymem_init)
    mymem_malloc                             0x0800bbb9   Thumb Code   132  malloc.o(i.mymem_malloc)
    mymemset                                 0x0800bc45   Thumb Code    12  malloc.o(i.mymemset)
    netbuf_delete                            0x0800bc51   Thumb Code    34  netbuf.o(i.netbuf_delete)
    netconn_accept                           0x0800bc75   Thumb Code   164  api_lib.o(i.netconn_accept)
    netconn_alloc                            0x0800bdbd   Thumb Code   134  api_msg.o(i.netconn_alloc)
    netconn_bind                             0x0800be45   Thumb Code    72  api_lib.o(i.netconn_bind)
    netconn_close                            0x0800beed   Thumb Code     6  api_lib.o(i.netconn_close)
    netconn_delete                           0x0800bf9d   Thumb Code    32  api_lib.o(i.netconn_delete)
    netconn_free                             0x0800c051   Thumb Code    30  api_msg.o(i.netconn_free)
    netconn_listen_with_backlog              0x0800c071   Thumb Code    66  api_lib.o(i.netconn_listen_with_backlog)
    netconn_new_with_proto_and_callback      0x0800c119   Thumb Code    68  api_lib.o(i.netconn_new_with_proto_and_callback)
    netconn_recv                             0x0800c161   Thumb Code   176  api_lib.o(i.netconn_recv)
    netconn_write_partly                     0x0800c449   Thumb Code   164  api_lib.o(i.netconn_write_partly)
    netif_add                                0x0800c571   Thumb Code    70  netif.o(i.netif_add)
    netif_init                               0x0800c5bd   Thumb Code     2  netif.o(i.netif_init)
    netif_remove                             0x0800c5c1   Thumb Code    68  netif.o(i.netif_remove)
    netif_set_addr                           0x0800c609   Thumb Code    32  netif.o(i.netif_set_addr)
    netif_set_default                        0x0800c629   Thumb Code     6  netif.o(i.netif_set_default)
    netif_set_down                           0x0800c635   Thumb Code    26  netif.o(i.netif_set_down)
    netif_set_gw                             0x0800c64f   Thumb Code     8  netif.o(i.netif_set_gw)
    netif_set_ipaddr                         0x0800c659   Thumb Code    96  netif.o(i.netif_set_ipaddr)
    netif_set_netmask                        0x0800c6c1   Thumb Code     8  netif.o(i.netif_set_netmask)
    netif_set_up                             0x0800c6c9   Thumb Code    32  netif.o(i.netif_set_up)
    pbuf_alloc                               0x0800c6e9   Thumb Code   276  pbuf.o(i.pbuf_alloc)
    pbuf_alloced_custom                      0x0800c7fd   Thumb Code    84  pbuf.o(i.pbuf_alloced_custom)
    pbuf_cat                                 0x0800c851   Thumb Code    54  pbuf.o(i.pbuf_cat)
    pbuf_chain                               0x0800c8fd   Thumb Code    18  pbuf.o(i.pbuf_chain)
    pbuf_clen                                0x0800c90f   Thumb Code    18  pbuf.o(i.pbuf_clen)
    pbuf_copy                                0x0800c921   Thumb Code   198  pbuf.o(i.pbuf_copy)
    pbuf_copy_partial                        0x0800ca91   Thumb Code   126  pbuf.o(i.pbuf_copy_partial)
    pbuf_free                                0x0800cb91   Thumb Code    96  pbuf.o(i.pbuf_free)
    pbuf_header                              0x0800cbf1   Thumb Code   110  pbuf.o(i.pbuf_header)
    pbuf_realloc                             0x0800ccbd   Thumb Code    78  pbuf.o(i.pbuf_realloc)
    pbuf_ref                                 0x0800cd0b   Thumb Code    26  pbuf.o(i.pbuf_ref)
    raw_bind                                 0x0800ce5d   Thumb Code    10  raw.o(i.raw_bind)
    raw_input                                0x0800ce69   Thumb Code   104  raw.o(i.raw_input)
    raw_new                                  0x0800cedd   Thumb Code    38  raw.o(i.raw_new)
    raw_recv                                 0x0800cf09   Thumb Code     6  raw.o(i.raw_recv)
    raw_remove                               0x0800cf11   Thumb Code    40  raw.o(i.raw_remove)
    run_init                                 0x0800d09d   Thumb Code   186  task.o(i.run_init)
    slink_client_init                        0x0800d23d   Thumb Code   242  task.o(i.slink_client_init)
    slink_client_task                        0x0800d369   Thumb Code   154  task.o(i.slink_client_task)
    slink_svr_task                           0x0800d431   Thumb Code   246  task.o(i.slink_svr_task)
    sys_arch_mbox_fetch                      0x0800d57d   Thumb Code   130  sys_arch.o(i.sys_arch_mbox_fetch)
    sys_arch_mbox_tryfetch                   0x0800d605   Thumb Code     6  sys_arch.o(i.sys_arch_mbox_tryfetch)
    sys_arch_sem_wait                        0x0800d60b   Thumb Code    80  sys_arch.o(i.sys_arch_sem_wait)
    sys_init                                 0x0800d65b   Thumb Code     2  sys_arch.o(i.sys_init)
    sys_mbox_free                            0x0800d65d   Thumb Code    22  sys_arch.o(i.sys_mbox_free)
    sys_mbox_new                             0x0800d675   Thumb Code    32  sys_arch.o(i.sys_mbox_new)
    sys_mbox_post                            0x0800d6a1   Thumb Code    80  sys_arch.o(i.sys_mbox_post)
    sys_mbox_set_invalid                     0x0800d6f5   Thumb Code    24  sys_arch.o(i.sys_mbox_set_invalid)
    sys_mbox_trypost                         0x0800d70d   Thumb Code    48  sys_arch.o(i.sys_mbox_trypost)
    sys_mbox_valid                           0x0800d741   Thumb Code    22  sys_arch.o(i.sys_mbox_valid)
    sys_sem_free                             0x0800d75d   Thumb Code    12  sys_arch.o(i.sys_sem_free)
    sys_sem_new                              0x0800d769   Thumb Code    26  sys_arch.o(i.sys_sem_new)
    sys_sem_set_invalid                      0x0800d791   Thumb Code    24  sys_arch.o(i.sys_sem_set_invalid)
